:100000000C9415030C943D030C943D030C943D0398
:100010000C943D030C943D030C943D030C943D0360
:100020000C943D030C943D030C943D030C943D0350
:100030000C943D030C943D030C943D030C943D0340
:100040000C9457160C943D030C941F0E0C94F90D50
:100050000C943D030C943D030C943D030C943D0320
:100060000C94C80E0C943D03EF03038002CF0300F1
:10007000C130ED0464031281E803850078CB0539B3
:100080002C003402F70120EA020000C00123C10164
:1000900010C5023E28C701863601483701003A01E3
:1000A00055B1020018B603088227F20100260101AB
:1000B000E00F0F312B0C0E084EF1370710030E091D
:1000C00000E10F000E1403110731C148080F0C3175
:1000D000360F118029800000000000240027002A2C
:1000E00000000000080002010000030407000000F7
:1000F000000000000000000000003E5B4F5B3E3E41
:100100006B4F6B3E1C3E7C3E1C183C7E3C181C57C3
:100110007D571C1C5E7F5E1C00183C1800FFE7C367
:10012000E7FF0018241800FFE7DBE7FF30483A0636
:100130000E2629792926407F050507407F05253FA2
:100140005A3CE73C5A7F3E1C1C08081C1C3E7F148E
:10015000227F22145F5F005F5F06097F017F0066D8
:1001600089956A606060606094A2FFA29408047E32
:10017000040810207E201008082A1C08081C2A08E1
:10018000081E101010100C1E0C1E0C30383E38309B
:10019000060E3E0E06000000000000005F0000009A
:1001A00007000700147F147F14242A7F2A122313C8
:1001B00008646236495620500008070300001C22DC
:1001C00041000041221C002A1C7F1C2A08083E080E
:1001D000080080703000080808080800006060000F
:1001E00020100804023E5149453E00427F40007203
:1001F000494949462141494D331814127F1027457A
:100200004545393C4A494931412111090736494997
:100210004936464949291E000014000000403400B8
:10022000000008142241141414141400412214086C
:1002300002015909063E415D594E7C1211127C7F24
:10024000494949363E414141227F4141413E7F4932
:100250004949417F090909013E414151737F08081D
:10026000087F00417F41002040413F017F08142268
:10027000417F404040407F021C027F7F0408107F86
:100280003E4141413E7F090909063E4151215E7FC1
:1002900009192946264949493203017F01033F4094
:1002A00040403F1F2040201F3F4038403F6314081C
:1002B000146303047804036159494D43007F4141AD
:1002C000410204081020004141417F040201020460
:1002D0004040404040000307080020545478407FCD
:1002E000284444383844444428384444287F385407
:1002F00054541800087E090218A4A49C787F0804AE
:10030000047800447D40002040403D007F10284498
:100310000000417F40007C047804787C0804047865
:100320003844444438FC1824241818242418FC7C2D
:1003300008040408485454542404043F44243C4012
:1003400040207C1C2040201C3C4030403C44281075
:1003500028444C9090907C4464544C4400083641AE
:10036000000000770000004136080002010204028C
:100370003C2623263C1EA1A161123A4040207A3837
:100380005454555921555579412254547842215598
:1003900054784020545579400C1E527212395555EC
:1003A0005559395454545939555454580000457CC2
:1003B000410002457D420001457C407D1211127DC5
:1003C000F0282528F07C545545002054547C547C5A
:1003D0000A097F4932494949323A4444443A324A47
:1003E0004848303A4141217A3A42402078009DA065
:1003F000A07D3D4242423D3D4040403D3C24FF24E3
:1004000024487E4943662B2FFC2F2BFF0929F62019
:10041000C0887E090320545479410000447D413056
:1004200048484A32384040227A007A0A0A727D0DE2
:1004300019317D2629292F28262929292630484D9A
:100440004020380808080808080808382F10C8ACE9
:10045000BA2F102834FA00007B000008142A142256
:1004600022142A14085500550055AA55AA55AAFF6A
:1004700055FF55FF000000FF00101010FF0014147E
:1004800014FF001010FF00FF1010F010F0141414EF
:10049000FC001414F700FF0000FF00FF1414F40424
:1004A000FC141417101F10101F101F1414141F0019
:1004B000101010F0000000001F101010101F10107E
:1004C0001010F010000000FF10101010101010108D
:1004D00010FF10000000FF140000FF00FF00001FCD
:1004E00010170000FC04F414141710171414F4046B
:1004F000F40000FF00F714141414141414F700F798
:10050000141414171410101F101F141414F41410C2
:1005100010F010F000001F101F0000001F1400005A
:1005200000FC140000F010F01010FF10FF14141461
:10053000FF141010101F00000000F010FFFFFFFF5D
:10054000FFF0F0F0F0F0FFFFFF0000000000FFFF01
:100550000F0F0F0F0F3844443844FC4A4A4A347E88
:1005600002020606027E027E026355494163384458
:10057000443C04407E201E2006027E020299A5E72C
:10058000A5991C2A492A1C4C7201724C304A4D4DC7
:10059000303048784830BC625A463D3E49494900AF
:1005A0007E0101017E2A2A2A2A2A44445F444440CB
:1005B000514A444040444A51400000FF0103E0805A
:1005C000FF000008086B6B083612362436060F0948
:1005D0000F06000018180000001010003040FF0146
:1005E00001001F01011E00191D1712003C3C3C3C7C
:1005F00000000000000102040810204080010204F5
:100600000810200102040810200000000025002826
:10061000002B000404040404040404020202020285
:1006200002030303030303003F1811241FBECFEF8F
:10063000D8E0DEBFCDBF11E0A0E0B1E0E6E8F2E334
:1006400002C005900D92A43DB107D9F723E0A4EDB7
:10065000B1E001C01D92AE3CB207E1F713E0C5E185
:10066000D3E004C02197FE010E943619C431D1079E
:10067000C9F70E94B5160C9441190C940000089516
:1006800080E090E008951F93CF93DF93EC01162F45
:10069000E881F9810284F385E02D0995112311F099
:1006A0006DAD01C06EADCE010E944A10E881F981A6
:1006B0000688F789E02DCE01DF91CF911F91099433
:1006C0008F929F92AF92BF92CF92DF92EF92FF9262
:1006D0000F931F93CF93DF935C014B016A01E901F4
:1006E00077FD53C0DC0118968D919C91199768177E
:1006F00079070CF04AC0209709F447C037FF07C0BC
:10070000C9010196C80ED91ED195C195D109F5012F
:1007100082859385C816D906C4F5A6014C0F5D1FC6
:100720009A012150310937FD30C0D7FE03C0EA01DC
:10073000C12CD12C281739071CF0EC01CC19DD098C
:10074000D501ED91FC910284F385E02DC501099559
:1007500078018E0121E030E0A601B401C5010E94BC
:10076000EC12D501ED91FC910688F789E02DC501C9
:10077000DF91CF911F910F91FF90EF90DF90CF907D
:10078000BF90AF909F908F900994DF91CF911F9170
:100790000F91FF90EF90DF90CF90BF90AF909F9020
:1007A0008F9008958F929F92AF92BF92CF92DF92D7
:1007B000EF92FF920F931F93CF93DF935C016B0136
:1007C0004A01E90157FD53C0DC011A968D919C91B5
:1007D0001B97481759070CF04AC0209709F447C0E7
:1007E00037FF07C0C9010196C80ED91ED195C19522
:1007F000D109F50180859185C816D906C4F5A601F1
:100800004C0F5D1F9A012150310937FD30C0D7FED2
:1008100003C0EA01C12CD12C281739071CF0EC01C8
:10082000CC19DD09D501ED91FC910284F385E02D11
:10083000C5010995780101E010E09E01A401B6010F
:10084000C5010E94EC12D501ED91FC910688F78953
:10085000E02DC501DF91CF911F910F91FF90EF9097
:10086000DF90CF90BF90AF909F908F900994DF91D1
:10087000CF911F910F91FF90EF90DF90CF90BF909D
:10088000AF909F908F9008958F929F92AF92BF925A
:10089000CF92DF92EF92FF920F931F93CF93DF934C
:1008A0004C016B015A01E901209709F46CC0011554
:1008B000110509F468C037FF07C0C9010196C80EC9
:1008C000D91ED195C195D109F401A085B185CA166B
:1008D000DB060CF058C017FF07C0C8010196A80E30
:1008E000B91E119501951109F40182859385A81609
:1008F000B9060CF048C0F601EC0FFD1FAF014150E6
:10090000510957FD40C0B501600F711F9B01215077
:10091000310937FD38C0D7FE03C0EF01C12CD12CFF
:10092000B7FE03C08B01A12CB12C4A175B071CF04A
:10093000ED01CC19DD09281739071CF08C010A19C3
:100940001B09D401ED91FC910284F385E02DC401D3
:1009500009959E01A501B601C4010E94EC12D401C3
:10096000ED91FC910688F789E02DC401DF91CF91CC
:100970001F910F91FF90EF90DF90CF90BF90AF90BD
:100980009F908F900994DF91CF911F910F91FF90CD
:10099000EF90DF90CF90BF90AF909F908F90089591
:1009A000EF92FF920F931F93CF93DF9377FD34C0A5
:1009B000DC011896ED91FC9119976E177F0764F58D
:1009C0002115310549F137FF07C0F90131964E0F66
:1009D0005F1F319521953109DC011A96ED91FC914B
:1009E0001B974E175F07C4F4EA01C20FD31FDE0145
:1009F0001197B7FD11C057FF03C09E0140E050E0C2
:100A0000AE17BF071CF09F01241B350B780189012D
:100A100021E030E00E94EC12DF91CF911F910F9105
:100A2000FF90EF900895EF92FF920F931F93CF9353
:100A3000DF9357FD33C0DC011A96ED91FC911B97B3
:100A40004E175F075CF52115310541F137FF07C0EF
:100A5000F90131966E0F7F1F319521953109DC0127
:100A60001896ED91FC9119976E177F07BCF4EB0176
:100A7000C20FD31FDE011197B7FD10C077FF03C06F
:100A80009E0160E070E0AE17BF071CF09F01261BBF
:100A9000370B780101E010E00E94EC12DF91CF915A
:100AA0001F910F91FF90EF9008958F929F92AF92B8
:100AB000BF92CF92DF92EF92FF920F931F93CF934B
:100AC000DF9347012115310509F44DC001151105CA
:100AD00009F449C037FF07C0F90131966E0F7F1F37
:100AE000319521953109DC011896AD90BC9019978C
:100AF0006A157B05C4F517FF07C0F80131964E0F44
:100B00005F1F119501951109DC011A96ED91FC9179
:100B10001B974E175F073CF56B01C20ED31EE60113
:100B20002197D7FD20C07A01E00EF11ED701119761
:100B3000B7FD19C077FF03C0960160E070E057FF72
:100B400003C0870140E050E0CA15DB051CF09501A9
:100B5000261B370BAE17BF071CF08F01041B150BAC
:100B600074010E94EC12DF91CF911F910F91FF90C1
:100B7000EF90DF90CF90BF90AF909F908F900895AF
:100B8000AF92BF92CF92DF92EF92FF920F931F939B
:100B9000CF93DF93EC0177FD38C08885998568177E
:100BA00079079CF557FD31C08A859B854817590701
:100BB00064F569017A015B01E881F9810284F385BA
:100BC000E02DCE010995E881F98102A4F3A5E02D7D
:100BD00001E010E021E030E0A701B501CE01099568
:100BE000B601CE010E940410E881F9810688F789D8
:100BF000E02DCE01DF91CF911F910F91FF90EF90EB
:100C0000DF90CF90BF90AF900994DF91CF911F916B
:100C10000F91FF90EF90DF90CF90BF90AF9008952D
:100C2000EF92FF920F931F93CF93DF93EC0177FD29
:100C300022C08885998568177907ECF457FD1BC099
:100C40008A859B8548175907B4F47901E881F981B1
:100C500002A4F3A5E02D01E010E021E030E0CE0198
:100C60000995B701CE01DF91CF911F910F91FF90B0
:100C7000EF900C940410DF91CF911F910F91FF9092
:100C8000EF900895AF92BF92CF92DF92EF92FF92D2
:100C90000F931F93CF93DF93EC015B016A01215007
:100CA00031097901E60EF71E01501109040F151FD5
:100CB00080910601909107016817790739F48091B6
:100CC000040190910501E816F906A1F06AE2CE014F
:100CD0000E944A10B501CE010E940410B701CE0156
:100CE0000E940410B0920701A0920601F092050143
:100CF000E09204018091020190910301C816D90687
:100D000039F4809100019091010108171907A1F0B1
:100D10006BE2CE010E944A10B601CE010E9404107F
:100D2000B801CE010E940410D0920301C0920201CA
:100D300010930101009300016CE2CE01DF91CF918D
:100D40001F910F91FF90EF90DF90CF90BF90AF90E9
:100D50000C944A10611102C060E201C061E220E01F
:100D600040E050E00C947D12CF92DF92EF92FF9220
:100D70000F931F93CF93DF93EC016A017B01452B07
:100D8000462B472B31F4C12C42E1D42E4AE7E42E06
:100D9000F12C8FA987FD07C061E00E941B1661E05E
:100DA0008FA90E94CE1561E088AD0E941B1661E0FC
:100DB00088AD0E94CE158DA9811152C040E052E14C
:100DC0006AE770E090E0C416D506E606F70640F440
:100DD00076956795579547959F5F9630A1F797E071
:100DE00081E08927982F906A969599A381708AA3AC
:100DF0001BA21CA21DA21EA21FB7F8948091D401B1
:100E0000811127C0EDE1F6E08491EFEFF5E09491D8
:100E1000E82FF0E0EE0FFF1FE952FF4FA591B491CC
:100E2000EC91E92321F461E08AE00E94CE1561E0B3
:100E30008AE00E941B168CB580618CBD8CB58064E5
:100E40008CBD61E08DE00E941B1661E08BE00E948A
:100E50001B168091D4018F5F8093D4011FBF4BC0BC
:100E60008130B9F461E08AA50E941B1660E08AA572
:100E70000E94CE1561E08CA50E941B1660E08CA537
:100E80000E94CE158BA587FD36C060E00E941B1620
:100E900032C003E116E0F12CF8018491E82FF0E074
:100EA000EE0FFF1FE75FF94F859194912F8D38A1C9
:100EB0002817390741F461E08F2D0E941B1660E06E
:100EC0008F2D0E94CE15F3940F5F1F4FF4E1FF1298
:100ED000E3CF61E08EA50E941B1661E08EA50E9403
:100EE000CE158FA587FD07C061E00E941B1661E04B
:100EF0008FA50E94CE158EA987FD2AC061E00E94B1
:100F00001B1661E08EA90E94CE152FEF81EE94E0B2
:100F1000215080409040E1F700C0000060E08EA9C1
:100F20000E94CE15EFEFF1EE24E0E150F0402040BA
:100F3000E1F700C0000061E08EA90E94CE158FEF9E
:100F400093ECE9E081509040E040E1F700C0000000
:100F50008EA987FF10C020E040E050E061E0CE01A4
:100F60000E947D12FFEF22E587E0F1502040804093
:100F7000E1F700C00000E8E6F0E0CF0101966491DF
:100F80006623E1F08F010E5F1F4FFC01F490FF2DEF
:100F9000FF77EF2E2F2FA801CE010E947D12F801BE
:100FA000EE0DF11DF7FEE9CF2FEF82E597E021501E
:100FB00080409040E1F700C00000DFCF80EF90E07C
:100FC0009987888780E491E09B878A87DF91CF911A
:100FD0001F910F91FF90EF90DF90CF900895FC014B
:100FE00085A9811105C06EBD0DB407FEFDCF089522
:100FF0008130E1F488E0A1A1B2A12C9167FF03C088
:1010000095A1922B02C096A192239C93A3A1B4A177
:101010002C9197A1922B9C93660FA3A1B4A12C9124
:1010200090A592239C93815031F70895A78DB0A18C
:101030006C93CF010C94F60FFC0185A9811104C0BB
:1010400091A182A19CBD8DBD0895CF93DF93EC014A
:101050000E941C088FA987FD06C0EB8DFC8D908136
:101060008AA989238083DF91CF9108950895FC0197
:1010700087A987FD06C0A38DB48D9C9181A9892B7A
:101080008C9308950F931F93CF93DF931F92CDB747
:10109000DEB78C016370DC0156966C935697623014
:1010A00059F06330C9F0613029F088E4898380EF1A
:1010B00090E007C088E211C088E8898380EF90E063
:1010C000D80119969C938E93189780E491E01B9613
:1010D0009C938E931A970BC088EE898380E491E0ED
:1010E000F8019187808780EF90E093878287C8011D
:1010F0000E941C08D801D7968C91D79787FD09C00C
:101100005B96ED91FC915C979081D2968C918923AE
:101110008083D8015D96ED91FC915E979081D49685
:101120008C918923808366E3C8010E94EF07D80170
:101130005D96ED91FC915E979081D3968C91D397BB
:10114000892B8083D5968C91823029F06981C801E2
:101150000E94EF0709C0F80180A98823B9F36981CB
:101160007A81C8010E940410D801D7968C91D79734
:1011700087FD09C05B96ED91FC915C979081D196BB
:101180008C91892B80830F90DF91CF911F910F91CC
:101190000895CF92DF92EF92FF920F931F93CF9318
:1011A000DF936C017A018B01C0E0D0E0CE15DF0542
:1011B00081F0D8016D918D01D601ED91FC910190E6
:1011C000F081E02DC6010995892B11F02196EECF13
:1011D0007E01C701DF91CF911F910F91FF90EF909A
:1011E000DF90CF900895FC01538D448D252F30E082
:1011F000842F90E0821B930B541710F0CF96089524
:1012000001970895FC01918D828D981761F0828D70
:10121000DF01A80FB11D5D968C91928D9F5F9F732A
:10122000928F90E008958FEF9FEF0895FC01918DCC
:10123000828D981731F0828DE80FF11D858D90E039
:1012400008958FEF9FEF0895FC01918D228D892FD6
:1012500090E0805C9F4F821B91098F7399270895BE
:10126000FC01848DDF01A80FB11DA35ABF4F2C9143
:10127000848D90E001968F739927848FA689B78912
:101280002C93A089B1898C91837080648C93938D09
:10129000848D981306C00288F389E02D80818F7DAC
:1012A00080830895EF92FF920F931F93CF93DF9364
:1012B000EC0181E0888F9B8D8C8D981305C0E889A7
:1012C000F989808185FD26C0F62E0B8D10E00F5F19
:1012D0001F4F0F731127E02E8C8DE8120CC00FB634
:1012E00007FCFACFE889F989808185FFF5CFCE0127
:1012F0000E943009F1CF8B8DFE01E80FF11DE35AFA
:10130000FF4FF0829FB7F8940B8FEA89FB898081A9
:1013100080620AC09FB7F894EE89FF896083E889EC
:10132000F98980818370806480839FBF81E090E031
:10133000DF91CF911F910F91FF90EF900895CF9380
:10134000DF93EC01888D8823C9F0EA89FB898081CD
:1013500085FD05C0A889B9898C9186FD0FC00FB69F
:1013600007FCF5CF808185FFF2CFA889B9898C91E0
:1013700085FFEDCFCE010E943009E7CFDF91CF91FD
:1013800008954091FA01262F30E0240F311D2132BB
:101390003105DCF42091AE022430C9F4FC0180E078
:1013A00090E0861758F43091FA012191DC01A652A1
:1013B000BE4FA30FB11D2C930196F3CF8091FA017C
:1013C000680F6093FA0180E0089581E0089582E05B
:1013D0000895089508950895E0911E0280911D02D8
:1013E000E81730F4F0E0E15EFD4F808190E0089571
:1013F0008FEF9FEF089590911E0280911D02981724
:1014000050F4E92FF0E0E15EFD4F208130E09F5F76
:1014100090931E0202C02FEF3FEFC9010895809103
:101420001D0290E020911E02821B91090895CF9227
:10143000DF92EF92FF920F931F93CF93DF937C0184
:10144000CB018A012091B402222389F0EB016B01C8
:10145000C40ED51ECC15DD0569F06991D701ED915B
:10146000FC910190F081E02DC7010995F3CF642F25
:101470000E94C109C801DF91CF911F910F91FF9088
:10148000EF90DF90CF900895CF93DF931F92CDB769
:10149000DEB769832091B4022223D1F02091D702D4
:1014A000203240F021E030E0FC013383228380E0F1
:1014B00090E015C08091B502E82FF0E0EA54FD4FAE
:1014C000998190838F5F8093B5028093D70205C086
:1014D00061E0CE0101960E94C10981E090E00F9089
:1014E000DF91CF9108950895FC016370668B84812C
:1014F000958126813781613039F0633029F09187F9
:101500008087338722870895318720879387828752
:1015100008956F927F928F929F92AF92BF92CF92D7
:10152000DF92EF92FF920F931F93CF93DF93EC0123
:101530004B015A0169013801E881F9810284F38580
:10154000E02D0995E881F9810288F389E02D870172
:101550009601A501B401CE010995A501460D571DBF
:1015600041505109E881F9810288F389E02D960103
:10157000B401CE010995E881F9810088F189E02D57
:101580009301A501B401CE010995C80CD91CB6017F
:1015900061507109E881F9810088F189E02D93019A
:1015A000A501CE010995E881F9810688F789E02D2A
:1015B000CE01DF91CF911F910F91FF90EF90DF90BF
:1015C000CF90BF90AF909F908F907F906F90099435
:1015D0008F929F92AF92BF92CF92DF92EF92FF9243
:1015E0000F931F93CF93DF934C016B015A01E901D5
:1015F000DC01ED91FC916217730781F40417150764
:1016000024F48B2D5801042F182F0A191B09980157
:101610002F5F3F4F048CF58DE02D12C0401751070E
:1016200009F52617370724F48D2D6901C62FD82F09
:101630009E012C193D092F5F3F4F068CF78DE02D41
:101640008701A501B601C4010995DF91CF911F91D2
:101650000F91FF90EF90DF90CF90BF90AF909F9051
:101660008F9008950284F385E02D0995D401ED91C2
:10167000FC910488F589E02D9E01A501B601C40105
:101680000995D401ED91FC910688F789E02DC401FC
:10169000DF91CF911F910F91FF90EF90DF90CF904E
:1016A000BF90AF909F908F900994EF92FF920F930D
:1016B0001F93DC011A960D911C911B9718962D9182
:1016C0003C911997ED91FC9100A0F1A1E02D7B01D7
:1016D00040E050E060E070E009951F910F91FF90AD
:1016E000EF9008954F925F926F927F928F929F92A8
:1016F000AF92BF92CF92DF92EF92FF920F931F9320
:10170000CF93DF936C012B015A0139014801DC01B1
:10171000ED91FC910284F385E02D0995E201640CC2
:10172000751CD601ED91FC91C615D7055CF40088B7
:10173000F189E02D87019401A501BE01C60109953B
:101740002196EFCF0688F789E02DC601DF91CF9172
:101750001F910F91FF90EF90DF90CF90BF90AF90CF
:101760009F908F907F906F905F904F9009948F9291
:101770009F92AF92BF92CF92DF92EF92FF920F9320
:101780001F93CF93DF93EC015B014A016901E8816C
:10179000F9810284F385E02D099595012C0D3D1DFD
:1017A00021503109E881F9810488F589E02D78011B
:1017B0008401A401B501CE010995E881F98106886B
:1017C000F789E02DCE01DF91CF911F910F91FF900E
:1017D000EF90DF90CF90BF90AF909F908F90099443
:1017E0008F929F92AF92BF92CF92DF92EF92FF9231
:1017F0000F931F93CF93DF93EC015B014A016901C3
:101800007801E881F9810284F385E02D0995C80CFF
:10181000D91C860101501109E881F9810488F589F4
:10182000E02D9501A401B501CE010995E881F9816A
:101830000688F789E02DCE01DF91CF911F910F919E
:10184000FF90EF90DF90CF90BF90AF909F908F90E0
:101850000994EF92FF920F931F93DC01ED91FC919D
:1018600000A0F1A1E02D09951F910F91FF90EF903D
:1018700008950F931F93DC01ED91FC91068CF78D79
:10188000E02D09951F910F9108950F931F93DC018F
:10189000ED91FC91048CF58DE02D09951F910F9130
:1018A0000895DC01ED91FC910084F185E02D09940F
:1018B0002F923F924F925F926F927F928F929F9260
:1018C000AF92BF92CF92DF92EF92FF920F931F934E
:1018D000CF93DF9300D000D000D0CDB7DEB72C017E
:1018E0007E836D836A015901C801FC82EB82480145
:1018F000841A950A97FE03C091948194910835014A
:101900002D813E81621A730A77FE03C0719461943F
:101910007108681479045CF43A2D2B2D5C01832F37
:10192000922F3D812E81DE82CD82C32ED22EAD81BB
:10193000BE81AA16BB065CF43C2D2D2D6C01832FB5
:10194000922F3D812E81BE82AD82A32EB22E8501C3
:101950002D813E81021B130B1C012C183D0837FE04
:1019600003C0319421943108780117FF03C03FEF81
:10197000E31AF30AF594E794C816D9062CF08FEF12
:101980009FEF9A83898304C0A1E0B0E0BA83A98362
:101990002D813E81A216B30624F1D201ED91FC9176
:1019A0000484F585E02D2B813C816814790424F4AE
:1019B0004D815E81B60103C0A6016D817E81C201A9
:1019C0000995E218F308F7FE06C029813A81C20E94
:1019D000D31EE00EF11E8D819E8101969E838D8324
:1019E000D7CF26960FB6F894DEBF0FBECDBFDF91DE
:1019F000CF911F910F91FF90EF90DF90CF90BF900C
:101A0000AF909F908F907F906F905F904F903F909E
:101A10002F9008950E943C198F929F92AF92CF927F
:101A2000EF92FF920F931F93CF93DF93EC01262F3A
:101A3000898D9A8D009709F042C06A3059F41D864D
:101A40001C862D898E859F8538E0239F800D911DF2
:101A5000112443C06D3009F4AAC08F898823C9F0CE
:101A60003C898C859D8546E0349F800D911D112415
:101A7000488559854817590764F41D861C863D8999
:101A80008E859F8548E0349F800D911D11249F878E
:101A90008E87EA88FB88088919894E855F856C8561
:101AA0007D85AD88CC88CE010E949A132C898C85C7
:101AB0009D8536E0239F800D911D11243EC06A3024
:101AC00079F41D861C862D89FC013896E4918E855B
:101AD0009F852E9F800D911D11249F878E8767C043
:101AE0006D3009F464C0FC0134963491631708F436
:101AF0005EC03296E491E61708F459C0462F431BA6
:101B0000342FFC0132968590949047E0349F800CEE
:101B1000911C1124F401329634913196E4913323CF
:101B200011F0E1110DC0F4013496E4912C898C85FB
:101B30009D85E29F800D911D11249D878C8737C064
:101B4000F401359644915F89552319F15C89E32F9F
:101B5000F0E0E40FF11D47FDFA955E9FB0015F9F35
:101B6000700D11244C855D85460F571F688579855A
:101B70006417750774F41D861C863D89FC01389630
:101B8000E4918E859F853E9F800D911D11249F8736
:101B90008E87EA88FB88088919894E855F856C8560
:101BA0007D85AD88CC88CE010E949A13BCCF81E0A0
:101BB00090E0DF91CF911F910F91FF90EF90CF9028
:101BC000AF909F908F9008956115710579F0FB019A
:101BD00001900020E9F73197AF01461B570BDC015C
:101BE000ED91FC910280F381E02D099480E090E07A
:101BF00008951F920F920FB60F9211242F933F93C7
:101C00004F935F936F937F938F939F93AF93BF9304
:101C1000EF93FF9388ED92E00E943009FF91EF91DE
:101C2000BF91AF919F918F917F916F915F914F91F4
:101C30003F912F910F900FBE0F901F9018951F92FC
:101C40000F920FB60F9211242F938F939F93EF93C0
:101C5000FF93E091E802F091E9028081E091EE02C9
:101C6000F091EF0282FD12C090818091F1028F5FAE
:101C70008F732091F202821751F0E091F102F0E0AF
:101C8000E852FD4F958F8093F10201C08081FF9152
:101C9000EF919F918F912F910F900FBE0F901F90FA
:101CA00018951092AE0281E08093AD0210928802E6
:101CB00061E082E10E94CE1561E083E10E94CE15D1
:101CC000E9EBF0E080818E7F808380818D7F80834F
:101CD00088E48093B80085E48093BC000895CF9396
:101CE000DF9391E09093D9018823B9F0C091B800B7
:101CF000D091BA008091BC008A7B8093BC0060E0E8
:101D000082E10E94CE1560E083E10E94CE150E9420
:101D1000510ED093BA00C093B800DF91CF910895CF
:101D200085ED8093BC008091B0029091B102A091AA
:101D3000B202B091B3020796A11DB11D23E0B69582
:101D4000A795979587952A95D1F72091BC0024FFF8
:101D50001CC04091B0025091B1026091B2027091EA
:101D6000B302452B462B472B81F30097A105B10504
:101D700041F02AE22A95F1F700C00197A109B109C3
:101D8000E4CF8091AF020C946F0E1092AE020895D2
:101D90001F920F920FB60F9211242F933F934F93E0
:101DA0005F936F937F938F939F93AF93BF93EF93C3
:101DB000FF938091B900887F803609F49CC068F554
:101DC000883209F45BC090F4803109F454C038F4CF
:101DD000882309F4F6C0883009F44DC0F6C0883174
:101DE00009F44CC0803209F45DC0EFC0803409F4BE
:101DF00068C048F4803309F455C0883309F0E5C061
:101E00008093AC02D8C0803509F44FC0883509F4FE
:101E10005DC0883409F0D9C0D6C0883909F4C7C07C
:101E2000A8F4883709F467C038F4883609F463C029
:101E3000803709F460C0C9C0883809F4B8C0803957
:101E400009F45FC0803809F0C0C05BC0803B09F472
:101E500086C038F4803A09F466C0883A09F47FC035
:101E6000B4C0803C09F4A7C0883C09F4A4C0883BF6
:101E700009F48AC0AAC08091890210C09091AB0277
:101E80008091AA02981770F5E091AB0281E08E0F65
:101E90008093AB02F0E0E657FD4F80818093BB005A
:101EA00085EC86C08093AC028EC0E091AB0281E0ED
:101EB0008E0F8093AB028091BB00F0E0E657FD4FA0
:101EC00080839091AB028091AA026EC0E091AB0238
:101ED00081E08E0F8093AB028091BB00F0E0E6576B
:101EE000FD4F80838091AD0281116DC081E08093B0
:101EF000880284EA61C083E08093AE0210921C02E3
:101F0000CFCF80911C02803208F051C0E0911C02BA
:101F100081E08E0F80931C028091BB00F0E0E450C2
:101F2000FE4F8083BDCF85EC8093BC001092AE0243
:101F300080911C02803230F4E0911C02F0E0E45009
:101F4000FE4F108260911C0270E0E091D701F09189
:101F5000D8018CEF91E0099510921C0236C084E004
:101F60008093AE021092FB011092FA01E091D5012C
:101F7000F091D60109958091FA01811105C081E0A7
:101F80008093FA011092DA01E091FB0181E08E0F5B
:101F90008093FB01F0E0E652FE4F80818093BB000E
:101FA0009091FB018091FA01981708F479CF85E8A8
:101FB0008093BC000AC085EC8093BC001092AE02F6
:101FC00004C01092AC020E94900EFF91EF91BF915D
:101FD000AF919F918F917F916F915F914F913F91C1
:101FE0002F910F900FBE0F901F901895FC01A5A187
:101FF000B6A19C9182A589238C93A5A1B6A19C91A1
:1020000081A5892B8C9308950F931F93CF93DF9312
:10201000EC018B018DA9811109C01EBD0DB407FE15
:10202000FDCF0EBD0DB407FEFDCF2FC08130E9F40A
:1020300080E1E9A1FAA1208117FF03C09DA1922BA5
:1020400002C09EA192239083EBA1FCA120819FA1BD
:10205000922B9083EBA1FCA1208198A592239083E1
:10206000000F111F815029F710C0EF8DF8A11083C8
:10207000CE010E94F60FEF8DF8A10083CE01DF9113
:10208000CF911F910F910C94F60FDF91CF911F917B
:102090000F910895CF93DF93EC01ED8DFE8D90812C
:1020A0008CA989238083CE010E94EF07ED8DFE8DE0
:1020B00090818BA9892B8083DF91CF9108953FB7C1
:1020C000F8948091C9039091CA03A091CB03B09179
:1020D000CC0326B5A89B05C02F3F19F00196A11D82
:1020E000B11D3FBFBA2FA92F982F8827820F911DAE
:1020F000A11DB11DBC01CD0142E0660F771F881FF5
:10210000991F4A95D1F708958F929F92AF92BF92EF
:10211000CF92DF92EF92FF920F931F93CF93DF93B3
:102120001091D702113208F0C2C0082FD091D60208
:102130000E945F106B017C01C091AE02CC2311F1B3
:102140008091B0029091B102A091B202B091B3021D
:10215000892B8A2B8B2B81F30E945F108090B00219
:102160009090B102A090B202B090B302DC01CB011A
:102170008C199D09AE09BF0988169906AA06BB06E7
:10218000D8F681C082E08093AE020093AD028FEF5B
:102190008093AC021092AB021093AA02A6EBB2E0BD
:1021A000EAE8F2E080E0181721F09D9191938F5FAB
:1021B000FACF10928902909189028D2F880F892B76
:1021C0008093890280918802813089F5109288027B
:1021D0000E945F106B017C01809189028093BB009B
:1021E0008091B0029091B102A091B202B091B3027D
:1021F000892B8A2B8B2BA9F00E945F100091B002D3
:102200001091B1022091B2023091B302DC01CB01F6
:102210008C199D09AE09BF09081719072A073B0742
:1022200090F18091BC0083FDD7CF85EC01C085EE95
:102230008093BC000E945F106B017C018091AE0214
:10224000823039F58091B0029091B102A091B20232
:10225000B091B302892B8A2B8B2B81F30E945F10E4
:102260000091B0021091B1022091B2023091B302FC
:10227000DC01CB018C199D09AE09BF0908171907AC
:102280002A073B07D8F68091AF020E946F0EC5E087
:1022900013C08091AC028F3F79F08091AC02803204
:1022A00041F08091AC02803331F0C4E005C0C1E060
:1022B00003C0C2E001C0C3E01092B5021092D70281
:1022C0001092B4028C2FDF91CF911F910F91FF904C
:1022D000EF90DF90CF90BF90AF909F908F90089538
:1022E0008F929F92AF92BF92CF92DF92EF92FF9226
:1022F0001F93CF93DF93162F91E09093B40292E552
:102300009093D6021092B5021092D702682F85E7FB
:1023100093E00E94440A81E00E9484108FE99FE0CC
:102320000197F1F700C000000E945F106B017C0173
:10233000C091AE02CC2339F18091B0029091B102EC
:10234000A091B202B091B302892B8A2B8B2B81F31F
:102350000E945F108090B0029090B102A090B202F3
:10236000B090B302DC01CB018C199D09AE09BF0905
:1023700088169906AA06BB06D8F68091AF020E947D
:102380006F0EC0E08FC0D12F113208F0D0E281E093
:102390008093AE028093AD029FEF9093AC021092B7
:1023A000AB029D0F9093AA028093890280918902CB
:1023B000846A8093890280918802813089F5109225
:1023C00088020E945F106B017C01809189028093DA
:1023D000BB008091B0029091B102A091B202B09185
:1023E000B302892B8A2B8B2BA9F00E945F1080905F
:1023F000B0029090B102A090B202B090B302DC01A2
:10240000CB018C199D09AE09BF0988169906AA0649
:10241000BB0690F18091BC0083FDD7CF85EC01C055
:1024200085EE8093BC000E945F106B017C0180915F
:10243000AE02813031F58091B0029091B102A0914D
:10244000B202B091B302892B8A2B8B2B81F30E94AD
:102450005F108090B0029090B102A090B202B09054
:10246000B302DC01CB018C199D09AE09BF098816A6
:102470009906AA06BB06D8F68091AF020E946F0E9D
:1024800011C08091AB028D1710F4D091AB02EAE835
:10249000F2E0AFE1B2E0C0E0CD1721F081918D9381
:1024A000CF5FFACF10921E02C0931D02D0E0809140
:1024B0001E02C81781F01D1770F0FF24F394FD0E63
:1024C00085E793E00E94FB09ED2FF0E0E859FD4F0E
:1024D0008083DF2DECCF8D2FDF91CF911F91FF9067
:1024E000EF90DF90CF90BF90AF909F908F90089526
:1024F000682F85E793E00C94440AAF92BF92CF9285
:10250000DF92EF92FF920F931F93CF93DF93EC0133
:10251000E62E8A01F22E0E941C088FA987FD06C0B4
:10252000EB8DFC8D90818AA989238083ED8DFE8DB2
:1025300090818CA9892380836E2DCE010E94EF07A4
:10254000ED8DFE8D90818BA9892B8083C12CD12CA0
:10255000AF2CB12CCA14DB04E4F48DA978018230CD
:1025600059F488A9882341F0F801619171917F01A4
:10257000CE010E94041008C0FFEFEF1AFF0AF80115
:102580006491CE010E94EF07FFEFCF1ADF0A8701A7
:10259000E1CF8FA987FD06C0EB8DFC8D908189A9C5
:1025A000892B80838DA981110CC0DF91CF911F9160
:1025B0000F91FF90EF90DF90CF90BF90AF900C9471
:1025C0003608DF91CF911F910F91FF90EF90DF9030
:1025D000CF90BF90AF9008958F929F92AF92BF928D
:1025E000CF92DF92EF92FF920F931F93CF93DF93DF
:1025F000EC014901BE2CAF2CE881F98102A4F3A5BE
:10260000E02D09959401D8010E94181961157105F2
:102610008105910509F481C02DA921110FC06150D8
:1026200071098109910908F478C0AEBC0DB407FEA8
:10263000FDCFBEBC0DB407FEFDCFF1CF213009F0B8
:102640003FC0615071098109910908F466C03A2DB3
:1026500028E0E9A1FAA1508137FF03C04DA1452B25
:1026600002C04EA145234083EBA1FCA150814FA1A4
:10267000452B4083EBA1FCA1508148A54523408315
:10268000330F215031F73B2D28E0E9A1FAA1508109
:1026900037FF03C04DA1452B02C04EA14523408307
:1026A000EBA1FCA150814FA1452B4083EBA1FCA1E4
:1026B000508148A545234083330F215031F7C1CFC6
:1026C000FE1017C0EF8DF8A1F0826B017C01CC0CDD
:1026D000DD1CEE1CFF1CC114D104E104F104E9F07F
:1026E000CE010E94F60F81E0C81AD108E108F10876
:1026F000F2CF6B017C01EF8DF8A1A082CE010E9488
:10270000F60FEF8DF8A1B082CE010E94F60F21E006
:10271000C21AD108E108F10871F7DF91CF911F913A
:102720000F91FF90EF90DF90CF90BF90AF909F9070
:102730008F9008952F923F924F925F926F927F9267
:102740008F929F92AF92BF92CF92DF92EF92FF92C1
:102750000F931F93CF93DF93CDB7DEB76B970FB671
:10276000F894DEBF0FBECDBF9B8F8A8F1B014A013D
:10277000D22E198708873701A982DC0159962D913D
:102780003C915A972115310509F0FFC018968D919B
:102790009C911997681779070CF0E7C11A968D91EB
:1027A0009C911B97481759070CF0DFC1EC2DF0E006
:1027B000FB83EA839B0146E0C49E200D311D11245A
:1027C0003D872C87121613060CF0CFC16A2D70E0DE
:1027D0007B876A8783E0660F771F8A95E1F77F879B
:1027E0006E87CB01880D991D181619060CF0BDC116
:1027F00058968C91811104C08FEA8D1508F4D394FA
:10280000AA8DBB8DED91FC9111970284F385E02D8B
:10281000CD010995B5E0DB9EC0011124EC2DF0E05F
:10282000F98BE88B91012B5F3F4F3B8B2A8B3D82CD
:102830002C822101AC01421953095D8B4C8B7981AB
:10284000672F70E07F8B6E8BC4010896998F888FFD
:10285000EC89FD89E40DF51DEB50FF4FD490540138
:102860009F828E82D0FE16C0AA8DBB8DED91FC9109
:10287000B1E0CB1209C02981213031F40484F585FF
:10288000E02D2885398519C00684F785E02DE88478
:10289000F9841DC0488559854615570519F1AA8D3B
:1028A000BB8DED91FC91B1E0CB120DC0298121309F
:1028B00051F40484F585E02D9301A501B2018A8DC0
:1028C0009B8D09950FC00684F785E02D73010A855D
:1028D0001B852A813B814E815F816C817D818A8D40
:1028E0009B8D0995D6943FEFA31AB30A4E815F8161
:1028F0006E897F89460F571F5F834E83888D998D20
:10290000A816B90609F0AECF9FEF491A590AAC8153
:10291000BD81E889F989AE0FBF1FBD83AC832A89C9
:102920003B894216530609F093CF488559854615D1
:10293000570509F4F8C0AA8DBB8DED91FC91B1E06B
:10294000CB1211C02981213071F4B1016B5F7F4F2F
:102950000088F189E02D830128E030E0A4018A8D10
:102960009B8D0995E0C06C857D854A815B81641BE8
:10297000750B0684F785E02D73010E851F859A017E
:10298000A4018A8D9B8D0995CEC0F9013496E491FE
:10299000DE1AF901329685919491B7E0DB9E800DA5
:1029A000911D1124F901259134913B8B2A8BFC0157
:1029B000259134915901FC0132965490319634910D
:1029C0003C87329674903196149141E04C1518F082
:1029D0005981523068F0672D072C000C770B7D83EE
:1029E0006C83812F012E000C990B9B838A8304C07A
:1029F0001B821A821D821C82AA8DBB8DED91FC91D7
:102A000011970284F385E02DCD010995412CD12C3D
:102A1000612CF981EF2FF0E0FF83EE832C2D30E065
:102A20003B872A87A401410F511D17FD5A955F8BE3
:102A30004E8BB101670D711D77FC7A95798F688F88
:102A40007C85671608F06FC0262D30E04A815B81D7
:102A5000420F531FAE81BF81A49FC001A59F900D5F
:102A6000B49F900D1124F401E80FF91FF98BE88B46
:102A7000842D712C4E895F89420F531F5D8B4C8BC7
:102A8000751408F04DC051E0580F5E87877041F40F
:102A9000C5010196EA89FB89EA0DFB1DD4905C0112
:102AA000D7FE3AC061E0C61216C07981713099F440
:102AB000AA8DBB8DED91FC9111970484F585E02DD5
:102AC000288539854C895D89688D798D670D711DE3
:102AD000CD01099521C08C819D81870D911DEA85CD
:102AE000FB858E9FB0018F9F700D9E9F700D1124EE
:102AF000620D731DAA8DBB8DED91FC91119706841B
:102B0000F785E02DE884F9840E811F812A853B85B5
:102B100048895989CD010995DD0C73948E85B0CF14
:102B2000450C63948DCFAA8DBB8DED91FC911197CF
:102B30000688F789E02DCD016B960FB6F894DEBFBD
:102B40000FBECDBFDF91CF911F910F91FF90EF90FE
:102B5000DF90CF90BF90AF909F908F907F906F90BD
:102B60005F904F903F902F9009946B960FB6F8941A
:102B7000DEBF0FBECDBFDF91CF911F910F91FF90B0
:102B8000EF90DF90CF90BF90AF909F908F907F900D
:102B90006F905F904F903F902F90089590E0FC01D0
:102BA000EF51FF4F2491FC01EB50FA4F3491FC019F
:102BB000ED5EF94FE491EE2309F43CC0222339F194
:102BC000233091F038F42130A9F0223001F584B59A
:102BD0008F7D12C0273091F02830A1F02430B9F455
:102BE000809180008F7D03C0809180008F778093DB
:102BF00080000DC084B58F7784BD09C08091B0007E
:102C00008F7703C08091B0008F7D8093B000F0E09B
:102C1000EE0FFF1FE75FF94FA591B4919FB7F894AE
:102C2000611104C08C913095382302C0EC913E2B89
:102C30003C939FBF0895CF93DF9390E0FC01EB504E
:102C4000FA4F2491FC01ED5EF94F8491882361F1E4
:102C500090E0880F991FFC01E952FF4FC591D49174
:102C6000FC01E75FF94FA591B491611109C09FB7CD
:102C7000F8948881209582238883EC912E230BC0C1
:102C8000623061F49FB7F8948881322F30958323A6
:102C90008883EC912E2B2C939FBF06C08FB7F8949E
:102CA000E8812E2B28838FBFDF91CF9108951F924B
:102CB0000F920FB60F9211242F933F938F939F93F0
:102CC000AF93BF938091C5039091C603A091C703B2
:102CD000B091C8033091C40323E0230F2D3720F4B3
:102CE0000196A11DB11D05C026E8230F0296A11D66
:102CF000B11D2093C4038093C5039093C603A09392
:102D0000C703B093C8038091C9039091CA03A091EF
:102D1000CB03B091CC030196A11DB11D8093C903D3
:102D20009093CA03A093CB03B093CC03BF91AF9110
:102D30009F918F913F912F910F900FBE0F901F90F9
:102D400018950F931F93CF93DF93EC010E94E40D2E
:102D50008C0160ED71E0CE010E94E40D800F911FA7
:102D6000DF91CF911F910F9108958F929F92AF9213
:102D7000BF92CF92DF92EF92FF920F931F93CF9368
:102D8000DF93789440E050E0BA0181E893E00E943C
:102D9000B40610921E0210921D021092B5021092FB
:102DA000D7020E94510E89EE99E09093D60180934C
:102DB000D5018AEE99E09093D8018093D701E091F4
:102DC000E802F091E90282E08083E091E402F09170
:102DD000E5021082E091E602F091E7028FEC808339
:102DE0001092F002E091EC02F091ED0286E0808317
:102DF000E091EA02F091EB02808180618083E091B2
:102E0000EA02F091EB02808188608083E091EA021F
:102E1000F091EB02808180688083E091EA02F0917A
:102E2000EB0280818F7D808360E070E081E893E039
:102E30000E94550BD1E0D093B402C2E5C093D602F4
:102E40001092B5021092D70280EF90E00E947812A3
:102E500085E590E00E94781281E00E948410D09372
:102E6000B402C093D6021092B5021092D7028BEF33
:102E700090E00E94781280E090E00E94781281E059
:102E80000E94841064E08AEF0E947011843009F07F
:102E9000DDC080E380935D0288E780935E0288E670
:102EA00092E0AFE3B2E027E432E0EC01E991CE0139
:102EB000CE2FD0E004E0D595C7950A95E1F7C85F1D
:102EC000DE4F488190964C939097EF70F0E0E85F6A
:102ED000FE4F408191964C93919712962A173B078B
:102EE00021F710926702D1E0F4E6CF2ED12CA2E2B6
:102EF000AA2EBB24B394C2E0BAE08B2E912C16E923
:102F0000E12EF12C66E080E00E9470118630D1F74E
:102F10006091680260933F023091690230934002F1
:102F200020916D0280916A0294E0899FA001112492
:102F3000822F8C7090E09595879595958795842B39
:102F4000952B909342028093410280916B0294E012
:102F5000899FA0011124922F9073892F90E0E4E0C3
:102F600095958795EA95E1F7842B952B90934402EC
:102F70008093430280916C0244E0849FC00111243D
:102F8000422F4295469546954370842B9093460276
:102F900080934502822F81708D278093470221FB09
:102FA000002700F910E0C80121E082278093480241
:102FB00061110FC010928E0310928D03F092900356
:102FC000E0928F03C0939503C09396036CE971E080
:102FD00032C06F3F79F4F0928E03E0928D03F0924D
:102FE0009003E0928F03C0939503C093960362EA27
:102FF00071E021C03F3F79F4D0928E03C0928D03DF
:103000009092900380928F03C0939503C093960390
:103010006AEA71E010C0311112C0D0928E03C092E2
:103020008D03B0929003A0928F03C0939503C09339
:10303000960360EB71E081E893E00E94A11660E0E6
:1030400070E081E893E00E94550B5CCF66EB71E085
:1030500088ED92E00E94A11688ED92E00E949F09FF
:1030600081E090E0DF91CF911F910F91FF90EF9061
:10307000DF90CF90BF90AF909F908F900895E8ED34
:10308000F2E01382128288EE93E0A0E0B0E0848345
:103090009583A683B7832CE131E03183208325EC2F
:1030A00030E03587248724EC30E03787268720EC12
:1030B00030E0318B208B21EC30E0338B228B22EC03
:1030C00030E0358B248B26EC30E0378B268B118E4D
:1030D000128E138E148EE5E7F3E01382128284833E
:1030E0009583A683B7838EE291E091838083A1E8E4
:1030F000B3E013961C921E92129720EF30E01596C3
:103100003C932E93149780E491E017969C938E93B2
:10311000169719963C932E9318971B969C938E9313
:103120001A9756961C9256971D961C921E921C97A3
:103130001F961C921E921E9781E055968C93559770
:1031400054968C9354972FEF3FEF53963C932E93C6
:10315000529751963C932E93509757968C9357972E
:1031600058961C9258975A961C921E925997D5962B
:103170001C92D5978FEFD6968C93D6978AE0D796E8
:103180008C93D79789E0D8968C93D897DA961C922F
:103190001E92D997DC961C921E92DB97DD961C92AC
:1031A000DD97DE961C92DE971092C0031092C10349
:1031B0001092C2031092C3038DEC93E090969C93FF
:1031C0008E935F97ECE1F6E0E491F0E0EE0FFF1FE5
:1031D000E75FF94F859194915E969C938E935D97EE
:1031E000EEEFF5E08491D3968C93D397EDE1F6E082
:1031F000E491F0E0EE0FFF1FE75FF94F2591349166
:103200005C963C932E935B97EFEFF5E0E491D196BB
:10321000EC93D197E095D296EC93D297E82FE09576
:10322000D496EC93D49780E791E08D939C93089586
:103230000E942019332312F48A1B9B0B0C94311922
:10324000A29FB001B39FC001A39F700D811D1124E7
:10325000911DB29F700D811D1124911D08950E9432
:103260002019B7FF0895821B930B0895EE0FFF1FDF
:103270000590F491E02D099481E090E0F8940C948D
:063280004119F894FFCF94
:10328600FFFFFFFFFFFFFFFF3031323334353637A4
:103296003839414243444546000000005209C908F6
:1032A600F3089F0924090209160900000000440AD0
:1032B600170A4003EB090F0AFB09EC09000000009E
:1032C6000C0DC90840033F03C00525081006550527
:1032D600D0041305580C3708740A43036003D2035D
:1032E6004404550BE80A890A0A0D0A0D000000007D
:1032F6000C0DC90840033F03C005250810065505F7
:10330600D0041305580C37084208AA066003D203F6
:103316004404550BE80A890AB40642064C696E6BEA
:1033260073005265616368747300426F76656E0060
:103336004F6E646572002A2A2A2A2A2A2A2A204ED1
:103346006F206E756E6368756B20666F756E6400B0
:043356000D0A00005C
:00000001FF
