:100000000C9415030C943D030C943D030C943D0398
:100010000C943D030C943D030C943D030C943D0360
:100020000C943D030C943D030C943D030C943D0350
:100030000C943D030C943D030C943D030C943D0340
:100040000C944B170C943D030C94E4170C94BE17BE
:100050000C943D030C943D030C943D030C943D0320
:100060000C9416180C943D03EF03038002CF030099
:10007000C130ED0464031281E803850078CB0539B3
:100080002C003402F70120EA020000C00123C10164
:1000900010C5023E28C701863601483701003A01E3
:1000A00055B1020018B603088227F20100260101AB
:1000B000E00F0F312B0C0E084EF1370710030E091D
:1000C00000E10F000E1403110731C148080F0C3175
:1000D000360F1180298000010204081020408001A1
:1000E000020408102001020408102000000000256E
:1000F0000028002B00040404040404040402020287
:10010000020202030303030303000000002400278C
:10011000002A00000000080002010000030407009C
:100120000000000000000000000000003E5B4F5B8C
:100130003E3E6B4F6B3E1C3E7C3E1C183C7E3C188A
:100140001C577D571C1C5E7F5E1C00183C1800FF6E
:10015000E7C3E7FF0018241800FFE7DBE7FF30489C
:100160003A060E2629792926407F050507407F0596
:10017000253F5A3CE73C5A7F3E1C1C08081C1C3E8D
:100180007F14227F22145F5F005F5F06097F017F7B
:10019000006689956A606060606094A2FFA294081E
:1001A000047E040810207E201008082A1C08081C61
:1001B0002A08081E101010100C1E0C1E0C30383EA1
:1001C0003830060E3E0E06000000000000005F0002
:1001D000000007000700147F147F14242A7F2A12CE
:1001E00023130864623649562050000807030000B4
:1001F0001C2241000041221C002A1C7F1C2A0808E6
:100200003E080800807030000808080808000060F8
:10021000600020100804023E5149453E00427F40E4
:100220000072494949462141494D331814127F1043
:1002300027454545393C4A4949314121110907368D
:1002400049494936464949291E000014000000402A
:100250003400000008142241141414141400412224
:10026000140802015909063E415D594E7C121112D3
:100270007C7F494949363E414141227F4141413ECF
:100280007F494949417F090909013E414151737F35
:100290000808087F00417F41002040413F017F085E
:1002A0001422417F404040407F021C027F7F0408AF
:1002B000107F3E4141413E7F090909063E415121DF
:1002C0005E7F09192946264949493203017F010306
:1002D0003F4040403F1F2040201F3F4038403F6389
:1002E0001408146303047804036159494D43007FE3
:1002F0004141410204081020004141417F040201B4
:100300000204404040404000030708002054547855
:10031000407F284444383844444428384444287FA3
:10032000385454541800087E090218A4A49C787FFD
:100330000804047800447D40002040403D007F10C8
:1003400028440000417F40007C047804787C080445
:1003500004783844444438FC1824241818242418F9
:10036000FC7C08040408485454542404043F4424E6
:100370003C4040207C1C2040201C3C4030403C4401
:10038000281028444C9090907C4464544C440008BD
:1003900036410000007700000041360800020102EB
:1003A00004023C2623263C1EA1A161123A404020B3
:1003B0007A3854545559215555794122545478422C
:1003C000215554784020545579400C1E52721239F0
:1003D00055555559395454545939555454580000A9
:1003E000457C410002457D420001457C407D121163
:1003F000127DF0282528F07C545545002054547C6B
:10040000547C0A097F4932494949323A4444443AC2
:10041000324A4848303A4141217A3A4240207800F5
:100420009DA0A07D3D4242423D3D4040403D3C2498
:10043000FF2424487E4943662B2FFC2F2BFF0929DC
:10044000F620C0887E090320545479410000447D81
:10045000413048484A32384040227A007A0A0A72CB
:100460007D0D19317D2629292F2826292929263075
:10047000484D4020380808080808080808382F1098
:10048000C8ACBA2F102834FA00007B000008142AE8
:10049000142222142A14085500550055AA55AA55AD
:1004A000AAFF55FF55FF000000FF00101010FF00CD
:1004B000141414FF001010FF00FF1010F010F014BF
:1004C0001414FC001414F700FF0000FF00FF1414C4
:1004D000F404FC141417101F10101F101F14141410
:1004E0001F00101010F0000000001F101010101F4F
:1004F00010101010F010000000FF1010101010105D
:10050000101010FF10000000FF140000FF00FF009B
:10051000001F10170000FC04F41414171017141413
:10052000F404F40000FF00F714141414141414F766
:1005300000F7141414171410101F101F141414F4BF
:10054000141010F010F000001F101F0000001F1406
:10055000000000FC140000F010F01010FF10FF1459
:100560001414FF141010101F00000000F010FFFF03
:10057000FFFFFFF0F0F0F0F0FFFFFF0000000000D1
:10058000FFFF0F0F0F0F0F3844443844FC4A4A4A0C
:10059000347E02020606027E027E026355494163F2
:1005A0003844443C04407E201E2006027E0202990C
:1005B000A5E7A5991C2A492A1C4C7201724C304AA5
:1005C0004D4D303048784830BC625A463D3E49492E
:1005D00049007E0101017E2A2A2A2A2A44445F44D6
:1005E0004440514A444040444A51400000FF010306
:1005F000E080FF000008086B6B08361236243606D0
:100600000F090F06000018180000001010003040FD
:10061000FF0101001F01011E00191D1712003C3CC3
:100620003C3C0000000000002A1E11241FBECFEF3A
:10063000D8E0DEBFCDBF11E0A0E0B1E0ECE5FEE325
:1006400002C005900D92AC3EB107D9F723E0ACEEA5
:10065000B1E001C01D92A73EB207E1F713E0C5E18A
:10066000D3E004C02197FE010E94211FC431D107AD
:10067000C9F70E9444190C942C1F0C94000080931D
:10068000BB0084E88093BC008091BC0087FFFCCF56
:10069000089584E08093BC001092B9008FEF80939E
:1006A000B80084EA8093BC008091BC0087FFFCCF37
:1006B0000895089580E090E008958F929F92AF9200
:1006C000BF92CF92DF92EF92FF920F931F93CF933F
:1006D000DF9347012115310509F44DC001151105BE
:1006E00009F449C037FF07C0F90131966E0F7F1F2B
:1006F000319521953109DC011896AD90BC90199780
:100700006A157B05C4F517FF07C0F80131964E0F37
:100710005F1F119501951109DC011A96ED91FC916D
:100720001B974E175F073CF56B01C20ED31EE60107
:100730002197D7FD20C07A01E00EF11ED701119755
:10074000B7FD19C077FF03C0960160E070E057FF66
:1007500003C0870140E050E0CA15DB051CF095019D
:10076000261B370BAE17BF071CF08F01041B150BA0
:1007700074010E94C112DF91CF911F910F91FF90E0
:10078000EF90DF90CF90BF90AF909F908F900895A3
:10079000EF92FF920F931F93CF93DF93EC0177FDBE
:1007A00022C08885998568177907ECF457FD1BC02E
:1007B0008A859B8548175907B4F47901E881F98146
:1007C00002A4F3A5E02D01E010E021E030E0CE012D
:1007D0000995B701CE01DF91CF911F910F91FF9045
:1007E000EF900C94E60CDF91CF911F910F91FF9049
:1007F000EF900895CF93DF93EC010E94DB0D8FA95A
:1008000087FD06C0EB8DFC8D90818AA989238083AA
:10081000DF91CF910895AF92BF92CF92DF92EF9286
:10082000FF920F931F93CF93DF93EC015B016A015B
:10083000215031097901E60EF71E01501109040F0C
:10084000151F80910601909107016817790739F407
:100850008091040190910501E816F906A1F06AE281
:10086000CE010E94A90DB501CE010E94E60CB70190
:10087000CE010E94E60CB0920701A0920601F09210
:100880000501E09204018091020190910301C816D4
:10089000D90639F4809100019091010108171907D8
:1008A000A1F06BE2CE010E94A90DB601CE010E941B
:1008B000E60CB801CE010E94E60CD0920301C09272
:1008C000020110930101009300016CE2CE01DF915F
:1008D000CF911F910F91FF90EF90DF90CF90BF903D
:1008E000AF900C94A90D611102C060E201C061E2F9
:1008F00020E040E050E00C945212CF92DF92EF9251
:10090000FF920F931F93CF93DF93EC016A017B015A
:10091000452B462B472B31F4C12C42E1D42E4AE71C
:10092000E42EF12C8FA987FD07C061E00E94EA1632
:1009300061E08FA90E949D1661E088AD0E94EA16D1
:1009400061E088AD0E949D168DA9811152C040E0E2
:1009500052E16AE770E090E0C416D506E606F706B5
:1009600040F476956795579547959F5F9630A1F728
:1009700097E081E08927982F906A969599A38170D6
:100980008AA31BA21CA21DA21EA21FB7F8948091CD
:10099000EC01811127C0EFEFF0E08491E1EEF0E08F
:1009A0009491E82FF0E0EE0FFF1FE75FFE4FA59157
:1009B000B491EC91E92321F461E08AE00E949D1654
:1009C00061E08AE00E94EA168CB580618CBD8CB52E
:1009D00080648CBD61E08DE00E94EA1661E08BE0EE
:1009E0000E94EA168091EC018F5F8093EC011FBF9B
:1009F0004BC08130B9F461E08AA50E94EA1660E03C
:100A00008AA50E949D1661E08CA50E94EA1660E00E
:100A10008CA50E949D168BA587FD36C060E00E94C4
:100A2000EA1632C005EF10E0F12CF8018491E82FAE
:100A3000F0E0EE0FFF1FE551FF4F859194912F8D50
:100A400038A12817390741F461E08F2D0E94EA167A
:100A500060E08F2D0E949D16F3940F5F1F4FF4E10D
:100A6000FF12E3CF61E08EA50E94EA1661E08EA539
:100A70000E949D168FA587FD07C061E00E94EA16BF
:100A800061E08FA50E949D168EA987FD2AC061E0B6
:100A90000E94EA1661E08EA90E949D162FEF81EE5A
:100AA00094E0215080409040E1F700C0000060E0F9
:100AB0008EA90E949D16EFEFF1EE24E0E150F04088
:100AC0002040E1F700C0000061E08EA90E949D1661
:100AD0008FEF93ECE9E081509040E040E1F700C0F7
:100AE00000008EA987FF10C020E040E050E061E0E8
:100AF000CE010E945212FFEF22E587E0F150204024
:100B00008040E1F700C00000E8E6F0E0CF01019688
:100B100064916623E1F08F010E5F1F4FFC01F4909A
:100B2000FF2DFF77EF2E2F2FA801CE010E9452122A
:100B3000F801EE0DF11DF7FEE9CF2FEF82E597E00A
:100B4000215080409040E1F700C00000DFCF80EFEF
:100B500090E09987888780E491E09B878A87DF917E
:100B6000CF911F910F91FF90EF90DF90CF9008955C
:100B70000895FC0187A987FD06C0A38DB48D9C91C3
:100B800081A9892B8C9308950F931F93CF93DF93A3
:100B90001F92CDB7DEB78C016370DC0156966C9363
:100BA0005697623059F06330C9F0613029F088E41B
:100BB000898380EF90E007C088E211C088E88983CC
:100BC00080EF90E0D80119969C938E93189780E45B
:100BD00091E01B969C938E931A970BC088EE8983A5
:100BE00080E491E0F8019187808780EF90E093871F
:100BF0008287C8010E94DB0DD801D7968C91D797C8
:100C000087FD09C05B96ED91FC915C979081D2962F
:100C10008C9189238083D8015D96ED91FC915E973C
:100C20009081D4968C918923808366E3C8010E94C9
:100C30007C0DD8015D96ED91FC915E979081D396E5
:100C40008C91D397892B8083D5968C91823029F013
:100C50006981C8010E947C0D09C0F80180A9882320
:100C6000B9F369817A81C8010E94E60CD801D79650
:100C70008C91D79787FD09C05B96ED91FC915C97AD
:100C80009081D1968C91892B80830F90DF91CF91A9
:100C90001F910F9108954091B903262F30E0240F42
:100CA000311D21323105DCF4209137022430C9F4A2
:100CB000FC0180E090E0861758F43091B90321914F
:100CC000DC01A956BC4FA30FB11D2C930196F3CFA5
:100CD0008091B903680F6093B90380E0089581E0C3
:100CE000089582E00895089508950895E091F0012F
:100CF0008091EF01E81730F4F0E0EF50FE4F808173
:100D000090E008958FEF9FEF08959091F00180910A
:100D1000EF01981750F4E92FF0E0EF50FE4F2081DB
:100D200030E09F5F9093F00102C02FEF3FEFC901C9
:100D300008958091EF0190E02091F001821B9109CC
:100D40000895CF92DF92EF92FF920F931F93CF936C
:100D5000DF937C01CB018A0120913D02222389F09F
:100D6000EB016B01C40ED51ECC15DD0569F0699150
:100D7000D701ED91FC910190F081E02DC70109951B
:100D8000F3CF642F0E944B06C801DF91CF911F91D2
:100D90000F91FF90EF90DF90CF900895CF93DF9366
:100DA0001F92CDB7DEB7698320913D022223D1F097
:100DB00020916002203240F021E030E0FC013383DA
:100DC000228380E090E015C080913E02E82FF0E0A1
:100DD000E15CFD4F998190838F5F80933E02809309
:100DE000600205C061E0CE0101960E944B0681E0E1
:100DF00090E00F90DF91CF9108950895FC0163700A
:100E0000668B8481958126813781613039F063302A
:100E100029F091878087338722870895318720873B
:100E20009387828708956F927F928F929F92AF925D
:100E3000BF92CF92DF92EF92FF920F931F93CF93C7
:100E4000DF93EC014B015A0169013801E881F98116
:100E50000284F385E02D0995E881F9810288F38900
:100E6000E02D87019601A501B401CE010995A501E8
:100E7000460D571D41505109E881F9810288F389D7
:100E8000E02D9601B401CE010995E881F981008831
:100E9000F189E02D9301A501B401CE010995C80C9B
:100EA000D91CB60161507109E881F9810088F18986
:100EB000E02D9301A501CE010995E881F98106880D
:100EC000F789E02DCE01DF91CF911F910F91FF9017
:100ED000EF90DF90CF90BF90AF909F908F907F90DA
:100EE0006F9009948F929F92AF92BF92CF92DF92B0
:100EF000EF92FF920F931F93CF93DF934C016B01FF
:100F00005A01E901DC01ED91FC916217730781F44C
:100F10000417150724F48B2D5801042F182F0A19D4
:100F20001B0998012F5F3F4F048CF58DE02D12C0F7
:100F30004017510709F52617370724F48D2D69014D
:100F4000C62FD82F9E012C193D092F5F3F4F068CCD
:100F5000F78DE02D8701A501B601C4010995DF9148
:100F6000CF911F910F91FF90EF90DF90CF90BF90A6
:100F7000AF909F908F9008950284F385E02D09959E
:100F8000D401ED91FC910488F589E02D9E01A50125
:100F9000B601C4010995D401ED91FC910688F78949
:100FA000E02DC401DF91CF911F910F91FF90EF9041
:100FB000DF90CF90BF90AF909F908F900994EF9269
:100FC000FF920F931F93DC011A960D911C911B97B2
:100FD00018962D913C911997ED91FC9100A0F1A1EB
:100FE000E02D7B0140E050E060E070E009951F914A
:100FF0000F91FF90EF9008954F925F926F927F92C2
:101000008F929F92AF92BF92CF92DF92EF92FF9218
:101010000F931F93CF93DF936C012B015A0139017A
:101020004801DC01ED91FC910284F385E02D0995E6
:10103000E201640C751CD601ED91FC91C615D70533
:101040005CF40088F189E02D87019401A501BE01BF
:10105000C60109952196EFCF0688F789E02DC601D4
:10106000DF91CF911F910F91FF90EF90DF90CF9084
:10107000BF90AF909F908F907F906F905F904F90B8
:1010800009948F929F92AF92BF92CF92DF92EF928C
:10109000FF920F931F93CF93DF93EC015B014A0103
:1010A0006901E881F9810284F385E02D09959501B4
:1010B0002C0D3D1D21503109E881F9810488F58905
:1010C000E02D78018401A401B501CE010995E881E4
:1010D000F9810688F789E02DCE01DF91CF911F912C
:1010E0000F91FF90EF90DF90CF90BF90AF909F90C7
:1010F0008F9009948F929F92AF92BF92CF92DF927E
:10110000EF92FF920F931F93CF93DF93EC015B015C
:101110004A0169017801E881F9810284F385E02DB3
:101120000995C80CD91C860101501109E881F98183
:101130000488F589E02D9501A401B501CE0109953A
:10114000E881F9810688F789E02DCE01DF91CF9102
:101150001F910F91FF90EF90DF90CF90BF90AF90D5
:101160009F908F900994EF92FF920F931F93DC0151
:10117000ED91FC9100A0F1A1E02D09951F910F9137
:10118000FF90EF9008950F931F93DC01ED91FC9178
:10119000068CF78DE02D09951F910F9108950F93FF
:1011A0001F93DC01ED91FC91048CF58DE02D0995E8
:1011B0001F910F910895DC01ED91FC910084F18560
:1011C000E02D09942F923F924F925F926F927F92FF
:1011D0008F929F92AF92BF92CF92DF92EF92FF9247
:1011E0000F931F93CF93DF9300D000D000D0CDB7E3
:1011F000DEB72C017E836D836A015901C801FC8230
:10120000EB824801841A950A97FE03C09194819459
:10121000910835012D813E81621A730A77FE03C061
:10122000719461947108681479045CF43A2D2B2D43
:101230005C01832F922F3D812E81DE82CD82C32ED1
:10124000D22EAD81BE81AA16BB065CF43C2D2D2D9D
:101250006C01832F922F3D812E81BE82AD82A32E01
:10126000B22E85012D813E81021B130B1C012C180F
:101270003D0837FE03C0319421943108780117FFEF
:1012800003C03FEFE31AF30AF594E794C816D906B2
:101290002CF08FEF9FEF9A83898304C0A1E0B0E028
:1012A000BA83A9832D813E81A216B30624F1D2010F
:1012B000ED91FC910484F585E02D2B813C8168142F
:1012C000790424F44D815E81B60103C0A6016D81CD
:1012D0007E81C2010995E218F308F7FE06C0298154
:1012E0003A81C20ED31EE00EF11E8D819E810196C1
:1012F0009E838D83D7CF26960FB6F894DEBF0FBEA0
:10130000CDBFDF91CF911F910F91FF90EF90DF90B4
:10131000CF90BF90AF909F908F907F906F905F9095
:101320004F903F902F9008958F929F92AF92CF92BF
:10133000EF92FF920F931F93CF93DF93EC01262F31
:10134000898D9A8D009709F042C06A3059F41D8644
:101350001C862D898E859F8538E0239F800D911DE9
:10136000112443C06D3009F4AAC08F898823C9F0C5
:101370003C898C859D8546E0349F800D911D11240C
:10138000488559854817590764F41D861C863D8990
:101390008E859F8548E0349F800D911D11249F8785
:1013A0008E87EA88FB88088919894E855F856C8558
:1013B0007D85AD88CC88CE010E9469142C898C85EE
:1013C0009D8536E0239F800D911D11243EC06A301B
:1013D00079F41D861C862D89FC013896E4918E8552
:1013E0009F852E9F800D911D11249F878E8767C03A
:1013F0006D3009F464C0FC0134963491631708F42D
:101400005EC03296E491E61708F459C0462F431B9C
:10141000342FFC0132968590949047E0349F800CE5
:10142000911C1124F401329634913196E4913323C6
:1014300011F0E1110DC0F4013496E4912C898C85F2
:101440009D85E29F800D911D11249D878C8737C05B
:10145000F401359644915F89552319F15C89E32F96
:10146000F0E0E40FF11D47FDFA955E9FB0015F9F2C
:10147000700D11244C855D85460F571F6885798551
:101480006417750774F41D861C863D89FC01389627
:10149000E4918E859F853E9F800D911D11249F872D
:1014A0008E87EA88FB88088919894E855F856C8557
:1014B0007D85AD88CC88CE010E946914BCCF81E0C7
:1014C00090E0DF91CF911F910F91FF90EF90CF901F
:1014D000AF909F908F9008958F929F92AF92BF92FE
:1014E000CF92DF92EF92FF920F931F93CF93DF93F0
:1014F0005C014B016A01E90177FD53C0DC011896DC
:101500008D919C911997681779070CF04AC0209724
:1015100009F447C037FF07C0C9010196C80ED91E9C
:10152000D195C195D109F50182859385C816D90653
:10153000C4F5A6014C0F5D1F9A012150310937FDFA
:1015400030C0D7FE03C0EA01C12CD12C28173907BF
:101550001CF0EC01CC19DD09D501ED91FC91028460
:10156000F385E02DC501099578018E0121E030E079
:10157000A601B401C5010E94C112D501ED91FC91F3
:101580000688F789E02DC501DF91CF911F910F915A
:10159000FF90EF90DF90CF90BF90AF909F908F9093
:1015A0000994DF91CF911F910F91FF90EF90DF9001
:1015B000CF90BF90AF909F908F9008958F929F9201
:1015C000AF92BF92CF92DF92EF92FF920F931F9351
:1015D000CF93DF935C016B014A01E90157FD53C0D2
:1015E000DC011A968D919C911B97481759070CF0B6
:1015F0004AC0209709F447C037FF07C0C9010196C8
:10160000C80ED91ED195C195D109F5018085918566
:10161000C816D906C4F5A6014C0F5D1F9A012150CA
:10162000310937FD30C0D7FE03C0EA01C12CD12CEF
:10163000281739071CF0EC01CC19DD09D501ED9113
:10164000FC910284F385E02DC5010995780101E044
:1016500010E09E01A401B601C5010E94C112D5018E
:10166000ED91FC910688F789E02DC501DF91CF91BE
:101670001F910F91FF90EF90DF90CF90BF90AF90B0
:101680009F908F900994DF91CF911F910F91FF90C0
:10169000EF90DF90CF90BF90AF909F908F90089584
:1016A0008F929F92AF92BF92CF92DF92EF92FF9272
:1016B0000F931F93CF93DF934C016B015A01E90104
:1016C000209709F46CC00115110509F468C037FFB3
:1016D00007C0C9010196C80ED91ED195C195D1097F
:1016E000F401A085B185CA16DB060CF058C017FFBF
:1016F00007C0C8010196A80EB91E119501951109E0
:10170000F40182859385A816B9060CF048C0F6014D
:10171000EC0FFD1FAF014150510957FD40C0B5010D
:10172000600F711F9B012150310937FD38C0D7FE72
:1017300003C0EF01C12CD12CB7FE03C08B01A12C3B
:10174000B12C4A175B071CF0ED01CC19DD092817F5
:1017500039071CF08C010A191B09D401ED91FC9189
:101760000284F385E02DC40109959E01A501B6010F
:10177000C4010E94C112D401ED91FC910688F78941
:10178000E02DC401DF91CF911F910F91FF90EF9059
:10179000DF90CF90BF90AF909F908F900994DF9192
:1017A000CF911F910F91FF90EF90DF90CF90BF905E
:1017B000AF909F908F900895EF92FF920F931F9399
:1017C000CF93DF9377FD34C0DC011896ED91FC9147
:1017D00019976E177F0764F52115310549F137FF19
:1017E00007C0F90131964E0F5F1F319521953109E0
:1017F000DC011A96ED91FC911B974E175F07C4F41C
:10180000EA01C20FD31FDE011197B7FD11C057FFC8
:1018100003C09E0140E050E0AE17BF071CF09F01DF
:10182000241B350B7801890121E030E00E94C112B0
:10183000DF91CF911F910F91FF90EF900895EF925C
:10184000FF920F931F93CF93DF9357FD33C0DC01BB
:101850001A96ED91FC911B974E175F075CF52115C9
:10186000310541F137FF07C0F90131966E0F7F1F37
:10187000319521953109DC011896ED91FC9119976C
:101880006E177F07BCF4EB01C20FD31FDE01119767
:10189000B7FD10C077FF03C09E0160E070E0AE1797
:1018A000BF071CF09F01261B370B780101E010E0F9
:1018B0000E94C112DF91CF911F910F91FF90EF9085
:1018C00008951092370281E080933602109211023F
:1018D00061E082E10E949D1661E083E10E949D1615
:1018E000E9EBF0E080818E7F808380818D7F808333
:1018F00088E48093B80085E48093BC000895CF937A
:10190000DF9391E09093EE018823B9F0C091B80085
:10191000D091BA008091BC008A7B8093BC0060E0CB
:1019200082E10E949D1660E083E10E949D160E9464
:10193000610CD093BA00C093B800DF91CF910895A5
:1019400085ED8093BC008091390290913A02A0917C
:101950003B02B0913C020796A11DB11D23E0B69554
:10196000A795979587952A95D1F72091BC0024FFDC
:101970001CC04091390250913A0260913B02709133
:101980003C02452B462B472B81F30097A105B1055F
:1019900041F02AE22A95F1F700C00197A109B109A7
:1019A000E4CF809138020C947F0C10923702089596
:1019B000FC01A5A1B6A19C9182A589238C93A5A128
:1019C000B6A19C9181A5892B8C9308950F931F93A9
:1019D000CF93DF93EC018B018DA9811109C01EBD4E
:1019E0000DB407FEFDCF0EBD0DB407FEFDCF2FC019
:1019F0008130E9F480E1E9A1FAA1208117FF03C059
:101A00009DA1922B02C09EA192239083EBA1FCA1E9
:101A100020819FA1922B9083EBA1FCA1208198A50E
:101A200092239083000F111F815029F710C0EF8D72
:101A3000F8A11083CE010E94D80CEF8DF8A100838D
:101A4000CE01DF91CF911F910F910C94D80CDF91B3
:101A5000CF911F910F910895AF92BF92CF92DF92D5
:101A6000EF92FF920F931F93CF93DF93EC0177FDDB
:101A700038C088859985681779079CF557FD31C06E
:101A80008A859B854817590764F569017A015B01CE
:101A9000E881F9810284F385E02DCE010995E88182
:101AA000F98102A4F3A5E02D01E010E021E030E08F
:101AB000A701B501CE010995B601CE010E94E60C41
:101AC000E881F9810688F789E02DCE01DF91CF9179
:101AD0001F910F91FF90EF90DF90CF90BF90AF904C
:101AE0000994DF91CF911F910F91FF90EF90DF90BC
:101AF000CF90BF90AF900895FC0185A9811105C0DA
:101B00006EBD0DB407FEFDCF08958130E1F488E08D
:101B1000A1A1B2A12C9167FF03C095A1922B02C095
:101B200096A192239C93A3A1B4A12C9197A1922B4F
:101B30009C93660FA3A1B4A12C9190A592239C9392
:101B4000815031F70895A78DB0A16C93CF010C940B
:101B5000D80CCF93DF93EC01ED8DFE8D90818CA995
:101B600089238083CE010E947C0DED8DFE8D9081B6
:101B70008BA9892B8083DF91CF9108951F93CF93F9
:101B8000DF93EC01162FE881F9810284F385E02DC3
:101B90000995112311F06DAD01C06EADCE010E940B
:101BA000A90DE881F9810688F789E02DCE01DF9142
:101BB000CF911F910994FC0185A9811104C091A1C5
:101BC00082A19CBD8DBD08952F923F924F925F924E
:101BD0006F927F928F929F92AF92BF92CF92DF923D
:101BE000EF92FF920F931F93CF93DF93CDB7DEB7A2
:101BF0002A970FB6F894DEBF0FBECDBF5C017E837F
:101C00006D835A874987370181E090E07C01E41AAF
:101C1000F50ACA01919581959109AC01440F551FB0
:101C20005C834B83C80101969A8389831B012C0135
:101C300089849A84CC24C394D12C922F91709F8351
:101C400022702887C601019729853A858217930754
:101C50000CF078C0F7FC0CC0215031093A87298775
:101C60004B815C814E5F5F4F5C834B83E40EF51EBE
:101C7000C601880F991F0196E80EF91E89859A857D
:101C80008C159D0594F19F819923B1F029853A85A2
:101C9000220F331F49815A81240F351F83014D8143
:101CA0005E8189859A85481B590BB5016C0D7D1D98
:101CB00083E593E00E94DC0B98859923B1F0298598
:101CC0003A85220F331F49815A81240F351F830122
:101CD0004D815E8189859A85481B590BB5016C1928
:101CE0007D0983E593E00E94DC0B29853A85281560
:101CF000390551F42FEFC21AD20A31E0231A310804
:101D000042E0440E511C9ECF3F81332351F08301AA
:101D10009201A101B501680D791D83E593E00E9450
:101D2000DC0B4885411103C089849A84E3CFB50157
:101D30006819790983019201A10183E593E00E946A
:101D4000DC0BF2CF2A960FB6F894DEBF0FBECDBFE4
:101D5000DF91CF911F910F91FF90EF90DF90CF9087
:101D6000BF90AF909F908F907F906F905F904F90BB
:101D70003F902F900895E1E6F2E0AAE8B2E08C915E
:101D8000808311968C911197818315964C911597AC
:101D900012968C91129724E0829FB0011124942F07
:101DA0009C70892F90E09595879595958795862BC2
:101DB000972B9383828313968C91139794E0899F3A
:101DC000B0011124942F9073892F90E034E0959501
:101DD00087953A95E1F7862B972B95838483149604
:101DE0008C9124E0829FC0011124542F5295569566
:101DF00056955370852B97838683842F80958170A9
:101E0000808741FB222720F930E081E028272187C5
:101E100081E008958F929F92AF92BF92CF92DF920E
:101E2000EF92FF920F931F93CF93DF931091600275
:101E3000113208F0C2C0082FD0915F020E9426170D
:101E40006B017C01C0913702CC2311F180913902E2
:101E500090913A02A0913B02B0913C02892B8A2BCF
:101E60008B2B81F30E9426178090390290903A02C2
:101E7000A0903B02B0903C02DC01CB018C199D0983
:101E8000AE09BF0988169906AA06BB06D8F681C016
:101E900082E080933702009336028FEF8093350201
:101EA0001092340210933302AFE3B2E0E3E1F2E0C8
:101EB00080E0181721F09D9191938F5FFACF1092D7
:101EC0001202909112028D2F880F892B809312029B
:101ED00080911102813089F5109211020E9426171B
:101EE0006B017C01809112028093BB0080913902CA
:101EF00090913A02A0913B02B0913C02892B8A2B2F
:101F00008B2BA9F00E9426170091390210913A02FA
:101F100020913B0230913C02DC01CB018C199D09E0
:101F2000AE09BF09081719072A073B0790F18091EE
:101F3000BC0083FDD7CF85EC01C085EE8093BC004B
:101F40000E9426176B017C0180913702823039F59F
:101F50008091390290913A02A0913B02B0913C02EB
:101F6000892B8A2B8B2B81F30E9426170091390233
:101F700010913A0220913B0230913C02DC01CB01EE
:101F80008C199D09AE09BF09081719072A073B07D5
:101F9000D8F6809138020E947F0CC5E013C0809172
:101FA00035028F3F79F080913502803241F0809187
:101FB0003502803331F0C4E005C0C1E003C0C2E0A7
:101FC00001C0C3E010923E021092600210923D02E6
:101FD0008C2FDF91CF911F910F91FF90EF90DF90A9
:101FE000CF90BF90AF909F908F9008958F929F92C7
:101FF000AF92BF92CF92DF92EF92FF921F93CF9357
:10200000DF93162F91E090933D0292E590935F024B
:1020100010923E0210926002682F87E493E00E94C3
:10202000CE0681E00E940A0F8FE99FE00197F1F749
:1020300000C000000E9426176B017C01C09137028E
:10204000CC2339F18091390290913A02A0913B0260
:10205000B0913C02892B8A2B8B2B81F30E9426178F
:102060008090390290903A02A0903B02B0903C02DE
:10207000DC01CB018C199D09AE09BF0988169906B0
:10208000AA06BB06D8F6809138020E947F0CC0E0F9
:102090008FC0D12F113208F0D0E281E08093370257
:1020A000809336029FEF90933502109234029D0F79
:1020B000909333028093120280911202846A80937B
:1020C000120280911102813089F5109211020E9452
:1020D00026176B017C01809112028093BB008091D6
:1020E000390290913A02A0913B02B0913C02892BB7
:1020F0008A2B8B2BA9F00E94261780903902909092
:102100003A02A0903B02B0903C02DC01CB018C195A
:102110009D09AE09BF0988169906AA06BB0690F16B
:102120008091BC0083FDD7CF85EC01C085EE809304
:10213000BC000E9426176B017C0180913702813020
:1021400031F58091390290913A02A0913B02B09111
:102150003C02892B8A2B8B2B81F30E9426178090BF
:10216000390290903A02A0903B02B0903C02DC0110
:10217000CB018C199D09AE09BF0988169906AA06DC
:10218000BB06D8F6809138020E947F0C11C0809166
:1021900034028D1710F4D0913402E3E1F2E0A1EFA4
:1021A000B1E0C0E0CD1721F081918D93CF5FFACFE0
:1021B0001092F001C093EF01D0E08091F001C817B8
:1021C00081F01D1770F0FF24F394FD0E87E493E077
:1021D0000E948506ED2FF0E0E657FD4F8083DF2D4E
:1021E000ECCF8D2FDF91CF911F91FF90EF90DF907B
:1021F000CF90BF90AF909F908F9008952F923F9275
:102200004F925F926F927F928F929F92AF92BF9206
:10221000CF92DF92EF92FF920F931F93CF93DF93B2
:1022200000D000D0CDB7DEB71C012B015A016901E7
:1022300048014217530734F45A83498357FF0AC0B1
:102240009A0104C03A83298337FF04C02F5F3F4FB0
:102250003A83298389819A81959587959C838B837D
:102260002B813C812530310524F085E090E09C8372
:102270008B8383E593E00E94FA036B807C80660C7D
:10228000771C2B813C81220D331D3A8329839501D4
:102290002619370974018601A20169817A8183E5D3
:1022A00093E00E945D03C618D70831E0C31AD10835
:1022B0008B819C81480E591EA20CB31CC5012B8139
:1022C0003C81821B930B860121E04B815C81B20132
:1022D00001970E94E40D22E04B815C81B20189816B
:1022E0009A810E94E40D83E593E00F900F900F9088
:1022F0000F90DF91CF911F910F91FF90EF90DF90A2
:10230000CF90BF90AF909F908F907F906F905F9095
:102310004F903F902F900C94B9052F923F924F927F
:102320005F926F927F928F929F92AF92BF92CF9265
:10233000DF92EF92FF920F931F93CF93DF937C0175
:102340006B01EA0181E090E05C01A41AB50A662401
:102350007724641A750A660C771C00E010E0882464
:102360008394912C822F8470582E822F8270482E55
:10237000822F8870382E2170222E0C171D070CF02A
:1023800079C0B7FC06C0219782E0680E711CA60CCC
:10239000B71C0F5F1F4F82E0880E911CA80CB91C60
:1023A0005520C1F02FEF3FEFAE014C0D5D1DB70181
:1023B000600F711F83E593E00E94C8032FEF3FEF8A
:1023C000A601400F511FBE016E0D7F1D83E593E0F6
:1023D0000E94C8034420C1F02FEF3FEFA6014C1B21
:1023E0005D0BB701600F711F83E593E00E94C80386
:1023F0002FEF3FEFA601401B510BBE016E0D7F1D5D
:1024000083E593E00E94C8033320C1F02FEF3FEF34
:10241000A601400F511FB7016C1B7D0B83E593E0B4
:102420000E94C8032FEF3FEFAE014C0D5D1DB701B9
:10243000601B710B83E593E00E94C803222009F41E
:102440009CCF2FEF3FEFA601401B510BB7016C1B38
:102450007D0B83E593E00E94C8032FEF3FEFA601B9
:102460004C1B5D0BB701601B710B83E593E00E9471
:10247000C80383CFDF91CF911F910F91FF90EF9011
:10248000DF90CF90BF90AF909F908F907F906F9094
:102490005F904F903F902F900895682F87E493E0CE
:1024A0000C94CE06AF92BF92CF92DF92EF92FF9242
:1024B0000F931F93CF93DF93EC01E62E8A01F22E48
:1024C0000E94DB0D8FA987FD06C0EB8DFC8D9081EE
:1024D0008AA989238083ED8DFE8D90818CA9892323
:1024E00080836E2DCE010E947C0DED8DFE8D90813E
:1024F0008BA9892B8083C12CD12CAF2CB12CCA1471
:10250000DB04E4F48DA97801823059F488A988238A
:1025100041F0F801619171917F01CE010E94E60CBA
:1025200008C0FFEFEF1AFF0AF8016491CE010E9484
:102530007C0DFFEFCF1ADF0A8701E1CF8FA987FD5E
:1025400006C0EB8DFC8D908189A9892B80838DA994
:1025500081110CC0DF91CF911F910F91FF90EF90EF
:10256000DF90CF90BF90AF900C94B805DF91CF91E2
:102570001F910F91FF90EF90DF90CF90BF90AF90A1
:1025800008958F929F92AF92BF92CF92DF92EF9277
:10259000FF920F931F93CF93DF93EC014901BE2C61
:1025A000AF2CE881F98102A4F3A5E02D09959401EF
:1025B000D8010E94031F611571058105910509F479
:1025C00081C02DA921110FC06150710981099109A4
:1025D00008F478C0AEBC0DB407FEFDCFBEBC0DB490
:1025E00007FEFDCFF1CF213009F03FC061507109E6
:1025F0008109910908F466C03A2D28E0E9A1FAA101
:10260000508137FF03C04DA1452B02C04EA1452389
:102610004083EBA1FCA150814FA1452B4083EBA14E
:10262000FCA1508148A545234083330F215031F749
:102630003B2D28E0E9A1FAA1508137FF03C04DA14D
:10264000452B02C04EA145234083EBA1FCA1508144
:102650004FA1452B4083EBA1FCA1508148A5452308
:102660004083330F215031F7C1CFFE1017C0EF8DDB
:10267000F8A1F0826B017C01CC0CDD1CEE1CFF1C70
:10268000C114D104E104F104E9F0CE010E94D80C98
:1026900081E0C81AD108E108F108F2CF6B017C0192
:1026A000EF8DF8A1A082CE010E94D80CEF8DF8A189
:1026B000B082CE010E94D80C21E0C21AD108E108F4
:1026C000F10871F7DF91CF911F910F91FF90EF907B
:1026D000DF90CF90BF90AF909F908F900895CF9252
:1026E000DF92EF92FF920F931F93CF93DF936C01D2
:1026F0007A018B01C0E0D0E0CE15DF0581F0D80172
:102700006D918D01D601ED91FC910190F081E02D4C
:10271000C6010995892B11F02196EECF7E01C701E4
:10272000DF91CF911F910F91FF90EF90DF90CF90AD
:102730000895FC01538D448D252F30E0842F90E0C7
:10274000821B930B541710F0CF96089501970895AC
:10275000FC01918D828D981761F0828DDF01A80FA9
:10276000B11D5D968C91928D9F5F9F73928F90E0CB
:1027700008958FEF9FEF0895FC01918D828D98173A
:1027800031F0828DE80FF11D858D90E008958FEF77
:102790009FEF0895FC01918D228D892F90E0805C40
:1027A0009F4F821B91098F7399270895FC01848D97
:1027B000DF01A80FB11DA35ABF4F2C91848D90E06B
:1027C00001968F739927848FA689B7892C93A08946
:1027D000B1898C91837080648C93938D848D9813D0
:1027E00006C00288F389E02D80818F7D8083089563
:1027F000EF92FF920F931F93CF93DF93EC0181E051
:10280000888F9B8D8C8D981305C0E889F98980810C
:1028100085FD26C0F62E0B8D10E00F5F1F4F0F7346
:102820001127E02E8C8DE8120CC00FB607FCFACFF2
:10283000E889F989808185FFF5CFCE010E94D61302
:10284000F1CF8B8DFE01E80FF11DE35AFF4FF082AF
:102850009FB7F8940B8FEA89FB89808180620AC058
:102860009FB7F894EE89FF896083E889F9898081B0
:102870008370806480839FBF81E090E0DF91CF917F
:102880001F910F91FF90EF900895CF93DF93EC018C
:10289000888D8823C9F0EA89FB89808185FD05C080
:1028A000A889B9898C9186FD0FC00FB607FCF5CFBA
:1028B000808185FFF2CFA889B9898C9185FFEDCF02
:1028C000CE010E94D613E7CFDF91CF9108950E94E9
:1028D000271F2F923F924F925F926F927F928F921B
:1028E0009F92AF92BF92CF92DF92EF92FF920F939F
:1028F0001F93CF93DF93CDB7DEB76B970FB6F894E6
:10290000DEBF0FBECDBF9B8F8A8F1B014A01D22E27
:10291000198708873701A982DC0159962D913C91CE
:102920005A972115310509F0FFC018968D919C9199
:102930001997681779070CF0E7C11A968D919C9149
:102940001B97481759070CF0DFC1EC2DF0E0FB8313
:10295000EA839B0146E0C49E200D311D11243D8772
:102960002C87121613060CF0CFC16A2D70E07B87FE
:102970006A8783E0660F771F8A95E1F77F876E8706
:10298000CB01880D991D181619060CF0BDC158967B
:102990008C91811104C08FEA8D1508F4D394AA8D0F
:1029A000BB8DED91FC9111970284F385E02DCD0153
:1029B0000995B5E0DB9EC0011124EC2DF0E0F98B08
:1029C000E88B91012B5F3F4F3B8B2A8B3D822C8202
:1029D0002101AC01421953095D8B4C8B7981672F22
:1029E00070E07F8B6E8BC4010896998F888FEC897D
:1029F000FD89E40DF51DE95DFE4FD49054019F82E1
:102A00008E82D0FE16C0AA8DBB8DED91FC91B1E0F7
:102A1000CB1209C02981213031F40484F585E02DE1
:102A20002885398519C00684F785E02DE884F98466
:102A30001DC0488559854615570519F1AA8DBB8DCE
:102A4000ED91FC91B1E0CB120DC02981213051F400
:102A50000484F585E02D9301A501B2018A8D9B8D3B
:102A600009950FC00684F785E02D73010A851B8543
:102A70002A813B814E815F816C817D818A8D9B8D16
:102A80000995D6943FEFA31AB30A4E815F816E89F0
:102A90007F89460F571F5F834E83888D998DA816B7
:102AA000B90609F0AECF9FEF491A590AAC81BD8132
:102AB000E889F989AE0FBF1FBD83AC832A893B89A2
:102AC0004216530609F093CF488559854615570598
:102AD00009F4F8C0AA8DBB8DED91FC91B1E0CB1249
:102AE00011C02981213071F4B1016B5F7F4F0088E3
:102AF000F189E02D830128E030E0A4018A8D9B8DCF
:102B00000995E0C06C857D854A815B81641B750BEE
:102B10000684F785E02D73010E851F859A01A401B7
:102B20008A8D9B8D0995CEC0F9013496E491DE1A09
:102B3000F901329685919491B7E0DB9E800D911D4D
:102B40001124F901259134913B8B2A8BFC012591AD
:102B500034915901FC0132965490319634913C875E
:102B6000329674903196149141E04C1518F05981C9
:102B7000523068F0672D072C000C770B7D836C8337
:102B8000812F012E000C990B9B838A8304C01B822A
:102B90001A821D821C82AA8DBB8DED91FC9111972A
:102BA0000284F385E02DCD010995412CD12C612CB7
:102BB000F981EF2FF0E0FF83EE832C2D30E03B878F
:102BC0002A87A401410F511D17FD5A955F8B4E8B2B
:102BD000B101670D711D77FC7A95798F688F7C85BF
:102BE000671608F06FC0262D30E04A815B81420FE6
:102BF000531FAE81BF81A49FC001A59F900DB49FBC
:102C0000900D1124F401E80FF91FF98BE88B842D46
:102C1000712C4E895F89420F531F5D8B4C8B75144D
:102C200008F04DC051E0580F5E87877041F4C50130
:102C30000196EA89FB89EA0DFB1DD4905C01D7FE61
:102C40003AC061E0C61216C07981713099F4AA8D3C
:102C5000BB8DED91FC9111970484F585E02D2885BD
:102C600039854C895D89688D798D670D711DCD0120
:102C7000099521C08C819D81870D911DEA85FB8579
:102C80008E9FB0018F9F700D9E9F700D1124620D5D
:102C9000731DAA8DBB8DED91FC9111970684F7856C
:102CA000E02DE884F9840E811F812A853B854889BF
:102CB0005989CD010995DD0C73948E85B0CF450CF3
:102CC00063948DCFAA8DBB8DED91FC9111970688F1
:102CD000F789E02DCD016B960FB6F894DEBF0FBEDD
:102CE000CDBFDF91CF911F910F91FF90EF90DF90BB
:102CF000CF90BF90AF909F908F907F906F905F909C
:102D00004F903F902F9009946B960FB6F894DEBFCA
:102D10000FBECDBFDF91CF911F910F91FF90EF902C
:102D2000DF90CF90BF90AF909F908F907F906F90EB
:102D30005F904F903F902F90089590E0FC01ED5EE2
:102D4000FE4F2491FC01E952FF4F3491FC01EB50FE
:102D5000FF4FE491EE2309F43CC0222339F12330E4
:102D600091F038F42130A9F0223001F584B58F7D3F
:102D700012C0273091F02830A1F02430B9F48091AE
:102D800080008F7D03C0809180008F7780938000CA
:102D90000DC084B58F7784BD09C08091B0008F7756
:102DA00003C08091B0008F7D8093B000F0E0EE0F03
:102DB000FF1FE551FF4FA591B4919FB7F8946111A2
:102DC00004C08C913095382302C0EC913E2B3C938B
:102DD0009FBF0895CF93DF9390E0FC01E952FF4F2E
:102DE0002491FC01EB50FF4F8491882361F190E026
:102DF000880F991FFC01E75FFE4FC591D491FC013C
:102E0000E551FF4FA591B491611109C09FB7F894A6
:102E10008881209582238883EC912E230BC0623019
:102E200061F49FB7F8948881322F3095832388838B
:102E3000EC912E2B2C939FBF06C08FB7F894E8819E
:102E40002E2B28838FBFDF91CF9108953FB7F89441
:102E50008091E3039091E403A091E503B091E60330
:102E600026B5A89B05C02F3F19F00196A11DB11DE5
:102E70003FBFBA2FA92F982F8827820F911DA11D20
:102E8000B11DBC01CD0142E0660F771F881F991F5D
:102E90004A95D1F708951F920F920FB60F92112401
:102EA0002F933F938F939F93AF93BF938091DF03B3
:102EB0009091E003A091E103B091E2033091DE0331
:102EC00023E0230F2D3720F40196A11DB11D05C06D
:102ED00026E8230F0296A11DB11D2093DE038093E7
:102EE000DF039093E003A093E103B093E2038091AA
:102EF000E3039091E403A091E503B091E60301960A
:102F0000A11DB11D8093E3039093E403A093E50317
:102F1000B093E603BF91AF919F918F913F912F9115
:102F20000F900FBE0F901F9018956115710579F0E5
:102F3000FB0101900020E9F73197AF01461B570BC9
:102F4000DC01ED91FC910280F381E02D099480E099
:102F500090E008950F931F93CF93DF93EC010E94AD
:102F600095178C0166EB71E0CE010E949517800FDA
:102F7000911FDF91CF911F910F9108951F920F9292
:102F80000FB60F9211242F933F934F935F936F933C
:102F90007F938F939F93AF93BF93EF93FF938AEAAF
:102FA00092E00E94D613FF91EF91BF91AF919F9154
:102FB0008F917F916F915F914F913F912F910F90E2
:102FC0000FBE0F901F9018951F920F920FB60F9281
:102FD00011242F938F939F93EF93FF93E091BA0265
:102FE000F091BB028081E091C002F091C10282FDAC
:102FF00012C090818091C3028F5F8F732091C402B1
:10300000821751F0E091C302F0E0E655FD4F958F35
:103010008093C30201C08081FF91EF919F918F91B6
:103020002F910F900FBE0F901F9018951F920F9227
:103030000FB60F9211242F933F934F935F936F938B
:103040007F938F939F93AF93BF93EF93FF93809161
:10305000B900887F803609F49CC068F5883209F48D
:103060005BC090F4803109F454C038F4882309F42B
:10307000F6C0883009F44DC0F6C0883109F44CC060
:10308000803209F45DC0EFC0803409F468C048F4B0
:10309000803309F455C0883309F0E5C080933502C8
:1030A000D8C0803509F44FC0883509F45DC0883434
:1030B00009F0D9C0D6C0883909F4C7C0A8F4883748
:1030C00009F467C038F4883609F463C0803709F41E
:1030D00060C0C9C0883809F4B8C0803909F45FC03D
:1030E000803809F0C0C05BC0803B09F486C038F46A
:1030F000803A09F466C0883A09F47FC0B4C0803CC5
:1031000009F4A7C0883C09F4A4C0883B09F48AC02C
:10311000AAC08091120210C09091340280913302B3
:10312000981770F5E091340281E08E0F809334029D
:10313000F0E0ED5EFD4F80818093BB0085EC86C0A2
:10314000809335028EC0E091340281E08E0F80932F
:1031500034028091BB00F0E0ED5EFD4F80839091E2
:103160003402809133026EC0E091340281E08E0F10
:10317000809334028091BB00F0E0ED5EFD4F8083D0
:103180008091360281116DC081E08093110284EA42
:1031900061C083E0809337021092DD03CFCF80912E
:1031A000DD03803208F051C0E091DD0381E08E0F35
:1031B0008093DD038091BB00F0E0E354FC4F8083FB
:1031C000BDCF85EC8093BC00109237028091DD0367
:1031D000803230F4E091DD03F0E0E354FC4F1082E4
:1031E0006091DD0370E0E091BA03F091BB038DEBD9
:1031F00093E009951092DD0336C084E08093370296
:103200001092BC031092B903E091B703F091B80398
:1032100009958091B903811105C081E08093B903BC
:1032200010929703E091BC0381E08E0F8093BC0362
:10323000F0E0E956FC4F80818093BB009091BC0385
:103240008091B903981708F479CF85E88093BC0082
:103250000AC085EC8093BC001092370204C0109223
:1032600035020E94A00CFF91EF91BF91AF919F9109
:103270008F917F916F915F914F913F912F910F901F
:103280000FBE0F901F9018952F923F924F925F9212
:103290006F927F928F929F92AF92BF92CF92DF9266
:1032A000EF92FF920F931F93CF93DF93CDB7DEB7CB
:1032B000C551D2400FB6F894DEBF0FBECDBF789493
:1032C00040E050E0BA0183E593E00E947D04109253
:1032D000F0011092EF0110923E02109260020E94E3
:1032E000610C83E796E09093B8038093B70384E77B
:1032F00096E09093BB038093BA03E091BA02F091F9
:10330000BB0282E08083E091B602F091B7021082A6
:10331000E091B802F091B9028FEC80831092C20262
:10332000E091BE02F091BF0286E08083E091BC0292
:10333000F091BD02808180618083E091BC02F091B8
:10334000BD02808188608083E091BC02F091BD0263
:10335000808180688083E091BC02F091BD02808111
:103360008F7D808320905B0330905C0320915D0310
:1033700030915E03CE5FDD4F39832883C250D24047
:10338000910137FE02C02F5F3F4F35952795CE5FE5
:10339000DD4F88819981C250D24097FD0196959565
:1033A0008795CE5FDD4F48815981C250D2402416A7
:1033B000350614F4832F02C0282F892F422E582E51
:1033C00056E0451651041CF0F5E04F2E512CC20179
:1033D000880F991FF101E81BF90BCA5FDD4FF983D4
:1033E000E883C650D240CE5FDD4F28813981C2507C
:1033F000D240281B390BC85FDD4F39832883C85062
:10340000D240C10184199509AC0141505109C65FF0
:10341000DD4F59834883CA50D240CE5FDD4F88814B
:103420009981C250D24084199509FC013197C45F3B
:10343000DD4FF983E883CC50D2409101255031090A
:10344000CE5EDD4F39832883C251D240CE5FDD4F3F
:1034500048815981C250D24043505109CC5EDD4F62
:1034600059834883C451D24001E000933D0212E5E4
:1034700010935F0210923E021092600280EF90E083
:103480000E944D1285E590E00E944D1281E00E945D
:103490000A0F00933D0210935F0210923E021092B9
:1034A00060028BEF90E00E944D1280E090E00E945D
:1034B0004D1281E00E940A0F64E08AEF0E94F60F2D
:1034C000843009F0A1C380E380937F0288E7809372
:1034D00080028AE892E0A1E6B2E029E632E0FC014F
:1034E0006191CF01462F50E074E0559547957A954C
:1034F000E1F7485F5E4FFA01408190964C939097B8
:10350000E62FEF70F0E0E85FFE4F408191964C931C
:10351000919712962A173B0711F71092890228E11A
:1035200031E0CC5FDD4F39832883C450D240CE5F79
:10353000DD4F48815981C250D24041505109C25F8C
:10354000DD4F59834883CE50D240C1010197C05FFF
:10355000DD4F99838883C051D2400E94490382E4A1
:103560000E943F03CC5FDD4FE881F981C450D24017
:103570008191CC5FDD4FF983E883C450D2400E9433
:103580003F03F4E9F093BC0060E070E083E593E072
:103590000E94DF0783E593E00E94FA030FEF1FEF1D
:1035A000CA5FDD4F28813981C650D24040E050E0EB
:1035B000B20183E593E00E941F0CCA5FDD4F2881B2
:1035C0003981C650D240C25FDD4F48815981CE500B
:1035D000D240B20183E593E00E941F0CC85FDD4F2B
:1035E00028813981C850D240A20160E070E083E5B3
:1035F00093E00E94DC0BC85FDD4F28813981C85001
:10360000D240A201C05FDD4F68817981C051D240B4
:1036100083E593E00E94DC0B21E0A201B201C2012C
:103620000E948D1122E0A201B201C65FDD4F8881A8
:103630009981CA50D2400E948D1124E0A201C45F3A
:10364000DD4F68817981CC50D240C65FDD4F8881E3
:103650009981CA50D2400E948D1128E0A201C45F16
:10366000DD4F68817981CC50D240C2010E948D111A
:1036700083E593E00E94B90521E0CF5FDD4F288309
:10368000C150D240C12CD12C02E3802E912C82E378
:10369000A82EB12C01E010E00115110509F414C2A7
:1036A00066E080E00E94F60F8630B1F70E94BB0E04
:1036B000882391F3CF5FDD4F3881C150D2403D7FE9
:1036C000732ECF5FDD4F4881C150D24040FD07C00F
:1036D00000E018EF2AE030E045E050E009C051E09A
:1036E00035130AC000E018EF25E030E04AE050E072
:1036F000B401C5010E94FE10109285001092840052
:1037000010928000109281008091810085608093EA
:10371000810080916F00816080936F007894809128
:103720008400909185008A3F9105C8F3711007C00D
:1037300000E010E02AE030E045E050E009C081E020
:1037400078120AC000E010E025E030E04AE050E0E6
:10375000B401C5010E94FE10C601880F991FCF5FFA
:10376000DD4FE881C150D240E13029F53501FFEF4E
:103770006F1A7F0AE1E0F0E0EC0FFD1FE80FF91F80
:1037800071826082F601E058FF4FEE0FFF1F21E0CB
:1037900030E02C0F3D1FE20FF31FA4014D5F5F4F80
:1037A00051834083E12CB8EFFB2E84010E5F1F4F45
:1037B0009501B30130C0CF5FDD4FE881C150D240E9
:1037C000E33009F057C03501F1E06F1A7108B50117
:1037D000675F7F4FE1E0F0E0EC0FFD1FE80FF91F9E
:1037E00071836083F601E058FF4FEE0FFF1F21E069
:1037F00030E02C0F3D1FE20FF31FA4014D5F5F4F20
:10380000518340839501285F3F4FE12CE8EFFE2E66
:1038100084010E5F1F4F83E593E00E9472073FEF24
:10382000C31AD30A40E8C416D10411F4C12CD12C18
:10383000F601E058FF4FEE0FFF1F81E090E08C0F84
:103840009D1FE80FF91F40815181F601EE0FFF1F08
:10385000E80FF91F608171818A01015011099B01F4
:1038600021503109E12CF12C83E593E00E9472078D
:1038700053018AC0CF5FDD4FE881C150D240E111D2
:1038800029C03401F1E06F1A7108E1E0F0E0EC0FBB
:10389000FD1FE80FF91FB5016D5F7F4F71836083D6
:1038A000A401475F5F4FF601E058FF4FEE0FFF1F87
:1038B00021E030E02C0F3D1FE20FF31F51834083C6
:1038C0008401085F1F4FE12C88EFF82E95012E5FD1
:1038D0003F4F2CC0CF5FDD4FE881C150D240E23076
:1038E00009F052C03401FFEF6F1A7F0AE1E0F0E007
:1038F000EC0FFD1FE80FF91FB5016D5F7F4F71835E
:103900006083F601E058FF4FEE0FFF1F21E030E02B
:103910002C0F3D1FE20FF31F71826082E12CB8EF84
:10392000FB2E840195012E5F3F4FA30183E593E0B9
:103930000E9472073FEFC31AD30A40E8C416D104AD
:1039400011F4C12CD12CF601E058FF4FEE0FFF1FF0
:1039500081E090E08C0F9D1FE80FF91F408151819D
:10396000F601EE0FFF1FE80FF91F608171818A01D8
:10397000015011099B0121503109E12CF12C83E503
:1039800093E00E94720743018091610281110FC090
:10399000CF5FDD4F9881C150D2409130E9F0933034
:1039A00009F444C0EAE0AE1AB108F3E03AC08F3F30
:1039B00099F4CF5FDD4F2881C150D240233061F0B0
:1039C0002130A1F135E0A30EB11C41E0CF5FDD4F06
:1039D0004883C150D2402AC0809162028F3F91F447
:1039E000CF5FDD4F5881C150D2405230F9F055239E
:1039F000E9F08AE0881A9108CF5FDD4F1882C15044
:103A0000D24014C0811112C0CF5FDD4F9881C150E8
:103A1000D240992359F0923049F0E8E08E0E911C83
:103A2000F2E0CF5FDD4FF883C150D240B7FC03C056
:103A300001E010E004C0A12CB12C00E010E0CE5E4B
:103A4000DD4F28813981C251D2402A153B0528F427
:103A500026EEA22EB12C00E010E0CC5EDD4F4881B6
:103A60005981C451D2404815590528F097FE09C024
:103A7000812C912C04C096E3892E9924939400E024
:103A800010E0F601EE0FFF1F81E090E08C0F9D1F0C
:103A9000E80FF91F20813181FC0180E090E082175E
:103AA00093070CF0F9CD41915191A416B50651F44C
:103AB000DF01A250BF4F4D915C918416950611F421
:103AC00000E010E00196EBCFEDE1F1E0CC5FDD4FDF
:103AD00028813981C450D240E217F30709F03DCD67
:103AE0000E94490382E40E943F0382E90E943F034F
:103AF00084E98093BC0060E070E083E593E00E947D
:103B0000DF071092600310925F031092620310921D
:103B100061038FEF9FEF909366038093650390930B
:103B200064038093630383E0809367038093680357
:103B300064EA71E083E593E00E94AA1710926003A3
:103B400010925F0382E390E090936203809361039D
:103B500012E010936703109368036EEA71E083E547
:103B600093E00E94AA1719A285E388A3BE01605EB4
:103B70007F4F83E593E00E94951766EB71E083E544
:103B800093E00E9495171092600310925F0384E601
:103B900090E0909362038093610310936703109306
:103BA000680369EB71E083E593E00E94AA17109225
:103BB0008500109284001092800010928100809104
:103BC000810085608093810080916F008160809387
:103BD0006F00789480918400909185008A3F9105D0
:103BE000C8F366E080E00E94F60F863001F70E947D
:103BF000BB0E8823E1F2809169028130C1F6809189
:103C00006A028130A1F630CC61ED71E08AEA92E07F
:103C10000E94AA178AEA92E00E94451481E090E08F
:103C2000CB5EDD4F0FB6F894DEBF0FBECDBFDF9188
:103C3000CF911F910F91FF90EF90DF90CF90BF90A9
:103C4000AF909F908F907F906F905F904F903F903C
:103C50002F900895EAEAF2E01382128288EE93E050
:103C6000A0E0B0E084839583A683B78324E231E0AB
:103C70003183208325EC30E03587248724EC30E045
:103C80003787268720EC30E0318B208B21EC30E029
:103C9000338B228B22EC30E0358B248B26EC30E00A
:103CA000378B268B118E128E138E148EE7E4F3E081
:103CB0001382128284839583A683B78386E391E07F
:103CC00091838083A3E5B3E013961C921E92129712
:103CD00020EF30E015963C932E93149780E491E00A
:103CE00017969C938E93169719963C932E9318973C
:103CF0001B969C938E931A9756961C9256971D96D8
:103D00001C921E921C971F961C921E921E9781E079
:103D100055968C93559754968C9354972FEF3FEF6D
:103D200053963C932E93529751963C932E935097D3
:103D300057968C93579758961C9258975A961C9260
:103D40001E925997D5961C92D5978FEFD6968C9345
:103D5000D6978AE0D7968C93D79789E0D8968C939C
:103D6000D897DA961C921E92D997DC961C921E92D6
:103D7000DB97DD961C92DD97DE961C92DE97109203
:103D8000920310929303109294031092950386E984
:103D900093E090969C938E935F97EEEFF0E0E49122
:103DA000F0E0EE0FFF1FE551FF4F859194915E9675
:103DB0009C938E935D97E0EEF0E08491D3968C9384
:103DC000D397EFEFF0E0E491F0E0EE0FFF1FE55145
:103DD000FF4F259134915C963C932E935B97E1EED7
:103DE000F0E0E491D196EC93D197E095D296EC93E4
:103DF000D297E82FE095D496EC93D49788E791E09A
:103E00008D939C9308950E940B1F332312F48A1BF9
:103E10009B0B0C941C1FA29FB001B39FC001A39FDA
:103E2000700D811D1124911DB29F700D811D1124F3
:103E3000911D08950E940B1FB7FF0895821B930BDD
:103E40000895EE0FFF1F0590F491E02D099481E095
:0C3E500090E0F8940C942C1FF894FFCF25
:103E5C00FFFFFFFFFFFFFFFF3031323334353637C2
:103E6C003839414243444546C0F9A4B099928EFF7B
:103E7C0000000000F8136F1399134514CA13A8130C
:103E8C00BC1300000000CE06A1065A037506990665
:103E9C00850676060000000094096F135A03590337
:103EAC002C0DFA03C8035D03DC0B1F0CE208B905EB
:103EBC00FE06BE0D6C0ADE0A500BDF0772071307F5
:103ECC00671467140000000094096F135A03590318
:103EDC002C0DFA03C8035D03DC0B1F0CE208B905BB
:103EEC00C40573046C0ADE0A500BDF077207130754
:103EFC007D040B0447616D65204F7665720053633A
:103F0C006F72653A20000D0A00507265737320437E
:103F1C002026205A20746F20636F6E74696E75654D
:103F2C00002A2A2A2A2A2A2A2A204E6F206E756EE7
:0C3F3C006368756B20666F756E64000092
:00000001FF
