:100000000C9415030C943D030C943D030C943D0398
:100010000C943D030C943D030C943D030C943D0360
:100020000C943D030C943D030C943D030C943D0350
:100030000C943D030C943D030C943D030C943D0340
:100040000C9481100C943D030C94CE150C94A815BF
:100050000C943D030C943D030C943D030C943D0320
:100060000C9477160C943D03000000002400270038
:100070002A0000000008000201000003040700003D
:1000800000000000000000000000003E5B4F5B3EEF
:100090003E6B4F6B3E1C3E7C3E1C183C7E3C181C4D
:1000A000577D571C1C5E7F5E1C00183C1800FFE744
:1000B000C3E7FF0018241800FFE7DBE7FF30483AEA
:1000C000060E2629792926407F050507407F05254C
:1000D0003F5A3CE73C5A7F3E1C1C08081C1C3E7FD4
:1000E00014227F22145F5F005F5F06097F017F009B
:1000F0006689956A606060606094A2FFA2940804BB
:100100007E040810207E201008082A1C08081C2ADB
:1001100008081E101010100C1E0C1E0C30383E3833
:1001200030060E3E0E06000000000000005F0000DA
:100130000007000700147F147F14242A7F2A12234B
:100140001308646236495620500008070300001C5B
:100150002241000041221C002A1C7F1C2A08083E64
:100160000808008070300008080808080000606077
:100170000020100804023E5149453E00427F4000E5
:1001800072494949462141494D331814127F1027BD
:10019000454545393C4A494931412111090736490C
:1001A000494936464949291E0000140000004034E0
:1001B00000000008142241141414141400412214E5
:1001C0000802015909063E415D594E7C1211127C0C
:1001D0007F494949363E414141227F4141413E7F6D
:1001E000494949417F090909013E414151737F084D
:1001F00008087F00417F41002040413F017F0814F3
:1002000022417F404040407F021C027F7F04081053
:100210007F3E4141413E7F090909063E4151215E31
:100220007F09192946264949493203017F01033FC5
:100230004040403F1F2040201F3F4038403F631454
:1002400008146303047804036159494D43007F4156
:1002500041410204081020004141417F0402010293
:1002600004404040404000030708002054547840B8
:100270007F284444383844444428384444287F384C
:100280005454541800087E090218A4A49C787F08CE
:1002900004047800447D40002040403D007F102849
:1002A000440000417F40007C047804787C0804040A
:1002B000783844444438FC1824241818242418FCA2
:1002C0007C08040408485454542404043F44243C47
:1002D0004040207C1C2040201C3C4030403C4428B6
:1002E0001028444C9090907C4464544C4400083650
:1002F00041000000770000004136080002010204BE
:10030000023C2623263C1EA1A161123A4040207ADD
:100310003854545559215555794122545478422125
:100320005554784020545579400C1E52721239555C
:100330005555593954545459395554545800004559
:100340007C410002457D420001457C407D12111236
:100350007DF0282528F07C545545002054547C54C9
:100360007C0A097F4932494949323A4444443A3285
:100370004A4848303A4141217A3A42402078009D2B
:10038000A0A07D3D4242423D3D4040403D3C24FFD7
:100390002424487E4943662B2FFC2F2BFF0929F686
:1003A00020C0887E090320545479410000447D41D7
:1003B0003048484A32384040227A007A0A0A727D30
:1003C0000D19317D2629292F28262929292630484B
:1003D0004D4020380808080808080808382F10C8B9
:1003E000ACBA2F102834FA00007B000008142A143D
:1003F0002222142A14085500550055AA55AA55AAB8
:10040000FF55FF55FF000000FF00101010FF001403
:100410001414FF001010FF00FF1010F010F014145F
:1004200014FC001414F700FF0000FF00FF1414F484
:1004300004FC141417101F10101F101F1414141F85
:1004400000101010F0000000001F101010101F10FE
:10045000101010F010000000FF10101010101010FD
:100460001010FF10000000FF140000FF00FF00004C
:100470001F10170000FC04F414141710171414F4C0
:1004800004F40000FF00F714141414141414F700FB
:10049000F7141414171410101F101F141414F4144C
:1004A0001010F010F000001F101F0000001F1400BB
:1004B0000000FC140000F010F01010FF10FF1414E6
:1004C00014FF141010101F00000000F010FFFFFFB9
:1004D000FFFFF0F0F0F0F0FFFFFF0000000000FF72
:1004E000FF0F0F0F0F0F3844443844FC4A4A4A3478
:1004F0007E02020606027E027E026355494163388F
:1005000044443C04407E201E2006027E020299A53F
:10051000E7A5991C2A492A1C4C7201724C304A4D9D
:100520004D303048784830BC625A463D3E494949D2
:10053000007E0101017E2A2A2A2A2A44445F44447B
:1005400040514A444040444A51400000FF0103E00A
:1005500080FF000008086B6B083612362436060F41
:10056000090F06000018180000001010003040FFAE
:100570000101001F01011E00191D1712003C3C3C27
:100580003C0000000000EF03038002CF0300C130F5
:10059000ED0464031281E803850078CB05392C0053
:1005A0003402F70120EA020000C00123C10110C596
:1005B000023E28C701863601483701003A0155B18D
:1005C000020018B603088227F20100260101E00F9D
:1005D0000F312B0C0E084EF1370710030E0900E106
:1005E0000F000E1403110731C148080F0C31360FEC
:1005F00011802980000102040810204080010204BB
:100600000810200102040810200000000025002826
:10061000002B000404040404040404020202020285
:1006200002030303030303004C2211241FBECFEF78
:10063000D8E0DEBFCDBF12E0A0E0B1E0E2E3F7E436
:1006400002C005900D92AE36B107D9F724E0AEE6B0
:10065000B2E001C01D92AF36B207E1F713E0C5E189
:10066000D3E004C02197FE010E948C23C431D1073E
:10067000C9F70E94E3210C9497230C94000008957D
:1006800080E090E00895EF92FF920F931F93CF9335
:10069000DF9360E070E08BE294E00E941913109207
:1006A00038041092370410923A0410923904E09101
:1006B0006E02EE0FFF0BE85FFE4F808191819093F9
:1006C0003E0480933D0490933C0480933B0483E07C
:1006D00080933F048093400462EB71E08BE294E0EE
:1006E0000E94E010109238041092370482E390E0E8
:1006F00090933A0480933904C2E0C0933F04C093BE
:1007000040048FEF9FEF90933E0480933D049093BD
:100710003C0480933B0467EB71E08BE294E00E9421
:10072000E01004E110E0109338040093370484E6ED
:1007300090E090933A0480933904C0933F04C093AF
:1007400040046CEC71E08BE294E00E94E0101093A6
:1007500038040093370486E990E090933A0480933C
:10076000390465ED71E08BE294E00E94E010109393
:1007700038040093370488EC90E090933A04809317
:10078000390463EE71E08BE294E00E94E010E091A6
:100790006E02EE0FFF0BE85FFE4F2081318143E7D1
:1007A00050E062E870E084E690E00E9414200E942D
:1007B000D30A81110AC06FEE71E08EE793E00E94C8
:1007C000E0108EE793E00E946311C0E00E94B41F26
:1007D000882309F42EC28091ED02813009F0BBC15B
:1007E0008091EE02813009F0B6C1C11108C0DF91DD
:1007F000CF911F910F91FF90EF900C942006C13084
:1008000009F099C060E070E08BE294E00E94191357
:10081000109238041092370410923A04109239045E
:100820008FEF9FEF90933E0480933D0490933C04A0
:1008300080933B0483E080933F048093400468ED01
:1008400071E08BE294E00E94E01010923804109264
:10085000370482E390E090933A0480933904C2E035
:10086000C0933F04C093400469E072E08BE294E0DF
:100870000E94E0106DE072E08BE294E00E94E010D4
:1008800061E172E08BE294E00E94E01065E172E0C9
:100890008BE294E00E94E01069E172E08BE294E068
:1008A0000E94E010109238041092370488EC90E017
:1008B00090933A0480933904C0933F04C09340045A
:1008C0006DE172E08BE294E00E94E01010928500EE
:1008D000109284001092800010928100809181001B
:1008E00085608093810080916F00816080936F00AC
:1008F000789480918400909185008A3F9105C8F397
:100900000E94B41F882311F38091ED028111F8CF6A
:100910008091EE028111F4CF0E94B41F882381F3ED
:100920008091ED028130C1F78091EE028130A1F714
:100930000E944303F1CFC23009F07BC160E070E058
:100940008BE294E00E94191310923804109237043D
:1009500010923A04109239048FEF9FEF90933E0467
:1009600080933D0490933C0480933B0483E0809308
:100970003F048093400466EE71E08BE294E00E94B5
:10098000E010109238041092370482E390E09093C4
:100990003A0480933904C0933F04C093400465E354
:1009A00072E08BE294E00E94E01008E011E0CCE6F7
:1009B000D0E082E3E82EF12CF0923804E092370484
:1009C000D0933A04C0933904F801819191918F0139
:1009D00090933E0480933D0490933C0480933B04A9
:1009E0006BE472E08BE294E00E94E0106296CA3EF3
:1009F000D10511F7E0916E02EE0FFF0BE85FFE4F9D
:100A00002081318143E750E062E870E084E690E0C5
:100A10000E9414200E94D30A81110AC06FEE71E077
:100A20008EE793E00E94E0108EE793E00E9463114E
:100A30000E94B41F882309F4FCC08091ED0281302C
:100A400049F48091EE02813029F40E94B41F811193
:100A500075C0EECF8091E6028F3FB1F580916E02B6
:100A6000882399F3F2E18F02C0011124AC014D58A3
:100A70005F4FBC016E577F4F20E030E08C599F4F95
:100A80000E941420E0916E02E150E0936E0222E198
:100A9000E202C0011124EE0FFF0BE85FFE4F208140
:100AA0003181AC014D585F4FBC016E577F4F8C595F
:100AB0009F4F0E9414200E94B41F882331F280911E
:100AC000E602883CC0F7C1CF8111BFCF80916E0292
:100AD000863009F4BACFE2E18E02C0011124AC01E4
:100AE0004D585F4FBC016E577F4F20E030E08C596E
:100AF0009F4F0E941420E0916E02EF5FE0936E0220
:100B0000F2E1EF02C0011124EE0FFF0BE85FFE4F90
:100B100020813181AC014D585F4FBC016E577F4F32
:100B20008C599F4F0E9414200E94B41F882309F4FF
:100B30008CCF8091E6028333B8F387CF8091ED02AA
:100B4000813009F075CF8091EE02813009F070CFCD
:100B50000E9443036DCF8091E6028F3FA1F5CC2325
:100B600009F434CE22E3C202C0011124AC014D5875
:100B70005F4FBC016E577F4F20E030E08C599F4F94
:100B80000E941420C150E2E3CE02C0011124E09182
:100B90006E02EE0FFF0BE85FFE4F20813181AC014A
:100BA0004D585F4FBC016E577F4F8C599F4F0E942D
:100BB00014200E94B41F882309F408CE8091E60215
:100BC000883CB8F703CE811101CEC23009F4FECDC6
:100BD000F2E3CF02C0011124AC014D585F4FBC01BC
:100BE0006E577F4F20E030E08C599F4F0E941420B9
:100BF000CF5F22E3C202C0011124E0916E02EE0F2A
:100C0000FF0BE85FFE4F20813181AC014D585F4FF3
:100C1000BC016E577F4F8C599F4F0E9414200E9439
:100C2000B41F882309F4D2CD8091E6028333B8F350
:100C3000CDCDDF91CF911F910F91FF90EF9008954F
:100C4000CF93DF93CDB7DEB7D2500FB6F894DEBFA7
:100C50000FBECDBF10926F0280916F0285300CF0F5
:100C60008BC20E94941D60E070E08BE294E00E94D1
:100C70001913A0902704B090280460902904709064
:100C80002A046A147B043CF4630177FE0AC02FEF48
:100C9000C21AD20A06C06501B7FE03C08FEFC81A98
:100CA000D80AD594C79495E0C916D1041CF0F5E094
:100CB000CF2ED12C8BE294E00E94AB1B2601440C7A
:100CC000551C4301841895080FEF1FEF940140E075
:100CD00050E0B6018BE294E00E94141AA501415045
:100CE00051099401B6018BE294E00E94141AA418F1
:100CF000B5089501A60160E070E08BE294E00E94E7
:100D0000D119B301615071099501A6018BE294E0FC
:100D10000E94D11921E0A601B601C6010E94C20BB2
:100D20008C0C9D1CE1E08E1A910822E0A601B60110
:100D3000C4010E94C20BAC0CBD1CF1E0AF1AB1089B
:100D400024E0A601B501C4010E94C20B28E0A6015F
:100D5000B501C6010E94C20B8BE294E00E94021D05
:100D600055245394C12CD12C72E3872E912CE2E3AD
:100D7000AE2EB12C01E010E00115110509F4F6C109
:100D80000E94B41F8823C1F3252D2D7F722E50FCA5
:100D90000DC0E0916E02EE0FFF0BE85FFE4F008189
:100DA00011812AE030E045E050E00FC081E02813D7
:100DB00010C0E0916E02EE0FFF0BE85FFE4F008166
:100DC000118125E030E04AE050E0B401C5010E9405
:100DD000330B1092850010928400109280001092C4
:100DE00081008091810085608093810080916F00F7
:100DF000816080936F007894809184009091850049
:100E00008A3F9105C8F3711007C000E010E02AE0A6
:100E100030E045E050E009C091E079120AC000E0FE
:100E200010E025E030E04AE050E0B401C5010E9446
:100E3000330BC601880F991FE1E05E122AC035010D
:100E4000FFEF6F1A7F0AE1E0F0E0EC0FFD1FE80F03
:100E5000F91F71826082F601E058FF4FEE0FFF1F0D
:100E600081E090E08C0F9D1FE80FF91FA4014D5FFA
:100E70005F4F51834083E0916E02EE0FFF0BE85FFE
:100E8000FE4FE080F18084010E5F1F4F9501B3019A
:100E900030C0E3E05E125CC03501F1E06F1A71080A
:100EA000B501675F7F4FE1E0F0E0EC0FFD1FE80F59
:100EB000F91F71836083F601E058FF4FEE0FFF1FAB
:100EC00081E090E08C0F9D1FE80FF91FA4014D5F9A
:100ED0005F4F51834083E0916E02EE0FFF0BE85F9E
:100EE000FE4FE080F1809501285F3F4F84010E5F47
:100EF0001F4F8BE294E00E94AC129FEFC91AD90AEF
:100F0000E0E8CE16D10411F4C12CD12CF601E05842
:100F1000FF4FEE0FFF1F81E090E08C0F9D1FE80F49
:100F2000F91F40815181F601EE0FFF1FE80FF91FF5
:100F3000608171818A01015011099B0121503109A1
:100F4000E12CF12C8BE294E00E94AC1253018AC098
:100F500051102EC03401E1E06E1A7108E1E0F0E0BA
:100F6000EC0FFD1FE80FF91FB5016D5F7F4F718317
:100F70006083A401475F5F4FF601E058FF4FEE0F1B
:100F8000FF1F81E090E08C0F9D1FE80FF91F518338
:100F90004083E0916E02EE0FFF0BE85FFE4FE080B2
:100FA000F1808401085F1F4F95012E5F3F4F2CC0D9
:100FB000E2E05E1257C03401FFEF6F1A7F0AE1E0F2
:100FC000F0E0EC0FFD1FE80FF91FB5016D5F7F4FDB
:100FD00071836083F601E058FF4FEE0FFF1F81E041
:100FE00090E08C0F9D1FE80FF91F71826082E091E5
:100FF0006E02EE0FFF0BE85FFE4FE080F180840190
:1010000095012E5F3F4FA3018BE294E00E94AC124A
:101010009FEFC91AD90AE0E8CE16D10411F4C12C09
:10102000D12CF601E058FF4FEE0FFF1F81E090E05A
:101030008C0F9D1FE80FF91F40815181F601EE0FC3
:10104000FF1FE80FF91F608171818A0101501109AA
:101050009B0121503109E12CF12C8BE294E00E949C
:10106000AC1243018091E50281110CC091E0591648
:10107000B9F0E3E05E1671F1FAE0AF1AB10863E08F
:10108000562E28C08F3F61F423E0521649F081E0CC
:10109000581601F195E0A90EB11C552453941AC0BD
:1010A0008091E6028F3F51F4E2E05E1699F0552000
:1010B00089F0FAE08F1A9108512C0CC081110AC0F6
:1010C000552041F022E0521629F088E0880E911C4C
:1010D00052E0552EB7FC03C001E010E004C0A12C83
:1010E000B12C00E010E08091290490912A0405972A
:1010F0008A159B0528F446EEA42EB12C00E010E0E2
:10110000809127049091280403978815990528F069
:1011100097FE09C0812C912C04C036E3832E9924BC
:10112000939400E010E0F601EE0FFF1F81E090E0E5
:101130008C0F9D1FE80FF91F20813181FC0180E099
:1011400090E0821793070CF017CE41915191A416AD
:10115000B50651F4DF01A250BF4F4D915C9184164A
:10116000950611F400E010E00196EBCF80916F023C
:101170008F5F80936F0270CD0E94941D60E070E0DD
:101180008BE294E00E9419131092380410923704F5
:1011900010923A04109239048FEF9FEF90933E041F
:1011A00080933D0490933C0480933B0483E08093C0
:1011B0003F048093400468E572E08BE294E00E9473
:1011C000E010109238041092370482E390E090937C
:1011D0003A048093390482E080933F048093400472
:1011E00062E672E08BE294E00E94E01080906F0271
:1011F000082C000C9908AA08BB08B7FE25C06DE2B0
:101200008BE294E00E94D01422273327A9012819E9
:1012100039094A095B0919A2FE01B1966F019AE0EA
:10122000892E912CA12CB12CCA01B901A5019401E0
:101230000E942D23605DF60162936F012115310537
:101240004105510589F71AC0A501940119A2CE01E3
:1012500081966C018AE0882E912CA12CB12CCA01B8
:10126000B901A50194010E942D23605DF6016293EE
:101270006F01211531054105510589F7B6018BE252
:1012800094E00E94CB106AE672E08BE294E00E9448
:10129000CB10109238041092370484E690E09093BB
:1012A0003A048093390482E080933F0480934004A1
:1012B0006DE172E08BE294E00E94E01010928500F4
:1012C0001092840010928000109281008091810021
:1012D00085608093810080916F00816080936F00B2
:1012E000789480918400909185008A3F9105C8F39D
:1012F000109281000E94B41F882301F38091ED02B7
:101300008130C1F78091EE028130A1F70E94B41FB5
:10131000882381F38091ED028111F8CF8091EE0254
:101320008111F4CF0E944303F1CFCF92DF92EF926D
:10133000FF920F931F93CF93DF936C017A018B0180
:10134000C0E0D0E0CE15DF0581F0D8016D918D01B0
:10135000D601ED91FC910190F081E02DC601099537
:10136000892B11F02196EECF7E01C701DF91CF913D
:101370001F910F91FF90EF90DF90CF900895FC01A7
:10138000538D448D252F30E0842F90E0821B930BEA
:10139000541710F0CF96089501970895FC01918D90
:1013A000828D981761F0828DDF01A80FB11D5D96C7
:1013B0008C91928D9F5F9F73928F90E008958FEF35
:1013C0009FEF0895FC01918D828D981731F0828DE9
:1013D000E80FF11D858D90E008958FEF9FEF089540
:1013E000FC01918D228D892F90E0805C9F4F821BA4
:1013F00091098F73992708952F923F924F925F9290
:101400006F927F928F929F92AF92BF92CF92DF9214
:10141000EF92FF920F931F93CF93DF93CDB7DEB779
:101420002A970FB6F894DEBF0FBECDBF5C017E8356
:101430006D835A874987370181E090E07C01E41A87
:10144000F50ACA01919581959109AC01440F551F88
:101450005C834B83C80101969A8389831B012C010D
:1014600089849A84CC24C394D12C922F91709F8329
:1014700022702887C601019729853A85821793072C
:101480000CF078C0F7FC0CC0215031093A8729874D
:101490004B815C814E5F5F4F5C834B83E40EF51E96
:1014A000C601880F991F0196E80EF91E89859A8555
:1014B0008C159D0594F19F819923B1F029853A857A
:1014C000220F331F49815A81240F351F83014D811B
:1014D0005E8189859A85481B590BB5016C0D7D1D70
:1014E0008BE294E00E94D11998859923B1F0298567
:1014F0003A85220F331F49815A81240F351F8301FA
:101500004D815E8189859A85481B590BB5016C19FF
:101510007D098BE294E00E94D11929853A8528152E
:10152000390551F42FEFC21AD20A31E0231A3108DB
:1015300042E0440E511C9ECF3F81332351F0830182
:101540009201A101B501680D791D8BE294E00E9422
:10155000D1194885411103C089849A84E3CFB5012C
:101560006819790983019201A1018BE294E00E943C
:10157000D119F2CF2A960FB6F894DEBF0FBECDBFB9
:10158000DF91CF911F910F91FF90EF90DF90CF905F
:10159000BF90AF909F908F907F906F905F904F9093
:1015A0003F902F900895CF93DF93D1E0D0935A03CB
:1015B000C2E5C0937C0310925B0310927D0380EF21
:1015C00090E00E94DE2185E590E00E94DE2181E02E
:1015D0000E94C01DD0935A03C0937C0310925B03FA
:1015E00010927D038BEF90E00E94DE2180E090E07E
:1015F0000E94DE2181E00E94C01D64E08AEF0E940B
:10160000AC1E843061F580E38093030388E7809308
:1016100004038EE093E0A5EEB2E02DEE32E0EC01A3
:10162000E991CE01CE2FD0E044E0D595C7954A95FB
:10163000E1F7CA5EDE4F488190964C939097EF7029
:10164000F0E0EA5EFE4F408191964C93919712969E
:101650002A173B0721F710920D0381E001C080E0BB
:10166000DF91CF9108952F923F924F925F926F92A8
:101670007F928F929F92AF92BF92CF92DF92EF9222
:10168000FF920F931F93CF93DF9300D000D0CDB77D
:10169000DEB71C012B015A016901480142175307AB
:1016A00034F45A83498357FF0AC09A0104C03A832D
:1016B000298337FF04C02F5F3F4F3A8329838981F5
:1016C0009A81959587959C838B832B813C812530CE
:1016D000310524F085E090E09C838B838BE294E0DD
:1016E0000E94AB1B6B807C80660C771C2B813C813D
:1016F000220D331D3A832983950126193709740178
:101700008601A20169817A818BE294E00E94561AD7
:10171000C618D70831E0C31AD1088B819C81480EC6
:10172000591EA20CB31CC5012B813C81821B930B5B
:10173000860121E04B815C81B20101970E94FC0986
:1017400022E04B815C81B20189819A810E94FC096F
:101750008BE294E00F900F900F900F90DF91CF915C
:101760001F910F91FF90EF90DF90CF90BF90AF90BF
:101770009F908F907F906F905F904F903F902F90B1
:101780000C94021D2F923F924F925F926F927F9224
:101790008F929F92AF92BF92CF92DF92EF92FF9281
:1017A0000F931F93CF93DF937C016B01EA0181E0DC
:1017B00090E05C01A41AB50A66247724641A750ABD
:1017C000660C771C00E010E088248394912C822F13
:1017D0008470582E822F8270482E822F8870382E67
:1017E0002170222E0C171D070CF079C0B7FC06C023
:1017F000219782E0680E711CA60CB71C0F5F1F4F6B
:1018000082E0880E911CA80CB91C5520C1F02FEF66
:101810003FEFAE014C0D5D1DB701600F711F8BE2F4
:1018200094E00E94111B2FEF3FEFA601400F511FC4
:10183000BE016E0D7F1D8BE294E00E94111B4420BF
:10184000C1F02FEF3FEFA6014C1B5D0BB701600FFE
:10185000711F8BE294E00E94111B2FEF3FEFA60156
:10186000401B510BBE016E0D7F1D8BE294E00E9468
:10187000111B3320C1F02FEF3FEFA601400F511F86
:10188000B7016C1B7D0B8BE294E00E94111B2FEFC4
:101890003FEFAE014C0D5D1DB701601B710B8BE27C
:1018A00094E00E94111B222009F49CCF2FEF3FEF00
:1018B000A601401B510BB7016C1B7D0B8BE294E022
:1018C0000E94111B2FEF3FEFA6014C1B5D0BB701D0
:1018D000601B710B8BE294E00E94111B83CFDF91A0
:1018E000CF911F910F91FF90EF90DF90CF90BF901D
:1018F000AF909F908F907F906F905F904F903F90B0
:101900002F900895AF92BF92CF92DF92EF92FF9205
:101910000F931F93CF93DF93EC01E62E8A01F22EF3
:101920000E943B188FA987FD06C0EB8DFC8D90812E
:101930008AA989238083ED8DFE8D90818CA98923CE
:1019400080836E2DCE010E94F917ED8DFE8D908162
:101950008BA9892B8083C12CD12CAF2CB12CCA141C
:10196000DB04E4F48DA97801823059F488A9882336
:1019700041F0F801619171917F01CE010E94B3178E
:1019800008C0FFEFEF1AFF0AF8016491CE010E9430
:10199000F917FFEFCF1ADF0A8701E1CF8FA987FD83
:1019A00006C0EB8DFC8D908189A9892B80838DA940
:1019B00081110CC0DF91CF911F910F91FF90EF909B
:1019C000DF90CF90BF90AF900C94011DDF91CF912D
:1019D0001F910F91FF90EF90DF90CF90BF90AF904D
:1019E00008958F929F92AF92BF92CF92DF92EF9223
:1019F000FF920F931F93CF93DF93EC014901BE2C0D
:101A0000AF2CE881F98102A4F3A5E02D099594019A
:101A1000D8010E946E23611571058105910509F4B5
:101A200081C02DA921110FC061507109810991094F
:101A300008F478C0AEBC0DB407FEFDCFBEBC0DB43B
:101A400007FEFDCFF1CF213009F03FC06150710991
:101A50008109910908F466C03A2D28E0E9A1FAA1AC
:101A6000508137FF03C04DA1452B02C04EA1452335
:101A70004083EBA1FCA150814FA1452B4083EBA1FA
:101A8000FCA1508148A545234083330F215031F7F5
:101A90003B2D28E0E9A1FAA1508137FF03C04DA1F9
:101AA000452B02C04EA145234083EBA1FCA15081F0
:101AB0004FA1452B4083EBA1FCA1508148A54523B4
:101AC0004083330F215031F7C1CFFE1017C0EF8D87
:101AD000F8A1F0826B017C01CC0CDD1CEE1CFF1C1C
:101AE000C114D104E104F104E9F0CE010E94A5176C
:101AF00081E0C81AD108E108F108F2CF6B017C013E
:101B0000EF8DF8A1A082CE010E94A517EF8DF8A15C
:101B1000B082CE010E94A51721E0C21AD108E108C7
:101B2000F10871F7DF91CF911F910F91FF90EF9026
:101B3000DF90CF90BF90AF909F908F9008952F929D
:101B40003F924F925F926F927F928F929F92AF924D
:101B5000BF92CF92DF92EF92FF920F931F93CF939A
:101B6000DF93CDB7DEB76B970FB6F894DEBF0FBE2D
:101B7000CDBF9B8F8A8F1B014A01D22E1987088700
:101B80003701A982DC0159962D913C915A97211574
:101B9000310509F0FFC018968D919C91199768172F
:101BA00079070CF0E7C11A968D919C911B97481705
:101BB00059070CF0DFC1EC2DF0E0FB83EA839B01B9
:101BC00046E0C49E200D311D11243D872C8712163E
:101BD00013060CF0CFC16A2D70E07B876A8783E023
:101BE000660F771F8A95E1F77F876E87CB01880D97
:101BF000991D181619060CF0BDC158968C918111CB
:101C000004C08FEA8D1508F4D394AA8DBB8DED9195
:101C1000FC9111970284F385E02DCD010995B5E083
:101C2000DB9EC0011124EC2DF0E0F98BE88B9101D3
:101C30002B5F3F4F3B8B2A8B3D822C822101AC01D5
:101C4000421953095D8B4C8B7981672F70E07F8B34
:101C50006E8BC4010896998F888FEC89FD89E40DFD
:101C6000F51DEA57FF4FD49054019F828E82D0FE1B
:101C700016C0AA8DBB8DED91FC91B1E0CB1209C0CD
:101C80002981213031F40484F585E02D28853985BA
:101C900019C00684F785E02DE884F9841DC04885C5
:101CA00059854615570519F1AA8DBB8DED91FC910B
:101CB000B1E0CB120DC02981213051F40484F585A7
:101CC000E02D9301A501B2018A8D9B8D09950FC06E
:101CD0000684F785E02D73010A851B852A813B81E7
:101CE0004E815F816C817D818A8D9B8D0995D69413
:101CF0003FEFA31AB30A4E815F816E897F89460F39
:101D0000571F5F834E83888D998DA816B90609F0F9
:101D1000AECF9FEF491A590AAC81BD81E889F98994
:101D2000AE0FBF1FBD83AC832A893B894216530681
:101D300009F093CF488559854615570509F4F8C031
:101D4000AA8DBB8DED91FC91B1E0CB1211C0298120
:101D5000213071F4B1016B5F7F4F0088F189E02D74
:101D6000830128E030E0A4018A8D9B8D0995E0C0B5
:101D70006C857D854A815B81641B750B0684F785C4
:101D8000E02D73010E851F859A01A4018A8D9B8D1C
:101D90000995CEC0F9013496E491DE1AF901329624
:101DA00085919491B7E0DB9E800D911D1124F9017E
:101DB000259134913B8B2A8BFC012591349159015B
:101DC000FC0132965490319634913C87329674904F
:101DD0003196149141E04C1518F05981523068F059
:101DE000672D072C000C770B7D836C83812F012ED0
:101DF000000C990B9B838A8304C01B821A821D826C
:101E00001C82AA8DBB8DED91FC9111970284F38504
:101E1000E02DCD010995412CD12C612CF981EF2FBA
:101E2000F0E0FF83EE832C2D30E03B872A87A4016E
:101E3000410F511D17FD5A955F8B4E8BB101670DF8
:101E4000711D77FC7A95798F688F7C85671608F00D
:101E50006FC0262D30E04A815B81420F531FAE8157
:101E6000BF81A49FC001A59F900DB49F900D112428
:101E7000F401E80FF91FF98BE88B842D712C4E8942
:101E80005F89420F531F5D8B4C8B751408F04DC05A
:101E900051E0580F5E87877041F4C5010196EA89C9
:101EA000FB89EA0DFB1DD4905C01D7FE3AC061E0CE
:101EB000C61216C07981713099F4AA8DBB8DED914F
:101EC000FC9111970484F585E02D288539854C898E
:101ED0005D89688D798D670D711DCD01099521C0D2
:101EE0008C819D81870D911DEA85FB858E9FB001B8
:101EF0008F9F700D9E9F700D1124620D731DAA8D12
:101F0000BB8DED91FC9111970684F785E02DE88457
:101F1000F9840E811F812A853B8548895989CD0125
:101F20000995DD0C73948E85B0CF450C63948DCFED
:101F3000AA8DBB8DED91FC9111970688F789E02D54
:101F4000CD016B960FB6F894DEBF0FBECDBFDF910B
:101F5000CF911F910F91FF90EF90DF90CF90BF90A6
:101F6000AF909F908F907F906F905F904F903F9039
:101F70002F9009946B960FB6F894DEBF0FBECDBFBD
:101F8000DF91CF911F910F91FF90EF90DF90CF9055
:101F9000BF90AF909F908F907F906F905F904F9089
:101FA0003F902F90089590E0FC01EE58FF4F249150
:101FB000FC01EB50FA4F3491FC01ED5EF94FE491D6
:101FC000EE2309F43CC0222339F1233091F038F498
:101FD0002130A9F0223001F584B58F7D12C0273061
:101FE00091F02830A1F02430B9F4809180008F7DE9
:101FF00003C0809180008F77809380000DC084B5EE
:102000008F7784BD09C08091B0008F7703C0809125
:10201000B0008F7D8093B000F0E0EE0FFF1FE75F10
:10202000F94FA591B4919FB7F894611104C08C91B8
:102030003095382302C0EC913E2B3C939FBF08950E
:10204000CF93DF9390E0FC01EB50FA4F2491FC0119
:10205000ED5EF94F8491882361F190E0880F991F1C
:10206000FC01E859FF4FC591D491FC01E75FF94F9E
:10207000A591B491611109C09FB7F894888120950A
:1020800082238883EC912E230BC0623061F49FB7CA
:10209000F8948881322F309583238883EC912E2BFE
:1020A0002C939FBF06C08FB7F894E8812E2B28830E
:1020B0008FBFDF91CF9108953FB7F894809175025B
:1020C00090917602A0917702B091780226B5A89BF4
:1020D00005C02F3F19F00196A11DB11D3FBFBA2FBA
:1020E000A92F982F8827820F911DA11DB11DBC011A
:1020F000CD0142E0660F771F881F991F4A95D1F7DF
:1021000008951F920F920FB60F9211242F933F93B1
:102110008F939F93AF93BF938091710290917202BE
:10212000A0917302B09174023091700223E0230FEA
:102130002D3720F40196A11DB11D05C026E8230FFF
:102140000296A11DB11D209370028093710290939D
:102150007202A0937302B093740280917502909101
:102160007602A0917702B09178020196A11DB11D6F
:102170008093750290937602A0937702B0937802D1
:10218000BF91AF919F918F913F912F910F900FBE73
:102190000F901F9018956115710579F0FB01019062
:1021A0000020E9F73197AF01461B570BDC01ED9199
:1021B000FC910280F381E02D099480E090E0089585
:1021C0000F931F93CF93DF93EC010E94CB108C01F0
:1021D0006AE672E0CE010E94CB10800F911FDF9162
:1021E000CF911F910F910895FC01848DDF01A80FFD
:1021F000B11DA35ABF4F2C91848D90E001968F732F
:102200009927848FA689B7892C93A089B1898C914D
:10221000837080648C93938D848D981306C002889C
:10222000F389E02D80818F7D80830895EF92FF9266
:102230000F931F93CF93DF93EC0181E0888F9B8DE9
:102240008C8D981305C0E889F989808185FD26C0A9
:10225000F62E0B8D10E00F5F1F4F0F731127E02E2E
:102260008C8DE8120CC00FB607FCFACFE889F9890B
:10227000808185FFF5CFCE010E94F410F1CF8B8DC8
:10228000FE01E80FF11DE35AFF4FF0829FB7F8946B
:102290000B8FEA89FB89808180620AC09FB7F8941E
:1022A000EE89FF896083E889F98980818370806481
:1022B00080839FBF81E090E0DF91CF911F910F91CC
:1022C000FF90EF900895CF93DF93EC01888D8823E2
:1022D000C9F0EA89FB89808185FD05C0A889B98993
:1022E0008C9186FD0FC00FB607FCF5CF808185FF6E
:1022F000F2CFA889B9898C9185FFEDCFCE010E94DC
:10230000F410E7CFDF91CF91089540919F02262FDF
:1023100030E0240F311D21323105DCF420915403CB
:102320002430C9F4FC0180E090E0861758F4309125
:102330009F022191DC01A158BD4FA30FB11D2C9329
:102340000196F3CF80919F02680F60939F0280E017
:10235000089581E0089582E008950895089508950C
:10236000E091C4028091C302E81730F4F0E0EB532F
:10237000FD4F808190E008958FEF9FEF0895909139
:10238000C4028091C302981750F4E92FF0E0EB5398
:10239000FD4F208130E09F5F9093C40202C02FEF79
:1023A0003FEFC90108958091C30290E02091C402DB
:1023B000821B91090895CF92DF92EF92FF920F93C3
:1023C0001F93CF93DF937C01CB018A0120915A03A5
:1023D000222389F0EB016B01C40ED51ECC15DD055F
:1023E00069F06991D701ED91FC910190F081E02DA8
:1023F000C7010995F3CF642F0E948511C801DF91B1
:10240000CF911F910F91FF90EF90DF90CF900895A3
:10241000CF93DF931F92CDB7DEB7698320915A0324
:102420002223D1F020917D03203240F021E030E0E2
:10243000FC013383228380E090E015C080915B0330
:10244000E82FF0E0E45AFC4F998190838F5F8093EE
:102450005B0380937D0305C061E0CE0101960E947D
:10246000851181E090E00F90DF91CF91089508955C
:10247000FC016370668B8481958126813781613090
:1024800039F0633029F09187808733872287089558
:10249000318720879387828708956F927F928F92EA
:1024A0009F92AF92BF92CF92DF92EF92FF920F93E3
:1024B0001F93CF93DF93EC014B015A01690138015F
:1024C000E881F9810284F385E02D0995E881F9819D
:1024D0000288F389E02D87019601A501B401CE01A0
:1024E0000995A501460D571D41505109E881F98113
:1024F0000288F389E02D9601B401CE010995E881A7
:10250000F9810088F189E02D9301A501B401CE0184
:102510000995C80CD91CB60161507109E881F9818F
:102520000088F189E02D9301A501CE010995E8818C
:10253000F9810688F789E02DCE01DF91CF911F91B7
:102540000F91FF90EF90DF90CF90BF90AF909F9052
:102550008F907F906F9009948F929F92AF92BF92CD
:10256000CF92DF92EF92FF920F931F93CF93DF935F
:102570004C016B015A01E901DC01ED91FC916217FC
:10258000730781F40417150724F48B2D5801042FC9
:10259000182F0A191B0998012F5F3F4F048CF58DE6
:1025A000E02D12C04017510709F52617370724F40C
:1025B0008D2D6901C62FD82F9E012C193D092F5F43
:1025C0003F4F068CF78DE02D8701A501B601C401B0
:1025D0000995DF91CF911F910F91FF90EF90DF90C0
:1025E000CF90BF90AF909F908F9008950284F38515
:1025F000E02D0995D401ED91FC910488F589E02D39
:102600009E01A501B601C4010995D401ED91FC918B
:102610000688F789E02DC401DF91CF911F910F91BA
:10262000FF90EF90DF90CF90BF90AF909F908F90F2
:102630000994EF92FF920F931F93DC011A960D916C
:102640001C911B9718962D913C911997ED91FC9137
:1026500000A0F1A1E02D7B0140E050E060E070E0DF
:1026600009951F910F91FF90EF9008954F925F92FF
:102670006F927F928F929F92AF92BF92CF92DF9292
:10268000EF92FF920F931F93CF93DF936C012B0177
:102690005A0139014801DC01ED91FC910284F38576
:1026A000E02D0995E201640C751CD601ED91FC91B9
:1026B000C615D7055CF40088F189E02D87019401E7
:1026C000A501BE01C60109952196EFCF0688F789BD
:1026D000E02DC601DF91CF911F910F91FF90EF90F8
:1026E000DF90CF90BF90AF909F908F907F906F9032
:1026F0005F904F9009948F929F92AF92BF92CF922A
:10270000DF92EF92FF920F931F93CF93DF93EC0131
:102710005B014A016901E881F9810284F385E02DBA
:10272000099595012C0D3D1D21503109E881F98154
:102730000488F589E02D78018401A401B501CE015A
:102740000995E881F9810688F789E02DCE01DF91AE
:10275000CF911F910F91FF90EF90DF90CF90BF909E
:10276000AF909F908F9009948F929F92AF92BF925B
:10277000CF92DF92EF92FF920F931F93CF93DF934D
:10278000EC015B014A0169017801E881F981028469
:10279000F385E02D0995C80CD91C8601015011095B
:1027A000E881F9810488F589E02D9501A401B5013E
:1027B000CE010995E881F9810688F789E02DCE01DF
:1027C000DF91CF911F910F91FF90EF90DF90CF900D
:1027D000BF90AF909F908F900994EF92FF920F93CC
:1027E0001F93DC01ED91FC9100A0F1A1E02D099572
:1027F0001F910F91FF90EF9008950F931F93DC01AD
:10280000ED91FC91068CF78DE02D09951F910F91AC
:1028100008950F931F93DC01ED91FC91048CF58DCD
:10282000E02D09951F910F910895DC01ED91FC9128
:102830000084F185E02D09942F923F924F925F9290
:102840006F927F928F929F92AF92BF92CF92DF92C0
:10285000EF92FF920F931F93CF93DF9300D000D09E
:1028600000D0CDB7DEB72C017E836D836A0159019C
:10287000C801FC82EB824801841A950A97FE03C0C6
:1028800091948194910835012D813E81621A730AD9
:1028900077FE03C0719461947108681479045CF444
:1028A0003A2D2B2D5C01832F922F3D812E81DE82CC
:1028B000CD82C32ED22EAD81BE81AA16BB065CF49A
:1028C0003C2D2D2D6C01832F922F3D812E81BE82B8
:1028D000AD82A32EB22E85012D813E81021B130BEA
:1028E0001C012C183D0837FE03C031942194310897
:1028F000780117FF03C03FEFE31AF30AF594E7945A
:10290000C816D9062CF08FEF9FEF9A83898304C0F5
:10291000A1E0B0E0BA83A9832D813E81A216B3065F
:1029200024F1D201ED91FC910484F585E02D2B81F9
:102930003C816814790424F44D815E81B60103C0A2
:10294000A6016D817E81C2010995E218F308F7FEA8
:1029500006C029813A81C20ED31EE00EF11E8D8180
:102960009E8101969E838D83D7CF26960FB6F894CD
:10297000DEBF0FBECDBFDF91CF911F910F91FF90B2
:10298000EF90DF90CF90BF90AF909F908F907F900F
:102990006F905F904F903F902F9008950E949223E8
:1029A0008F929F92AF92CF92EF92FF920F931F93CD
:1029B000CF93DF93EC01262F898D9A8D009709F034
:1029C00042C06A3059F41D861C862D898E859F85EC
:1029D00038E0239F800D911D112443C06D3009F410
:1029E000AAC08F898823C9F03C898C859D8546E0E3
:1029F000349F800D911D112448855985481759072A
:102A000064F41D861C863D898E859F8548E0349F31
:102A1000800D911D11249F878E87EA88FB88088985
:102A200019894E855F856C857D85AD88CC88CE0102
:102A30000E949F0D2C898C859D8536E0239F800DFB
:102A4000911D11243EC06A3079F41D861C862D89A3
:102A5000FC013896E4918E859F852E9F800D911DF7
:102A600011249F878E8767C06D3009F464C0FC0114
:102A700034963491631708F45EC03296E491E617F9
:102A800008F459C0462F431B342FFC013296859021
:102A9000949047E0349F800C911C1124F4013296ED
:102AA00034913196E491332311F0E1110DC0F4011A
:102AB0003496E4912C898C859D85E29F800D911D33
:102AC00011249D878C8737C0F401359644915F8926
:102AD000552319F15C89E32FF0E0E40FF11D47FD68
:102AE000FA955E9FB0015F9F700D11244C855D8546
:102AF000460F571F688579856417750774F41D861E
:102B00001C863D89FC013896E4918E859F853E9F09
:102B1000800D911D11249F878E87EA88FB88088984
:102B200019894E855F856C857D85AD88CC88CE0101
:102B30000E949F0DBCCF81E090E0DF91CF911F916B
:102B40000F91FF90EF90CF90AF909F908F9008954E
:102B50001F920F920FB60F9211242F933F934F9312
:102B60005F936F937F938F939F93AF93BF93EF93F5
:102B7000FF938EE793E00E94F410FF91EF91BF91D5
:102B8000AF919F918F917F916F915F914F913F9105
:102B90002F910F900FBE0F901F9018951F920F92BC
:102BA0000FB60F9211242F938F939F93EF93FF9360
:102BB000E0918E03F0918F038081E0919403F09176
:102BC000950382FD12C09081809197038F5F8F7370
:102BD00020919803821751F0E0919703F0E0E258BA
:102BE000FC4F958F8093970301C08081FF91EF91F7
:102BF0009F918F912F910F900FBE0F901F9018955E
:102C00001092540381E08093530310922E0361E0ED
:102C100082E10E94D30F61E083E10E94D30FE9EBD0
:102C2000F0E080818E7F808380818D7F808388E447
:102C30008093B80085E48093BC000895CF93DF9320
:102C400091E090937E028823B9F0C091B800D091B2
:102C5000BA008091BC008A7B8093BC0060E082E176
:102C60000E94D30F60E083E10E94D30F0E94001600
:102C7000D093BA00C093B800DF91CF91089585ED4D
:102C80008093BC008091560390915703A091580304
:102C9000B09159030796A11DB11D23E0B695A795E4
:102CA000979587952A95D1F72091BC0024FF1CC0E9
:102CB0004091560350915703609158037091590306
:102CC000452B462B472B81F30097A105B10541F019
:102CD0002AE22A95F1F700C00197A109B109E4CFD2
:102CE000809155030C941E161092540308951F9260
:102CF0000F920FB60F9211242F933F934F935F9330
:102D00006F937F938F939F93AF93BF93EF93FF93B3
:102D10008091B900887F803609F49CC068F58832BC
:102D200009F45BC090F4803109F454C038F488236E
:102D300009F4F6C0883009F44DC0F6C0883109F4B2
:102D40004CC0803209F45DC0EFC0803409F468C023
:102D500048F4803309F455C0883309F0E5C0809306
:102D60005203D8C0803509F44FC0883509F45DC0DE
:102D7000883409F0D9C0D6C0883909F4C7C0A8F48E
:102D8000883709F467C038F4883609F463C080379F
:102D900009F460C0C9C0883809F4B8C0803909F4A2
:102DA0005FC0803809F0C0C05BC0803B09F486C0BA
:102DB00038F4803A09F466C0883A09F47FC0B4C098
:102DC000803C09F4A7C0883C09F4A4C0883B09F4FE
:102DD0008AC0AAC080912F0310C0909151038091A6
:102DE0005003981770F5E091510381E08E0F8093A6
:102DF0005103F0E0E05DFC4F80818093BB0085ECE7
:102E000086C0809352038EC0E091510381E08E0F03
:102E1000809351038091BB00F0E0E05DFC4F808324
:102E200090915103809150036EC0E091510381E075
:102E30008E0F809351038091BB00F0E0E05DFC4F6A
:102E400080838091530381116DC081E080932E03B4
:102E500084EA61C083E0809354031092C102CFCF13
:102E60008091C102803208F051C0E091C10281E03E
:102E70008E0F8093C1028091BB00F0E0EF55FD4FB3
:102E80008083BDCF85EC8093BC0010925403809169
:102E9000C102803230F4E091C102F0E0EF55FD4F05
:102EA00010826091C10270E0E0917C02F0917D029D
:102EB00081EA92E009951092C10236C084E08093C5
:102EC00054031092A00210929F02E0917A02F091B6
:102ED0007B02099580919F02811105C081E080935A
:102EE0009F0210927F02E091A00281E08E0F8093FA
:102EF000A002F0E0E158FD4F80818093BB009091EB
:102F0000A00280919F02981708F479CF85E88093FA
:102F1000BC000AC085EC8093BC001092540304C02E
:102F2000109252030E943F16FF91EF91BF91AF9113
:102F30009F918F917F916F915F914F913F912F91D1
:102F40000F900FBE0F901F901895FC01A5A1B6A180
:102F50009C9182A589238C93A5A1B6A19C9181A562
:102F6000892B8C9308950F931F93CF93DF93EC01DC
:102F70008B018DA9811109C01EBD0DB407FEFDCFC7
:102F80000EBD0DB407FEFDCF2FC08130E9F480E106
:102F9000E9A1FAA1208117FF03C09DA1922B02C0D5
:102FA0009EA192239083EBA1FCA120819FA1922B53
:102FB0009083EBA1FCA1208198A592239083000F20
:102FC000111F815029F710C0EF8DF8A11083CE0199
:102FD0000E94A517EF8DF8A10083CE01DF91CF915C
:102FE0001F910F910C94A517DF91CF911F910F9115
:102FF0000895FC0185A9811105C06EBD0DB407FEC1
:10300000FDCF08958130E1F488E0A1A1B2A12C9117
:1030100067FF03C095A1922B02C096A192239C93B7
:10302000A3A1B4A12C9197A1922B9C93660FA3A16D
:10303000B4A12C9190A592239C93815031F70895CF
:10304000A78DB0A16C93CF010C94A517CF93DF93FC
:10305000EC01ED8DFE8D90818CA989238083CE01BA
:103060000E94F917ED8DFE8D90818BA9892B8083AD
:10307000DF91CF910895FC0185A9811104C091A130
:1030800082A19CBD8DBD08951F93CF93DF93EC016A
:10309000162FE881F9810284F385E02D099511232B
:1030A00011F06DAD01C06EADCE010E942618E88111
:1030B000F9810688F789E02DCE01DF91CF911F912C
:1030C00009948F929F92AF92BF92CF92DF92EF922C
:1030D000FF920F931F93CF93DF935C014B016A0123
:1030E000E90177FD53C0DC0118968D919C911997E9
:1030F000681779070CF04AC0209709F447C037FFDA
:1031000007C0C9010196C80ED91ED195C195D10934
:10311000F50182859385C816D906C4F5A6014C0F22
:103120005D1F9A012150310937FD30C0D7FE03C021
:10313000EA01C12CD12C281739071CF0EC01CC195D
:10314000DD09D501ED91FC910284F385E02DC501E7
:10315000099578018E0121E030E0A601B401C50196
:103160000E94F10CD501ED91FC910688F789E02DC4
:10317000C501DF91CF911F910F91FF90EF90DF90EC
:10318000CF90BF90AF909F908F900994DF91CF9197
:103190001F910F91FF90EF90DF90CF90BF90AF9075
:1031A0009F908F9008958F929F92AF92BF92CF92EF
:1031B000DF92EF92FF920F931F93CF93DF935C0107
:1031C0006B014A01E90157FD53C0DC011A968D914C
:1031D0009C911B97481759070CF04AC0209709F497
:1031E00047C037FF07C0C9010196C80ED91ED19547
:1031F000C195D109F50180859185C816D906C4F518
:10320000A6014C0F5D1F9A012150310937FD30C0D6
:10321000D7FE03C0EA01C12CD12C281739071CF0B6
:10322000EC01CC19DD09D501ED91FC910284F38507
:10323000E02DC5010995780101E010E09E01A4018F
:10324000B601C5010E94F10CD501ED91FC910688F3
:10325000F789E02DC501DF91CF911F910F91FF906C
:10326000EF90DF90CF90BF90AF909F908F90099498
:10327000DF91CF911F910F91FF90EF90DF90CF9052
:10328000BF90AF909F908F9008958F929F92AF9232
:10329000BF92CF92DF92EF92FF920F931F93CF9343
:1032A000DF934C016B015A01E901209709F46CC0CE
:1032B0000115110509F468C037FF07C0C90101965F
:1032C000C80ED91ED195C195D109F401A085B1854B
:1032D000CA16DB060CF058C017FF07C0C8010196DC
:1032E000A80EB91E119501951109F40182859385E7
:1032F000A816B9060CF048C0F601EC0FFD1FAF018F
:103300004150510957FD40C0B501600F711F9B012D
:103310002150310937FD38C0D7FE03C0EF01C12C61
:10332000D12CB7FE03C08B01A12CB12C4A175B072F
:103330001CF0ED01CC19DD09281739071CF08C01B0
:103340000A191B09D401ED91FC910284F385E02D4B
:10335000C40109959E01A501B601C4010E94F10CAA
:10336000D401ED91FC910688F789E02DC401DF912D
:10337000CF911F910F91FF90EF90DF90CF90BF9072
:10338000AF909F908F900994DF91CF911F910F91F3
:10339000FF90EF90DF90CF90BF90AF909F908F9075
:1033A0000895EF92FF920F931F93CF93DF9377FDD2
:1033B00034C0DC011896ED91FC9119976E177F07C8
:1033C00064F52115310549F137FF07C0F901319640
:1033D0004E0F5F1F319521953109DC011A96ED9151
:1033E000FC911B974E175F07C4F4EA01C20FD31F6D
:1033F000DE011197B7FD11C057FF03C09E0140E0E9
:1034000050E0AE17BF071CF09F01241B350B78015D
:10341000890121E030E00E94F10CDF91CF911F91F2
:103420000F91FF90EF900895EF92FF920F931F93EB
:10343000CF93DF9357FD33C0DC011A96ED91FC91D9
:103440001B974E175F075CF52115310541F137FFDA
:1034500007C0F90131966E0F7F1F31952195310913
:10346000DC011896ED91FC9119976E177F07BCF45B
:10347000EB01C20FD31FDE011197B7FD10C077FF1C
:1034800003C09E0160E070E0AE17BF071CF09F0113
:10349000261B370B780101E010E00E94F10CDF9150
:1034A000CF911F910F91FF90EF9008958F929F926F
:1034B000AF92BF92CF92DF92EF92FF920F931F9342
:1034C000CF93DF9347012115310509F44DC0011554
:1034D000110509F449C037FF07C0F90131966E0F95
:1034E0007F1F319521953109DC011896AD90BC9074
:1034F00019976A157B05C4F517FF07C0F8013196C7
:103500004E0F5F1F119501951109DC011A96ED917F
:10351000FC911B974E175F073CF56B01C20ED31E43
:10352000E6012197D7FD20C07A01E00EF11ED701F8
:103530001197B7FD19C077FF03C0960160E070E0F6
:1035400057FF03C0870140E050E0CA15DB051CF0BF
:103550009501261B370BAE17BF071CF08F01041B0C
:10356000150B74010E94F10CDF91CF911F910F9107
:10357000FF90EF90DF90CF90BF90AF909F908F9093
:103580000895AF92BF92CF92DF92EF92FF920F9386
:103590001F93CF93DF93EC0177FD38C08885998521
:1035A000681779079CF557FD31C08A859B854817B8
:1035B000590764F569017A015B01E881F9810284A8
:1035C000F385E02DCE010995E881F98102A4F3A5E8
:1035D000E02D01E010E021E030E0A701B501CE01CF
:1035E0000995B601CE010E94B317E881F9810688DA
:1035F000F789E02DCE01DF91CF911F910F91FF90C0
:10360000EF90DF90CF90BF90AF900994DF91CF9172
:103610001F910F91FF90EF90DF90CF90BF90AF90F0
:103620000895EF92FF920F931F93CF93DF93EC01D6
:1036300077FD22C08885998568177907ECF457FDD6
:103640001BC08A859B8548175907B4F47901E88126
:10365000F98102A4F3A5E02D01E010E021E030E0C3
:10366000CE010995B701CE01DF91CF911F910F9146
:10367000FF90EF900C94B317DF91CF911F910F91B2
:10368000FF90EF900895AF92BF92CF92DF92EF92AA
:10369000FF920F931F93CF93DF93EC015B016A01BD
:1036A000215031097901E60EF71E01501109040F6E
:1036B000151F80910601909107016817790739F469
:1036C0008091040190910501E816F906A1F06AE2E3
:1036D000CE010E942618B501CE010E94B317B70192
:1036E000CE010E94B317B0920701A0920601F0929A
:1036F0000501E09204018091020190910301C81636
:10370000D90639F480910001909101010817190739
:10371000A1F06BE2CE010E942618B601CE010E94F4
:10372000B317B801CE010E94B317D0920301C09223
:10373000020110930101009300016CE2CE01DF91C0
:10374000CF911F910F91FF90EF90DF90CF90BF909E
:10375000AF900C942618CF93DF93EC010E943B1896
:103760008FA987FD06C0EB8DFC8D90818AA98923E6
:103770008083DF91CF910895611102C060E201C0A2
:1037800061E220E040E050E00C94820CCF92DF92A6
:10379000EF92FF920F931F93CF93DF93EC016A0197
:1037A0007B01452B462B472B31F4C12C42E1D42E13
:1037B0004AE7E42EF12C8FA987FD07C061E00E9443
:1037C000201061E08FA90E94D30F61E088AD0E94B4
:1037D000201061E088AD0E94D30F8DA9811152C0E5
:1037E00040E052E16AE770E090E0C416D506E606D4
:1037F000F70640F476956795579547959F5F963005
:10380000A1F797E081E08927982F906A969599A370
:1038100081708AA31BA21CA21DA21EA21FB7F8942E
:103820008091C202811127C0EDE1F6E08491EFEFB3
:10383000F5E09491E82FF0E0EE0FFF1FE859FF4FFD
:10384000A591B491EC91E92321F461E08AE00E9412
:10385000D30F61E08AE00E9420108CB580618CBD9E
:103860008CB580648CBD61E08DE00E94201061E029
:103870008BE00E9420108091C2028F5F8093C20271
:103880001FBF4BC08130B9F461E08AA50E942010AF
:1038900060E08AA50E94D30F61E08CA50E942010F1
:1038A00060E08CA50E94D30F8BA587FD36C060E039
:1038B0000E94201032C003E116E0F12CF80184913F
:1038C000E82FF0E0EE0FFF1FE75FF94F859194912D
:1038D0002F8D38A12817390741F461E08F2D0E9400
:1038E000201060E08F2D0E94D30FF3940F5F1F4FC5
:1038F000F4E1FF12E3CF61E08EA50E94201061E0A9
:103900008EA50E94D30F8FA587FD07C061E00E949E
:10391000201061E08FA50E94D30F8EA987FD2AC0D9
:1039200061E00E94201061E08EA90E94D30F2FEF6A
:1039300081EE94E0215080409040E1F700C000000B
:1039400060E08EA90E94D30FEFEFF1EE24E0E1508A
:10395000F0402040E1F700C0000061E08EA90E9425
:10396000D30F8FEF93ECE9E081509040E040E1F716
:1039700000C000008EA987FF10C020E040E050E0AA
:1039800061E0CE010E94820CFFEF22E587E0F1505A
:1039900020408040E1F700C00000E6E8F5E0CF01FC
:1039A000019664916623E1F08F010E5F1F4FFC01C9
:1039B000F490FF2DFF77EF2E2F2FA801CE010E944C
:1039C000820CF801EE0DF11DF7FEE9CF2FEF82E535
:1039D00097E0215080409040E1F700C00000DFCF29
:1039E00080EF90E09987888780E491E09B878A87C1
:1039F000DF91CF911F910F91FF90EF90DF90CF90CB
:103A000008950895FC0187A987FD06C0A38DB48D94
:103A10009C9181A9892B8C9308950F931F93CF9329
:103A2000DF931F92CDB7DEB78C016370DC01569631
:103A30006C935697623059F06330C9F0613029F0C9
:103A400088E4898380EF90E007C088E211C088E8AD
:103A5000898380EF90E0D80119969C938E931897F4
:103A600080E491E01B969C938E931A970BC088EE8E
:103A7000898380E491E0F8019187808780EF90E06E
:103A800093878287C8010E943B18D801D7968C91F2
:103A9000D79787FD09C05B96ED91FC915C9790816B
:103AA000D2968C9189238083D8015D96ED91FC910B
:103AB0005E979081D4968C918923808366E3C801B8
:103AC0000E94F917D8015D96ED91FC915E97908167
:103AD000D3968C91D397892B8083D5968C91823005
:103AE00029F06981C8010E94F91709C0F80180A96D
:103AF0008823B9F369817A81C8010E94B317D8017C
:103B0000D7968C91D79787FD09C05B96ED91FC9174
:103B10005C979081D1968C91892B80830F90DF9157
:103B2000CF911F910F91089594E09093BC00109253
:103B3000B9009FEF9093B80094EA9093BC009091E5
:103B4000BC0097FFFCCF92E49093BB0094E8909365
:103B5000BC009091BC0097FFFCCFE82F880FFF0BB3
:103B6000EA5DFE4F80818093BB0084E88093BC00B7
:103B70008091BC0087FFFCCF84E98093BC0008954E
:103B80008F929F92AF92BF92CF92DF92EF92FF926D
:103B90000F931F93CF93DF9310917D03113208F0A1
:103BA000C2C0082FD0917C030E945C106B017C0185
:103BB000C0915403CC2311F1809156039091570387
:103BC000A0915803B0915903892B8A2B8B2B81F339
:103BD0000E945C108090560390905703A090580369
:103BE000B0905903DC01CB018C199D09AE09BF09C6
:103BF00088169906AA06BB06D8F681C082E0809393
:103C00005403009353038FEF809352031092510398
:103C100010935003ACE5B3E0E0E3F3E080E0181765
:103C200021F09D9191938F5FFACF10922F03909185
:103C30002F038D2F880F892B80932F0380912E03C4
:103C4000813089F510922E030E945C106B017C017B
:103C500080912F038093BB0080915603909157036E
:103C6000A0915803B0915903892B8A2B8B2BA9F073
:103C70000E945C1000915603109157032091580345
:103C800030915903DC01CB018C199D09AE09BF09A4
:103C9000081719072A073B0790F18091BC0083FDA4
:103CA000D7CF85EC01C085EE8093BC000E945C10EC
:103CB0006B017C0180915403823039F58091560369
:103CC00090915703A0915803B0915903892B8A2BE7
:103CD0008B2B81F30E945C100091560310915703C7
:103CE0002091580330915903DC01CB018C199D09B7
:103CF000AE09BF09081719072A073B07D8F68091B4
:103D000055030E941E16C5E013C0809152038F3FD9
:103D100079F080915203803241F0809152038033D8
:103D200031F0C4E005C0C1E003C0C2E001C0C3E09F
:103D300010925B0310927D0310925A038C2FDF9137
:103D4000CF911F910F91FF90EF90DF90CF90BF9098
:103D5000AF909F908F9008958F929F92AF92BF9255
:103D6000CF92DF92EF92FF921F93CF93DF93162FA4
:103D700091E090935A0392E590937C0310925B0339
:103D800010927D03682F8BE194E00E94081281E07D
:103D90000E94C01D8FE99FE00197F1F700C000006D
:103DA0000E945C106B017C01C0915403CC2339F15B
:103DB0008091560390915703A0915803B0915903F5
:103DC000892B8A2B8B2B81F30E945C1080905603E9
:103DD00090905703A0905803B0905903DC01CB0199
:103DE0008C199D09AE09BF0988169906AA06BB065B
:103DF000D8F6809155030E941E16C0E08FC0D12FC7
:103E0000113208F0D0E281E0809354038093530391
:103E10009FEF90935203109251039D0F9093500384
:103E200080932F0380912F03846A80932F038091C6
:103E30002E03813089F510922E030E945C106B01D5
:103E40007C0180912F038093BB0080915603909159
:103E50005703A0915803B0915903892B8A2B8B2BC0
:103E6000A9F00E945C108090560390905703A09098
:103E70005803B0905903DC01CB018C199D09AE09A0
:103E8000BF0988169906AA06BB0690F18091BC006E
:103E900083FDD7CF85EC01C085EE8093BC000E94E6
:103EA0005C106B017C0180915403813031F580916D
:103EB000560390915703A0915803B0915903892B51
:103EC0008A2B8B2B81F30E945C108090560390907C
:103ED0005703A0905803B0905903DC01CB018C1913
:103EE0009D09AE09BF0988169906AA06BB06D8F631
:103EF000809155030E941E1611C0809151038D17A9
:103F000010F4D0915103E0E3F3E0A5ECB2E0C0E09F
:103F1000CD1721F081918D93CF5FFACF1092C4021B
:103F2000C093C302D0E08091C402C81781F01D176E
:103F300070F0FF24F394FD0E8BE194E00E94BF111A
:103F4000ED2FF0E0E25FFC4F8083DF2DECCF8D2F73
:103F5000DF91CF911F91FF90EF90DF90CF90BF90B6
:103F6000AF909F908F900895CF93DF9366E080E0AD
:103F70000E94AC1E863009F053C080910E038093DE
:103F8000E50280910F038093E60220911303809154
:103F9000100334E0839FA0011124922F9C70892F7D
:103FA00090E09595879595958795842B952B909383
:103FB000E8028093E7028091110394E0899FA001B9
:103FC0001124922F9073892F90E064E09595879546
:103FD0006A95E1F7842B952B9093EA028093E9028E
:103FE0008091120334E0839FC0011124322F329557
:103FF000369536953370832B9093EC028093EB02C9
:10400000822F809581708093ED0226952170C22FBA
:1040100080E0D82F91E0C927C093EE0281E001C073
:1040200080E0DF91CF9108952F923F924F925F925F
:104030006F927F928F929F92AF92BF92CF92DF92B8
:10404000EF92FF920F931F93CF93DF93CDB7DEB71D
:10405000A8970FB6F894DEBF0FBECDBF7C016B01F1
:104060004A013C872B87681779073CF448175907A2
:10407000B4F4982F8F2D7B0106C0461757070CF01C
:1040800095C19C2D8D2D8E149F049CF06401892E6A
:10409000982E24E1222E312CA12CB12C8CC18D2DF7
:1040A0006701E62EF82E212C312C94E1A92EB12C9B
:1040B00082C167017401892E982EA12CB12C212C6C
:1040C000312C24E130E038A72FA38BE294E00E944A
:1040D000AB1BE814F90451F54FA158A52416350679
:1040E0005CF09FA188A54215530514F4922D832DF1
:1040F0002FA038A49FA388A7A214B30444F06FA1F3
:1041000078A56A157B0514F4B8A6AFA251012FA1BA
:1041100038A52A193B092F5F3F4F0B851C85A70146
:10412000B5018BE294E00E94141A24C1C101AFA131
:10413000B8A58A1B9B0B96012E193F09A5014A1BA6
:104140005B0B5A8B498BB4016E197F0978876F839B
:10415000D501A219B309BC8BAB8BA4014C195D0925
:104160005E874D87C814D90431F0B60161507109DA
:104170007E8B6D8B02C0DE8ACD8AFA82E982412C69
:10418000512C32011B821C821D821E8249895A8950
:10419000052E000C660B770B4F8B588F698F7A8F2B
:1041A000A901330F660B770B4B8F5C8F6D8F7E8F62
:1041B0002F813885032E000C440B550B2F8F38A30D
:1041C00049A35AA3AC01990F660B770B4BA35CA3D1
:1041D0006DA37EA369817A818D899E898617970751
:1041E0000CF44EC06B817C818D819E812B8D3C8D2A
:1041F0004D8D5E8D0E944F23AFA0B8A4A20EB31EBA
:10420000C301B2012F8D38A149A15AA10E944F23A9
:10421000AFA1B8A52A0F3B1F4B815C816D817E81C8
:104220008BA19CA1ADA1BEA1480F591F6A1F7B1F86
:104230004B835C836D837E834F89588D698D7A8D26
:10424000440E551E661E771E2A153B052CF49A2D2A
:104250008B2D5901292F382F2A193B092F5F3F4FEA
:104260000B851C8549815A81B5018BE294E00E943F
:10427000141A69817A816F5F7F4F7A836983AACF2D
:104280008B899C89092E000CAA0BBB0B8B839C830A
:10429000AD83BE83A981BA81AC19BD092B893C8944
:1042A0000E946E232B013C01A981BA81AE19BF097E
:1042B00029893A890E946E235B016C012D853E8518
:1042C000032E000C440B550B2D873E874F87588BD0
:1042D0004F815885052E000C660B770B4F8358874E
:1042E00069877A8769817A81861697060CF442C0BD
:1042F000C301B2012D853E854F8558890E944F2309
:104300007101E20EF31EC601B5012F813885498582
:104310005A850E944F238FA198A5280F391F4B81E2
:104320005C816D817E81440E551E661E771E6F89ED
:10433000788D898D9A8DA60EB71EC81ED91E2E1592
:104340003F052CF49E2D8F2D7901292F382F2E1902
:104350003F092F5F3F4F0B851C8549815A81B7016B
:104360008BE294E00E94141A89819A8101969A83C3
:104370008983B8CF8BE294E0A8960FB6F894DEBF9D
:104380000FBECDBFDF91CF911F910F91FF90EF90A6
:10439000DF90CF90BF90AF909F908F907F906F9065
:1043A0005F904F903F902F900C94021D84E1A82EB7
:1043B000B12C212C312C18A61FA287CE682F8BE19F
:1043C00094E00C940812789440E050E0BA018BE23B
:1043D00094E00E94C61B1092C4021092C302109275
:1043E0005B0310927D030E9400168DEA91E1909389
:1043F0007B0280937A028EEA91E190937D02809312
:104400007C02E0918E03F0918F0382E08083E09143
:104410008A03F0918B031082E0918C03F0918D035D
:104420008FEC808310929603E0919203F0919303B6
:1044300086E08083E0919003F09191038081806118
:104440008083E0919003F091910380818860808364
:10445000E0919003F0919103808180688083E091E6
:104460009003F091910380818F7D80830E94D30A15
:1044700081110DC06FEE71E08EE793E00E94E010B5
:104480008EE793E00E94631181E090E008950E941E
:10449000430380E090E00895EEE7F3E01382128298
:1044A00088EE93E0A0E0B0E084839583A683B78391
:1044B00022E331E03183208325EC30E03587248707
:1044C00024EC30E03787268720EC30E0318B208BDE
:1044D00021EC30E0338B228B22EC30E0358B248BC7
:1044E00026EC30E0378B268B118E128E138E148EB5
:1044F000EBE1F4E01382128284839583A683B78371
:1045000084E491E091838083ABE2B4E013961C9243
:104510001E92129720EF30E015963C932E9314973D
:1045200080E491E017969C938E93169719963C938E
:104530002E9318971B969C938E931A9756961C92BF
:1045400056971D961C921E921C971F961C921E92A7
:104550001E9741E055964C93559754964C9354971B
:104560006FEF7FEF53967C936E93529751967C93A7
:104570006E93509757964C93579758961C9258970E
:104580005A961C921E925997D5961C92D5974FEF2A
:10459000D6964C93D6974AE0D7964C93D79749E056
:1045A000D8964C93D897DA961C921E92D997DC969F
:1045B0001C921E92DB97DD961C92DD97DE961C9274
:1045C000DE9710926A0410926B0410926C041092A1
:1045D0006D044EE654E090965C934E935F97ECE149
:1045E000F6E0E491F0E0EE0FFF1FE75FF94F459131
:1045F00054915E965C934E935D97EEEFF5E0449197
:10460000D3964C93D397EDE1F6E0E491F0E0EE0F12
:10461000FF1FE75FF94F659174915C967C936E93F1
:104620005B97EFEFF5E0E491D196EC93D197E095AD
:10463000D296EC93D297E42FE095D496EC93D4974E
:1046400046E851E04D935C9330932A04209329046B
:1046500090932804809327040895A1E21A2EAA1BA0
:10466000BB1BFD010DC0AA1FBB1FEE1FFF1FA21722
:10467000B307E407F50720F0A21BB30BE40BF50B1F
:10468000661F771F881F991F1A9469F760957095A8
:10469000809590959B01AC01BD01CF010895052E39
:1046A00097FB1EF400940E94662357FD07D00E94DA
:1046B0002D2307FC03D04EF40C94662350954095AF
:1046C000309521953F4F4F4F5F4F089590958095BE
:1046D000709561957F4F8F4F9F4F08950E9476236D
:1046E000332312F48A1B9B0B0C948723A29FB001E7
:1046F000B39FC001A39F700D811D1124911DB29F16
:10470000700D811D1124911D08950E947623B7FF1D
:104710000895821B930B0895EE0FFF1F0590F491EF
:10472000E02D099481E090E0F8940C949723F8949C
:02473000FFCFB9
:10473200FFFFFFFFFFFFFFFF00F81F00E007E0FFA2
:10474200FF071FF8FFFF303132333435363738393F
:10475200414243444546C0F9A4B099928EFF0000FD
:10476200000016119509BF096311F009CE09E2098B
:10477200000000000812DB114003AF11D311BF117A
:10478200B01100000000D014950940033F03C11A84
:10479200AB1B111B561AD119141A1C14021D381204
:1047A20044186118D31845191913AC124D12CE14BE
:1047B200CE1400000000D014950940033F03C11A33
:1047C200AB1B111B561AD119141A1C14021D0D1DF4
:1047D200BC1B6118D31845191913AC124D12C61B14
:1047E200431B54726F6E0050726573732043202610
:1047F200205A20746F20737461727400312E20531A
:104802007461727400322E204869676873636F7234
:10481200657300332E2053657474696E6773002AC2
:104822002A2A2A2A2A2A2A204E6F206E756E636847
:10483200756B20666F756E6400312E2000322E205B
:1048420000332E2000342E2000352E2000507265B9
:10485200737320432026205A20746F20636F6E7476
:10486200696E756500507265737320432026205A65
:1048720020746F2073656C6563740073656C656387
:104882007420636F6C6F720047616D65204F7665AF
:0E489200720053636F72653A20000D0A000039
:00000001FF
