:100000000C9415030C943D030C943D030C943D0398
:100010000C943D030C943D030C943D030C943D0360
:100020000C943D030C943D030C943D030C943D0350
:100030000C943D030C943D030C943D030C943D0340
:100040000C94BA150C943D030C942A160C940416C7
:100050000C943D030C943D030C943D030C943D0320
:100060000C94D3160C943D03EF03038002CF0300DE
:10007000C130ED0464031281E803850078CB0539B3
:100080002C003402F70120EA020000C00123C10164
:1000900010C5023E28C701863601483701003A01E3
:1000A00055B1020018B603088227F20100260101AB
:1000B000E00F0F312B0C0E084EF1370710030E091D
:1000C00000E10F000E1403110731C148080F0C3175
:1000D000360F118029800000000000240027002A2C
:1000E00000000000080002010000030407000000F7
:1000F000000000000000000000003E5B4F5B3E3E41
:100100006B4F6B3E1C3E7C3E1C183C7E3C181C57C3
:100110007D571C1C5E7F5E1C00183C1800FFE7C367
:10012000E7FF0018241800FFE7DBE7FF30483A0636
:100130000E2629792926407F050507407F05253FA2
:100140005A3CE73C5A7F3E1C1C08081C1C3E7F148E
:10015000227F22145F5F005F5F06097F017F0066D8
:1001600089956A606060606094A2FFA29408047E32
:10017000040810207E201008082A1C08081C2A08E1
:10018000081E101010100C1E0C1E0C30383E38309B
:10019000060E3E0E06000000000000005F0000009A
:1001A00007000700147F147F14242A7F2A122313C8
:1001B00008646236495620500008070300001C22DC
:1001C00041000041221C002A1C7F1C2A08083E080E
:1001D000080080703000080808080800006060000F
:1001E00020100804023E5149453E00427F40007203
:1001F000494949462141494D331814127F1027457A
:100200004545393C4A494931412111090736494997
:100210004936464949291E000014000000403400B8
:10022000000008142241141414141400412214086C
:1002300002015909063E415D594E7C1211127C7F24
:10024000494949363E414141227F4141413E7F4932
:100250004949417F090909013E414151737F08081D
:10026000087F00417F41002040413F017F08142268
:10027000417F404040407F021C027F7F0408107F86
:100280003E4141413E7F090909063E4151215E7FC1
:1002900009192946264949493203017F01033F4094
:1002A00040403F1F2040201F3F4038403F6314081C
:1002B000146303047804036159494D43007F4141AD
:1002C000410204081020004141417F040201020460
:1002D0004040404040000307080020545478407FCD
:1002E000284444383844444428384444287F385407
:1002F00054541800087E090218A4A49C787F0804AE
:10030000047800447D40002040403D007F10284498
:100310000000417F40007C047804787C0804047865
:100320003844444438FC1824241818242418FC7C2D
:1003300008040408485454542404043F44243C4012
:1003400040207C1C2040201C3C4030403C44281075
:1003500028444C9090907C4464544C4400083641AE
:10036000000000770000004136080002010204028C
:100370003C2623263C1EA1A161123A4040207A3837
:100380005454555921555579412254547842215598
:1003900054784020545579400C1E527212395555EC
:1003A0005559395454545939555454580000457CC2
:1003B000410002457D420001457C407D1211127DC5
:1003C000F0282528F07C545545002054547C547C5A
:1003D0000A097F4932494949323A4444443A324A47
:1003E0004848303A4141217A3A42402078009DA065
:1003F000A07D3D4242423D3D4040403D3C24FF24E3
:1004000024487E4943662B2FFC2F2BFF0929F62019
:10041000C0887E090320545479410000447D413056
:1004200048484A32384040227A007A0A0A727D0DE2
:1004300019317D2629292F28262929292630484D9A
:100440004020380808080808080808382F10C8ACE9
:10045000BA2F102834FA00007B000008142A142256
:1004600022142A14085500550055AA55AA55AAFF6A
:1004700055FF55FF000000FF00101010FF0014147E
:1004800014FF001010FF00FF1010F010F0141414EF
:10049000FC001414F700FF0000FF00FF1414F40424
:1004A000FC141417101F10101F101F1414141F0019
:1004B000101010F0000000001F101010101F10107E
:1004C0001010F010000000FF10101010101010108D
:1004D00010FF10000000FF140000FF00FF00001FCD
:1004E00010170000FC04F414141710171414F4046B
:1004F000F40000FF00F714141414141414F700F798
:10050000141414171410101F101F141414F41410C2
:1005100010F010F000001F101F0000001F1400005A
:1005200000FC140000F010F01010FF10FF14141461
:10053000FF141010101F00000000F010FFFFFFFF5D
:10054000FFF0F0F0F0F0FFFFFF0000000000FFFF01
:100550000F0F0F0F0F3844443844FC4A4A4A347E88
:1005600002020606027E027E026355494163384458
:10057000443C04407E201E2006027E020299A5E72C
:10058000A5991C2A492A1C4C7201724C304A4D4DC7
:10059000303048784830BC625A463D3E49494900AF
:1005A0007E0101017E2A2A2A2A2A44445F444440CB
:1005B000514A444040444A51400000FF0103E0805A
:1005C000FF000008086B6B083612362436060F0948
:1005D0000F06000018180000001010003040FF0146
:1005E00001001F01011E00191D1712003C3C3C3C7C
:1005F00000000000000102040810204080010204F5
:100600000810200102040810200000000025002826
:10061000002B000404040404040404020202020285
:1006200002030303030303000A1A11241FBECFEFC2
:10063000D8E0DEBFCDBF11E0A0E0B1E0EEE9F6E327
:1006400002C005900D92AA3BB107D9F723E0AAEBAF
:10065000B1E001C01D92A43BB207E1F713E0C5E190
:10066000D3E004C02197FE010E94421BC431D10790
:10067000C9F70E9455180C944D1B0C940000089566
:1006800080E090E008958F929F92AF92BF92CF92B8
:10069000DF92EF92FF920F931F93CF93DF935C0152
:1006A0004B016A01E90177FD53C0DC0118968D9179
:1006B0009C911997681779070CF04AC0209709F4A4
:1006C00047C037FF07C0C9010196C80ED91ED19592
:1006D000C195D109F50182859385C816D906C4F55F
:1006E000A6014C0F5D1F9A012150310937FD30C022
:1006F000D7FE03C0EA01C12CD12C281739071CF002
:10070000EC01CC19DD09D501ED91FC910284F38552
:10071000E02DC501099578018E0121E030E0A601A8
:10072000B401C5010E940F0DD501ED91FC91068821
:10073000F789E02DC501DF91CF911F910F91FF90B7
:10074000EF90DF90CF90BF90AF909F908F900994E3
:10075000DF91CF911F910F91FF90EF90DF90CF909D
:10076000BF90AF909F908F9008958F929F92AF927D
:10077000BF92CF92DF92EF92FF920F931F93CF938E
:10078000DF935C016B014A01E90157FD53C0DC01B5
:100790001A968D919C911B97481759070CF04AC0E7
:1007A000209709F447C037FF07C0C9010196C80E5A
:1007B000D91ED195C195D109F50180859185C816BD
:1007C000D906C4F5A6014C0F5D1F9A0121503109CD
:1007D00037FD30C0D7FE03C0EA01C12CD12C281749
:1007E00039071CF0EC01CC19DD09D501ED91FC9124
:1007F0000284F385E02DC5010995780101E010E040
:100800009E01A401B601C5010E940F0DD501ED9115
:10081000FC910688F789E02DC501DF91CF911F91EA
:100820000F91FF90EF90DF90CF90BF90AF909F908F
:100830008F900994DF91CF911F910F91FF90EF90CE
:10084000DF90CF90BF90AF909F908F9008958F9240
:100850009F92AF92BF92CF92DF92EF92FF920F934F
:100860001F93CF93DF934C016B015A01E90120974D
:1008700009F46CC00115110509F468C037FF07C001
:10088000C9010196C80ED91ED195C195D109F401AF
:10089000A085B185CA16DB060CF058C017FF07C04B
:1008A000C8010196A80EB91E119501951109F40110
:1008B00082859385A816B9060CF048C0F601EC0FA6
:1008C000FD1FAF014150510957FD40C0B501600FF8
:1008D000711F9B012150310937FD38C0D7FE03C07D
:1008E000EF01C12CD12CB7FE03C08B01A12CB12C80
:1008F0004A175B071CF0ED01CC19DD0928173907F1
:100900001CF08C010A191B09D401ED91FC910284A1
:10091000F385E02DC40109959E01A501B601C4012E
:100920000E940F0DD401ED91FC910688F789E02D0E
:10093000C401DF91CF911F910F91FF90EF90DF9055
:10094000CF90BF90AF909F908F900994DF91CF91FF
:100950001F910F91FF90EF90DF90CF90BF90AF90DD
:100960009F908F900895EF92FF920F931F93CF93D4
:10097000DF9377FD34C0DC011896ED91FC91199757
:100980006E177F0764F52115310549F137FF07C060
:10099000F90131964E0F5F1F319521953109DC0128
:1009A0001A96ED91FC911B974E175F07C4F4EA016C
:1009B000C20FD31FDE011197B7FD11C057FF03C04F
:1009C0009E0140E050E0AE17BF071CF09F01241BC2
:1009D000350B7801890121E030E00E940F0DDF9195
:1009E000CF911F910F91FF90EF900895EF92FF929A
:1009F0000F931F93CF93DF9357FD33C0DC011A96FB
:100A0000ED91FC911B974E175F075CF521153105A1
:100A100041F137FF07C0F90131966E0F7F1F319505
:100A200021953109DC011896ED91FC9119976E170B
:100A30007F07BCF4EB01C20FD31FDE011197B7FD96
:100A400010C077FF03C09E0160E070E0AE17BF07E3
:100A50001CF09F01261B370B780101E010E00E947B
:100A60000F0DDF91CF911F910F91FF90EF9008959F
:100A70008F929F92AF92BF92CF92DF92EF92FF92AE
:100A80000F931F93CF93DF9347012115310509F48D
:100A90004DC00115110509F449C037FF07C0F90120
:100AA00031966E0F7F1F319521953109DC01189623
:100AB000AD90BC9019976A157B05C4F517FF07C068
:100AC000F80131964E0F5F1F119501951109DC0158
:100AD0001A96ED91FC911B974E175F073CF56B0141
:100AE000C20ED31EE6012197D7FD20C07A01E00E89
:100AF000F11ED7011197B7FD19C077FF03C096010A
:100B000060E070E057FF03C0870140E050E0CA1585
:100B1000DB051CF09501261B370BAE17BF071CF039
:100B20008F01041B150B74010E940F0DDF91CF91F3
:100B30001F910F91FF90EF90DF90CF90BF90AF90FB
:100B40009F908F900895AF92BF92CF92DF92EF92D5
:100B5000FF920F931F93CF93DF93EC0177FD38C083
:100B600088859985681779079CF557FD31C08A8576
:100B70009B854817590764F569017A015B01E88193
:100B8000F9810284F385E02DCE010995E881F98190
:100B900002A4F3A5E02D01E010E021E030E0A70180
:100BA000B501CE010995B601CE010E940F18E8816A
:100BB000F9810688F789E02DCE01DF91CF911F9151
:100BC0000F91FF90EF90DF90CF90BF90AF9009947E
:100BD000DF91CF911F910F91FF90EF90DF90CF9019
:100BE000BF90AF900895EF92FF920F931F93CF9312
:100BF000DF93EC0177FD22C0888599856817790716
:100C0000ECF457FD1BC08A859B8548175907B4F43F
:100C10007901E881F98102A4F3A5E02D01E010E05B
:100C200021E030E0CE010995B701CE01DF91CF91EF
:100C30001F910F91FF90EF900C940F18DF91CF91BF
:100C40001F910F91FF90EF900895611102C060E233
:100C500001C061E220E040E050E00C94A00CCF9293
:100C6000DF92EF92FF920F931F93CF93DF93EC01EC
:100C70006A017B01452B462B472B31F4C12C42E105
:100C8000D42E4AE7E42EF12C8FA987FD07C061E03E
:100C90000E943E1061E08FA90E94F10F61E088ADD3
:100CA0000E943E1061E088AD0E94F10F8DA9811174
:100CB00052C040E052E16AE770E090E0C416D50609
:100CC000E606F70640F476956795579547959F5F3A
:100CD0009630A1F797E081E08927982F906A969542
:100CE00099A381708AA31BA21CA21DA21EA21FB7DA
:100CF000F8948091BA01811127C0EDE1F6E084916A
:100D0000EFEFF5E09491E82FF0E0EE0FFF1FE952CE
:100D1000FF4FA591B491EC91E92321F461E08AE0C1
:100D20000E94F10F61E08AE00E943E108CB5806164
:100D30008CBD8CB580648CBD61E08DE00E943E105E
:100D400061E08BE00E943E108091BA018F5F80933A
:100D5000BA011FBF4BC08130B9F461E08AA50E947F
:100D60003E1060E08AA50E94F10F61E08CA50E9410
:100D70003E1060E08CA50E94F10F8BA587FD36C068
:100D800060E00E943E1032C003E116E0F12CF80151
:100D90008491E82FF0E0EE0FFF1FE75FF94F859198
:100DA00094912F8D38A12817390741F461E08F2DD8
:100DB0000E943E1060E08F2D0E94F10FF3940F5FB0
:100DC0001F4FF4E1FF12E3CF61E08EA50E943E10B9
:100DD00061E08EA50E94F10F8FA587FD07C061E03D
:100DE0000E943E1061E08FA50E94F10F8EA987FD41
:100DF0002AC061E00E943E1061E08EA90E94F10FBE
:100E00002FEF81EE94E0215080409040E1F700C048
:100E1000000060E08EA90E94F10FEFEFF1EE24E0F8
:100E2000E150F0402040E1F700C0000061E08EA9F1
:100E30000E94F10F8FEF93ECE9E081509040E04089
:100E4000E1F700C000008EA987FF10C020E040E05D
:100E500050E061E0CE010E94A00CFFEF22E587E0A8
:100E6000F15020408040E1F700C00000E8E6F0E0EB
:100E7000CF01019664916623E1F08F010E5F1F4F51
:100E8000FC01F490FF2DFF77EF2E2F2FA801CE014C
:100E90000E94A00CF801EE0DF11DF7FEE9CF2FEF37
:100EA00082E597E0215080409040E1F700C00000CB
:100EB000DFCF80EF90E09987888780E491E09B877F
:100EC0008A87DF91CF911F910F91FF90EF90DF9074
:100ED000CF900895FC0185A9811105C06EBD0DB4A8
:100EE00007FEFDCF08958130E1F488E0A1A1B2A111
:100EF0002C9167FF03C095A1922B02C096A192236B
:100F00009C93A3A1B4A12C9197A1922B9C93660FC3
:100F1000A3A1B4A12C9190A592239C93815031F769
:100F20000895A78DB0A16C93CF010C940118CF93B5
:100F3000DF93EC01ED8DFE8D90818CA98923808358
:100F4000CE010E946A07ED8DFE8D90818BA9892BC1
:100F50008083DF91CF9108951F93CF93DF93EC01AE
:100F6000162FE881F9810284F385E02D099511237C
:100F700011F06DAD01C06EADCE010E949707E88102
:100F8000F9810688F789E02DCE01DF91CF911F917D
:100F90000994AF92BF92CF92DF92EF92FF920F939C
:100FA0001F93CF93DF93EC015B016A01215031095C
:100FB0007901E60EF71E01501109040F151F8091EB
:100FC0000601909107016817790739F480910401AF
:100FD00090910501E816F906A1F06AE2CE010E949F
:100FE0009707B501CE010E940F18B701CE010E94EC
:100FF0000F18B0920701A0920601F0920501E0924D
:1010000004018091020190910301C816D90639F4B8
:10101000809100019091010108171907A1F06BE27E
:10102000CE010E949707B601CE010E940F18B801A9
:10103000CE010E940F18D0920301C09202011093BA
:101040000101009300016CE2CE01DF91CF911F916D
:101050000F91FF90EF90DF90CF90BF90AF900C94E6
:101060009707FC0185A9811104C091A182A19CBDB3
:101070008DBD0895CF93DF93EC010E9431088FA9B5
:1010800087FD06C0EB8DFC8D90818AA98923808322
:10109000DF91CF9108950895FC0187A987FD06C0CF
:1010A000A38DB48D9C9181A9892B8C9308950F9366
:1010B0001F93CF93DF931F92CDB7DEB78C01637080
:1010C000DC0156966C935697623059F06330C9F044
:1010D000613029F088E4898380EF90E007C088E2DE
:1010E00011C088E8898380EF90E0D80119969C931D
:1010F0008E93189780E491E01B969C938E931A9799
:101100000BC088EE898380E491E0F80191878087A5
:1011100080EF90E093878287C8010E943108D80150
:10112000D7968C91D79787FD09C05B96ED91FC917E
:101130005C979081D2968C9189238083D8015D96AB
:10114000ED91FC915E979081D4968C918923808358
:1011500066E3C8010E946A07D8015D96ED91FC9193
:101160005E979081D3968C91D397892B8083D59667
:101170008C91823029F06981C8010E946A0709C0F8
:10118000F80180A98823B9F369817A81C8010E9496
:101190000F18D801D7968C91D79787FD09C05B9619
:1011A000ED91FC915C979081D1968C91892B8083F5
:1011B0000F90DF91CF911F910F9108952F923F9241
:1011C0004F925F926F927F928F929F92AF92BF9257
:1011D000CF92DF92EF92FF920F931F93CF93DF9303
:1011E000CDB7DEB7A8970FB6F894DEBF0FBECDBF60
:1011F00098A78FA34B015A0139011701DE86CD86CE
:10120000261737075CF4E616F706BCF4962F892DEF
:101210004901EFA0F8A458A74FA307C0E216F306B0
:101220000CF093C1962D872D75012814390484F094
:1012300058013101292E382E13C08B2DAFA0B8A430
:101240004FA388A77801872D3B01822E982E08C0D6
:101250003401AFA0B8A44101292E382E0FA318A73E
:101260008FE193E00E943A088214930451F52FA174
:1012700038A5A216B3065CF09FA188A52A153B05E8
:1012800014F49A2D8B2DAFA0B8A49FA388A7EA14BD
:10129000FB0444F04FA158A54E155F0514F4F8A6C1
:1012A000EFA275012FA138A52E193F092F5F3F4FDF
:1012B0000D851E85A401B7018FE193E00E94F6041D
:1012C00028C1C5016FA178A5861B970B930128192A
:1012D0003909D701A61BB70BBC8BAB8BA1014819F1
:1012E00059095A87498727014A185B08B1016619CD
:1012F0007709788B6F876214730429F0D3011197F3
:10130000BE8BAD8B02C07E8A6D8A64011D821E82F7
:101310001F82188619821A821B821C824B895C8963
:10132000052E000C660B770B4F8B588F698F7A8FC9
:10133000A901330F660B770B4B8F5C8F6D8F7E8F00
:1013400029853A85032E000C440B550B2F8F38A3AB
:1013500049A35AA3AC01990F660B770B4BA35CA36F
:101360006DA37EA36D897E896C157D050CF454C038
:1013700069817A818B819C812B8D3C8D4D8D5E8D19
:101380000E94E31AEFA0F8A4E20EF31E6D817E81A5
:101390008F8198852F8D38A149A15AA10E94E31A07
:1013A0008FA198A5280F391F49815A816B817C81B3
:1013B0008BA19CA1ADA1BEA1480F591F6A1F7B1F25
:1013C00049835A836B837C834D815E816F817885ED
:1013D0008F89988DA98DBA8D480F591F6A1F7B1F61
:1013E0004D835E836F8378872E153F052CF49E2DE9
:1013F0008F2D7901292F382F2E193F092F5F3F4F4D
:101400000D851E85A601B7018FE193E00E94F604C9
:101410009FEFC91AD90AA6CF9201052C000C440BE4
:10142000550B2D833E834F835887D601A619B709E4
:1014300092010E94021B2B013C01D601A819B90997
:101440002B893C890E94021B69837A838B839C834E
:101450004F855889052E000C660B770B4F87588BEC
:10146000698B7A8B69857A85072E000C880B990B1E
:1014700069877A878B879C872C143D040CF449C0BC
:10148000C301B2012F85388949895A890E94E31A1C
:101490007501E20EF31E69817A818B819C81298519
:1014A0003A854B855C850E94E31A8FA198A5280F89
:1014B000391F4D815E816F817885440E551E661EF1
:1014C000771E89819A81AB81BC814F89588D698D46
:1014D0007A8D840F951FA61FB71F89839A83AB83CC
:1014E000BC832E153F052CF49E2D8F2D7901292FBD
:1014F000382F2E193F092F5F3F4F0D851E85A601FE
:10150000B7018FE193E00E94F6045FEFC51AD50A98
:10151000B3CF8FE193E0A8960FB6F894DEBF0FBE6D
:10152000CDBFDF91CF911F910F91FF90EF90DF9092
:10153000CF90BF90AF909F908F907F906F905F9073
:101540004F903F902F900C944C08780189CE8F9249
:101550009F92AF92BF92CF92DF92EF92FF920F9342
:101560001F93CF93DF9310917502113208F0C2C020
:10157000082FD09174020E9495156B017C01C091D7
:101580004C02CC2311F180914E0290914F02A09118
:101590005002B0915102892B8A2B8B2B81F30E9430
:1015A000951580904E0290904F02A0905002B090FE
:1015B0005102DC01CB018C199D09AE09BF098816C7
:1015C0009906AA06BB06D8F681C082E080934C0239
:1015D00000934B028FEF80934A02109249021093BE
:1015E0004802A4E5B2E0E8E2F2E080E0181721F05A
:1015F0009D9191938F5FFACF1092270290912702CD
:101600008D2F880F892B80932702809126028130AD
:1016100089F5109226020E9495156B017C0180913C
:1016200027028093BB0080914E0290914F02A091BF
:101630005002B0915102892B8A2B8B2BA9F00E946A
:10164000951500914E0210914F0220915002309159
:101650005102DC01CB018C199D09AE09BF090817A5
:1016600019072A073B0790F18091BC0083FDD7CF73
:1016700085EC01C085EE8093BC000E9495156B013E
:101680007C0180914C02823039F580914E0290911C
:101690004F02A0915002B0915102892B8A2B8B2BC3
:1016A00081F30E94951500914E0210914F022091F6
:1016B000500230915102DC01CB018C199D09AE0919
:1016C000BF09081719072A073B07D8F680914D0272
:1016D0000E947A16C5E013C080914A028F3F79F0CC
:1016E00080914A02803241F080914A02803331F089
:1016F000C4E005C0C1E003C0C2E001C0C3E0109275
:10170000530210927502109252028C2FDF91CF91EA
:101710001F910F91FF90EF90DF90CF90BF90AF900F
:101720009F908F9008958F929F92AF92BF92CF9289
:10173000DF92EF92FF921F93CF93DF93162F91E0EA
:101740009093520292E59093740210925302109279
:101750007502682F83E193E00E94F51181E00E94F9
:10176000A70A8FE99FE00197F1F700C000000E94EF
:1017700095156B017C01C0914C02CC2339F180910D
:101780004E0290914F02A0915002B0915102892BCC
:101790008A2B8B2B81F30E94951580904E0290909E
:1017A0004F02A0905002B0905102DC01CB018C1985
:1017B0009D09AE09BF0988169906AA06BB06D8F688
:1017C00080914D020E947A16C0E08FC0D12F113255
:1017D00008F0D0E281E080934C0280934B029FEFAF
:1017E00090934A02109249029D0F90934802809371
:1017F000270280912702846A809327028091260223
:10180000813089F5109226020E9495156B017C01AA
:10181000809127028093BB0080914E0290914F02ED
:10182000A0915002B0915102892B8A2B8B2BA9F0E9
:101830000E94951580904E0290904F02A090500209
:10184000B0905102DC01CB018C199D09AE09BF0992
:1018500088169906AA06BB0690F18091BC0083FD0C
:10186000D7CF85EC01C085EE8093BC000E94951512
:101870006B017C0180914C02813031F580914E02E8
:1018800090914F02A0915002B0915102892B8A2B66
:101890008B2B81F30E94951580904E0290904F0201
:1018A000A0905002B0905102DC01CB018C199D092F
:1018B000AE09BF0988169906AA06BB06D8F680911C
:1018C0004D020E947A1611C0809149028D1710F4C2
:1018D000D0914902E8E2F2E0ADEBB1E0C0E0CD1713
:1018E00021F081918D93CF5FFACF1092BC01C0930C
:1018F000BB01D0E08091BC01C81781F01D1770F0CA
:10190000FF24F394FD0E83E193E00E94AC11ED2FD0
:10191000F0E0EA5FFD4F8083DF2DECCF8D2FDF916C
:10192000CF911F91FF90EF90DF90CF90BF90AF903D
:101930009F908F900895682F83E193E00C94F511A8
:10194000AF92BF92CF92DF92EF92FF920F931F93CD
:10195000CF93DF93EC01E62E8A01F22E0E9431082C
:101960008FA987FD06C0EB8DFC8D90818AA9892304
:101970008083ED8DFE8D90818CA9892380836E2DCF
:10198000CE010E946A07ED8DFE8D90818BA9892B77
:101990008083C12CD12CAF2CB12CCA14DB04E4F40D
:1019A0008DA97801823059F488A9882341F0F80183
:1019B000619171917F01CE010E940F1808C0FFEF65
:1019C000EF1AFF0AF8016491CE010E946A07FFEF47
:1019D000CF1ADF0A8701E1CF8FA987FD06C0EB8D03
:1019E000FC8D908189A9892B80838DA981110CC0E0
:1019F000DF91CF911F910F91FF90EF90DF90CF90EB
:101A0000BF90AF900C944B08DF91CF911F910F9135
:101A1000FF90EF90DF90CF90BF90AF9008958F929E
:101A20009F92AF92BF92CF92DF92EF92FF920F936D
:101A30001F93CF93DF93EC014901BE2CAF2CE881BB
:101A4000F98102A4F3A5E02D09959401D8010E9423
:101A5000021B611571058105910509F481C02DA94D
:101A600021110FC0615071098109910908F478C0F2
:101A7000AEBC0DB407FEFDCFBEBC0DB407FEFDCF5E
:101A8000F1CF213009F03FC06150710981099109FE
:101A900008F466C03A2D28E0E9A1FAA1508137FF89
:101AA00003C04DA1452B02C04EA145234083EBA1AD
:101AB000FCA150814FA1452B4083EBA1FCA150819B
:101AC00048A545234083330F215031F73B2D28E0B3
:101AD000E9A1FAA1508137FF03C04DA1452B02C0F7
:101AE0004EA145234083EBA1FCA150814FA1452B82
:101AF0004083EBA1FCA1508148A545234083330FCF
:101B0000215031F7C1CFFE1017C0EF8DF8A1F08240
:101B10006B017C01CC0CDD1CEE1CFF1CC114D1043C
:101B2000E104F104E9F0CE010E94011881E0C81A35
:101B3000D108E108F108F2CF6B017C01EF8DF8A12B
:101B4000A082CE010E940118EF8DF8A1B082CE01D3
:101B50000E94011821E0C21AD108E108F10871F7CA
:101B6000DF91CF911F910F91FF90EF90DF90CF9079
:101B7000BF90AF909F908F9008952F923F924F9279
:101B80005F926F927F928F929F92AF92BF92CF920D
:101B9000DF92EF92FF920F931F93CF93DF93CDB716
:101BA000DEB76B970FB6F894DEBF0FBECDBF9B8F2D
:101BB0008A8F1B014A01D22E198708873701A98213
:101BC000DC0159962D913C915A972115310509F068
:101BD000FFC018968D919C911997681779070CF0A2
:101BE000E7C11A968D919C911B97481759070CF0E5
:101BF000DFC1EC2DF0E0FB83EA839B0146E0C49E4D
:101C0000200D311D11243D872C87121613060CF070
:101C1000CFC16A2D70E07B876A8783E0660F771FEC
:101C20008A95E1F77F876E87CB01880D991D18167D
:101C300019060CF0BDC158968C91811104C08FEA31
:101C40008D1508F4D394AA8DBB8DED91FC9111975D
:101C50000284F385E02DCD010995B5E0DB9EC0013E
:101C60001124EC2DF0E0F98BE88B91012B5F3F4FB5
:101C70003B8B2A8B3D822C822101AC0142195309F6
:101C80005D8B4C8B7981672F70E07F8B6E8BC401ED
:101C90000896998F888FEC89FD89E40DF51DEB502E
:101CA000FF4FD49054019F828E82D0FE16C0AA8D21
:101CB000BB8DED91FC91B1E0CB1209C0298121309F
:101CC00031F40484F585E02D2885398519C0068412
:101CD000F785E02DE884F9841DC0488559854615AF
:101CE000570519F1AA8DBB8DED91FC91B1E0CB1296
:101CF0000DC02981213051F40484F585E02D930134
:101D0000A501B2018A8D9B8D09950FC00684F785C8
:101D1000E02D73010A851B852A813B814E815F81FD
:101D20006C817D818A8D9B8D0995D6943FEFA31A96
:101D3000B30A4E815F816E897F89460F571F5F838B
:101D40004E83888D998DA816B90609F0AECF9FEF06
:101D5000491A590AAC81BD81E889F989AE0FBF1FC4
:101D6000BD83AC832A893B894216530609F093CF81
:101D7000488559854615570509F4F8C0AA8DBB8DCD
:101D8000ED91FC91B1E0CB1211C02981213071F4A9
:101D9000B1016B5F7F4F0088F189E02D830128E05E
:101DA00030E0A4018A8D9B8D0995E0C06C857D850E
:101DB0004A815B81641B750B0684F785E02D7301F6
:101DC0000E851F859A01A4018A8D9B8D0995CEC031
:101DD000F9013496E491DE1AF901329685919491D5
:101DE000B7E0DB9E800D911D1124F90125913491FE
:101DF0003B8B2A8BFC01259134915901FC013296D1
:101E00005490319634913C87329674903196149167
:101E100041E04C1518F05981523068F0672D072CBD
:101E2000000C770B7D836C83812F012E000C990BA6
:101E30009B838A8304C01B821A821D821C82AA8D06
:101E4000BB8DED91FC9111970284F385E02DCD01BE
:101E50000995412CD12C612CF981EF2FF0E0FF8303
:101E6000EE832C2D30E03B872A87A401410F511DC2
:101E700017FD5A955F8B4E8BB101670D711D77FC75
:101E80007A95798F688F7C85671608F06FC0262D4C
:101E900030E04A815B81420F531FAE81BF81A49F16
:101EA000C001A59F900DB49F900D1124F401E80F7F
:101EB000F91FF98BE88B842D712C4E895F89420FB5
:101EC000531F5D8B4C8B751408F04DC051E0580FBB
:101ED0005E87877041F4C5010196EA89FB89EA0DA6
:101EE000FB1DD4905C01D7FE3AC061E0C61216C05B
:101EF0007981713099F4AA8DBB8DED91FC91119788
:101F00000484F585E02D288539854C895D89688DA7
:101F1000798D670D711DCD01099521C08C819D8141
:101F2000870D911DEA85FB858E9FB0018F9F700DF7
:101F30009E9F700D1124620D731DAA8DBB8DED91B6
:101F4000FC9111970684F785E02DE884F9840E81D1
:101F50001F812A853B8548895989CD010995DD0C6A
:101F600073948E85B0CF450C63948DCFAA8DBB8DB5
:101F7000ED91FC9111970688F789E02DCD016B96C4
:101F80000FB6F894DEBF0FBECDBFDF91CF911F918A
:101F90000F91FF90EF90DF90CF90BF90AF909F9008
:101FA0008F907F906F905F904F903F902F9009940B
:101FB0006B960FB6F894DEBF0FBECDBFDF91CF9109
:101FC0001F910F91FF90EF90DF90CF90BF90AF9057
:101FD0009F908F907F906F905F904F903F902F9049
:101FE000089590E0FC01EF51FF4F2491FC01EB506C
:101FF000FA4F3491FC01ED5EF94FE491EE2309F4C0
:102000003CC0222339F1233091F038F42130A9F07B
:10201000223001F584B58F7D12C0273091F0283031
:10202000A1F02430B9F4809180008F7D03C08091AD
:1020300080008F77809380000DC084B58F7784BD3A
:1020400009C08091B0008F7703C08091B0008F7D70
:102050008093B000F0E0EE0FFF1FE75FF94FA5910E
:10206000B4919FB7F894611104C08C9130953823D6
:1020700002C0EC913E2B3C939FBF0895CF93DF931A
:1020800090E0FC01EB50FA4F2491FC01ED5EF94F1A
:102090008491882361F190E0880F991FFC01E95237
:1020A000FF4FC591D491FC01E75FF94FA591B49121
:1020B000611109C09FB7F894888120958223888395
:1020C000EC912E230BC0623061F49FB7F8948881A5
:1020D000322F309583238883EC912E2B2C939FBF36
:1020E00006C08FB7F894E8812E2B28838FBFDF912D
:1020F000CF910895CF92DF92EF92FF920F931F93AB
:10210000CF93DF936C017A018B01C0E0D0E0CE1554
:10211000DF0581F0D8016D918D01D601ED91FC9123
:102120000190F081E02DC6010995892B11F02196CF
:10213000EECF7E01C701DF91CF911F910F91FF90EC
:10214000EF90DF90CF900895FC01538D448D252FA3
:1021500030E0842F90E0821B930B541710F0CF9641
:10216000089501970895FC01918D828D981761F073
:10217000828DDF01A80FB11D5D968C91928D9F5FBE
:102180009F73928F90E008958FEF9FEF0895FC0169
:10219000918D828D981731F0828DE80FF11D858D1C
:1021A00090E008958FEF9FEF0895FC01918D228DAF
:1021B000892F90E0805C9F4F821B91098F73992734
:1021C0000895FC01848DDF01A80FB11DA35ABF4FF4
:1021D0002C91848D90E001968F739927848FA68926
:1021E000B7892C93A089B1898C91837080648C937A
:1021F000938D848D981306C00288F389E02D808129
:102200008F7D80830895EF92FF920F931F93CF935A
:10221000DF93EC0181E0888F9B8D8C8D981305C036
:10222000E889F989808185FD26C0F62E0B8D10E0A6
:102230000F5F1F4F0F731127E02E8C8DE8120CC01B
:102240000FB607FCFACFE889F989808185FFF5CFC1
:10225000CE010E94E110F1CF8B8DFE01E80FF11D40
:10226000E35AFF4FF0829FB7F8940B8FEA89FB89FE
:10227000808180620AC09FB7F894EE89FF896083ED
:10228000E889F98980818370806480839FBF81E0C1
:1022900090E0DF91CF911F910F91FF90EF90089503
:1022A000CF93DF93EC01888D8823C9F0EA89FB89FD
:1022B000808185FD05C0A889B9898C9186FD0FC0F4
:1022C0000FB607FCF5CF808185FFF2CFA889B989C9
:1022D0008C9185FFEDCFCE010E94E110E7CFDF9119
:1022E000CF91089540918803262F30E0240F311DAF
:1022F00021323105DCF420914C022430C9F4FC0178
:1023000080E090E0861758F4309188032191DC0139
:10231000A859BC4FA30FB11D2C930196F3CF809108
:102320008803680F6093880380E0089581E0089532
:1023300082E00895089508950895E091BC01809188
:10234000BB01E81730F4F0E0E354FE4F808190E0E9
:1023500008958FEF9FEF08959091BC018091BB018C
:10236000981750F4E92FF0E0E354FE4F208130E05D
:102370009F5F9093BC0102C02FEF3FEFC90108950A
:102380008091BB0190E02091BC01821B91090895CE
:10239000CF92DF92EF92FF920F931F93CF93DF9331
:1023A0007C01CB018A0120915202222389F0EB01AA
:1023B0006B01C40ED51ECC15DD0569F06991D701FE
:1023C000ED91FC910190F081E02DC7010995F3CFCB
:1023D000642F0E947211C801DF91CF911F910F915C
:1023E000FF90EF90DF90CF900895CF93DF931F92EF
:1023F000CDB7DEB76983209152022223D1F020911C
:102400007502203240F021E030E0FC01338322836A
:1024100080E090E015C080915302E82FF0E0EC5A84
:10242000FD4F998190838F5F809353028093750253
:1024300005C061E0CE0101960E94721181E090E03A
:102440000F90DF91CF9108950895FC016370668B22
:102450008481958126813781613039F0633029F09C
:1024600091878087338722870895318720879387D4
:10247000828708956F927F928F929F92AF92BF92C0
:10248000CF92DF92EF92FF920F931F93CF93DF9340
:10249000EC014B015A0169013801E881F98102849C
:1024A000F385E02D0995E881F9810288F389E02D13
:1024B00087019601A501B401CE010995A501460D3C
:1024C000571D41505109E881F9810288F389E02DB7
:1024D0009601B401CE010995E881F9810088F1895E
:1024E000E02D9301A501B401CE010995C80CD91CBA
:1024F000B60161507109E881F9810088F189E02D08
:102500009301A501CE010995E881F9810688F78933
:10251000E02DCE01DF91CF911F910F91FF90EF90B1
:10252000DF90CF90BF90AF909F908F907F906F90F3
:1025300009948F929F92AF92BF92CF92DF92EF92C7
:10254000FF920F931F93CF93DF934C016B015A01BE
:10255000E901DC01ED91FC916217730781F4041726
:10256000150724F48B2D5801042F182F0A191B0965
:1025700098012F5F3F4F048CF58DE02D12C040175E
:10258000510709F52617370724F48D2D6901C62F49
:10259000D82F9E012C193D092F5F3F4F068CF78DD8
:1025A000E02D8701A501B601C4010995DF91CF9106
:1025B0001F910F91FF90EF90DF90CF90BF90AF9061
:1025C0009F908F9008950284F385E02D0995D401A2
:1025D000ED91FC910488F589E02D9E01A501B601DD
:1025E000C4010995D401ED91FC910688F789E02D8D
:1025F000C401DF91CF911F910F91FF90EF90DF9079
:10260000CF90BF90AF909F908F900994EF92FF92E0
:102610000F931F93DC011A960D911C911B9718962E
:102620002D913C911997ED91FC9100A0F1A1E02D25
:102630007B0140E050E060E070E009951F910F9150
:10264000FF90EF9008954F925F926F927F928F92DA
:102650009F92AF92BF92CF92DF92EF92FF920F9331
:102660001F93CF93DF936C012B015A01390148016D
:10267000DC01ED91FC910284F385E02D0995E201E6
:10268000640C751CD601ED91FC91C615D7055CF460
:102690000088F189E02D87019401A501BE01C601E2
:1026A00009952196EFCF0688F789E02DC601DF91C5
:1026B000CF911F910F91FF90EF90DF90CF90BF903F
:1026C000AF909F908F907F906F905F904F90099404
:1026D0008F929F92AF92BF92CF92DF92EF92FF9232
:1026E0000F931F93CF93DF93EC015B014A016901C4
:1026F000E881F9810284F385E02D099595012C0D7F
:102700003D1D21503109E881F9810488F589E02DCA
:1027100078018401A401B501CE010995E881F98110
:102720000688F789E02DCE01DF91CF911F910F919F
:10273000FF90EF90DF90CF90BF90AF909F908F90E1
:1027400009948F929F92AF92BF92CF92DF92EF92B5
:10275000FF920F931F93CF93DF93EC015B014A012C
:1027600069017801E881F9810284F385E02D0995FA
:10277000C80CD91C860101501109E881F98104882F
:10278000F589E02D9501A401B501CE010995E881F7
:10279000F9810688F789E02DCE01DF91CF911F9155
:1027A0000F91FF90EF90DF90CF90BF90AF909F90F0
:1027B0008F900994EF92FF920F931F93DC01ED919C
:1027C000FC9100A0F1A1E02D09951F910F91FF90C0
:1027D000EF9008950F931F93DC01ED91FC91068C0F
:1027E000F78DE02D09951F910F9108950F931F9379
:1027F000DC01ED91FC91048CF58DE02D09951F9184
:102800000F910895DC01ED91FC910084F185E02D9C
:1028100009942F923F924F925F926F927F928F9284
:102820009F92AF92BF92CF92DF92EF92FF920F935F
:102830001F93CF93DF9300D000D000D0CDB7DEB789
:102840002C017E836D836A015901C801FC82EB82F1
:102850004801841A950A97FE03C0919481949108C7
:1028600035012D813E81621A730A77FE03C071948F
:1028700061947108681479045CF43A2D2B2D5C0185
:10288000832F922F3D812E81DE82CD82C32ED22EC8
:10289000AD81BE81AA16BB065CF43C2D2D2D6C01CA
:1028A000832F922F3D812E81BE82AD82A32EB22E28
:1028B00085012D813E81021B130B1C012C183D0844
:1028C00037FE03C0319421943108780117FF03C00B
:1028D0003FEFE31AF30AF594E794C816D9062CF0F3
:1028E0008FEF9FEF9A83898304C0A1E0B0E0BA83A1
:1028F000A9832D813E81A216B30624F1D201ED9168
:10290000FC910484F585E02D2B813C8168147904C9
:1029100024F44D815E81B60103C0A6016D817E81E4
:10292000C2010995E218F308F7FE06C029813A8131
:10293000C20ED31EE00EF11E8D819E8101969E83F4
:102940008D83D7CF26960FB6F894DEBF0FBECDBFCE
:10295000DF91CF911F910F91FF90EF90DF90CF907B
:10296000BF90AF909F908F907F906F905F904F90AF
:102970003F902F9008950E94481B8F929F92AF9294
:10298000CF92EF92FF920F931F93CF93DF93EC01BF
:10299000262F898D9A8D009709F042C06A3059F42C
:1029A0001D861C862D898E859F8538E0239F800D8E
:1029B000911D112443C06D3009F4AAC08F8988236A
:1029C000C9F03C898C859D8546E0349F800D911D22
:1029D0001124488559854817590764F41D861C86BB
:1029E0003D898E859F8548E0349F800D911D11247F
:1029F0009F878E87EA88FB88088919894E855F85BD
:102A00006C857D85AD88CC88CE010E94BD0D2C895A
:102A10008C859D8536E0239F800D911D11243EC03D
:102A20006A3079F41D861C862D89FC013896E49164
:102A30008E859F852E9F800D911D11249F878E87E7
:102A400067C06D3009F464C0FC013496349163179B
:102A500008F45EC03296E491E61708F459C0462F98
:102A6000431B342FFC0132968590949047E0349FAD
:102A7000800C911C1124F401329634913196E4912A
:102A8000332311F0E1110DC0F4013496E4912C8947
:102A90008C859D85E29F800D911D11249D878C87DB
:102AA00037C0F401359644915F89552319F15C894B
:102AB000E32FF0E0E40FF11D47FDFA955E9FB001B2
:102AC0005F9F700D11244C855D85460F571F6885EB
:102AD00079856417750774F41D861C863D89FC0191
:102AE0003896E4918E859F853E9F800D911D11241F
:102AF0009F878E87EA88FB88088919894E855F85BC
:102B00006C857D85AD88CC88CE010E94BD0DBCCF83
:102B100081E090E0DF91CF911F910F91FF90EF90B6
:102B2000CF90AF909F908F9008953FB7F894809189
:102B3000B0039091B103A091B203B091B30326B555
:102B4000A89B05C02F3F19F00196A11DB11D3FBFE5
:102B5000BA2FA92F982F8827820F911DA11DB11D73
:102B6000BC01CD0142E0660F771F881F991F4A956F
:102B7000D1F708951F920F920FB60F9211242F9341
:102B80003F938F939F93AF93BF938091AC039091AA
:102B9000AD03A091AE03B091AF033091AB0323E03E
:102BA000230F2D3720F40196A11DB11D05C026E885
:102BB000230F0296A11DB11D2093AB038093AC039C
:102BC0009093AD03A093AE03B093AF038091B00395
:102BD0009091B103A091B203B091B3030196A11DEE
:102BE000B11D8093B0039093B103A093B203B0934F
:102BF000B303BF91AF919F918F913F912F910F9010
:102C00000FBE0F901F9018951F920F920FB60F9244
:102C100011242F933F934F935F936F937F938F93E1
:102C20009F93AF93BF93EF93FF9386E792E00E9449
:102C3000E110FF91EF91BF91AF919F918F917F91A3
:102C40006F915F914F913F912F910F900FBE0F9019
:102C50001F9018951F920F920FB60F9211242F9369
:102C60008F939F93EF93FF93E0918602F0918702F9
:102C70008081E0918C02F0918D0282FD12C09081E2
:102C800080918F028F5F8F7320919002821751F095
:102C9000E0918F02F0E0EA58FD4F958F80938F020C
:102CA00001C08081FF91EF919F918F912F910F90A3
:102CB0000FBE0F901F90189510924C0281E08093E8
:102CC0004B021092260261E082E10E94F10F61E066
:102CD00083E10E94F10FE9EBF0E080818E7F808339
:102CE00080818D7F808388E48093B80085E4809321
:102CF000BC000895CF93DF9391E0909367038823FE
:102D0000B9F0C091B800D091BA008091BC008A7B24
:102D10008093BC0060E082E10E94F10F60E083E1FB
:102D20000E94F10F0E945C16D093BA00C093B800C5
:102D3000DF91CF91089585ED8093BC0080914E0284
:102D400090914F02A0915002B09151020796A11D9F
:102D5000B11D23E0B695A795979587952A95D1F74C
:102D60002091BC0024FF1CC040914E0250914F02A4
:102D70006091500270915102452B462B472B81F3F5
:102D80000097A105B10541F02AE22A95F1F700C0AC
:102D90000197A109B109E4CF80914D020C947A16F4
:102DA00010924C0208951F920F920FB60F921124A9
:102DB0002F933F934F935F936F937F938F939F9343
:102DC000AF93BF93EF93FF938091B900887F8036D4
:102DD00009F49CC068F5883209F45BC090F4803136
:102DE00009F454C038F4882309F4F6C0883009F493
:102DF0004DC0F6C0883109F44CC0803209F45DC082
:102E0000EFC0803409F468C048F4803309F455C039
:102E1000883309F0E5C080934A02D8C0803509F4B0
:102E20004FC0883509F45DC0883409F0D9C0D6C0D8
:102E3000883909F4C7C0A8F4883709F467C038F4A2
:102E4000883609F463C0803709F460C0C9C0883887
:102E500009F4B8C0803909F45FC0803809F0C0C0F7
:102E60005BC0803B09F486C038F4803A09F466C040
:102E7000883A09F47FC0B4C0803C09F4A7C0883CFC
:102E800009F4A4C0883B09F48AC0AAC08091270233
:102E900010C09091490280914802981770F5E09116
:102EA000490281E08E0F80934902F0E0E85DFD4F1A
:102EB00080818093BB0085EC86C080934A028EC0DF
:102EC000E091490281E08E0F809349028091BB001E
:102ED000F0E0E85DFD4F80839091490280914802C7
:102EE0006EC0E091490281E08E0F8093490280918B
:102EF000BB00F0E0E85DFD4F808380914B028111C3
:102F00006DC081E08093260284EA61C083E08093F3
:102F10004C021092AA03CFCF8091AA03803208F00E
:102F200051C0E091AA0381E08E0F8093AA038091A3
:102F3000BB00F0E0E657FC4F8083BDCF85EC80936B
:102F4000BC0010924C028091AA03803230F4E091D0
:102F5000AA03F0E0E657FC4F10826091AA0370E0EC
:102F6000E0916503F09166038AE893E00995109279
:102F7000AA0336C084E080934C0210928903109219
:102F80008803E0916303F0916403099580918803BD
:102F9000811105C081E08093880310926803E0915D
:102FA000890381E08E0F80938903F0E0E859FC4F9C
:102FB00080818093BB00909189038091880398174A
:102FC00008F479CF85E88093BC000AC085EC809333
:102FD000BC0010924C0204C010924A020E949B1640
:102FE000FF91EF91BF91AF919F918F917F916F91E1
:102FF0005F914F913F912F910F900FBE0F901F90B7
:103000001895FC01A5A1B6A19C9182A589238C935A
:10301000A5A1B6A19C9181A5892B8C9308950F93AE
:103020001F93CF93DF93EC018B018DA9811109C010
:103030001EBD0DB407FEFDCF0EBD0DB407FEFDCFC6
:103040002FC08130E9F480E1E9A1FAA1208117FFC6
:1030500003C09DA1922B02C09EA192239083EBA15D
:10306000FCA120819FA1922B9083EBA1FCA1208148
:1030700098A592239083000F111F815029F710C04B
:10308000EF8DF8A11083CE010E940118EF8DF8A1F9
:103090000083CE01DF91CF911F910F910C94011805
:1030A000DF91CF911F910F9108952F923F924F92F0
:1030B0005F926F927F928F929F92AF92BF92CF92C8
:1030C000DF92EF92FF920F931F93CF93DF93789449
:1030D00040E050E0BA018FE193E00E942F06109289
:1030E000BC011092BB0110925302109275020E9413
:1030F0005C168AE991E190936403809363038BE902
:1031000091E19093660380936503E0918602F091CC
:10311000870282E08083E0918202F0918302108234
:10312000E0918402F09185028FEC808310928E02F0
:10313000E0918A02F0918B0286E08083E091880220
:10314000F0918902808180618083E0918802F09112
:103150008902808188608083E0918802F0918902F1
:10316000808180688083E0918802F091890280816B
:103170008F7D808360E070E08FE193E00E94061312
:10318000D1E0D0935202C2E5C09374021092530270
:103190001092750280EF90E00E949B0C85E590E014
:1031A0000E949B0C81E00E94A70AD0935202C09318
:1031B000740210925302109275028BEF90E00E94FD
:1031C0009B0C80E090E00E949B0C81E00E94A70A8B
:1031D00064E08AEF0E94930B843009F0F2C080E330
:1031E0008093FB0188E78093FC0186E092E0ADEDDF
:1031F000B1E025EE31E0EC01E991CE01CE2FD0E037
:1032000014E0D595C7951A95E1F7C85FDE4F488160
:1032100090964C939097EF70F0E0E85FFE4F4081FE
:1032200091964C93919712962A173B0721F710928B
:103230000502F2E3AF2EB12CC2E3D0E066E080E0FD
:103240000E94930B8630D1F7809106028093DD01B6
:10325000809107028093DE0120910B028091080289
:1032600034E0839FA0011124922F9C70892F90E05D
:103270009595879595958795842B952B9093E0014F
:103280008093DF018091090294E0899FA0011124BD
:10329000922F9073892F90E064E0959587956A95B9
:1032A000E1F7842B952B9093E2018093E1018091CB
:1032B0000A0234E0839FC0011124322F32953695E3
:1032C00036953370832B9093E4018093E301822F32
:1032D000817091E089278093E50121FB222420F869
:1032E000312CC10121E082278093E601450135E0C0
:1032F000830E911C3E018AE0680E711C25019AE044
:10330000490E511CC12C78EFD72E74018301920114
:10331000AE01B501CE010E94DE088091DD01811170
:103320000AC0C12CD12C9201AE01B501CE010E9480
:10333000DE0825972DC08F3F61F4C12CD12C74017C
:1033400083019201AE01B501CE010E94DE082596EF
:103350001FC08091DE018F3F71F4C12CD12C74010C
:1033600083019201AE01B501CE010E94DE0825E085
:10337000A21AB1080DC081110BC0C12CD12C74014F
:1033800083019201AE01B501CE010E94DE08540115
:10339000D7FD06C0C73ED1052CF0C6EED0E002C076
:1033A000C0E0D0E037E3A31631E0B3062CF0E6E34B
:1033B000AE2EBB24B39442CFB7FE40CFA12CB12C8C
:1033C0003DCF49E150E06CE971E086E792E00E9470
:1033D0007A1042E050E066EB71E086E792E00E94EE
:1033E0007A1086E792E00E94501181E090E0DF9130
:1033F000CF911F910F91FF90EF90DF90CF90BF90F2
:10340000AF909F908F907F906F905F904F903F9084
:103410002F900895E6E7F2E01382128288EE93E09F
:10342000A0E0B0E084839583A683B7832CE131E0EC
:103430003183208325EC30E03587248724EC30E08D
:103440003787268720EC30E0318B208B21EC30E071
:10345000338B228B22EC30E0358B248B26EC30E052
:10346000378B268B118E128E138E148EE3E1F3E0D0
:103470001382128284839583A683B7838EE291E0C0
:1034800091838083AFE1B3E013961C921E92129752
:1034900020EF30E015963C932E93149780E491E052
:1034A00017969C938E93169719963C932E93189784
:1034B0001B969C938E931A9756961C9256971D9620
:1034C0001C921E921C971F961C921E921E9781E0C2
:1034D00055968C93559754968C9354972FEF3FEFB6
:1034E00053963C932E93529751963C932E9350971C
:1034F00057968C93579758961C9258975A961C92A9
:103500001E925997D5961C92D5978FEFD6968C938D
:10351000D6978AE0D7968C93D79789E0D8968C93E4
:10352000D897DA961C921E92D997DC961C921E921E
:10353000DB97DD961C92DD97DE961C92DE9710924B
:103540005E0310925F03109260031092610382E6A3
:1035500093E090969C938E935F97ECE1F6E0E49174
:10356000F0E0EE0FFF1FE75FF94F859194915E96B3
:103570009C938E935D97EEEFF5E08491D3968C93B8
:10358000D397EDE1F6E0E491F0E0EE0FFF1FE75F87
:10359000F94F259134915C963C932E935B97EFEF16
:1035A000F5E0E491D196EC93D197E095D296EC9327
:1035B000D297E82FE095D496EC93D49780E791E0EA
:1035C0008D939C930895052E97FB1EF400940E9402
:1035D000FA1A57FD07D00E94201B07FC03D04EF4B7
:1035E0000C94FA1A50954095309521953F4F4F4FC6
:1035F0005F4F089590958095709561957F4F8F4F9F
:103600009F4F08950E940A1B332312F48A1B9B0BC1
:103610000C941B1BA29FB001B39FC001A39F700D10
:10362000811D1124911DB29F700D811D1124911DCA
:1036300008950E940A1BB7FF0895821B930B0895FB
:10364000A1E21A2EAA1BBB1BFD010DC0AA1FBB1FA6
:10365000EE1FFF1FA217B307E407F50720F0A21B18
:10366000B30BE40BF50B661F771F881F991F1A9485
:1036700069F760957095809590959B01AC01BD01AF
:10368000CF010895EE0FFF1F0590F491E02D0994EE
:0E36900081E090E0F8940C944D1BF894FFCF6D
:10369E00FFFFFFFFFFFFFFFF303132333435363788
:1036AE0038394142434445460000000003117A1068
:1036BE00A4105011D510B310C71000000000F51162
:1036CE00C81140039C11C011AC119D1100000000E7
:1036DE00BD147A1040033F03A3053A08F3053805DD
:1036EE00B304F60409144C082512AC074303B503C2
:1036FE002704061399123A12BB14BB1400000000E3
:10370E00BD147A1040033F03A3053A08F3053805AC
:10371E00B304F60409144C08570825064303B503F1
:10372E002704061399123A122F06C9072A2A2A2AA3
:10373E002A2A2A2A204E6F206E756E6368756B20BA
:0A374E00666F756E64000D0A00003E
:00000001FF
