:100000000C945D000C9485000C9485000C94850084
:100010000C9485000C9485000C9485000C9485004C
:100020000C9485000C9485000C9485000C9485003C
:100030000C9485000C9485000C9485000C9485002C
:100040000C94DA060C9485000C944A070C9424074F
:100050000C9485000C9485000C9485000C9485000C
:100060000C947C070C9485000000000024002700FD
:100070002A0000000000250028002B0004040404CE
:100080000404040402020202020203030303030342
:10009000010204081020408001020408102001021F
:1000A00004081020000000080002010000030407FB
:1000B0000000000000000000AA0811241FBECFEFBE
:1000C000D8E0DEBFCDBF11E0A0E0B1E0ECE9F5E1A2
:1000D00002C005900D92AE3CB107D9F723E0AEEC1B
:1000E000B1E001C01D92A738B207E1F710E0CDE5FD
:1000F000D0E004C02197FE010E94C10ACC35D1078F
:10010000C9F70E94E3080C94CC0A0C94000080917B
:10011000230290E020912402821B9109089590E02F
:10012000FC01EC55FF4F2491FC01E057FF4F349147
:10013000FC01E458FF4FE491EE2309F43CC0222374
:1001400039F1233091F038F42130A9F0223001F553
:1001500084B58F7D12C0273091F02830A1F0243073
:10016000B9F4809180008F7D03C0809180008F77EB
:10017000809380000DC084B58F7784BD09C08091C5
:10018000B0008F7703C08091B0008F7D8093B00066
:10019000F0E0EE0FFF1FEE58FF4FA591B4919FB70F
:1001A000F894611104C08C913095382302C0EC9111
:1001B0003E2B3C939FBF08953FB7F89480911F0258
:1001C00090912002A0912102B091220226B5A89B15
:1001D00005C02F3F19F00196A11DB11D3FBFBA2FD9
:1001E000A92F982F8827820F911DA11DB11DBC0139
:1001F000CD0142E0660F771F881F991F4A95D1F7FE
:100200000895CF92DF92EF92FF920F931F93CF93B7
:10021000DF936C017A018B01C0E0D0E0CE15DF05E1
:1002200081F0D8016D918D01D601ED91FC91019085
:10023000F081E02DC6010995892B11F02196EECFB2
:100240007E01C701DF91CF911F910F91FF90EF9039
:10025000DF90CF90089508950895FC01538D448D4B
:10026000252F30E0842F90E0821B930B541710F061
:10027000CF96089501970895FC01918D828D98176E
:1002800061F0828DDF01A80FB11D5D968C91928D7A
:100290009F5F9F73928F90E008958FEF9FEF089577
:1002A000FC01918D828D981731F0828DE80FF11D40
:1002B000858D90E008958FEF9FEF0895FC01918D5B
:1002C000228D892F90E0805C9F4F821B91098F7354
:1002D00099270895FC01848DDF01A80FB11DA35A51
:1002E000BF4F2C91848D90E001968F739927848F56
:1002F000A689B7892C93A089B1898C918370806479
:100300008C93938D848D981306C00288F389E02D19
:1003100080818F7D80830895EF92FF920F931F93CA
:10032000CF93DF93EC0181E0888F9B8D8C8D9813A8
:1003300005C0E889F989808185FD26C0F62E0B8DE0
:1003400010E00F5F1F4F0F731127E02E8C8DE81206
:100350000CC00FB607FCFACFE889F989808185FFC8
:10036000F5CFCE010E946A01F1CF8B8DFE01E80F1F
:10037000F11DE35AFF4FF0829FB7F8940B8FEA8983
:10038000FB89808180620AC09FB7F894EE89FF895B
:100390006083E889F98980818370806480839FBF4E
:1003A00081E090E0DF91CF911F910F91FF90EF904E
:1003B0000895CF93DF93EC01888D8823C9F0EA89F3
:1003C000FB89808185FD05C0A889B9898C9186FD4E
:1003D0000FC00FB607FCF5CF808185FFF2CFA8894B
:1003E000B9898C9185FFEDCFCE010E946A01E7CFDC
:1003F000DF91CF9108958EED92E00E945E0121E0A1
:10040000892B09F420E0822F089580E090E0892B69
:1004100029F00E94FB0181110C9400000895409185
:10042000EF01262F30E0240F311D21323105DCF49D
:100430002091B4022430C9F4FC0180E090E08617DA
:1004400058F43091EF012191DC01A153BE4FA30F6D
:10045000B11D2C930196F3CF8091EF01680F60934B
:10046000EF0180E0089581E0089582E00895109200
:10047000B40281E08093B30210928E0261E082E1C7
:100480000E948F0061E083E10E948F00E9EBF0E0C1
:1004900080818E7F808380818D7F808388E48093BC
:1004A000B80085E48093BC000895CF93DF9391E07A
:1004B0009093CE018823B9F0C091B800D091BA00D2
:1004C0008091BC008A7B8093BC0060E082E10E9446
:1004D0008F0060E083E10E948F000E943702D0937A
:1004E000BA00C093B800DF91CF9108958F929F9288
:1004F000AF92BF92CF92DF92EF92FF920F931F9332
:10050000CF93DF931091DD02113208F0C2C0082FA3
:10051000D091DC020E94DC006B017C01C091B4022E
:10052000CC2311F18091B6029091B702A091B8024C
:10053000B091B902892B8A2B8B2B81F30E94DC00AE
:100540008090B6029090B702A090B802B090B90225
:10055000DC01CB018C199D09AE09BF0988169906EB
:10056000AA06BB06D8F681C082E08093B40200934D
:10057000B3028FEF8093B2021092B1021093B002D7
:10058000ACEBB2E0E0E9F2E080E0181721F09D91D9
:1005900091938F5FFACF10928F0290918F028D2FDF
:1005A000880F892B80938F0280918E02813089F58C
:1005B00010928E020E94DC006B017C0180918F0200
:1005C0008093BB008091B6029091B702A091B802CF
:1005D000B091B902892B8A2B8B2BA9F00E94DC00E9
:1005E0000091B6021091B7022091B8023091B90281
:1005F000DC01CB018C199D09AE09BF090817190749
:100600002A073B0790F18091BC0083FDD7CF85EC92
:1006100001C085EE8093BC000E94DC006B017C0170
:100620008091B402823039F58091B6029091B70280
:10063000A091B802B091B902892B8A2B8B2B81F340
:100640000E94DC000091B6021091B7022091B8021E
:100650003091B902DC01CB018C199D09AE09BF09AB
:10066000081719072A073B07D8F68091B5020E94A0
:100670005502C5E013C08091B2028F3F79F080919E
:10068000B202803241F08091B202803331F0C4E096
:1006900005C0C1E003C0C2E001C0C3E01092BB02CC
:1006A0001092DD021092BA028C2FDF91CF911F9130
:1006B0000F91FF90EF90DF90CF90BF90AF909F9001
:1006C0008F9008950895E091240280912302E81705
:1006D00030F4F0E0EB5DFD4F808190E008958FEF06
:1006E0009FEF08959091240280912302981750F46F
:1006F000E92FF0E0EB5DFD4F208130E09F5F9093AC
:10070000240202C02FEF3FEFC9010895CF92DF927C
:10071000EF92FF920F931F93CF93DF937C01CB0156
:100720008A012091BA02222389F0EB016B01C40EE9
:10073000D51ECC15DD0569F06991D701ED91FC91CD
:100740000190F081E02DC7010995F3CF642F0E943D
:100750000F02C801DF91CF911F910F91FF90EF9091
:10076000DF90CF900895CF93DF931F92CDB7DEB780
:1007700069832091BA022223D1F02091DD02203238
:1007800040F021E030E0FC013383228380E090E000
:1007900015C08091BB02E82FF0E0E454FD4F998131
:1007A00090838F5F8093BB028093DD0205C061E080
:1007B000CE0101960E940F0281E090E00F90DF9140
:1007C000CF910895682F8BE793E00C94B3030895BD
:1007D00080E090E0089526E0969587952A95E1F7C8
:1007E0001092850010928400209184003091850041
:1007F00028173907C8F30895CF92DF92EF92FF923E
:100800006B017C01F8941C141D041E041F04B4F435
:1008100061E086E00E948F0086E090E00E94EB039A
:1008200060E086E00E948F0086E090E00E94EB038B
:100830008AE1C81AD108E108F108E5CF7894FF9061
:10084000EF90DF90CF90089560EF73E280E090E04A
:100850000E94FC0380E092E10E94EB0360E872E0FA
:1008600080E090E00E94FC0380E892E00E94EB03AD
:1008700060E872E080E090E00E94FC0380E892E093
:100880000E94EB0360E872E080E090E00E94FC03CD
:1008900080E892E00E94EB0360E872E080E090E084
:1008A0000E94FC0380E892E00E94EB0360E872E0A3
:1008B00080E090E00E94FC0380E892E00E94EB035D
:1008C00060E872E080E090E00E94FC0380E892E043
:1008D0000E94EB0360E872E080E090E00E94FC037D
:1008E00080E892E00E94EB0360E872E080E090E034
:1008F0000E94FC0380E892E00E94EB0360E872E053
:1009000080E090E00E94FC0380E496E00E94EB030C
:1009100060E872E080E090E00E94FC0380E496E0F2
:100920000E94EB0360E872E080E090E00E94FC032C
:1009300080E496E00E94EB0360E872E080E090E0E3
:100940000E94FC0380E496E00E94EB0360E872E002
:1009500080E090E00E94FC0380E496E00E94EB03BC
:1009600060E872E080E090E00E94FC0380E496E0A2
:100970000E94EB0360E872E080E090E00E94FC03DC
:1009800080E496E00E94EB0360E872E080E090E093
:100990000E94FC0380E496E00E94EB0360E872E0B2
:1009A00080E090E00E94FC0380E892E00E94EB036C
:1009B00060E872E080E090E00E94FC0380E892E052
:1009C0000E94EB0360E872E080E090E00E94FC038C
:1009D00080E892E00E94EB0360E872E080E090E043
:1009E0000E94FC0380E892E00E94EB0360E872E062
:1009F00080E090E00E94FC0380E892E00E94EB031C
:100A000060E872E080E090E00E94FC0380E892E001
:100A10000E94EB0360E872E080E090E00E94FC033B
:100A200080E892E00E94EB0360E872E080E090E0F2
:100A30000E94FC0380E892E00E94EB0360E872E011
:100A400080E090E00E94FC0380E892E00E94EB03CB
:100A500060E872E080E090E00E94FC0380E892E0B1
:100A60000E94EB0360E872E080E090E00E94FC03EB
:100A700080E892E00E94EB0360E872E080E090E0A2
:100A80000E94FC0380E892E00E94EB0360E872E0C1
:100A900080E090E00E94FC0380E892E00E94EB037B
:100AA00060E872E080E090E00E94FC0380E892E061
:100AB0000E94EB0360E872E080E090E00E94FC039B
:100AC00080E892E00E94EB0360E872E080E090E052
:100AD0000E94FC0380E496E00E94EB0380E092E138
:100AE0000E94EB0360EF73E280E090E00C94FC0363
:100AF000009769F0FC0101900020E9F73197AF0100
:100B0000481B590BBC018EED92E00C94010180E072
:100B100090E00895CF93DF930E947805EC0184E381
:100B200091E00E9478058C0F9D1FDF91CF91089571
:100B30008F929F92AF92BF92CF92DF92EF92FF92ED
:100B40001F93CF93DF93162F91E09093BA0292E513
:100B50009093DC021092BB021092DD02682F8BE7AB
:100B600093E00E94B30381E00E9476028FE99FE048
:100B70000197F1F700C000000E94DC006B017C01CE
:100B8000C091B402CC2339F18091B6029091B702A2
:100B9000A091B802B091B902892B8A2B8B2B81F3DB
:100BA0000E94DC008090B6029090B702A090B8023C
:100BB000B090B902DC01CB018C199D09AE09BF09C7
:100BC00088169906AA06BB06D8F68091B5020E943F
:100BD0005502C0E08FC0D12F113208F0D0E281E081
:100BE0008093B4028093B3029FEF9093B20210926D
:100BF000B1029D0F9093B00280938F0280918F027B
:100C0000846A80938F0280918E02813089F51092E0
:100C10008E020E94DC006B017C0180918F02809328
:100C2000BB008091B6029091B702A091B802B0913A
:100C3000B902892B8A2B8B2BA9F00E94DC008090B3
:100C4000B6029090B702A090B802B090B902DC0151
:100C5000CB018C199D09AE09BF0988169906AA0611
:100C6000BB0690F18091BC0083FDD7CF85EC01C01D
:100C700085EE8093BC000E94DC006B017C018091BA
:100C8000B402813031F58091B6029091B702A09103
:100C9000B802B091B902892B8A2B8B2B81F30E9469
:100CA000DC008090B6029090B702A090B802B0909D
:100CB000B902DC01CB018C199D09AE09BF09881668
:100CC0009906AA06BB06D8F68091B5020E94550285
:100CD00011C08091B1028D1710F4D091B102E0E9FA
:100CE000F2E0A5E2B2E0C0E0CD1721F081918D9352
:100CF000CF5FFACF10922402C0932302D0E08091FC
:100D00002402C81781F01D1770F0FF24F394FD0E24
:100D10008BE793E00E947203ED2FF0E0E259FD4F64
:100D20008083DF2DECCF8D2FDF91CF911F91FF902E
:100D3000EF90DF90CF90BF90AF909F908F900895ED
:100D40000E94C70A85ED8093BC008091B602909105
:100D5000B702A091B802B091B9020796A11DB11DCA
:100D600023E0B695A795979587952A95D1F7209179
:100D7000BC0024FF1CC04091B6025091B7026091A4
:100D8000B8027091B902452B462B472B81F300978F
:100D9000A105B10541F02AE22A95F1F700C00197BB
:100DA000A109B109E4CF8091B5020C9455021092CB
:100DB000B40208951F920F920FB60F9211242F9331
:100DC0003F938F939F93AF93BF9380911B0290911A
:100DD0001C02A0911D02B0911E0230911A0223E064
:100DE000230F2D3720F40196A11DB11D05C026E863
:100DF000230F0296A11DB11D20931A0280931B029E
:100E000090931C02A0931D02B0931E0280911F02BA
:100E100090912002A0912102B09122020196A11D81
:100E2000B11D80931F0290932002A0932102B093E2
:100E30002202BF91AF919F918F913F912F910F907F
:100E40000FBE0F901F9018951F920F920FB60F9222
:100E500011242F933F934F935F936F937F938F93BF
:100E60009F93AF93BF93EF93FF938EED92E00E9419
:100E70006A01FF91EF91BF91AF919F918F917F9107
:100E80006F915F914F913F912F910F900FBE0F90F7
:100E90001F9018951F920F920FB60F9211242F9347
:100EA0008F939F93EF93FF93E091EE02F091EF0207
:100EB0008081E091F402F091F50282FD12C09081F0
:100EC0008091F7028F5F8F732091F802821751F0A3
:100ED000E091F702F0E0E252FD4F958F8093F70228
:100EE00001C08081FF91EF919F918F912F910F9081
:100EF0000FBE0F901F9018951F920F920FB60F9272
:100F000011242F933F934F935F936F937F938F930E
:100F10009F93AF93BF93EF93FF938091B900887F26
:100F2000803609F49CC068F5883209F45BC090F4FF
:100F3000803109F454C038F4882309F4F6C08830AD
:100F400009F44DC0F6C0883109F44CC0803209F470
:100F50005DC0EFC0803409F468C048F4803309F400
:100F600055C0883309F0E5C08093B202D8C08035FF
:100F700009F44FC0883509F45DC0883409F0D9C040
:100F8000D6C0883909F4C7C0A8F4883709F467C007
:100F900038F4883609F463C0803709F460C0C9C0EA
:100FA000883809F4B8C0803909F45FC0803809F086
:100FB000C0C05BC0803B09F486C038F4803A09F4B5
:100FC00066C0883A09F47FC0B4C0803C09F4A7C069
:100FD000883C09F4A4C0883B09F48AC0AAC0809167
:100FE0008F0210C09091B1028091B002981770F5F5
:100FF000E091B10281E08E0F8093B102F0E0E05702
:10100000FD4F80818093BB0085EC86C08093B20247
:101010008EC0E091B10281E08E0F8093B102809189
:10102000BB00F0E0E057FD4F80839091B1028091CA
:10103000B0026EC0E091B10281E08E0F8093B102E8
:101040008091BB00F0E0E057FD4F80838091B302B8
:1010500081116DC081E080938E0284EA61C083E0DB
:101060008093B40210921102CFCF8091110280328E
:1010700008F051C0E091110281E08E0F80931102BF
:101080008091BB00F0E0EF50FE4F8083BDCF85EC38
:101090008093BC001092B40280911102803230F42F
:1010A000E0911102F0E0EF50FE4F108260911102CA
:1010B00070E0E0911202F091130281EF91E0099546
:1010C0001092110236C084E08093B4021092F001B5
:1010D0001092EF01E0911402F091150209958091B0
:1010E000EF01811105C081E08093EF011092CF01E3
:1010F000E091F00181E08E0F8093F001F0E0E15388
:10110000FE4F80818093BB009091F0018091EF01B0
:10111000981708F479CF85E88093BC000AC085EC65
:101120008093BC001092B40204C01092B2020E94DC
:10113000A206FF91EF91BF91AF919F918F917F9107
:101140006F915F914F913F912F910F900FBE0F9034
:101150001F901895EEEDF2E01382128288EE93E074
:10116000A0E0B0E084839583A683B78324E131E0D7
:101170003183208325EC30E03587248724EC30E070
:101180003787268720EC30E0318B208B21EC30E054
:10119000338B228B22EC30E0358B248B26EC30E035
:1011A000378B268B118E128E138E148EEBE7F3E0A5
:1011B0001382128284839583A683B78386E291E0AB
:1011C000918380830895CF93DF93CDB7DEB7A19746
:1011D0000FB6F894DEBF0FBECDBF789484B58260A1
:1011E00084BD84B5816084BD85B5826085BD85B5CB
:1011F000816085BD80916E00816080936E00109249
:1012000081008091810082608093810080918100C3
:101210008160809381008091800081608093800054
:101220008091B10084608093B1008091B0008160B2
:101230008093B00080917A00846080937A008091DE
:101240007A00826080937A0080917A008160809336
:101250007A0080917A00806880937A001092C100B1
:10126000E6E9F0E02491E2E8F0E08491882399F047
:1012700090E0880F991FFC01E859FF4FA591B491A8
:10128000FC01EE58FF4F859194918FB7F894EC9143
:10129000E22BEC938FBF85E0809381001092850054
:1012A000109284007894109285001092840010921D
:1012B0008000109281008093810080916F00816096
:1012C00080936F007894E091EE02F091EF0282E05B
:1012D0008083E091EA02F091EB021082E091EC024F
:1012E000F091ED028FEC80831092F602E091F20211
:1012F000F091F30286E08083E091F002F091F10238
:10130000808180618083E091F002F091F102808120
:1013100088608083E091F002F091F1028081806822
:101320008083E091F002F091F10280818F7D8083D3
:1013300010922402109223021092BB021092DD023E
:101340000E9437028BE291E0909315028093140281
:101350008CE291E0909313028093120287E391E074
:101360000E94780519A282E388A385E38F8FCE01BE
:101370004F960E94780584E391E00E947805FF244F
:10138000F394F092BA0282E58093DC021092BB02E1
:101390001092DD0280EF90E00E94E20385E590E08C
:1013A0000E94E20381E00E947602F092BA0210925B
:1013B000BB021092DD028BEF90E00E94E20380E01E
:1013C00090E00E94E20381E00E94760264E08AEFEE
:1013D0000E949805843009F0CBC080E380936302BB
:1013E00088E7809364022EE632E0A5E4B2E0F901DA
:1013F00041919F01842F90E0F4E095958795FA95AF
:10140000E1F780509F4FFC01808190968C939097DC
:10141000E42FEF70F0E0E050FF4F808191968C93C5
:1014200091971296F2E0AD34BF0709F710926D0262
:10143000FF24F39466E080E00E949805863009F06E
:1014400094C040916E024093450230916F023093F8
:101450004602209173028091700254E0859FB00192
:101460001124922F9C70892F90E0959587959595E2
:101470008795862B972B9093480280934702809103
:10148000710294E0899FB0011124922F9073892FEB
:1014900090E0E4E095958795EA95E1F7862B972B08
:1014A00090934A028093490280917202E4E08E9FF9
:1014B000C0011124522F5295569556955370852B85
:1014C00090934C0280934B02822F81708F258093E2
:1014D0004D0221FB002700F910E0C801F1E08F2741
:1014E00080934E0241110FC08091190281113DC0BD
:1014F00084E691E00E948A050E942404F092190279
:101500001092180232C04F3F79F480911802811175
:101510002CC088E791E00E948A050E942404F09282
:1015200018021092190221C03F3F79F480911702EE
:1015300081111BC08BE891E00E948A050E9424045F
:10154000F09217021092160210C031110EC0809155
:10155000160281110AC08FE991E00E948A050E945B
:101560002404F0921602109217020E94050262CF24
:1015700083EB91E00E948A058EED92E00E94D901F2
:1015800057CFEE0FFF1F0590F491E02D099481E0F5
:0C15900090E0F8940C94CC0AF894FFCF83
:10159C00303132333435363738394142434445469D
:1015AC00000000008C0101012D01D9015E013C01FC
:1015BC00500100000000B3038603E80362038700B8
:1015CC00720363030D0A002D2D2D2D2D2D2D2D2095
:1015DC00436F6E6E656374696E6720746F206E75F1
:1015EC006E6368756B2061742061646472657373DB
:1015FC002030780053656E64696E6720706C617979
:10160C0020627574746F6E0073656E64696E67200A
:10161C006C696E6B73626F76656E0073656E646970
:10162C006E67204D696464656E426F76656E0073FB
:10163C00656E64696E6720526563687473426F7679
:10164C00656E002A2A2A2A2A2A2A2A204E6F206E00
:0E165C00756E6368756B20666F756E640000B6
:00000001FF
