:100000000C9435000C945D000C945D000C945D0024
:100010000C945D000C945D000C945D000C945D00EC
:100020000C945D000C945D000C945D000C945D00DC
:100030000C945D000C945D000C945D000C945D00CC
:100040000C945D000C945D000C94F7010C94D101AC
:100050000C945D000C945D000C945D000C945D00AC
:100060000C945D000C945D00290211241FBECFEF9B
:10007000D8E0DEBFCDBF11E0A0E0B1E0E0EFF5E0F9
:1000800002C005900D92A032B107D9F721E0A0E29D
:10009000B1E001C01D92AD3BB207E1F710E0C5E34E
:1000A000D0E004C02197FE010E94EB02C433D107C7
:1000B000C9F70E9456020C94F6020C940000CF92ED
:1000C000DF92EF92FF920F931F93CF93DF936C0118
:1000D0007A018B01C0E0D0E0CE15DF0581F0D801B8
:1000E0006D918D01D601ED91FC910190F081E02D93
:1000F000C6010995892B11F02196EECF7E01C7012B
:10010000DF91CF911F910F91FF90EF90DF90CF90F3
:100110000895FC01538D448D252F30E0842F90E00D
:10012000821B930B541710F0CF96089501970895F2
:10013000FC01918D828D981761F0828DDF01A80FEF
:10014000B11D5D968C91928D9F5F9F73928F90E011
:1001500008958FEF9FEF0895FC01918D828D981780
:1001600031F0828DE80FF11D858D90E008958FEFBD
:100170009FEF0895FC01918D228D892F90E0805C86
:100180009F4F821B91098F7399270895FC01848DDD
:10019000DF01A80FB11DA35ABF4F2C91848D90E0B1
:1001A00001968F739927848FA689B7892C93A0898C
:1001B000B1898C91837080648C93938D848D981316
:1001C00006C00288F389E02D80818F7D80830895A9
:1001D000EF92FF920F931F93CF93DF93EC0181E097
:1001E000888F9B8D8C8D981305C0E889F989808153
:1001F00085FD26C0F62E0B8D10E00F5F1F4F0F738D
:100200001127E02E8C8DE8120CC00FB607FCFACF38
:10021000E889F989808185FFF5CFCE010E94C6006B
:10022000F1CF8B8DFE01E80FF11DE35AFF4FF082F5
:100230009FB7F8940B8FEA89FB89808180620AC09E
:100240009FB7F894EE89FF896083E889F9898081F6
:100250008370806480839FBF81E090E0DF91CF91C5
:100260001F910F91FF90EF900895CF93DF93EC01D2
:10027000888D8823C9F0EA89FB89808185FD05C0C6
:10028000A889B9898C9186FD0FC00FB607FCF5CF00
:10029000808185FFF2CFA889B9898C9185FFEDCF48
:1002A000CE010E94C600E7CFDF91CF910895089557
:1002B00080E090E00895009769F0FC010190002033
:1002C000E9F73197AF01481B590BBC0180E291E07F
:1002D0000C945F0080E090E008958F929F92AF921F
:1002E000BF920F931F93CF93DF93CDB7DEB7A19744
:1002F0000FB6F894DEBF0FBECDBF19A2423008F48E
:100300004AE08E010F5D1F4F842E912CA12CB12C41
:10031000A50194010E94C902E62FB901CA0101504A
:100320001109EA3014F4E05D01C0E95CD801EC93F6
:10033000232B242B252B61F7C8010E945B01A1967A
:100340000FB6F894DEBF0FBECDBFDF91CF911F91E6
:100350000F91BF90AF909F908F900895CF92DF92B2
:10036000EF92FF92CF93DF936B017C016DE280E20D
:1003700091E00E94E800EC0166277727CB016C1919
:100380007D098E099F094AE00E946D018C0F9D1F17
:10039000DF91CF91FF90EF90DF90CF9008950E9472
:1003A000F1021F920F920FB60F9211242F933F93D9
:1003B0004F935F936F937F938F939F93AF93BF936D
:1003C000EF93FF9380E291E00E94C600FF91EF91CE
:1003D000BF91AF919F918F917F916F915F914F915D
:1003E0003F912F910F900FBE0F901F9018951F9265
:1003F0000F920FB60F9211242F938F939F93EF9329
:10040000FF93E0913001F09131018081E09136015C
:10041000F091370182FD12C09081809139018F5F88
:100420008F7320913A01821751F0E0913901F0E089
:10043000E05EFE4F958F8093390101C08081FF916E
:10044000EF919F918F912F910F900FBE0F901F9062
:100450001895E0E2F1E01382128288EE93E0A0E0CA
:10046000B0E084839583A683B78384E091E0918391
:10047000808385EC90E09587848784EC90E0978773
:10048000868780EC90E0918B808B81EC90E0938B61
:10049000828B82EC90E0958B848B86EC90E0978B3E
:1004A000868B118E128E138E148E0895E09130017A
:1004B000F091310182E08083E0912C01F0912D01D7
:1004C0001082E0912E01F0912F018FEC8083109229
:1004D0003801E0913401F091350186E08083E091AC
:1004E0003201F0913301808180618083E09132019B
:1004F000F0913301808188608083E0913201F09136
:100500003301808180688083E0913201F091330172
:1005100080818F7D808302E410E0C12CD12C760194
:100520002FEF83ED90E3215080409040E1F700C031
:1005300000004AE060E070E0CB010E946D0182E1C2
:1005400091E00E945B01C7E0D0E0B8010C2E02C030
:10055000759567950A94E2F761707727072E000C6E
:10056000880B990B4AE00E946D01219770F74AE0D1
:10057000C701B6010E946D0182E191E00E945B011A
:1005800085E191E00E945B0182E191E00E945B01C4
:10059000C7CFA1E21A2EAA1BBB1BFD010DC0AA1FCB
:1005A000BB1FEE1FFF1FA217B307E407F50720F0DC
:1005B000A21BB30BE40BF50B661F771F881F991F57
:1005C0001A9469F760957095809590959B01AC01A0
:1005D000BD01CF010895EE0FFF1F0590F491E02DAE
:1005E000099481E090E0F8940C94F602F894FFCF1F
:1005F00000000000E8005F0089003501BA009800A3
:10060000AC000D0A006B6C6F7074206E696574002D
:00000001FF
