:107000000C9434380C9451380C9451380C945138F9
:107010000C9451380C9451380C9451380C945138CC
:107020000C9451380C9451380C9451380C945138BC
:107030000C9451380C9451380C9451380C945138AC
:107040000C9451380C9451380C9451380C9451389C
:107050000C9451380C9451380C9451380C9451388C
:107060000C9451380C94513811241FBECFEFD8E046
:10707000DEBFCDBF11E0A0E0B1E0E6EDFEE702C06B
:1070800005900D92A230B107D9F722E0A2E0B1E05D
:1070900001C01D92AC30B207E1F70E94B8390C94E0
:1070A000693F0C940038CF92DF92EF92FF92CF931A
:1070B000DF93C12CD12C76018091C00087FD16C0D2
:1070C0008FEFC81AD80AE80AF80A91E0C91692E1C7
:1070D000D9069AE7E906F10478F3E0910201F0910C
:1070E000030109958091C00087FFEACFC091C600D7
:1070F000DC2F8091C00085FFFCCFC093C600C12C5F
:10710000D12C76018091C00087FD16C08FEFC81A80
:10711000D80AE80AF80A91E0C91692E1D9069AE776
:10712000E906F10478F3E0910201F0910301099579
:107130008091C00087FFEACF2091C600822F9091F6
:10714000C00095FFFCCF2093C600C1369CF0D9EA61
:10715000DC0F2136ACF4203314F080ED820F90E187
:10716000D99F800D1124DF91CF91FF90EF90DF9098
:10717000CF900895C0336CF3D0EDDC0F21365CF373
:1071800089EA820FECCF282F082E000C330B207FCA
:107190003327359527953595279535952795359539
:1071A00027952A30A4F0295A8F708A3074F0895AB2
:1071B0009091C00095FFFCCF2093C6009091C00035
:1071C00095FFFCCF8093C6000895805DF1CF205DD0
:1071D000EBCF9091C00095FFFCCF8093C60008953F
:1071E000CF92DF92EF92FF92C12CD12C7601809149
:1071F000C00087FD16C08FEFC81AD80AE80AF80A3F
:1072000081E0C81682E1D8068AE7E806F10478F33F
:10721000E0910201F091030109958091C00087FF80
:10722000EACF8091C600FF90EF90DF90CF90089555
:10723000882351F020E09091C00097FFFCCF9091FF
:10724000C6002F5F8213F7CF0895CF92DF92EF929F
:10725000FF92CF93C82FC12CD12C76018091C00012
:1072600087FD16C08FEFC81AD80AE80AF80A81E02D
:10727000C81682E1D8068AE7E806F10478F3E091BF
:107280000201F091030109958091C00087FFEACFC8
:107290008091C600803231F0CF91FF90EF90DF9067
:1072A000CF9008958091C00085FFFCCF84E180934A
:1072B000C6008091C00085FFFCCFC093C6008091BE
:1072C000C00085FFFCCF80E18093C600CF91FF9086
:1072D000EF90DF90CF900895CF92DF92EF92FF92E0
:1072E000C12CD12C76018091C00087FD16C08FEF94
:1072F000C81AD80AE80AF80A81E0C81682E1D80656
:107300008AE7E806F10478F3E0910201F0910301C5
:1073100009958091C00087FFEACF8091C600803236
:1073200029F0FF90EF90DF90CF9008958091C000FA
:1073300085FFFCCF84E18093C6008091C00085FF6B
:10734000FCCF80E18093C600FF90EF90DF90CF905C
:10735000089510920902811101C083E02D9A2D98A1
:10736000909109029F5F909309029817B8F30895CE
:10737000000056985E9AE0E0F0E0E4911092C500BB
:1073800088E08093C40088E18093C10086E0809308
:10739000C200259A579A5F9A80E120E030E0F90117
:1073A0003197F1F78150D9F780E1809309025F9816
:1073B000109209022D9A2D98809109028F5F809377
:1073C00009028330B8F38091C00085FFFCCF83E5CC
:1073D0008093C6008091C00085FFFCCF85E4809338
:1073E000C6008091C00085FFFCCF84E58093C60075
:1073F0008091C00085FFFCCF80E28093C600809121
:10740000C00085FFFCCF82E48093C6008091C0005D
:1074100085FFFCCF84E58093C6008091C00085FF86
:10742000FCCF80E28093C6008091C00085FFFCCF36
:1074300080E58093C6008091C00085FFFCCF81E489
:107440008093C6008091C00085FFFCCF87E48093C5
:10745000C6008091C00085FFFCCF85E48093C60004
:107460008091C00085FFFCCF8DE48093C6008091A1
:10747000C00085FFFCCF8FE48093C6008091C000E0
:1074800085FFFCCF84E48093C6008091C00085FF17
:10749000FCCF85E48093C6008091C00085FFFCCFBF
:1074A00080E28093C6008091C00085FFFCCF83E31B
:1074B0008093C6008091C00085FFFCCF80E280935E
:1074C000C6008091C00085FFFCCF82E38093C60098
:1074D0008091C00085FFFCCF80E38093C60080913F
:1074E000C00085FFFCCF80E38093C6008091C00080
:1074F00085FFFCCF80E38093C6008091C00085FFAC
:10750000FCCF80E28093C6008091C00085FFFCCF55
:1075100081E38093C6008091C00085FFFCCF8DE0A1
:107520008093C6008091C00085FFFCCF83E58093E7
:10753000C6008091C00085FFFCCF85E48093C60023
:107540008091C00085FFFCCF84E58093C6008091C8
:10755000C00085FFFCCF80E28093C6008091C00010
:1075600085FFFCCF82E48093C6008091C00085FF38
:10757000FCCF84E58093C6008091C00085FFFCCFDE
:1075800080E28093C6008091C00085FFFCCF82E539
:107590008093C6008091C00085FFFCCF8FE480936C
:1075A000C6008091C00085FFFCCF8CE48093C600AC
:1075B0008091C00085FFFCCF85E48093C600809158
:1075C000C00085FFFCCF80E28093C6008091C000A0
:1075D00085FFFCCF80E38093C6008091C00085FFCB
:1075E000FCCF80E28093C6008091C00085FFFCCF75
:1075F00086E68093C6008091C00085FFFCCF80E2C4
:107600008093C6008091C00085FFFCCF87E3809304
:10761000C6008091C00085FFFCCF84E68093C60041
:107620008091C00085FFFCCF80E38093C6008091ED
:10763000C00085FFFCCF80E38093C6008091C0002E
:1076400085FFFCCF8DE08093C60054E1C52E60E13C
:10765000D62E71E4872EE6E59E2EF2E5AF2EA0E24F
:10766000BA2E412C512C32018091C00087FD16C0EA
:107670008FEF481A580A680A780AE1E04E16E2E1EC
:107680005E06EAE76E06710478F3E0910201F0917C
:10769000030109958091C00087FFEACF8091C60061
:1076A000803361F1813369F1803409F486C081341B
:1076B00009F4C7C0823409F4F3C0853409F4FCC06E
:1076C00090EB980F9330D0F0853509F401C18635E1
:1076D00009F439C1843609F44BC1843709F447C22F
:1076E000853709F437C3863709F0BBCF80E00E94A5
:1076F0002539B7CF8091C600809306010E946C396E
:10770000B0CF412C512C32018091C00087FD16C0B2
:10771000FFEF4F1A5F0A6F0A7F0A81E0481682E185
:1077200058068AE76806710478F3E0910201F09147
:10773000030109958091C00087FFEACF8091C600C0
:10774000803209F08ECF8091C00085FFFCCFC092BF
:10775000C6008091C00085FFFCCF8092C60080915A
:10776000C00085FFFCCF9092C6008091C00085FFCD
:10777000FCCFA092C6008091C00085FFFCCFB092E4
:10778000C6008091C00085FFFCCFE9E4E093C6000D
:107790008091C00085FFFCCFF3E5F093C600809197
:1077A000C00085FFFCCF80E58093C6008091C000BB
:1077B00085FFFCCFD092C60054CF412C512C320112
:1077C0008091C00087FD16C0EFEF4E1A5E0A6E0A68
:1077D0007E0AF1E04F16F2E15F06FAE76F067104E8
:1077E00078F3E0910201F091030109958091C000C6
:1077F00087FFEACF8091C600863808F47FCF412CFE
:10780000512C32018091C00087FD16C08FEF481ABD
:10781000580A680A780AE1E04E16E2E15E06EAE7F5
:107820006E06710478F3E0910201F091030109956D
:107830008091C00087FFEACF8091C6000E946C391A
:1078400010CF412C512C32018091C00087FD16C011
:10785000FFEF4F1A5F0A6F0A7F0A81E0481682E144
:1078600058068AE76806710478F3E0910201F09106
:10787000030109958091C00087FFEACF8091C6007F
:10788000803809F46DC0813809F46EC0823809F47B
:107890006AC1883909F02ACF83E00E942539E1CEF8
:1078A00094E18091C00087FFFCCF8091C600915089
:1078B000C1F70E946C39D5CE95E08091C00087FF5A
:1078C000FCCF8091C6009150C1F70E946C39C9CE9F
:1078D000412C512C32018091C00087FD16C0EFEF82
:1078E0004E1A5E0A6E0A7E0AF1E04F16F2E15F065A
:1078F000FAE76F06710478F3E0910201F091030159
:1079000009958091C00087FFEACF8091C6008093DF
:107910000501412C512C32018091C00087FDEACE37
:107920008FEF481A580A680A780AE1E04E16E2E139
:107930005E06EAE76E06710478F3E0910201F091C9
:1079400003010995E9CF94E08091C00087FFFCCF47
:107950008091C6009150C1F780E00E94253981CE08
:1079600082E00E9425397DCE81E00E94253979CEC2
:10797000412C512C32018091C00087FD16C0FFEFD1
:107980004F1A5F0A6F0A7F0A81E0481682E15806A3
:107990008AE76806710478F3E0910201F09103012F
:1079A00009958091C00087FFEACF8091C60080933F
:1079B0000802412C512C32018091C00087FD16C075
:1079C000EFEF4E1A5E0A6E0A7E0AF1E04F16F2E100
:1079D0005F06FAE76F06710478F3E0910201F09117
:1079E000030109958091C00087FFEACF8091C6000E
:1079F0008093070280910B028E7F80930B02412CB3
:107A0000512C32018091C00087FD16C08FEF481ABB
:107A1000580A680A780AE1E04E16E2E15E06EAE7F3
:107A20006E06710478F3E0910201F091030109956B
:107A30008091C00087FFEACF8091C600853409F4A9
:107A4000CDC18091070290910802892B89F147E00E
:107A5000E42E41E0F42E00E010E0412C512C3201E4
:107A60008091C00087FD16C0FFEF4F1A5F0A6F0AB2
:107A70007F0A81E0481682E158068AE768067104A9
:107A800078F3E0910201F091030109958091C00023
:107A900087FFEACF8091C600F70181937F010F5FD6
:107AA0001F4F809107029091080208171907A8F24A
:107AB000412C512C32018091C00087FD16C0FFEF90
:107AC0004F1A5F0A6F0A7F0A81E0481682E1580662
:107AD0008AE76806710478F3E0910201F0910301EE
:107AE00009958091C00087FFEACF8091C60080325F
:107AF00009F0B7CD80910B0280FF76C1809107021B
:107B000090910802892B11F1809105019091060155
:107B1000E7E0F1E020E030E0F999FECF92BD81BDD1
:107B2000819180BDFA9AF99A8091050190910601A0
:107B3000019690930601809305012F5F3F4F40917E
:107B40000702509108022417350730F38091C000D6
:107B500085FFFCCFC092C6008091C00085FFFCCF9E
:107B6000D092C6007ECD8FE00E9425397ACD412C7F
:107B7000512C32018091C00087FD16C0EFEF4E1AE4
:107B80005E0A6E0A7E0AF1E04F16F2E15F06FAE73E
:107B90006F06710478F3E0910201F09103010995F9
:107BA0008091C00087FFEACF8091C60080930802D1
:107BB000412C512C32018091C00087FD16C08FEFFF
:107BC000481A580A680A780AE1E04E16E2E15E06B1
:107BD000EAE76E06710478F3E0910201F091030187
:107BE00009958091C00087FFEACF8091C6008093FD
:107BF0000702412C512C32018091C00087FD16C034
:107C0000FFEF4F1A5F0A6F0A7F0A81E0481682E190
:107C100058068AE76806710478F3E0910201F09152
:107C2000030109958091C00087FFEACF8091C600CB
:107C3000853409F448C180910B028E7F80930B023A
:107C40008091050190910601880F991F909306017C
:107C500080930501412C512C32018091C00087FD99
:107C600016C0EFEF4E1A5E0A6E0A7E0AF1E04F165A
:107C7000F2E15F06FAE76F06710478F3E091020122
:107C8000F091030109958091C00087FFEACF8091B0
:107C9000C600803209F0E5CC8091C00085FFFCCFA2
:107CA000C092C6008091070290910802009729F1C6
:107CB00020E030E0E0910501F091060140910B02D7
:107CC00040FD24C041FD0FC0E4918091C00085FFBC
:107CD000FCCFE093C6008091070290910802E091EA
:107CE0000501F09106013196F0930601E09305013C
:107CF0002F5F3F4F2817390708F38091C00085FD9B
:107D000059CD8091C00085FFF8CF54CDF999FECFB1
:107D1000F2BDE1BDF89A90B58091C00085FFFCCF1F
:107D20009093C600E0910501F09106013196F09321
:107D30000601E093050180910702909108022F5FF0
:107D40003F4F2817390708F4B9CF8091C00085FF4D
:107D5000D8CF30CD212C312C21018091C00087FD5E
:107D600016C08FEF281A380A480A580AE1E02E1682
:107D7000E2E13E06EAE74E06510478F3E0910201A3
:107D8000F091030109958091C00087FFEACF8091AF
:107D9000C600803209F065CC8091C00085FFFCCF21
:107DA000C092C6008091C00085FFFCCFFEE1F09339
:107DB000C6008091C00085FFFCCF85E98093C60096
:107DC0008091C00085FFFCCFEFE0E093C60080917A
:107DD000C00085FFFCCFD092C60043CC80910B023F
:107DE000816080930B022DCE80910601880F880B55
:107DF000817080930A028091050190910601880F9D
:107E0000991F90930601809305018091070280FFDE
:107E100009C0809107029091080201969093080290
:107E200080930702F894F999FECF1127E09105019C
:107E3000F0910601C7E0D1E080910702909108021D
:107E4000103091F40091570001700130D9F303E034
:107E500000935700E8950091570001700130D9F365
:107E600001E100935700E89509901990009157009F
:107E700001700130D9F301E000935700E8951395A4
:107E8000103498F011270091570001700130D9F398
:107E900005E000935700E89500915700017001300C
:107EA000D9F301E100935700E8953296029709F063
:107EB000C7CF103011F00296E5CF11248091C00099
:107EC00085FF44CE47CE80910B02816080930B02E8
:067ED000C1CEF894FFCFC3
:027ED60080002A
:040000030000700089
:00000001FF
