:100000000C9435000C945D000C945D000C945D0024
:100010000C945D000C945D000C945D000C945D00EC
:100020000C945D000C945D000C945D000C945D00DC
:100030000C945D000C945D000C945D000C945D00CC
:100040000C945D000C945D000C948B010C94650184
:100050000C945D000C945D000C945D000C945D00AC
:100060000C945D000C945D00BD0111241FBECFEF08
:10007000D8E0DEBFCDBF11E0A0E0B1E0E2EBF4E0FC
:1000800002C005900D92AC31B107D9F721E0ACE187
:10009000B1E001C01D92A93BB207E1F710E0C5E352
:1000A000D0E004C02197FE010E944C02C433D10766
:1000B000C9F70E94EA010C9457020C940000CF92F9
:1000C000DF92EF92FF920F931F93CF93DF936C0118
:1000D0007A018B01C0E0D0E0CE15DF0581F0D801B8
:1000E0006D918D01D601ED91FC910190F081E02D93
:1000F000C6010995892B11F02196EECF7E01C7012B
:10010000DF91CF911F910F91FF90EF90DF90CF90F3
:100110000895FC01538D448D252F30E0842F90E00D
:10012000821B930B541710F0CF96089501970895F2
:10013000FC01918D828D981761F0828DDF01A80FEF
:10014000B11D5D968C91928D9F5F9F73928F90E011
:1001500008958FEF9FEF0895FC01918D828D981780
:1001600031F0828DE80FF11D858D90E008958FEFBD
:100170009FEF0895FC01918D228D892F90E0805C86
:100180009F4F821B91098F7399270895FC01848DDD
:10019000DF01A80FB11DA35ABF4F2C91848D90E0B1
:1001A00001968F739927848FA689B7892C93A0898C
:1001B000B1898C91837080648C93938D848D981316
:1001C00006C00288F389E02D80818F7D80830895A9
:1001D000EF92FF920F931F93CF93DF93EC0181E097
:1001E000888F9B8D8C8D981305C0E889F989808153
:1001F00085FD26C0F62E0B8D10E00F5F1F4F0F738D
:100200001127E02E8C8DE8120CC00FB607FCFACF38
:10021000E889F989808185FFF5CFCE010E94C6006B
:10022000F1CF8B8DFE01E80FF11DE35AFF4FF082F5
:100230009FB7F8940B8FEA89FB89808180620AC09E
:100240009FB7F894EE89FF896083E889F9898081F6
:100250008370806480839FBF81E090E0DF91CF91C5
:100260001F910F91FF90EF900895CF93DF93EC01D2
:10027000888D8823C9F0EA89FB89808185FD05C0C6
:10028000A889B9898C9186FD0FC00FB607FCF5CF00
:10029000808185FFF2CFA889B9898C9185FFEDCF48
:1002A000CE010E94C600E7CFDF91CF910895089557
:1002B00080E090E0089542E050E062E171E08CE17E
:1002C00091E00C945F000E9452021F920F920FB6B1
:1002D0000F9211242F933F934F935F936F937F93CC
:1002E0008F939F93AF93BF93EF93FF938CE191E034
:1002F0000E94C600FF91EF91BF91AF919F918F91A6
:100300007F916F915F914F913F912F910F900FBE11
:100310000F901F9018951F920F920FB60F921124F5
:100320002F938F939F93EF93FF93E0912C01F09184
:100330002D018081E0913201F091330182FD12C0E4
:100340009081809135018F5F8F73209136018217E4
:1003500051F0E0913501F0E0E45EFE4F958F80931F
:10036000350101C08081FF91EF919F918F912F9175
:100370000F900FBE0F901F901895ECE1F1E01382E3
:10038000128288EE93E0A0E0B0E084839583A68398
:10039000B78384E091E09183808385EC90E095873A
:1003A000848784EC90E09787868780EC90E0918B3F
:1003B000808B81EC90E0938B828B82EC90E0958B2C
:1003C000848B86EC90E0978B868B118E128E138E29
:1003D000148E0895CF93259A7894E0912C01F09192
:1003E0002D0182E08083E0912801F09129011082A3
:1003F000E0912A01F0912B018FEC8083109234015F
:10040000E0913001F091310186E08083E0912E018E
:10041000F0912F01808180618083E0912E01F09125
:100420002F01808188608083E0912E01F0912F015F
:10043000808180688083E0912E01F0912F0180817E
:100440008F7D808345E050E065E171E08CE191E0D3
:100450000E945F000E945B018CE191E00E943501E7
:10046000C1E46C2F8CE191E00E94E8000E945B01E6
:100470008CE191E00E9435012FEF83ED90E3215054
:1004800080409040E1F700C00000CF5FCB3549F7D6
:1004900080E090E0CF910895EE0FFF1F0590F4915A
:1004A000E02D099481E090E0F8940C945702F894C0
:0204B000FFCF7C
:1004B20000000000E8005F0089003501BA009800E2
:0C04C200AC000D0A0068616C6C6F00005B
:00000001FF
