:100000000C9434000C94B4000C9451000C945100E6
:100010000C9451000C9451000C9451000C9451001C
:100020000C9451000C9451000C9451000C945D0000
:100030000C9451000C9451000C9451000C945100FC
:100040000C9493000C9451000C9451000C945100AA
:100050000C9451000C9451000C9451000C945100DC
:100060000C9451000C94510011241FBECFEFD8E026
:10007000DEBFCDBF11E0A0E0B1E0E4E3F2E002C0FA
:1000800005900D92A032B107D9F721E0A0E2B1E0CE
:1000900001C01D92A332B207E1F70E94D7000C9471
:1000A00018010C9400008093BB0084E88093BC008E
:1000B0008091BC0087FFFCCF08951F920F920FB66E
:1000C0000F9211242F933F934F935F936F937F93DE
:1000D0008F939F93AF93BF93CF93EF93FF93C09171
:1000E0002201CF5FC0932201EC2FF0E0EE0FFF1F43
:1000F000E050FF4F80810E945300CF3010F01092EB
:100100002201FF91EF91CF91BF91AF919F918F917C
:100110007F916F915F914F913F912F910F900FBE03
:100120000F901F9018951F920F920FB60F921124E7
:100130008F939F93EF93FF9385B5887F85BDE89854
:1001400091E090932101E1E8F0E080818460808378
:1001500090932001E89AFF91EF919F918F910F90DA
:100160000FBE0F901F9018951F920F920FB60F920F
:1001700011248F9380912101882381F080912001A7
:10018000882321F01092210110922001809181009A
:100190008B7F809381001092220103C085B585601A
:1001A00085BD8F910F900FBE0F901F90189584E022
:1001B0008093BC001092B9008FEF8093B80084EA5E
:1001C0008093BC008091BC0087FFFCCF1AB884E00C
:1001D0008BB9E89A80916900816080936900789476
:1001E00085B5887F85BD80916E00816080936E00AB
:1001F00016BC10928000809181008B7F80938100DB
:100200001092820088E09DE390938900809388009B
:10021000109285001092840080916F00826080931C
:100220006F0082E40E94530080EC0E945300FFCFD5
:04023000F894FFCF70
:10023400C000F900A400B000990092008200F80008
:100244008000900088008300C600A10086008E0014
:00000001FF
