:100000000C9434000C943E000C943E000C943E0082
:100010000C943E000C943E000C943E000C943E0068
:100020000C943E000C943E000C943E000C943E0058
:100030000C943E000C943E000C943E000C943E0048
:100040000C943E000C943E000C943E000C943E0038
:100050000C943E000C943E000C943E000C943E0028
:100060000C943E000C943E0011241FBECFEFD8E04C
:10007000DEBFCDBF0E9440000C946C000C940000C9
:1000800080917A00806880937A0080917A008760FE
:1000900080937A0080917C00806480937C008091C2
:1000A0007C008F7D80937C00389880917A008064FA
:1000B00080937A0080917A0086FDFCCF8091780051
:1000C0009091790096958795969587959927909325
:0C00D000890080938800E9CFF894FFCFEE
:00000001FF
