:100000000C9415030C946C0C0C943D030C943D0360
:100010000C943D030C943D030C943D030C943D0360
:100020000C943D030C943D030C943D030C943D0350
:100030000C943D030C943D030C943D030C943D0340
:100040000C948A210C943D030C9400120C94DA1148
:100050000C943D030C943D030C943D030C943D0320
:100060000C94A9120C943D03EF03038002CF03000C
:10007000C130ED0464031281E803850078CB0539B3
:100080002C003402F70120EA020000C00123C10164
:1000900010C5023E28C701863601483701003A01E3
:1000A00055B1020018B603088227F20100260101AB
:1000B000E00F0F312B0C0E084EF1370710030E091D
:1000C00000E10F000E1403110731C148080F0C3175
:1000D000360F118029800000000000240027002A2C
:1000E00000000000080002010000030407000000F7
:1000F000000000000000000000003E5B4F5B3E3E41
:100100006B4F6B3E1C3E7C3E1C183C7E3C181C57C3
:100110007D571C1C5E7F5E1C00183C1800FFE7C367
:10012000E7FF0018241800FFE7DBE7FF30483A0636
:100130000E2629792926407F050507407F05253FA2
:100140005A3CE73C5A7F3E1C1C08081C1C3E7F148E
:10015000227F22145F5F005F5F06097F017F0066D8
:1001600089956A606060606094A2FFA29408047E32
:10017000040810207E201008082A1C08081C2A08E1
:10018000081E101010100C1E0C1E0C30383E38309B
:10019000060E3E0E06000000000000005F0000009A
:1001A00007000700147F147F14242A7F2A122313C8
:1001B00008646236495620500008070300001C22DC
:1001C00041000041221C002A1C7F1C2A08083E080E
:1001D000080080703000080808080800006060000F
:1001E00020100804023E5149453E00427F40007203
:1001F000494949462141494D331814127F1027457A
:100200004545393C4A494931412111090736494997
:100210004936464949291E000014000000403400B8
:10022000000008142241141414141400412214086C
:1002300002015909063E415D594E7C1211127C7F24
:10024000494949363E414141227F4141413E7F4932
:100250004949417F090909013E414151737F08081D
:10026000087F00417F41002040413F017F08142268
:10027000417F404040407F021C027F7F0408107F86
:100280003E4141413E7F090909063E4151215E7FC1
:1002900009192946264949493203017F01033F4094
:1002A00040403F1F2040201F3F4038403F6314081C
:1002B000146303047804036159494D43007F4141AD
:1002C000410204081020004141417F040201020460
:1002D0004040404040000307080020545478407FCD
:1002E000284444383844444428384444287F385407
:1002F00054541800087E090218A4A49C787F0804AE
:10030000047800447D40002040403D007F10284498
:100310000000417F40007C047804787C0804047865
:100320003844444438FC1824241818242418FC7C2D
:1003300008040408485454542404043F44243C4012
:1003400040207C1C2040201C3C4030403C44281075
:1003500028444C9090907C4464544C4400083641AE
:10036000000000770000004136080002010204028C
:100370003C2623263C1EA1A161123A4040207A3837
:100380005454555921555579412254547842215598
:1003900054784020545579400C1E527212395555EC
:1003A0005559395454545939555454580000457CC2
:1003B000410002457D420001457C407D1211127DC5
:1003C000F0282528F07C545545002054547C547C5A
:1003D0000A097F4932494949323A4444443A324A47
:1003E0004848303A4141217A3A42402078009DA065
:1003F000A07D3D4242423D3D4040403D3C24FF24E3
:1004000024487E4943662B2FFC2F2BFF0929F62019
:10041000C0887E090320545479410000447D413056
:1004200048484A32384040227A007A0A0A727D0DE2
:1004300019317D2629292F28262929292630484D9A
:100440004020380808080808080808382F10C8ACE9
:10045000BA2F102834FA00007B000008142A142256
:1004600022142A14085500550055AA55AA55AAFF6A
:1004700055FF55FF000000FF00101010FF0014147E
:1004800014FF001010FF00FF1010F010F0141414EF
:10049000FC001414F700FF0000FF00FF1414F40424
:1004A000FC141417101F10101F101F1414141F0019
:1004B000101010F0000000001F101010101F10107E
:1004C0001010F010000000FF10101010101010108D
:1004D00010FF10000000FF140000FF00FF00001FCD
:1004E00010170000FC04F414141710171414F4046B
:1004F000F40000FF00F714141414141414F700F798
:10050000141414171410101F101F141414F41410C2
:1005100010F010F000001F101F0000001F1400005A
:1005200000FC140000F010F01010FF10FF14141461
:10053000FF141010101F00000000F010FFFFFFFF5D
:10054000FFF0F0F0F0F0FFFFFF0000000000FFFF01
:100550000F0F0F0F0F3844443844FC4A4A4A347E88
:1005600002020606027E027E026355494163384458
:10057000443C04407E201E2006027E020299A5E72C
:10058000A5991C2A492A1C4C7201724C304A4D4DC7
:10059000303048784830BC625A463D3E49494900AF
:1005A0007E0101017E2A2A2A2A2A44445F444440CB
:1005B000514A444040444A51400000FF0103E0805A
:1005C000FF000008086B6B083612362436060F0948
:1005D0000F06000018180000001010003040FF0146
:1005E00001001F01011E00191D1712003C3C3C3C7C
:1005F00000000000000102040810204080010204F5
:100600000810200102040810200000000025002826
:10061000002B000404040404040404020202020285
:1006200002030303030303007D2B11241FBECFEF3E
:10063000D8E0DEBFCDBF13E0A0E0B1E0EEE3FBE524
:1006400002C005900D92A232B107D9F726E0A2E2CE
:10065000B3E001C01D92A139B207E1F713E0C5E193
:10066000D3E004C02197FE010E94922DC431D1072E
:10067000C9F70E94D32A0C949D2D0C940000089574
:1006800080E090E00895CF92DF92EF92FF920F9377
:100690001F93CF93DF9387E00E94A72A26E0C22E04
:1006A000D12CE12CF12C90911B0680912E049813F3
:1006B00009C00E94B32CA70196010E94202D6093CF
:1006C0001B06F1CF60E070E080E296E00E94360FFA
:1006D00010922D0610922C0610922F0610922E06C4
:1006E000E0912E04EE0FFF0BE45FFE4F80819181BD
:1006F00090933306809332069093310680933006B0
:1007000083E0809334068093350667E572E080E2EB
:1007100096E00E94D42110922D0610922C0682E3BE
:1007200090E090932F0680932E06C2E0C09334068B
:10073000C09335068FEF9FEF909333068093320678
:1007400090933106809330066CE572E080E296E08B
:100750000E94D42104E110E010932D0600932C0692
:1007600084E690E090932F0680932E06C093340683
:10077000C093350661E772E080E296E00E94D421E2
:1007800010932D0600932C0686E990E090932F0697
:1007900080932E066AE772E080E296E00E94D42100
:1007A00010932D0600932C0688EC90E090932F0672
:1007B00080932E0668E872E080E296E00E94D421E1
:1007C000E0912E04EE0FFF0BE45FFE4F208131819C
:1007D00043E750E062E870E084E690E00E94512434
:1007E0000E94631B81110AC064E972E082E795E010
:1007F0000E94D42182E795E00E94800DC0E00E9413
:10080000F123882309F442C28091C104813009F0A8
:10081000CFC18091C204813009F0CAC1C11117C093
:100820000E94C61980918B06811105C00E94632A1F
:100830000E94182AF7CF10928B06DF91CF911F915B
:100840000F91FF90EF90DF90CF900C944F06C13046
:1008500009F0A6C060E070E080E296E00E94360FEA
:1008600010922D0610922C0610922F0610922E0632
:100870008FEF9FEF9093330680933206909331066B
:100880008093300683E080933406809335066DE7CD
:1008900072E080E296E00E94D42180E090E00E9425
:1008A0000A2DD82E81E090E00E940A2DD82F1092B8
:1008B0002D0610922C0602E310E010932F060093F1
:1008C0002E06C2E0C0933406C09335066EEA72E08D
:1008D00080E296E00E94D42198E7E92EF12CF09274
:1008E0002D06E0922C0610932F0600932E068D2DD8
:1008F000DD0C990B0E94C31B10922D0610922C0642
:1009000004E610E010932F0600932E06C0933406E1
:10091000C093350669EB72E080E296E00E94D42134
:10092000F0922D06E0922C0610932F0600932E06CF
:100930008D2FDD0F990B0E94C31B10922D06109274
:100940002C0688EC90E090932F0680932E06C0939F
:100950003406C093350664EC72E080E296E00E94B3
:10096000D42116BC86B58A3FE8F30E94F123882380
:10097000C1F38091C1048111F8CF8091C20481112B
:10098000F4CF0E94F123882381F38091C104813048
:10099000C1F78091C2048130A1F70E944303F1CFD7
:1009A000C23009F073C160E070E080E296E00E941E
:1009B000360F10922D0610922C0610922F061092D0
:1009C0002E068FEF9FEF909333068093320690931D
:1009D00031068093300683E0809334068093350699
:1009E0006BE872E080E296E00E94D42110922D061E
:1009F00010922C0682E390E090932F0680932E06AF
:100A0000C0933406C09335066CED72E080E296E048
:100A10000E94D4210CE011E0CCE6D0E082E3E82E85
:100A2000F12CF0922D06E0922C06D0932F06C09365
:100A30002E06F801819191918F0190933306809356
:100A40003206909331068093300662EF72E080E2C6
:100A500096E00E94D4216296CA3ED10511F7E0913A
:100A60002E04F2E1EF02C0011124EE0FFF0BE45F50
:100A7000FE4F20813181AC014D585F4FBC016E5754
:100A80007F4F8C599F4F0E9451240E94631B8111FC
:100A90000AC064E972E082E795E00E94D42182E70F
:100AA00095E00E94800D0E94F123882309F4EEC096
:100AB0008091C104813039F48091C204813019F4ED
:100AC0000E944303F0CF8091BA048F3FB9F5809123
:100AD0002E04882341F322E18202C0011124AC01DB
:100AE0004D585F4FBC016E577F4F20E030E08C596E
:100AF0009F4F0E945124E0912E04E150E0932E0478
:100B0000F2E1EF02C0011124EE0FFF0BE45FFE4F94
:100B100020813181AC014D585F4FBC016E577F4F32
:100B20008C599F4F0E9451240E94F123882309F47D
:100B3000BACF8091BA04883CB8F7B5CF8111B3CF52
:100B400080912E04863009F4AECF22E18202C001EA
:100B50001124AC014D585F4FBC016E577F4F20E010
:100B600030E08C599F4F0E945124E0912E04EF5F9A
:100B7000E0932E04F2E1EF02C0011124EE0FFF0B0F
:100B8000E45FFE4F20813181AC014D585F4FBC01C5
:100B90006E577F4F8C599F4F0E9451240E94F12322
:100BA000882309F480CF8091BA048333B8F37BCFD4
:100BB0008091BA048F3FA1F5CC2309F420CE22E323
:100BC000C202C0011124AC014D585F4FBC016E57E9
:100BD0007F4F20E030E08C599F4F0E945124C1503C
:100BE000E2E3CE02C0011124E0912E04EE0FFF0BD0
:100BF000E45FFE4F20813181AC014D585F4FBC0155
:100C00006E577F4F8C599F4F0E9451240E94F123B1
:100C1000882309F4F4CD8091BA04883CB8F7EFCD6D
:100C20008111EDCDC23009F4EACDF2E3CF02C0016B
:100C30001124AC014D585F4FBC016E577F4F20E02F
:100C400030E08C599F4F0E945124CF5F22E3C202B3
:100C5000C0011124E0912E04EE0FFF0BE45FFE4F64
:100C600020813181AC014D585F4FBC016E577F4FE1
:100C70008C599F4F0E9451240E94F123882309F42C
:100C8000BECD8091BA048333B8F3B9CDDF91CF9153
:100C90001F910F91FF90EF90DF90CF9008951092E9
:100CA0003E0410923D0434E6832E912C46E3242E1C
:100CB0003324339456EE452E512CC0913E04C5305A
:100CC0000CF0E7C480913D0485300CF0E2C481E073
:100CD00080933C0422E330E030933B0420933A04B9
:100CE00030933904209338041092370480933604EB
:100CF00090923504809234049092330480923204AE
:100D0000109231048093300410922F048C2F0E9493
:100D1000A72A60E070E080E296E00E94360FE09043
:100D20001C06F0901D06A0901E06B0901F06AE1483
:100D3000BF0424F4E501B7FE04C002C0E701F7FCDC
:100D40002196D595C795C530D10514F0C5E0D0E002
:100D500080E296E00E9422193E01660C771C650134
:100D6000C618D7080FEF1FEF960140E050E0BE0114
:100D700080E296E00E941016A701415051099601A9
:100D8000BE0180E296E00E941016E618F70897016F
:100D9000AE0160E070E080E296E00E94CD15B50102
:100DA000615071099701AE0180E296E00E94CD1575
:100DB00021E0AE01BE01CE010E94CB1CCC0EDD1E97
:100DC00031E0C31AD10822E0AE01BE01C6010E9483
:100DD000CB1CEC0EFD1E81E0E81AF10824E0AE0108
:100DE000B701C6010E94CB1C28E0AE01B701CE01BD
:100DF0000E94CB1C80E296E00E94341992E0D92E2A
:100E0000CC24C39480913C04882309F44BC5809181
:100E10003604811114C08091360481114ECF809127
:100E20003D048F5F80933D046FEF72E082E795E0B1
:100E30000E94D421EEEAF3E0AEE2B3E01EC40E94C9
:100E4000632A0E94182A0E94F123811110C0809108
:100E50002F048D7F09F0B2C2609132047091330487
:100E600000E010E02AE030E045E050E0B3C28091BD
:100E700030048D7F89F4E0912E04EE0FFF0BE45FC8
:100E8000FE4F0081118160913804709139042AE08D
:100E900030E045E050E012C08130B1F4E0912E0422
:100EA000EE0FFF0BE45FFE4F00811181609138046B
:100EB0007091390425E030E04AE050E080913A0436
:100EC00090913B040E943C1C80912F048D7F89F4FB
:100ED000E0911B06EE0FFF0BE45FFE4F00811181D6
:100EE00060913204709133042AE030E045E050E034
:100EF00012C08130B1F4E0911B06EE0FFF0BE45FEE
:100F0000FE4F00811181609132047091330425E01D
:100F100030E04AE050E080913404909135040E9422
:100F20003C1C16BC86B58A3FE8F3809130048D7F67
:100F300059F4609138047091390400E010E02AE01F
:100F400030E045E050E00CC0813081F4609138041D
:100F50007091390400E010E025E030E04AE050E014
:100F600080913A0490913B040E943C1C8091300493
:100F7000813009F04BC060913A0470913B046F5F7F
:100F80007F4F70933B0460933A04E0913704F0E0A4
:100F9000E255FC4F6083409138044D5FE05CFF4FA9
:100FA000408350E07727E0912E04EE0FFF0BE45FC3
:100FB000FE4FE080F1808A01015011099B01215010
:100FC000310980E296E00E94C90E809137048F5F5C
:100FD00080933704803411F410923704E091370481
:100FE000F0E0E255FC4FDF01A05CBF4F4C9150E0B8
:100FF000608170E08A01015011099B012150310983
:10100000E12CF12C80E296E00E94C90E8091300420
:10101000833009F04CC060913A0470913B046150F8
:10102000710970933B0460933A04E0913704F0E057
:10103000665FE255FC4F6083409138044D5FE05C91
:10104000FF4F408350E070E0E0912E04EE0FFF0B65
:10105000E45FFE4FE080F1808A01015011099B019D
:101060002150310980E296E00E94C90E8091370438
:101070008F5F80933704803411F410923704E0912D
:101080003704F0E0E255FC4FDF01A05CBF4F4C910C
:1010900050E0608170E08A01015011099B012150EC
:1010A0003109E12CF12C80E296E00E94C90E80917A
:1010B000300481114CC040913804509139044150A2
:1010C00051095093390440933804E0913704F0E01B
:1010D00060913A046D5FE255FC4F6083465FE05CCF
:1010E000FF4F408350E070E0E0912E04EE0FFF0BC5
:1010F000E45FFE4FE080F1808A01015011099B01FD
:101100002150310980E296E00E94C90E8091370497
:101110008F5F80933704803411F410923704E0918C
:101120003704F0E0E255FC4FDF01A05CBF4F4C916B
:1011300050E0608170E08A01015011099B0121504B
:101140003109E12CF12C80E296E00E94C90E8091D9
:101150003004823009F04BC040913804509139047A
:101160004F5F5F4F5093390440933804E091370448
:10117000F0E060913A046D5FE255FC4F6083E05C03
:10118000FF4F4083552770E0E0912E04EE0FFF0BD8
:10119000E45FFE4FE080F1808A01015011099B015C
:1011A0002150310980E296E00E94C90E80913704F7
:1011B0008F5F80933704803411F410923704E091EC
:1011C0003704F0E0E255FC4FDF01A05CBF4F4C91CB
:1011D00050E0608170E08A01015011099B012150AB
:1011E0003109E12CF12C80E296E00E94C90E809139
:1011F000B904811127C080913004813009F449C0BD
:10120000833009F487C080913A0490913B040A9797
:1012100090933B0480933A040E94262982E390E055
:101220000E9420260E94262982E390E00E94202628
:101230000E94262982E390E00E94202693E090936A
:10124000300468C08F3F29F580913004833009F164
:10125000813009F45FC080913A0490913B04059677
:1012600090933B0480933A040E94342882E390E0F8
:101270000E9420260E94342882E390E00E942026CB
:101280000E94342882E390E00E942026C09230041D
:1012900041C02091BA0480913804909139042F3FC5
:1012A000F1F4209130042D7FA9F10A97909339042D
:1012B00080933804109230040E94502682E390E01C
:1012C0000E9420260E94502682E390E00E94202661
:1012D0000E94502682E390E00E9420261BC021112C
:1012E00019C0209130042D7FA9F0089690933904FD
:1012F00080933804D09230040E94422782E390E029
:101300000E9420260E94422782E390E00E9420262D
:101310000E94422780911E0690911F0605972091FA
:101320003A0430913B048217930730F410923C0446
:1013300050923B0440923A0480911C0690911D0605
:10134000039720913804309139048217930730F4C1
:1013500010923C04309239042092380440913A04AF
:1013600050913B04609138047091390480913C04A1
:10137000EEEAF3E0AEE2B3E0219130E02417350766
:1013800029F427AD30E02617370771F02C9130E0B3
:101390004217530751F49D01205C3F4FE90128811A
:1013A00030E06217730709F480E011962EEE33E007
:1013B0002E173F0709F780933C0449CD813081F413
:1013C000609132047091330400E010E025E030E0D9
:1013D0004AE050E080913404909135040E943C1C16
:1013E00080912F04813009F04BC0609134047091DA
:1013F00035046F5F7F4F7093350460933404E09140
:101400003104F0E0E25DFC4F6083409132044D5FB7
:10141000E05CFF4F408350E07727E0911B06EE0F22
:10142000FF0BE45FFE4FE080F1808A01015011095B
:101430009B012150310980E296E00E94C90E809103
:1014400031048F5F80933104803411F410923104A1
:10145000E0913104F0E0E25DFC4FDF01A05CBF4FA2
:101460004C9150E0608170E08A01015011099B01AC
:1014700021503109E12CF12C80E296E00E94C90E46
:1014800080912F04833009F049C060913404709139
:101490003504615071097093350460933404E09110
:1014A0003104F0E0665FE25DFC4F608340913204FE
:1014B0004D5FE05CFF4F408350E070E0E0911B0621
:1014C000EE0FFF0BE45FFE4FE080F1808A010150D8
:1014D00011099B012150310980E296E00E94C90E5A
:1014E00080913104803411F410923104E091310480
:1014F000F0E0E25DFC4FDF01A05CBF4F4C9150E09B
:10150000608170E08A01015011099B01215031096D
:10151000E12CF12C80E296E00E94C90E80912F040C
:1015200081114CC040913204509133044150510913
:101530005093330440933204E0913104F0E0609121
:1015400034046D5FE25DFC4F6083465FE05CFF4FFB
:10155000408350E070E0E0911B06EE0FFF0BE45F6C
:10156000FE4FE080F1808A01015011099B0121505A
:10157000310980E296E00E94C90E809131048F5FAC
:1015800080933104803411F410923104E0913104DD
:10159000F0E0E25DFC4FDF01A05CBF4F4C9150E0FA
:1015A000608170E08A01015011099B0121503109CD
:1015B000E12CF12C80E296E00E94C90E80912F046C
:1015C000823009F04BC040913204509133044F5F98
:1015D0005F4F5093330440933204E0913104F0E0C4
:1015E000609134046D5FE25DFC4F6083E05CFF4F0F
:1015F0004083552770E0E0911B06EE0FFF0BE45F80
:10160000FE4FE080F1808A01015011099B012150B9
:10161000310980E296E00E94C90E809131048F5F0B
:1016200080933104803411F410923104E09131043C
:10163000F0E0E25DFC4FDF01A05CBF4F4C9150E059
:10164000608170E08A01015011099B01215031092C
:10165000E12CF12C80E296E00E94C90E20918C06CC
:101660008091340490913504222309F48AC020919A
:101670002F04213009F07AC084C0119217AE1D9258
:10168000DF961C92DF978EEE93E08E179F07A9F7E7
:1016900014CB8C2F0E94A72A6C2F80E090E00E9430
:1016A000122D60913D0481E090E00E94122D60E0D7
:1016B00070E080E296E00E94360F10922D061092A4
:1016C0002C0610922F0610922E068FEF9FEF90930C
:1016D000330680933206909331068093300683E080
:1016E000809334068093350667E073E080E296E0ED
:1016F0000E94D42110922D0610922C0684E690E0D0
:1017000090932F0680932E0682E080933406809378
:10171000350664EC72E080E296E00E94D42116BCAB
:1017200086B58A3FE8F30E94F1238823C1F316BCF3
:1017300086B58A3FE8F38091C1048130A1F780919A
:10174000C204813081F70E94F123882361F316BC23
:1017500086B58A3FE8F38091C1048111F4CF80916E
:10176000C2048111F0CF0E944303EDCF233029F052
:101770000A97909335048093340433E030932F0418
:1017800013C020918D06222309F462C020912F04FA
:10179000233009F45DC0213029F00596909335047B
:1017A00080933404C0922F0480911E0690911F06EE
:1017B000059720913404309135048217930730F453
:1017C00010923604509235044092340480911C06E5
:1017D00090911D06039720913204309133048217B3
:1017E000930730F41092360430923304209232047E
:1017F0004091340450913504609132047091330467
:1018000080913604EEE2F3E0AEEAB3E0219130E0FD
:101810002417350729F427AD30E02617370771F074
:101820002C9130E04217530751F49D01205C3F4F4B
:10183000E901288130E06217730709F480E011960E
:101840002EE633E02E173F0709F780933604DACAF5
:1018500020918F068091320490913304222371F0FD
:1018600020912F04223051F0222329F00A979093DF
:1018700033048093320410922F0496CF20918E0669
:10188000222309F491CF20912F04222309F48CCF35
:10189000223029F008969093330480933204D0923A
:1018A0002F0482CF80913E048F5F80933E0461E1DC
:1018B00073E082E795E00E94D421EEEAF3E0AEE225
:1018C000B3E0119217AE1D92DF961C92DF9733E0C2
:1018D000EE3EF307B1F79FCA1F920F920FB60F9219
:1018E00011242F933F938F939F93AF93BF93EF93C5
:1018F000FF934A9B4CC08091840090918500813D6C
:10190000974048F010922A0310922B0310922C0358
:1019100010922D0326C080912A0390912B03A09151
:101920002C03B0912D032091840030918500880F05
:10193000991FFC01E859F94F3183208380912A03D4
:1019400090912B03A0912C03B0912D030196A11D22
:10195000B11D80932A0390932B03A0932C03B09383
:101960002D03109285001092840080912A0390919B
:101970002B03A0912C03B0912D034097A105B10535
:1019800021F481E080938A0602C010928A06FF91BA
:10199000EF91BF91AF919F918F913F912F910F90B8
:1019A0000FBE0F901F901895FC01538D448D252F6D
:1019B00030E0842F90E0821B930B541710F0CF96E9
:1019C000089501970895FC01918D828D981761F01B
:1019D000828DDF01A80FB11D5D968C91928D9F5F66
:1019E0009F73928F90E008958FEF9FEF0895FC0111
:1019F000918D828D981731F0828DE80FF11D858DC4
:101A000090E008958FEF9FEF0895FC01918D228D56
:101A1000892F90E0805C9F4F821B91098F739927DB
:101A20000895FC01848DDF01A80FB11DA35ABF4F9B
:101A30002C91848D90E001968F739927848FA689CD
:101A4000B7892C93A089B1898C91837080648C9321
:101A5000938D848D981306C00288F389E02D8081D0
:101A60008F7D80830895EF92FF920F931F93CF9302
:101A7000DF93EC0181E0888F9B8D8C8D981305C0DE
:101A8000E889F989808185FD26C0F62E0B8D10E04E
:101A90000F5F1F4F0F731127E02E8C8DE8120CC0C3
:101AA0000FB607FCFACFE889F989808185FFF5CF69
:101AB000CE010E94110DF1CF8B8DFE01E80FF11DBB
:101AC000E35AFF4FF0829FB7F8940B8FEA89FB89A6
:101AD000808180620AC09FB7F894EE89FF89608395
:101AE000E889F98980818370806480839FBF81E069
:101AF00090E0DF91CF911F910F91FF90EF900895AB
:101B0000CF93DF93EC01888D8823C9F0EA89FB89A4
:101B1000808185FD05C0A889B9898C9186FD0FC09B
:101B20000FB607FCF5CF808185FFF2CFA889B98970
:101B30008C9185FFEDCFCE010E94110DE7CFDF9193
:101B4000CF91089540916404262F30E0240F311D79
:101B500021323105DCF4209128052430C9F4FC0140
:101B600080E090E0861758F4309164042191DC0104
:101B7000AC5BBB4FA30FB11D2C930196F3CF8091AB
:101B80006404680F6093640480E0089581E0089520
:101B900082E00895089508950895E0919804809151
:101BA0009704E81730F4F0E0E756FB4F808190E0AF
:101BB00008958FEF9FEF0895909198048091970476
:101BC000981750F4E92FF0E0E756FB4F208130E002
:101BD0009F5F9093980402C02FEF3FEFC9010895D3
:101BE0008091970490E020919804821B91090895B8
:101BF000CF92DF92EF92FF920F931F93CF93DF93D9
:101C00007C01CB018A0120912E05222389F0EB0172
:101C10006B01C40ED51ECC15DD0569F06991D701A5
:101C2000ED91FC910190F081E02DC7010995F3CF72
:101C3000642F0E94A20DC801DF91CF911F910F91D7
:101C4000FF90EF90DF90CF900895CF93DF931F9296
:101C5000CDB7DEB7698320912E052223D1F02091E4
:101C60005105203240F021E030E0FC013383228333
:101C700080E090E015C080912F05E82FF0E0E05D56
:101C8000FA4F998190838F5F80932F058093510540
:101C900005C061E0CE0101960E94A20D81E090E0B6
:101CA0000F90DF91CF9108950895FC016370668BCA
:101CB0008481958126813781613039F0633029F044
:101CC000918780873387228708953187208793877C
:101CD000828708956F927F928F929F92AF92BF9268
:101CE000CF92DF92EF92FF920F931F93CF93DF93E8
:101CF000EC014B015A0169013801E881F981028444
:101D0000F385E02D0995E881F9810288F389E02DBA
:101D100087019601A501B401CE010995A501460DE3
:101D2000571D41505109E881F9810288F389E02D5E
:101D30009601B401CE010995E881F9810088F18905
:101D4000E02D9301A501B401CE010995C80CD91C61
:101D5000B60161507109E881F9810088F189E02DAF
:101D60009301A501CE010995E881F9810688F789DB
:101D7000E02DCE01DF91CF911F910F91FF90EF9059
:101D8000DF90CF90BF90AF909F908F907F906F909B
:101D900009948F929F92AF92BF92CF92DF92EF926F
:101DA000FF920F931F93CF93DF934C016B015A0166
:101DB000E901DC01ED91FC916217730781F40417CE
:101DC000150724F48B2D5801042F182F0A191B090D
:101DD00098012F5F3F4F048CF58DE02D12C0401706
:101DE000510709F52617370724F48D2D6901C62FF1
:101DF000D82F9E012C193D092F5F3F4F068CF78D80
:101E0000E02D8701A501B601C4010995DF91CF91AD
:101E10001F910F91FF90EF90DF90CF90BF90AF9008
:101E20009F908F9008950284F385E02D0995D40149
:101E3000ED91FC910488F589E02D9E01A501B60184
:101E4000C4010995D401ED91FC910688F789E02D34
:101E5000C401DF91CF911F910F91FF90EF90DF9020
:101E6000CF90BF90AF909F908F900994EF92FF9288
:101E70000F931F93DC011A960D911C911B971896D6
:101E80002D913C911997ED91FC9100A0F1A1E02DCD
:101E90007B0140E050E060E070E009951F910F91F8
:101EA000FF90EF9008954F925F926F927F928F9282
:101EB0009F92AF92BF92CF92DF92EF92FF920F93D9
:101EC0001F93CF93DF936C012B015A013901480115
:101ED000DC01ED91FC910284F385E02D0995E2018E
:101EE000640C751CD601ED91FC91C615D7055CF408
:101EF0000088F189E02D87019401A501BE01C6018A
:101F000009952196EFCF0688F789E02DC601DF916C
:101F1000CF911F910F91FF90EF90DF90CF90BF90E6
:101F2000AF909F908F907F906F905F904F900994AB
:101F30008F929F92AF92BF92CF92DF92EF92FF92D9
:101F40000F931F93CF93DF93EC015B014A0169016B
:101F5000E881F9810284F385E02D099595012C0D26
:101F60003D1D21503109E881F9810488F589E02D72
:101F700078018401A401B501CE010995E881F981B8
:101F80000688F789E02DCE01DF91CF911F910F9147
:101F9000FF90EF90DF90CF90BF90AF909F908F9089
:101FA00009948F929F92AF92BF92CF92DF92EF925D
:101FB000FF920F931F93CF93DF93EC015B014A01D4
:101FC00069017801E881F9810284F385E02D0995A2
:101FD000C80CD91C860101501109E881F9810488D7
:101FE000F589E02D9501A401B501CE010995E8819F
:101FF000F9810688F789E02DCE01DF91CF911F91FD
:102000000F91FF90EF90DF90CF90BF90AF909F9097
:102010008F900994EF92FF920F931F93DC01ED9143
:10202000FC9100A0F1A1E02D09951F910F91FF9067
:10203000EF9008950F931F93DC01ED91FC91068CB6
:10204000F78DE02D09951F910F9108950F931F9320
:10205000DC01ED91FC91048CF58DE02D09951F912B
:102060000F910895DC01ED91FC910084F185E02D44
:1020700009942F923F924F925F926F927F928F922C
:102080009F92AF92BF92CF92DF92EF92FF920F9307
:102090001F93CF93DF9300D000D000D0CDB7DEB731
:1020A0002C017E836D836A015901C801FC82EB8299
:1020B0004801841A950A97FE03C09194819491086F
:1020C00035012D813E81621A730A77FE03C0719437
:1020D00061947108681479045CF43A2D2B2D5C012D
:1020E000832F922F3D812E81DE82CD82C32ED22E70
:1020F000AD81BE81AA16BB065CF43C2D2D2D6C0172
:10210000832F922F3D812E81BE82AD82A32EB22ECF
:1021100085012D813E81021B130B1C012C183D08EB
:1021200037FE03C0319421943108780117FF03C0B2
:102130003FEFE31AF30AF594E794C816D9062CF09A
:102140008FEF9FEF9A83898304C0A1E0B0E0BA8348
:10215000A9832D813E81A216B30624F1D201ED910F
:10216000FC910484F585E02D2B813C816814790471
:1021700024F44D815E81B60103C0A6016D817E818C
:10218000C2010995E218F308F7FE06C029813A81D9
:10219000C20ED31EE00EF11E8D819E8101969E839C
:1021A0008D83D7CF26960FB6F894DEBF0FBECDBF76
:1021B000DF91CF911F910F91FF90EF90DF90CF9023
:1021C000BF90AF909F908F907F906F905F904F9057
:1021D0003F902F9008950E94982D8F929F92AF92DA
:1021E000CF92EF92FF920F931F93CF93DF93EC0167
:1021F000262F898D9A8D009709F042C06A3059F4D4
:102200001D861C862D898E859F8538E0239F800D35
:10221000911D112443C06D3009F4AAC08F89882311
:10222000C9F03C898C859D8546E0349F800D911DC9
:102230001124488559854817590764F41D861C8662
:102240003D898E859F8548E0349F800D911D112426
:102250009F878E87EA88FB88088919894E855F8564
:102260006C857D85AD88CC88CE010E94A81E2C8906
:102270008C859D8536E0239F800D911D11243EC0E5
:102280006A3079F41D861C862D89FC013896E4910C
:102290008E859F852E9F800D911D11249F878E878F
:1022A00067C06D3009F464C0FC0134963491631743
:1022B00008F45EC03296E491E61708F459C0462F40
:1022C000431B342FFC0132968590949047E0349F55
:1022D000800C911C1124F401329634913196E491D2
:1022E000332311F0E1110DC0F4013496E4912C89EF
:1022F0008C859D85E29F800D911D11249D878C8783
:1023000037C0F401359644915F89552319F15C89F2
:10231000E32FF0E0E40FF11D47FDFA955E9FB00159
:102320005F9F700D11244C855D85460F571F688592
:1023300079856417750774F41D861C863D89FC0138
:102340003896E4918E859F853E9F800D911D1124C6
:102350009F878E87EA88FB88088919894E855F8563
:102360006C857D85AD88CC88CE010E94A81EBCCF2F
:1023700081E090E0DF91CF911F910F91FF90EF905E
:10238000CF90AF909F908F9008956115710579F06F
:10239000FB0101900020E9F73197AF01461B570B75
:1023A000DC01ED91FC910280F381E02D099480E045
:1023B00090E008951F920F920FB60F9211242F9361
:1023C0003F934F935F936F937F938F939F93AF93BD
:1023D000BF93EF93FF9382E795E00E94110DFF9169
:1023E000EF91BF91AF919F918F917F916F915F918D
:1023F0004F913F912F910F900FBE0F901F90189506
:102400001F920F920FB60F9211242F938F939F93C9
:10241000EF93FF93E0918205F09183058081E09135
:102420008805F091890582FD12C0908180918B050D
:102430008F5F8F7320918C05821751F0E0918B058F
:10244000F0E0EE58FA4F958F80938B0501C08081A4
:10245000FF91EF919F918F912F910F900FBE0F9051
:102460001F9018951092280581E0809327051092FF
:10247000020561E082E10E94DC2061E083E10E94CC
:10248000DC20E9EBF0E080818E7F808380818D7F8E
:10249000808388E48093B80085E48093BC0008952D
:1024A000CF93DF9391E0909343048823B9F0C091D8
:1024B000B800D091BA008091BC008A7B8093BC00A8
:1024C00060E082E10E94DC2060E083E10E94DC2089
:1024D0000E943212D093BA00C093B800DF91CF911E
:1024E000089585ED8093BC0080912A0590912B057D
:1024F000A0912C05B0912D050796A11DB11D23E0DB
:10250000B695A795979587952A95D1F72091BC0008
:1025100024FF1CC040912A0550912B0560912C0589
:1025200070912D05452B462B472B81F30097A10574
:10253000B10541F02AE22A95F1F700C00197A109FF
:10254000B109E4CF809129050C945012109228050E
:1025500008951F920F920FB60F9211242F933F935D
:102560004F935F936F937F938F939F93AF93BF939B
:10257000EF93FF938091B900887F803609F49CC067
:1025800068F5883209F45BC090F4803109F454C0D6
:1025900038F4882309F4F6C0883009F44DC0F6C039
:1025A000883109F44CC0803209F45DC0EFC080343A
:1025B00009F468C048F4803309F455C0883309F041
:1025C000E5C080932605D8C0803509F44FC0883512
:1025D00009F45DC0883409F0D9C0D6C0883909F43F
:1025E000C7C0A8F4883709F467C038F4883609F4FE
:1025F00063C0803709F460C0C9C0883809F4B8C026
:10260000803909F45FC0803809F0C0C05BC0803BEE
:1026100009F486C038F4803A09F466C0883A09F4AF
:102620007FC0B4C0803C09F4A7C0883C09F4A4C0B2
:10263000883B09F48AC0AAC08091030510C090911C
:10264000250580912405981770F5E091250581E016
:102650008E0F80932505F0E0EC5FFA4F8081809328
:10266000BB0085EC86C0809326058EC0E0912505D1
:1026700081E08E0F809325058091BB00F0E0EC5F38
:10268000FA4F808390912505809124056EC0E091DA
:10269000250581E08E0F809325058091BB00F0E039
:1026A000EC5FFA4F80838091270581116DC081E036
:1026B0008093020584EA61C083E08093280510922C
:1026C0008604CFCF80918604803208F051C0E0911B
:1026D000860481E08E0F809386048091BB00F0E039
:1026E000EA59FB4F8083BDCF85EC8093BC001092EC
:1026F000280580918604803230F4E0918604F0E071
:10270000EA59FB4F10826091860470E0E091410429
:10271000F091420486E694E009951092860436C052
:1027200084E0809328051092650410926404E0917F
:102730003F04F0914004099580916404811105C023
:1027400081E08093640410924404E091650481E088
:102750008E0F80936504F0E0EC5BFB4F80818093EB
:10276000BB009091650480916404981708F479CFB8
:1027700085E88093BC000AC085EC8093BC00109271
:10278000280504C0109226050E947112FF91EF9156
:10279000BF91AF919F918F917F916F915F914F9179
:1027A0003F912F910F900FBE0F901F901895FC0135
:1027B000A5A1B6A19C9182A589238C93A5A1B6A1C0
:1027C0009C9181A5892B8C9308950F931F93CF9390
:1027D000DF93EC018B018DA9811109C01EBD0DB4E1
:1027E00007FEFDCF0EBD0DB407FEFDCF2FC081301B
:1027F000E9F480E1E9A1FAA1208117FF03C09DA1BE
:10280000922B02C09EA192239083EBA1FCA1208178
:102810009FA1922B9083EBA1FCA1208198A59223EC
:102820009083000F111F815029F710C0EF8DF8A180
:102830001083CE010E94D713EF8DF8A10083CE0143
:10284000DF91CF911F910F910C94D713DF91CF910E
:102850001F910F910895CF93DF93EC01ED8DFE8DC5
:1028600090818CA989238083CE010E94EC18ED8D84
:10287000FE8D90818BA9892B8083DF91CF91089564
:102880001F93CF93DF93EC01162FE881F981028427
:10289000F385E02D0995112311F06DAD01C06EADEA
:1028A000CE010E942B14E881F9810688F789E02D7A
:1028B000CE01DF91CF911F9109948F929F92AF9299
:1028C000BF92CF92DF92EF92FF920F931F93CF931D
:1028D000DF935C014B016A01E90177FD53C0DC0124
:1028E00018968D919C911997681779070CF04AC03A
:1028F000209709F447C037FF07C0C9010196C80EE9
:10290000D91ED195C195D109F50182859385C81647
:10291000D906C4F5A6014C0F5D1F9A01215031095B
:1029200037FD30C0D7FE03C0EA01C12CD12C2817D7
:1029300039071CF0EC01CC19DD09D501ED91FC91B2
:102940000284F385E02DC501099578018E0121E00F
:1029500030E0A601B401C5010E94FA1DD501ED9138
:10296000FC910688F789E02DC501DF91CF911F9179
:102970000F91FF90EF90DF90CF90BF90AF909F901E
:102980008F900994DF91CF911F910F91FF90EF905D
:10299000DF90CF90BF90AF909F908F9008958F92CF
:1029A0009F92AF92BF92CF92DF92EF92FF920F93DE
:1029B0001F93CF93DF935C016B014A01E90157FD3F
:1029C00053C0DC011A968D919C911B9748175907AB
:1029D0000CF04AC0209709F447C037FF07C0C9016F
:1029E0000196C80ED91ED195C195D109F5018085F2
:1029F0009185C816D906C4F5A6014C0F5D1F9A0132
:102A00002150310937FD30C0D7FE03C0EA01C12C87
:102A1000D12C281739071CF0EC01CC19DD09D501A0
:102A2000ED91FC910284F385E02DC50109957801B3
:102A300001E010E09E01A401B601C5010E94FA1D4B
:102A4000D501ED91FC910688F789E02DC501DF9154
:102A5000CF911F910F91FF90EF90DF90CF90BF909B
:102A6000AF909F908F900994DF91CF911F910F911C
:102A7000FF90EF90DF90CF90BF90AF909F908F909E
:102A800008958F929F92AF92BF92CF92DF92EF9272
:102A9000FF920F931F93CF93DF934C016B015A0169
:102AA000E901209709F46CC00115110509F468C00B
:102AB00037FF07C0C9010196C80ED91ED195C1952F
:102AC000D109F401A085B185CA16DB060CF058C007
:102AD00017FF07C0C8010196A80EB91E11950195F0
:102AE0001109F40182859385A816B9060CF048C037
:102AF000F601EC0FFD1FAF014150510957FD40C0D9
:102B0000B501600F711F9B012150310937FD38C09D
:102B1000D7FE03C0EF01C12CD12CB7FE03C08B013F
:102B2000A12CB12C4A175B071CF0ED01CC19DD0973
:102B3000281739071CF08C010A191B09D401ED91E3
:102B4000FC910284F385E02DC40109959E01A50145
:102B5000B601C4010E94FA1DD401ED91FC910688D2
:102B6000F789E02DC401DF91CF911F910F91FF9064
:102B7000EF90DF90CF90BF90AF909F908F9009948F
:102B8000DF91CF911F910F91FF90EF90DF90CF9049
:102B9000BF90AF909F908F900895EF92FF920F9308
:102BA0001F93CF93DF9377FD34C0DC011896ED912E
:102BB000FC9119976E177F0764F52115310549F1CE
:102BC00037FF07C0F90131964E0F5F1F31952195F0
:102BD0003109DC011A96ED91FC911B974E175F07A6
:102BE000C4F4EA01C20FD31FDE011197B7FD11C073
:102BF00057FF03C09E0140E050E0AE17BF071CF036
:102C00009F01241B350B7801890121E030E00E94EF
:102C1000FA1DDF91CF911F910F91FF90EF900895D2
:102C2000EF92FF920F931F93CF93DF9357FD33C023
:102C3000DC011A96ED91FC911B974E175F075CF52E
:102C40002115310541F137FF07C0F90131966E0FAB
:102C50007F1F319521953109DC011896ED91FC918A
:102C600019976E177F07BCF4EB01C20FD31FDE016B
:102C70001197B7FD10C077FF03C09E0160E070E0C0
:102C8000AE17BF071CF09F01261B370B780101E030
:102C900010E00E94FA1DDF91CF911F910F91FF90DC
:102CA000EF9008958F929F92AF92BF92CF92DF9252
:102CB000EF92FF920F931F93CF93DF93470121155C
:102CC000310509F44DC00115110509F449C037FF5C
:102CD00007C0F90131966E0F7F1F3195219531099B
:102CE000DC011896AD90BC9019976A157B05C4F568
:102CF00017FF07C0F80131964E0F5F1F1195019520
:102D00001109DC011A96ED91FC911B974E175F0794
:102D10003CF56B01C20ED31EE6012197D7FD20C002
:102D20007A01E00EF11ED7011197B7FD19C077FFA8
:102D300003C0960160E070E057FF03C0870140E0E8
:102D400050E0CA15DB051CF09501261B370BAE17AA
:102D5000BF071CF08F01041B150B74010E94FA1DA4
:102D6000DF91CF911F910F91FF90EF90DF90CF9067
:102D7000BF90AF909F908F900895AF92BF92CF92E7
:102D8000DF92EF92FF920F931F93CF93DF93EC01AB
:102D900077FD38C088859985681779079CF557FDB8
:102DA00031C08A859B854817590764F569017A0106
:102DB0005B01E881F9810284F385E02DCE0109955C
:102DC000E881F98102A4F3A5E02D01E010E021E003
:102DD00030E0A701B501CE010995B601CE010E94F0
:102DE000E513E881F9810688F789E02DCE01DF91AE
:102DF000CF911F910F91FF90EF90DF90CF90BF90F8
:102E0000AF900994DF91CF911F910F91FF90EF90B8
:102E1000DF90CF90BF90AF900895EF92FF920F9305
:102E20001F93CF93DF93EC0177FD22C088859985AE
:102E300068177907ECF457FD1BC08A859B854817F6
:102E40005907B4F47901E881F98102A4F3A5E02DD2
:102E500001E010E021E030E0CE010995B701CE019C
:102E6000DF91CF911F910F91FF90EF900C94E5139C
:102E7000DF91CF911F910F91FF90EF900895AF9246
:102E8000BF92CF92DF92EF92FF920F931F93CF9357
:102E9000DF93EC015B016A01215031097901E60EF3
:102EA000F71E01501109040F151F80910601909122
:102EB00007016817790739F48091040190910501A1
:102EC000E816F906A1F06AE2CE010E942B14B501C2
:102ED000CE010E94E513B701CE010E94E513B09226
:102EE0000701A0920601F0920501E0920401809191
:102EF000020190910301C816D90639F480910001AE
:102F00009091010108171907A1F06BE2CE010E9410
:102F10002B14B601CE010E94E513B801CE010E9428
:102F2000E513D0920301C0920201109301010093B6
:102F300000016CE2CE01DF91CF911F910F91FF90C4
:102F4000EF90DF90CF90BF90AF900C942B14611155
:102F500002C060E201C061E220E040E050E00C9479
:102F60008B1DCF92DF92EF92FF920F931F93CF931F
:102F7000DF93EC016A017B01452B462B472B31F493
:102F8000C12C42E1D42E4AE7E42EF12C8FA987FD13
:102F900007C061E00E94292161E08FA90E94DC2026
:102FA00061E088AD0E94292161E088AD0E94DC20AB
:102FB0008DA9811152C040E052E16AE770E090E0D3
:102FC000C416D506E606F70640F47695679557953C
:102FD00047959F5F9630A1F797E081E08927982F6A
:102FE000906A969599A381708AA31BA21CA21DA228
:102FF0001EA21FB7F89480918D04811127C0EDE1C6
:10300000F6E08491EFEFF5E09491E82FF0E0EE0F19
:10301000FF1FE952FF4FA591B491EC91E92321F4F0
:1030200061E08AE00E94DC2061E08AE00E942921C0
:103030008CB580618CBD8CB580648CBD61E08DE009
:103040000E94292161E08BE00E94292180918D045A
:103050008F5F80938D041FBF4BC08130B9F461E056
:103060008AA50E94292160E08AA50E94DC2061E0F7
:103070008CA50E94292160E08CA50E94DC208BA5F4
:1030800087FD36C060E00E94292132C003E116E0CE
:10309000F12CF8018491E82FF0E0EE0FFF1FE75FBD
:1030A000F94F859194912F8D38A12817390741F454
:1030B00061E08F2D0E94292160E08F2D0E94DC208D
:1030C000F3940F5F1F4FF4E1FF12E3CF61E08EA591
:1030D0000E94292161E08EA50E94DC208FA587FD3A
:1030E00007C061E00E94292161E08FA50E94DC20D9
:1030F0008EA987FD2AC061E00E94292161E08EA986
:103100000E94DC202FEF81EE94E02150804090401F
:10311000E1F700C0000060E08EA90E94DC20EFEF24
:10312000F1EE24E0E150F0402040E1F700C0000063
:1031300061E08EA90E94DC208FEF93ECE9E08150E2
:103140009040E040E1F700C000008EA987FF10C06A
:1031500020E040E050E061E0CE010E948B1DFFEFD7
:1031600022E587E0F15020408040E1F700C00000F8
:10317000E8E6F0E0CF01019664916623E1F08F016B
:103180000E5F1F4FFC01F490FF2DFF77EF2E2F2FC6
:10319000A801CE010E948B1DF801EE0DF11DF7FE76
:1031A000E9CF2FEF82E597E0215080409040E1F792
:1031B00000C00000DFCF80EF90E09987888780E42F
:1031C00091E09B878A87DF91CF911F910F91FF90AC
:1031D000EF90DF90CF900895FC0185A9811105C083
:1031E0006EBD0DB407FEFDCF08958130E1F488E097
:1031F000A1A1B2A12C9167FF03C095A1922B02C09F
:1032000096A192239C93A3A1B4A12C9197A1922B58
:103210009C93660FA3A1B4A12C9190A592239C939B
:10322000815031F70895A78DB0A16C93CF010C9414
:10323000D713FC0185A9811104C091A182A19CBD75
:103240008DBD0895CF93DF93EC010E9419198FA9CA
:1032500087FD06C0EB8DFC8D90818AA98923808330
:10326000DF91CF9108950895FC0187A987FD06C0DD
:10327000A38DB48D9C9181A9892B8C9308950F9374
:103280001F93CF93DF931F92CDB7DEB78C0163708E
:10329000DC0156966C935697623059F06330C9F052
:1032A000613029F088E4898380EF90E007C088E2EC
:1032B00011C088E8898380EF90E0D80119969C932B
:1032C0008E93189780E491E01B969C938E931A97A7
:1032D0000BC088EE898380E491E0F80191878087B4
:1032E00080EF90E093878287C8010E941919D80166
:1032F000D7968C91D79787FD09C05B96ED91FC918D
:103300005C979081D2968C9189238083D8015D96B9
:10331000ED91FC915E979081D4968C918923808366
:1033200066E3C8010E94EC18D8015D96ED91FC910E
:103330005E979081D3968C91D397892B8083D59675
:103340008C91823029F06981C8010E94EC1809C073
:10335000F80180A98823B9F369817A81C8010E94A4
:10336000E513D801D7968C91D79787FD09C05B9656
:10337000ED91FC915C979081D1968C91892B808303
:103380000F90DF91CF911F910F910895CF92DF920F
:10339000EF92FF920F931F93CF93DF9360EF73E24F
:1033A00080E090E00E942E268CED95E00E94202681
:1033B000C0908B04D0908C04E12CF12CC701B60195
:1033C0000E942E26C0918904D0918A04CE010E94C9
:1033D0002026C701B6010E942E26CE010E9420267B
:1033E000C701B6010E942E26CE010E942026C701E9
:1033F000B6010E942E26CE010E942026C701B601EA
:103400000E942E260091870410918804C8010E9412
:103410002026C701B6010E942E26C8010E94202640
:10342000C701B6010E942E26C8010E942026C701AE
:10343000B6010E942E26C8010E942026C701B601AF
:103440000E942E26CE010E942026C701B6010E94AE
:103450002E26CE010E942026C701B6010E942E26EC
:10346000C8010E942026C701B6010E942E26C8016D
:103470000E942026C701B6010E942E26CE010E947E
:103480002026C701B6010E942E26CE010E942026CA
:10349000C701B6010E942E26C8010E942026C7013E
:1034A000B6010E942E26CE010E942026C701B60139
:1034B000DF91CF911F910F91FF90EF90DF90CF9010
:1034C0000C942E26CF92DF92EF92FF920F931F93D0
:1034D000CF93DF936C017A018B01C0E0D0E0CE1571
:1034E000DF0581F0D8016D918D01D601ED91FC9140
:1034F0000190F081E02DC6010995892B11F02196EC
:10350000EECF7E01C701DF91CF911F910F91FF9008
:10351000EF90DF90CF9008952F923F924F925F925D
:103520006F927F928F929F92AF92BF92CF92DF92D3
:10353000EF92FF920F931F93CF93DF93CDB7DEB738
:103540002A970FB6F894DEBF0FBECDBF5C017E8315
:103550006D835A874987370181E090E07C01E41A46
:10356000F50ACA01919581959109AC01440F551F47
:103570005C834B83C80101969A8389831B012C01CC
:1035800089849A84CC24C394D12C922F91709F83E8
:1035900022702887C601019729853A8582179307EB
:1035A0000CF078C0F7FC0CC0215031093A8729870C
:1035B0004B815C814E5F5F4F5C834B83E40EF51E55
:1035C000C601880F991F0196E80EF91E89859A8514
:1035D0008C159D0594F19F819923B1F029853A8539
:1035E000220F331F49815A81240F351F83014D81DA
:1035F0005E8189859A85481B590BB5016C0D7D1D2F
:1036000080E296E00E94CD1598859923B1F0298536
:103610003A85220F331F49815A81240F351F8301B8
:103620004D815E8189859A85481B590BB5016C19BE
:103630007D0980E296E00E94CD1529853A852815FE
:10364000390551F42FEFC21AD20A31E0231A31089A
:1036500042E0440E511C9ECF3F81332351F0830141
:103660009201A101B501680D791D80E296E00E94EA
:10367000CD154885411103C089849A84E3CFB501F3
:103680006819790983019201A10180E296E00E9404
:10369000CD15F2CF2A960FB6F894DEBF0FBECDBF80
:1036A000DF91CF911F910F91FF90EF90DF90CF901E
:1036B000BF90AF909F908F907F906F905F904F9052
:1036C0003F902F900895CF93DF93D1E0D0932E05B4
:1036D000C2E5C093500510922F051092510580EF5E
:1036E00090E00E941B2685E590E00E941B2681E069
:1036F0000E94FD21D0932E05C093500510922F05F6
:10370000109251058BEF90E00E941B2680E090E024
:103710000E941B2681E00E94FD2164E08AEF0E9446
:10372000E922843061F580E38093D70488E78093B1
:10373000D80482EE94E0A9EBB4E021EC34E0EC0193
:10374000E991CE01CE2FD0E044E0D595C7954A95BA
:10375000E1F7C65EDE4F488190964C939097EF70EC
:10376000F0E0E65EFE4F408191964C939197129661
:103770002A173B0721F71092E10481E001C080E0A5
:10378000DF91CF9108958F929F92AF92BF92CF9287
:10379000DF92EF92FF920F931F93CF93DF93CDB7FA
:1037A000DEB7A1970FB6F894DEBF0FBECDBF6C0198
:1037B000990FEE08FF08F7FE2DC06DE280E296E05B
:1037C0000E94ED108C0122273327A9012C193D09F5
:1037D0004E095F0919A2CE0181967C019AE0892EDB
:1037E000912CA12CB12CCA01B901A50194010E9410
:1037F000522D605DF70162937F012115310541056E
:10380000510589F7BF0180E296E00E94C511800F43
:10381000911F1FC0A701960119A28E010F5D1F4FB6
:103820008AE0C82ED12CE12CF12CCA01B901A701E4
:1038300096010E94522D605DF80162938F0121155F
:1038400031054105510589F7BF0180E296E00E94EC
:10385000C511A1960FB6F894DEBF0FBECDBFDF91A4
:10386000CF911F910F91FF90EF90DF90CF90BF907D
:10387000AF909F908F9008952F923F924F925F92BA
:103880006F927F928F929F92AF92BF92CF92DF9270
:10389000EF92FF920F931F93CF93DF9300D000D04E
:1038A000CDB7DEB71C012B015A016901480142174F
:1038B000530734F45A83498357FF0AC09A0104C05E
:1038C0003A83298337FF04C02F5F3F4F3A83298310
:1038D00089819A81959587959C838B832B813C81E7
:1038E0002530310524F085E090E09C838B8380E2D5
:1038F00096E00E9422196B807C80660C771C2B81DD
:103900003C81220D331D3A832983950126193709FD
:1039100074018601A20169817A8180E296E00E94A9
:103920005216C618D70831E0C31AD1088B819C8182
:10393000480E591EA20CB31CC5012B813C81821B71
:10394000930B860121E04B815C81B20101970E94BB
:103950008C1A22E04B815C81B20189819A810E949C
:103960008C1A80E296E00F900F900F900F90DF91ED
:10397000CF911F910F91FF90EF90DF90CF90BF906C
:10398000AF909F908F907F906F905F904F903F90FF
:103990002F900C9434192F923F924F925F926F9216
:1039A0007F928F929F92AF92BF92CF92DF92EF92CF
:1039B000FF920F931F93CF93DF937C016B01EA017A
:1039C00081E090E05C01A41AB50A66247724641AA9
:1039D000750A660C771C00E010E088248394912C13
:1039E000822F8470582E822F8270482E822F8870EA
:1039F000382E2170222E0C171D070CF079C0B7FC51
:103A000006C0219782E0680E711CA60CB71C0F5FE0
:103A10001F4F82E0880E911CA80CB91C5520C1F0E4
:103A20002FEF3FEFAE014C0D5D1DB701600F711F11
:103A300080E296E00E940D172FEF3FEFA601400FA6
:103A4000511FBE016E0D7F1D80E296E00E940D1792
:103A50004420C1F02FEF3FEFA6014C1B5D0BB701D7
:103A6000600F711F80E296E00E940D172FEF3FEF6D
:103A7000A601401B510BBE016E0D7F1D80E296E03A
:103A80000E940D173320C1F02FEF3FEFA601400F2A
:103A9000511FB7016C1B7D0B80E296E00E940D1751
:103AA0002FEF3FEFAE014C0D5D1DB701601B710B99
:103AB00080E296E00E940D17222009F49CCF2FEFA0
:103AC0003FEFA601401B510BB7016C1B7D0B80E241
:103AD00096E00E940D172FEF3FEFA6014C1B5D0BE8
:103AE000B701601B710B80E296E00E940D1783CF37
:103AF000DF91CF911F910F91FF90EF90DF90CF90CA
:103B0000BF90AF909F908F907F906F905F904F90FD
:103B10003F902F900895AF92BF92CF92DF92EF9295
:103B2000FF920F931F93CF93DF93EC01E62E8A0150
:103B3000F22E0E9419198FA987FD06C0EB8DFC8D0E
:103B400090818AA989238083ED8DFE8D90818CA937
:103B5000892380836E2DCE010E94EC18ED8DFE8DA1
:103B600090818BA9892B8083C12CD12CAF2CB12CB7
:103B7000CA14DB04E4F48DA97801823059F488A9D1
:103B8000882341F0F801619171917F01CE010E947B
:103B9000E51308C0FFEFEF1AFF0AF8016491CE01A8
:103BA0000E94EC18FFEFCF1ADF0A8701E1CF8FA93F
:103BB00087FD06C0EB8DFC8D908189A9892B8083C0
:103BC0008DA981110CC0DF91CF911F910F91FF90B2
:103BD000EF90DF90CF90BF90AF900C943319DF91AE
:103BE000CF911F910F91FF90EF90DF90CF90BF90FA
:103BF000AF9008958F929F92AF92BF92CF92DF9233
:103C0000EF92FF920F931F93CF93DF93EC01490143
:103C1000BE2CAF2CE881F98102A4F3A5E02D099513
:103C20009401D8010E94832D6115710581059105CC
:103C300009F481C02DA921110FC0615071098109BA
:103C4000910908F478C0AEBC0DB407FEFDCFBEBC30
:103C50000DB407FEFDCFF1CF213009F03FC0615018
:103C600071098109910908F466C03A2D28E0E9A19B
:103C7000FAA1508137FF03C04DA1452B02C04EA1D0
:103C800045234083EBA1FCA150814FA1452B4083EC
:103C9000EBA1FCA1508148A545234083330F21505F
:103CA00031F73B2D28E0E9A1FAA1508137FF03C08D
:103CB0004DA1452B02C04EA145234083EBA1FCA1A1
:103CC00050814FA1452B4083EBA1FCA1508148A519
:103CD00045234083330F215031F7C1CFFE1017C069
:103CE000EF8DF8A1F0826B017C01CC0CDD1CEE1C89
:103CF000FF1CC114D104E104F104E9F0CE010E94DB
:103D0000D71381E0C81AD108E108F108F2CF6B019E
:103D10007C01EF8DF8A1A082CE010E94D713EF8D18
:103D2000F8A1B082CE010E94D71321E0C21AD108B7
:103D3000E108F10871F7DF91CF911F910F91FF908A
:103D4000EF90DF90CF90BF90AF909F908F900895AD
:103D50002F923F924F925F926F927F928F929F929B
:103D6000AF92BF92CF92DF92EF92FF920F931F9389
:103D7000CF93DF93CDB7DEB76B970FB6F894DEBF66
:103D80000FBECDBF9B8F8A8F1B014A01D22E198790
:103D900008873701A982DC0159962D913C915A97E9
:103DA0002115310509F0FFC018968D919C91199746
:103DB000681779070CF0E7C11A968D919C911B97B3
:103DC000481759070CF0DFC1EC2DF0E0FB83EA83C4
:103DD0009B0146E0C49E200D311D11243D872C8798
:103DE000121613060CF0CFC16A2D70E07B876A872C
:103DF00083E0660F771F8A95E1F77F876E87CB0197
:103E0000880D991D181619060CF0BDC158968C9195
:103E1000811104C08FEA8D1508F4D394AA8DBB8D4F
:103E2000ED91FC9111970284F385E02DCD01099568
:103E3000B5E0DB9EC0011124EC2DF0E0F98BE88B9E
:103E400091012B5F3F4F3B8B2A8B3D822C822101BE
:103E5000AC01421953095D8B4C8B7981672F70E05F
:103E60007F8B6E8BC4010896998F888FEC89FD89B2
:103E7000E40DF51DEB50FF4FD49054019F828E82CC
:103E8000D0FE16C0AA8DBB8DED91FC91B1E0CB1296
:103E900009C02981213031F40484F585E02D28857D
:103EA000398519C00684F785E02DE884F9841DC0A2
:103EB000488559854615570519F1AA8DBB8DED9199
:103EC000FC91B1E0CB120DC02981213051F4048462
:103ED000F585E02D9301A501B2018A8D9B8D099591
:103EE0000FC00684F785E02D73010A851B852A81A2
:103EF0003B814E815F816C817D818A8D9B8D09958F
:103F0000D6943FEFA31AB30A4E815F816E897F89F1
:103F1000460F571F5F834E83888D998DA816B9066B
:103F200009F0AECF9FEF491A590AAC81BD81E889EB
:103F3000F989AE0FBF1FBD83AC832A893B89421626
:103F4000530609F093CF488559854615570509F45E
:103F5000F8C0AA8DBB8DED91FC91B1E0CB1211C0E0
:103F60002981213071F4B1016B5F7F4F0088F189A5
:103F7000E02D830128E030E0A4018A8D9B8D099516
:103F8000E0C06C857D854A815B81641B750B06846E
:103F9000F785E02D73010E851F859A01A4018A8D96
:103FA0009B8D0995CEC0F9013496E491DE1AF90192
:103FB000329685919491B7E0DB9E800D911D11247E
:103FC000F901259134913B8B2A8BFC012591349189
:103FD0005901FC0132965490319634913C873296C7
:103FE00074903196149141E04C1518F0598152307B
:103FF00068F0672D072C000C770B7D836C83812F75
:10400000012E000C990B9B838A8304C01B821A82A9
:104010001D821C82AA8DBB8DED91FC9111970284AB
:10402000F385E02DCD010995412CD12C612CF9812E
:10403000EF2FF0E0FF83EE832C2D30E03B872A87C3
:10404000A401410F511D17FD5A955F8B4E8BB10195
:10405000670D711D77FC7A95798F688F7C8567165F
:1040600008F06FC0262D30E04A815B81420F531F5C
:10407000AE81BF81A49FC001A59F900DB49F900DFC
:104080001124F401E80FF91FF98BE88B842D712CB2
:104090004E895F89420F531F5D8B4C8B751408F05E
:1040A0004DC051E0580F5E87877041F4C5010196FD
:1040B000EA89FB89EA0DFB1DD4905C01D7FE3AC06A
:1040C00061E0C61216C07981713099F4AA8DBB8D5A
:1040D000ED91FC9111970484F585E02D28853985B3
:1040E0004C895D89688D798D670D711DCD010995AC
:1040F00021C08C819D81870D911DEA85FB858E9F56
:10410000B0018F9F700D9E9F700D1124620D731D65
:10411000AA8DBB8DED91FC9111970684F785E02D5A
:10412000E884F9840E811F812A853B854889598955
:10413000CD010995DD0C73948E85B0CF450C639449
:104140008DCFAA8DBB8DED91FC9111970688F789D3
:10415000E02DCD016B960FB6F894DEBF0FBECDBF3C
:10416000DF91CF911F910F91FF90EF90DF90CF9053
:10417000BF90AF909F908F907F906F905F904F9087
:104180003F902F9009946B960FB6F894DEBF0FBE48
:10419000CDBFDF91CF911F910F91FF90EF90DF90F6
:1041A000CF90BF90AF909F908F907F906F905F90D7
:1041B0004F903F902F90089590E0FC01EF51FF4FFA
:1041C0002491FC01EB50FA4F3491FC01ED5EF94F64
:1041D000E491EE2309F43CC0222339F1233091F01D
:1041E00038F42130A9F0223001F584B58F7D12C05A
:1041F000273091F02830A1F02430B9F4809180006C
:104200008F7D03C0809180008F77809380000DC0E8
:1042100084B58F7784BD09C08091B0008F7703C0CB
:104220008091B0008F7D8093B000F0E0EE0FFF1F13
:10423000E75FF94FA591B4919FB7F894611104C05D
:104240008C913095382302C0EC913E2B3C939FBF5C
:104250000895CF93DF9390E0FC01EB50FA4F249147
:10426000FC01ED5EF94F8491882361F190E0880FA5
:10427000991FFC01E952FF4FC591D491FC01E75F02
:10428000F94FA591B491611109C09FB7F894888145
:10429000209582238883EC912E230BC0623061F439
:1042A0009FB7F8948881322F309583238883EC91CF
:1042B0002E2B2C939FBF06C08FB7F894E8812E2B2E
:1042C00028838FBFDF91CF9108953FB7F8948091F5
:1042D000930490919404A0919504B091960426B50E
:1042E000A89B05C02F3F19F00196A11DB11D3FBF2E
:1042F000BA2FA92F982F8827820F911DA11DB11DBC
:10430000BC01CD0142E0660F771F881F991F4A95B7
:10431000D1F708951F920F920FB60F9211242F9389
:104320003F938F939F93AF93BF9380918F0490910E
:104330009004A0919104B091920430918E0423E0F6
:10434000230F2D3720F40196A11DB11D05C026E8CD
:10435000230F0296A11DB11D20938E0480938F041C
:1043600090939004A0939104B0939204809193044D
:1043700090919404A0919504B09196040196A11D8A
:10438000B11D8093930490939404A0939504B093EB
:104390009604BF91AF919F918F913F912F910F9074
:1043A0000FBE0F901F9018950F931F93CF93DF931D
:1043B000EC010E94C5118C016FE173E0CE010E94F7
:1043C000C511800F911FDF91CF911F910F9108951B
:1043D000E2E5F5E041915191DC012D913D91CD0156
:1043E0004217530739F4B5E0E237FB0799F781E04C
:1043F00090E0089580E090E008958F929F92AF92B0
:10440000BF92CF92DF92EF92FF920F931F93CF93C1
:10441000DF9310915105113208F0C2C0082FD091DE
:1044200050050E9465216B017C01C0912805CC23B9
:1044300011F180912A0590912B05A0912C05B09146
:104440002D05892B8A2B8B2B81F30E94652180906F
:104450002A0590902B05A0902C05B0902D05DC012D
:10446000CB018C199D09AE09BF0988169906AA06C9
:10447000BB06D8F681C082E080932805009327050B
:104480008FEF809326051092250510932405A0E355
:10449000B5E0E4E0F5E080E0181721F09D919193FC
:1044A0008F5FFACF10920305909103058D2F880F2F
:1044B000892B8093030580910205813089F5109244
:1044C00002050E9465216B017C01809103058093A8
:1044D000BB0080912A0590912B05A0912C05B091ED
:1044E0002D05892B8A2B8B2BA9F00E946521009129
:1044F0002A0510912B0520912C0530912D05DC010A
:10450000CB018C199D09AE09BF09081719072A07A5
:104510003B0790F18091BC0083FDD7CF85EC01C0B3
:1045200085EE8093BC000E9465216B017C01809127
:104530002805823039F580912A0590912B05A091AC
:104540002C05B0912D05892B8A2B8B2B81F30E9492
:10455000652100912A0510912B0520912C053091A1
:104560002D05DC01CB018C199D09AE09BF09081787
:1045700019072A073B07D8F6809129050E94501297
:10458000C5E013C0809126058F3F79F08091260504
:10459000803241F080912605803331F0C4E005C0BF
:1045A000C1E003C0C2E001C0C3E010922F05109229
:1045B000510510922E058C2FDF91CF911F910F91F5
:1045C000FF90EF90DF90CF90BF90AF909F908F9033
:1045D00008958F929F92AF92BF92CF92DF92EF9207
:1045E000FF921F93CF93DF93162F91E090932E05A8
:1045F00092E59093500510922F0510925105682F67
:104600008FE096E00E94250E81E00E94FD218FE957
:104610009FE00197F1F700C000000E9465216B0147
:104620007C01C0912805CC2339F180912A05909115
:104630002B05A0912C05B0912D05892B8A2B8B2B56
:1046400081F30E94652180902A0590902B05A0900F
:104650002C05B0902D05DC01CB018C199D09AE090C
:10466000BF0988169906AA06BB06D8F680912905C7
:104670000E945012C0E08FC0D12F113208F0D0E25A
:1046800081E080932805809327059FEF909326056E
:10469000109225059D0F909324058093030580912A
:1046A0000305846A8093030580910205813089F5B2
:1046B000109202050E9465216B017C018091030527
:1046C0008093BB0080912A0590912B05A0912C0529
:1046D000B0912D05892B8A2B8B2BA9F00E94652187
:1046E00080902A0590902B05A0902C05B0902D0568
:1046F000DC01CB018C199D09AE09BF09881699060A
:10470000AA06BB0690F18091BC0083FDD7CF85EC53
:1047100001C085EE8093BC000E9465216B017C0185
:1047200080912805813031F580912A0590912B05E3
:10473000A0912C05B0912D05892B8A2B8B2B81F311
:104740000E94652180902A0590902B05A0902C0551
:10475000B0902D05DC01CB018C199D09AE09BF0974
:1047600088169906AA06BB06D8F6809129050E94EC
:10477000501211C0809125058D1710F4D091250598
:10478000E4E0F5E0A9E9B4E0C0E0CD1721F08191C3
:104790008D93CF5FFACF10929804C0939704D0E026
:1047A00080919804C81781F01D1770F0FF24F394CE
:1047B000FD0E8FE096E00E94DC0DED2FF0E0EE5153
:1047C000FB4F8083DF2DECCF8D2FDF91CF911F9199
:1047D000FF90EF90DF90CF90BF90AF909F908F9021
:1047E0000895CF93DF9366E080E00E94E92286304F
:1047F00009F053C08091E2048093B9048091E304EE
:104800008093BA042091E7048091E40434E0839F0C
:10481000A0011124922F9C70892F90E09595879587
:1048200095958795842B952B9093BC048093BB041E
:104830008091E50494E0899FA0011124922F907348
:10484000892F90E064E0959587956A95E1F7842B30
:10485000952B9093BE048093BD048091E60434E0D0
:10486000839FC0011124322F3295369536953370CF
:10487000832B9093C0048093BF04822F8095817016
:104880008093C10426952170C22F80E0D82F91E03B
:10489000C927C093C20481E001C080E0DF91CF91BD
:1048A00008952F923F924F925F926F927F928F92D4
:1048B0009F92AF92BF92CF92DF92EF92FF920F93AF
:1048C0001F93CF93DF93CDB7DEB7A8970FB6F894B9
:1048D000DEBF0FBECDBF7C016B014A013C872B8739
:1048E000681779073CF448175907B4F4982F8F2DAF
:1048F0007B0106C0461757070CF095C19C2D8D2DE6
:104900008E149F049CF06401892E982E24E1222E9F
:10491000312CA12CB12C8CC18D2D6701E62EF82EE7
:10492000212C312C94E1A92EB12C82C16701740194
:10493000892E982EA12CB12C212C312C24E130E091
:1049400038A72FA380E296E00E942219E814F90408
:1049500051F54FA158A5241635065CF09FA188A5F6
:104960004215530514F4922D832D2FA038A49FA334
:1049700088A7A214B30444F06FA178A56A157B053B
:1049800014F4B8A6AFA251012FA138A52A193B09EA
:104990002F5F3F4F0B851C85A701B50180E296E094
:1049A0000E94101624C1C101AFA1B8A58A1B9B0BA0
:1049B00096012E193F09A5014A1B5B0B5A8B498BA7
:1049C000B4016E197F0978876F83D501A219B309E5
:1049D000BC8BAB8BA4014C195D095E874D87C81455
:1049E000D90431F0B601615071097E8B6D8B02C024
:1049F000DE8ACD8AFA82E982412C512C32011B8257
:104A00001C821D821E8249895A89052E000C660B64
:104A1000770B4F8B588F698F7A8FA901330F660BF5
:104A2000770B4B8F5C8F6D8F7E8F2F813885032E98
:104A3000000C440B550B2F8F38A349A35AA3AC018C
:104A4000990F660B770B4BA35CA36DA37EA36981C3
:104A50007A818D899E89861797070CF44EC06B81E9
:104A60007C818D819E812B8D3C8D4D8D5E8D0E9434
:104A7000202DAFA0B8A4A20EB31EC301B2012F8D8A
:104A800038A149A15AA10E94202DAFA1B8A52A0F93
:104A90003B1F4B815C816D817E818BA19CA1ADA16F
:104AA000BEA1480F591F6A1F7B1F4B835C836D8318
:104AB0007E834F89588D698D7A8D440E551E661EF2
:104AC000771E2A153B052CF49A2D8B2D5901292F81
:104AD000382F2A193B092F5F3F4F0B851C854981D1
:104AE0005A81B50180E296E00E94101669817A81B0
:104AF0006F5F7F4F7A836983AACF8B899C89092E48
:104B0000000CAA0BBB0B8B839C83AD83BE83A98156
:104B1000BA81AC19BD092B893C890E94832D2B01D8
:104B20003C01A981BA81AE19BF0929893A890E943D
:104B3000832D5B016C012D853E85032E000C440BFB
:104B4000550B2D873E874F87588B4F815885052EF3
:104B5000000C660B770B4F83588769877A876981CA
:104B60007A81861697060CF442C0C301B2012D85E6
:104B70003E854F8558890E94202D7101E20EF31E5B
:104B8000C601B5012F81388549855A850E94202D9F
:104B90008FA198A5280F391F4B815C816D817E8183
:104BA000440E551E661E771E6F89788D898D9A8DED
:104BB000A60EB71EC81ED91E2E153F052CF49E2D1D
:104BC0008F2D7901292F382F2E193F092F5F3F4F45
:104BD0000B851C8549815A81B70180E296E00E94CD
:104BE000101689819A8101969A838983B8CF80E2D1
:104BF00096E0A8960FB6F894DEBF0FBECDBFDF914A
:104C0000CF911F910F91FF90EF90DF90CF90BF90C9
:104C1000AF909F908F907F906F905F904F903F905C
:104C20002F900C94341984E1A82EB12C212C312C16
:104C300018A61FA287CE682F8FE096E00C94250E51
:104C400026E0969587952A95E1F71092B20020917B
:104C5000B20030E028173907D0F30895CF92DF92E1
:104C6000EF92FF926B017C01F8941C141D041E044A
:104C70001F0484F45E9A86E090E00E9420265E98ED
:104C800086E090E00E9420268AE1C81AD108E10857
:104C9000F108EBCF7894FF90EF90DF90CF900895DC
:104CA00060EF73E280E090E00E942E268CED95E0AC
:104CB0000E94202660918B0470918C0480E090E02B
:104CC0000E942E268091890490918A040E942026B9
:104CD00060918B0470918C0480E090E00E942E26FD
:104CE0008091890490918A040E94202660918B040F
:104CF00070918C0480E090E00E942E2680918704C1
:104D0000909188040E94202660918B0470918C04FD
:104D100080E090E00E942E26809187049091880484
:104D20000E94202660918B0470918C0480E090E0BA
:104D30000E942E268091890490918A040E94202648
:104D400060918B0470918C0480E090E00E942E268C
:104D50008091890490918A040E94202660918B049E
:104D600070918C0480E090E00E942E268091870450
:104D7000909188040E94202660918B0470918C048D
:104D800080E090E00E942E26809187049091880414
:104D90000E94202660918B0470918C0480E090E04A
:104DA0000E942E2680918704909188040E942026DC
:104DB00060918B0470918C0480E090E00E942E261C
:104DC00080918704909188040E94202660918B0432
:104DD00070918C0480E090E00E942E2680918904DE
:104DE00090918A040E94202660918B0470918C041B
:104DF00080E090E00E942E268091890490918A04A0
:104E00000E94202660918B0470918C0480E090E0D9
:104E10000E942E2680918704909188040E9420266B
:104E200060918B0470918C0480E090E00E942E26AB
:104E300080918704909188040E94202660918B04C1
:104E400070918C0480E090E00E942E26809189046D
:104E500090918A040E94202660918B0470918C04AA
:104E600080E090E00E942E268091890490918A042F
:104E70000E94202660918B0470918C0480E090E069
:104E80000C942E2660EF73E280E090E00E942E26C4
:104E90008CED95E00E94202660918B0470918C042B
:104EA00080E090E00E942E268091870490918804F3
:104EB0000E94202660918B0470918C0480E090E029
:104EC0000E942E2680918704909188040E942026BB
:104ED00060918B0470918C0480E090E00E942E26FB
:104EE0008091890490918A040E94202660918B040D
:104EF00070918C0480E090E00E942E2680918904BD
:104F000090918A040E94202660918B0470918C04F9
:104F100080E090E00E942E26809187049091880482
:104F20000E94202660918B0470918C0480E090E0B8
:104F30000E942E2680918704909188040E9420264A
:104F400060918B0470918C0480E090E00E942E268A
:104F50008091890490918A040E94202660918B049C
:104F600070918C0480E090E00E942E26809189044C
:104F700090918A040E94202660918B0470918C0489
:104F800080E090E00E942E268091890490918A040E
:104F90000E94202660918B0470918C0480E090E048
:104FA0000E942E268091890490918A040E942026D6
:104FB00060918B0470918C0480E090E00E942E261A
:104FC00080918704909188040E94202660918B0430
:104FD00070918C0480E090E00E942E2680918704DE
:104FE000909188040E94202660918B0470918C041B
:104FF00080E090E00E942E268091890490918A049E
:105000000E94202660918B0470918C0480E090E0D7
:105010000E942E268091890490918A040E94202665
:1050200060918B0470918C0480E090E00E942E26A9
:1050300080918704909188040E94202660918B04BF
:1050400070918C0480E090E00E942E26809187046D
:10505000909188040E94202660918B0470918C04AA
:1050600080E090E00C942E2660EF73E280E090E008
:105070000E942E268CED95E00E94202660918B04E4
:1050800070918C0480E090E00E942E26809187042D
:10509000909188040E94202660918B0470918C046A
:1050A00080E090E00E942E268091870490918804F1
:1050B0000E94202660918B0470918C0480E090E027
:1050C0000E942E268091890490918A040E942026B5
:1050D00060918B0470918C0480E090E00E942E26F9
:1050E0008091890490918A040E94202660918B040B
:1050F00070918C0480E090E00E942E2680918704BD
:10510000909188040E94202660918B0470918C04F9
:1051100080E090E00E942E26809187049091880480
:105120000E94202660918B0470918C0480E090E0B6
:105130000E942E268091890490918A040E94202644
:1051400060918B0470918C0480E090E00E942E2688
:105150008091890490918A040E94202660918B049A
:1051600070918C0480E090E00E942E26809187044C
:10517000909188040E94202660918B0470918C0489
:1051800080E090E00E942E26809187049091880410
:105190000E94202660918B0470918C0480E090E046
:1051A0000E942E268091890490918A040E942026D4
:1051B00060918B0470918C0480E090E00E942E2618
:1051C0008091890490918A040E94202660918B042A
:1051D00070918C0480E090E00E942E2680918704DC
:1051E000909188040E94202660918B0470918C0419
:1051F00080E090E00E942E268091870490918804A0
:105200000E94202660918B0470918C0480E090E0D5
:105210000E942E268091890490918A040E94202663
:1052200060918B0470918C0480E090E00E942E26A7
:105230008091890490918A040E94202660918B04B9
:1052400070918C0480E090E00C942E2660EF73E265
:1052500080E090E00E942E268CED95E00E942026B2
:1052600060918B0470918C0480E090E00E942E2667
:105270008091890490918A040E94202660918B0479
:1052800070918C0480E090E00E942E268091890429
:1052900090918A040E94202660918B0470918C0466
:1052A00080E090E00E942E268091870490918804EF
:1052B0000E94202660918B0470918C0480E090E025
:1052C0000E942E2680918704909188040E942026B7
:1052D00060918B0470918C0480E090E00E942E26F7
:1052E0008091890490918A040E94202660918B0409
:1052F00070918C0480E090E00E942E2680918904B9
:1053000090918A040E94202660918B0470918C04F5
:1053100080E090E00E942E2680918704909188047E
:105320000E94202660918B0470918C0480E090E0B4
:105330000E942E2680918704909188040E94202646
:1053400060918B0470918C0480E090E00E942E2686
:105350008091890490918A040E94202660918B0498
:1053600070918C0480E090E00E942E268091890448
:1053700090918A040E94202660918B0470918C0485
:1053800080E090E00E942E2680918704909188040E
:105390000E94202660918B0470918C0480E090E044
:1053A0000E942E2680918704909188040E942026D6
:1053B00060918B0470918C0480E090E00E942E2616
:1053C0008091890490918A040E94202660918B0428
:1053D00070918C0480E090E00E942E2680918904D8
:1053E00090918A040E94202660918B0470918C0415
:1053F00080E090E00E942E2680918704909188049E
:105400000E94202660918B0470918C0480E090E0D3
:105410000E942E2680918704909188040E94202665
:1054200060918B0470918C0480E090E00C942E26A7
:1054300080919006882309F445C086E392E00E949B
:10544000E821892B31F081E080938F0610928E063F
:105450000BC086E192E00E94E821892B51F0109266
:105460008F0681E080938E0610928D0610928C0636
:1054700027C086EF91E00E94E821892B41F010922D
:105480008F0610928E0681E080938D06EFCF86ED19
:1054900091E00E94E821892B51F010928F06109222
:1054A0008E0610928D0681E080938C0609C086EBF3
:1054B00091E00E94E821892B19F081E080938B060E
:1054C0001092900608950F931F93CF93DF938091CE
:1054D0008A068823B9F12091670630E0409166067C
:1054E00050E06091650670E0C0916406D0E0E8E6A7
:1054F000F6E0A2E5B5E001E010E08081918182173D
:10550000930738F04817590720F011961C921E9205
:1055100009C08617970730F0C817D90718F01196F9
:105520001C930E9311921192129686E0EA38F807B6
:1055300021F76FE173E082E795E00E94C51181E0F9
:1055400080939006DF91CF911F910F91089594E081
:105550009093BC001092B9009FEF9093B80094EA2A
:105560009093BC009091BC0097FFFCCF92E4909385
:10557000BB0094E89093BC009091BC0097FFFCCFD7
:10558000E82F880FFF0BE255FE4F80818093BB0010
:1055900084E88093BC008091BC0087FFFCCF84E945
:1055A0008093BC00089540E050E0BA0180E296E0AC
:1055B0000E94B117109298041092970410922F0530
:1055C000109251050E9432128AEC9DE090934004A3
:1055D00080933F048BEC9DE09093420480934104C0
:1055E000E0918205F091830582E08083E0917E0561
:1055F000F0917F051082E0918005F09181058FEC9C
:10560000808310928A05E0918605F091870586E0F7
:105610008083E0918405F09185058081806180839D
:10562000E0918405F0918505808188608083E09118
:105630008405F0918505808180688083E0918405F0
:10564000F091850580818F7D8083529880916900DB
:10565000816080936900E89A16BC14BC15BC85B5BE
:10566000856085BD80916E00816080936E0085E0CD
:105670008093810010928500109284008093B10085
:105680001092B20078940E94631B81110DC064E9EE
:1056900072E082E795E00E94D42182E795E00E94C3
:1056A000800D81E090E0089569E173E082E795E084
:1056B0000E94D4218CED95E090938C0480938B0410
:1056C00080EA9FE0909388048093870480E49FE1C0
:1056D00090938A048093890487E0809367068BE027
:1056E000809366068CE08093650681E18093640672
:1056F0000E94430380E090E00895E2E7F5E0138222
:10570000128288EE93E0A0E0B0E084839583A683C4
:10571000B7832EE231E03183208325EC30E03587FA
:10572000248724EC30E03787268720EC30E0318B6B
:10573000208B21EC30E0338B228B22EC30E0358B58
:10574000248B26EC30E0378B268B118E128E138E35
:10575000148EEFE0F6E01382128284839583A68391
:10576000B78380E491E091838083A0E2B6E0139652
:105770001C921E92129720EF30E015963C932E93C8
:10578000149780E491E017969C938E931697199640
:105790003C932E9318971B969C938E931A9756962C
:1057A0001C9256971D961C921E921C971F961C9237
:1057B0001E921E9741E055964C93559754964C93E4
:1057C00054976FEF7FEF53967C936E935297519659
:1057D0007C936E93509757964C93579758961C927C
:1057E00058975A961C921E925997D5961C92D59707
:1057F0004FEFD6964C93D6974AE0D7964C93D797CF
:1058000049E0D8964C93D897DA961C921E92D99775
:10581000DC961C921E92DB97DD961C92DD97DE963D
:105820001C92DE9710925F0610926006109261063D
:105830001092620643E656E090965C934E935F9713
:10584000ECE1F6E0E491F0E0EE0FFF1FE75FF94FC7
:10585000459154915E965C934E935D97EEEFF5E023
:105860004491D3964C93D397EDE1F6E0E491F0E0C8
:10587000EE0FFF1FE75FF94F659174915C967C9383
:105880006E935B97EFEFF5E0E491D196EC93D197AF
:10589000E095D296EC93D297E42FE095D496EC93D2
:1058A000D49742E851E04D935C9330931F062093C8
:1058B0001E0690931D0680931C060E94B32C26E0C2
:1058C00030E040E050E00E94202D60931B060895D8
:1058D0008F929F92AF92BF92CF92DF92EF92FF9200
:1058E000CF93DF93EC01688179818A819B81611577
:1058F00071058105910521F464E279ED8BE597E06E
:105900002DE133EF41E050E00E94202D49015A0182
:105910009B01AC01A7EAB1E40E943F2D6B017C0121
:10592000ACEEB4EFA50194010E944D2DDC01CB013A
:105930008C0D9D1DAE1DBF1DB7FF03C00197A109B2
:10594000B04888839983AA83BB83BC01CD019F772C
:10595000DF91CF91FF90EF90DF90CF90BF90AF900D
:105960009F908F9008958F929F92AF92BF92CF9207
:10597000DF92EF92FF92609108017091090180918E
:105980000A0190910B01611571058105910521F4C2
:1059900064E279ED8BE597E02DE133EF41E050E0F3
:1059A0000E94202D49015A019B01AC01A7EAB1E4F4
:1059B0000E943F2D6B017C01ACEEB4EFA501940178
:1059C0000E944D2DDC01CB018C0D9D1DAE1DBF1D18
:1059D000B7FF03C00197A109B048809308019093D5
:1059E0000901A0930A01B0930B01BC01CD019F777F
:1059F000FF90EF90DF90CF90BF90AF909F908F90EF
:105A00000895609308017093090180930A019093AF
:105A10000B010895F999FECF92BD81BDF89A99279F
:105A200080B50895262FF999FECF1FBA92BD81BD8A
:105A300020BD0FB6F894FA9AF99A0FBE0196089510
:105A4000052E97FB1EF400940E94372D57FD07D0BA
:105A50000E94522D07FC03D04EF40C94372D509524
:105A60004095309521953F4F4F4F5F4F089590954A
:105A70008095709561957F4F8F4F9F4F08950E943D
:105A8000742DA59F900DB49F900DA49F800D911D26
:105A900011240895B7FF0C943F2D0E943F2D821BC7
:105AA000930B0895A1E21A2EAA1BBB1BFD010DC08A
:105AB000AA1FBB1FEE1FFF1FA217B307E407F507BE
:105AC00020F0A21BB30BE40BF50B661F771F881F9A
:105AD000991F1A9469F760957095809590959B0130
