:100000000C9415030C9492060C943D030C943D0340
:100010000C943D030C943D030C943D030C943D0360
:100020000C943D030C943D030C943D030C943D0350
:100030000C943D030C943D030C943D030C943D0340
:100040000C948E150C943D030C94260C0C94000C0F
:100050000C943D030C943D030C943D030C943D0320
:100060000C94CF0C0C943D030000000024002700EA
:100070002A0000000008000201000003040700003D
:1000800000000000000000000000003E5B4F5B3EEF
:100090003E6B4F6B3E1C3E7C3E1C183C7E3C181C4D
:1000A000577D571C1C5E7F5E1C00183C1800FFE744
:1000B000C3E7FF0018241800FFE7DBE7FF30483AEA
:1000C000060E2629792926407F050507407F05254C
:1000D0003F5A3CE73C5A7F3E1C1C08081C1C3E7FD4
:1000E00014227F22145F5F005F5F06097F017F009B
:1000F0006689956A606060606094A2FFA2940804BB
:100100007E040810207E201008082A1C08081C2ADB
:1001100008081E101010100C1E0C1E0C30383E3833
:1001200030060E3E0E06000000000000005F0000DA
:100130000007000700147F147F14242A7F2A12234B
:100140001308646236495620500008070300001C5B
:100150002241000041221C002A1C7F1C2A08083E64
:100160000808008070300008080808080000606077
:100170000020100804023E5149453E00427F4000E5
:1001800072494949462141494D331814127F1027BD
:10019000454545393C4A494931412111090736490C
:1001A000494936464949291E0000140000004034E0
:1001B00000000008142241141414141400412214E5
:1001C0000802015909063E415D594E7C1211127C0C
:1001D0007F494949363E414141227F4141413E7F6D
:1001E000494949417F090909013E414151737F084D
:1001F00008087F00417F41002040413F017F0814F3
:1002000022417F404040407F021C027F7F04081053
:100210007F3E4141413E7F090909063E4151215E31
:100220007F09192946264949493203017F01033FC5
:100230004040403F1F2040201F3F4038403F631454
:1002400008146303047804036159494D43007F4156
:1002500041410204081020004141417F0402010293
:1002600004404040404000030708002054547840B8
:100270007F284444383844444428384444287F384C
:100280005454541800087E090218A4A49C787F08CE
:1002900004047800447D40002040403D007F102849
:1002A000440000417F40007C047804787C0804040A
:1002B000783844444438FC1824241818242418FCA2
:1002C0007C08040408485454542404043F44243C47
:1002D0004040207C1C2040201C3C4030403C4428B6
:1002E0001028444C9090907C4464544C4400083650
:1002F00041000000770000004136080002010204BE
:10030000023C2623263C1EA1A161123A4040207ADD
:100310003854545559215555794122545478422125
:100320005554784020545579400C1E52721239555C
:100330005555593954545459395554545800004559
:100340007C410002457D420001457C407D12111236
:100350007DF0282528F07C545545002054547C54C9
:100360007C0A097F4932494949323A4444443A3285
:100370004A4848303A4141217A3A42402078009D2B
:10038000A0A07D3D4242423D3D4040403D3C24FFD7
:100390002424487E4943662B2FFC2F2BFF0929F686
:1003A00020C0887E090320545479410000447D41D7
:1003B0003048484A32384040227A007A0A0A727D30
:1003C0000D19317D2629292F28262929292630484B
:1003D0004D4020380808080808080808382F10C8B9
:1003E000ACBA2F102834FA00007B000008142A143D
:1003F0002222142A14085500550055AA55AA55AAB8
:10040000FF55FF55FF000000FF00101010FF001403
:100410001414FF001010FF00FF1010F010F014145F
:1004200014FC001414F700FF0000FF00FF1414F484
:1004300004FC141417101F10101F101F1414141F85
:1004400000101010F0000000001F101010101F10FE
:10045000101010F010000000FF10101010101010FD
:100460001010FF10000000FF140000FF00FF00004C
:100470001F10170000FC04F414141710171414F4C0
:1004800004F40000FF00F714141414141414F700FB
:10049000F7141414171410101F101F141414F4144C
:1004A0001010F010F000001F101F0000001F1400BB
:1004B0000000FC140000F010F01010FF10FF1414E6
:1004C00014FF141010101F00000000F010FFFFFFB9
:1004D000FFFFF0F0F0F0F0FFFFFF0000000000FF72
:1004E000FF0F0F0F0F0F3844443844FC4A4A4A3478
:1004F0007E02020606027E027E026355494163388F
:1005000044443C04407E201E2006027E020299A53F
:10051000E7A5991C2A492A1C4C7201724C304A4D9D
:100520004D303048784830BC625A463D3E494949D2
:10053000007E0101017E2A2A2A2A2A44445F44447B
:1005400040514A444040444A51400000FF0103E00A
:1005500080FF000008086B6B083612362436060F41
:10056000090F06000018180000001010003040FFAE
:100570000101001F01011E00191D1712003C3C3C27
:100580003C0000000000EF03038002CF0300C130F5
:10059000ED0464031281E803850078CB05392C0053
:1005A0003402F70120EA020000C00123C10110C596
:1005B000023E28C701863601483701003A0155B18D
:1005C000020018B603088227F20100260101E00F9D
:1005D0000F312B0C0E084EF1370710030E0900E106
:1005E0000F000E1403110731C148080F0C31360FEC
:1005F00011802980000102040810204080010204BB
:100600000810200102040810200000000025002826
:10061000002B000404040404040404020202020285
:100620000203030303030300502311241FBECFEF73
:10063000D8E0DEBFCDBF13E0A0E0B1E0E8ECFAE423
:1006400002C005900D92A830B107D9F725E0A8E0C7
:10065000B3E001C01D92A836B207E1F713E0C5E18F
:10066000D3E004C02197FE010E945725C431D10771
:10067000C9F70E94A6220C9462250C94000094E015
:100680009093BC001092B9009FEF9093B80094EA49
:100690009093BC009091BC0097FFFCCF92E49093A4
:1006A000BB0094E89093BC009091BC0097FFFCCFF6
:1006B000E82F880FFF0BE65EFE4F80818093BB0022
:1006C00084E88093BC008091BC0087FFFCCF84E964
:1006D0008093BC000895089580E090E0089526E09E
:1006E000969587952A95E1F71092B2002091B20075
:1006F00030E028173907D0F30895CF92DF92EF92B8
:10070000FF926B017C01F8941C141D041E041F044D
:1007100084F45E9A86E090E00E946F035E9886E023
:1007200090E00E946F038AE1C81AD108E108F1083D
:10073000EBCF7894FF90EF90DF90CF900895CF9219
:10074000DF92EF92FF920F931F93CF93DF9387E097
:100750000E943F0326E0C22ED12CE12CF12C909177
:100760001F0580911603981309C00E948624A701D3
:1007700096010E94E52460931F05F1CF60E070E0D0
:1007800084E295E00E945C091092310510923005D8
:100790001092330510923205E0911603EE0FFF0B15
:1007A000E45FFE4F808191819093370580933605F9
:1007B000909335058093340583E0809338058093CA
:1007C000390566E572E084E295E00E94D815109242
:1007D00031051092300582E390E0909333058093C9
:1007E0003205C2E0C0933805C09339058FEF9FEF03
:1007F00090933705809336059093350580933405A3
:100800006BE572E084E295E00E94D81504E110E007
:10081000109331050093300584E690E09093330502
:1008200080933205C0933805C093390560E772E0C4
:1008300084E295E00E94D8151093310500933005AD
:1008400086E990E0909333058093320569E772E082
:1008500084E295E00E94D81510933105009330058D
:1008600088EC90E0909333058093320567E872E05E
:1008700084E295E00E94D815E0911603EE0FFF0B7D
:10088000E45FFE4F2081318143E750E062E870E091
:1008900084E690E00E94131D0E94670F81110AC038
:1008A00063E972E086E794E00E94D81586E794E059
:1008B0000E94A607C0E00E94B31C882309F429C245
:1008C0008091C503813009F0B6C18091C6038130A3
:1008D00009F0B1C1C13009F0A6C060E070E084E267
:1008E00095E00E945C09109231051092300510923B
:1008F0003305109232058FEF9FEF90933705809369
:100900003605909335058093340583E08093380550
:10091000809339056CE772E084E295E00E94D81577
:1009200080E090E00E94DD24D82E81E090E00E94DB
:10093000DD24D82F109231051092300502E310E02B
:100940001093330500933205C2E0C0933805C0937D
:1009500039056DEA72E084E295E00E94D81598E7C7
:10096000E92EF12CF0923105E09230051093330519
:10097000009332058D2DDD0C990B0E94C70F10924C
:1009800031051092300504E610E010933305009312
:100990003205C0933805C093390568EB72E084E2F4
:1009A00095E00E94D815F0923105E0923005109341
:1009B0003305009332058D2FDD0F990B0E94C70F71
:1009C000109231051092300588EC90E09093330539
:1009D00080933205C0933805C093390563EC72E00B
:1009E00084E295E00E94D81516BC86B58A3FE8F3EC
:1009F0000E94B31C8823C1F38091C5038111F8CFF5
:100A00008091C6038111F4CF0E94B31C882381F327
:100A10008091C5038130C1F78091C6038130A1F771
:100A20000E949F03F1CFC23009F073C160E070E013
:100A300084E295E00E945C09109231051092300525
:100A400010923305109232058FEF9FEF9093370588
:100A500080933605909335058093340583E0809329
:100A60003805809339056AE872E084E295E00E94D7
:100A7000D815109231051092300582E390E09093E2
:100A8000330580933205C0933805C09339056BED6B
:100A900072E084E295E00E94D8150CE011E0CCE60B
:100AA000D0E082E3E82EF12CF0923105E09230059F
:100AB000D0933305C0933205F801819191918F0154
:100AC00090933705809336059093350580933405D0
:100AD00061EF72E084E295E00E94D8156296CA3E0A
:100AE000D10511F7E0911603F2E1EF02C0011124E4
:100AF000EE0FFF0BE45FFE4F20813181AC014D58BA
:100B00005F4FBC016E577F4F8C599F4F0E94131D42
:100B10000E94670F81110AC063E972E086E794E0E2
:100B20000E94D81586E794E00E94A6070E94B31C95
:100B3000882309F4EEC08091C503813039F4809197
:100B4000C603813019F40E949F03F0CF8091BE0349
:100B50008F3FB9F580911603882341F322E1820289
:100B6000C0011124AC014D585F4FBC016E577F4F3F
:100B700020E030E08C599F4F0E94131DE091160336
:100B8000E150E0931603F2E1EF02C0011124EE0FF1
:100B9000FF0BE45FFE4F20813181AC014D585F4F68
:100BA000BC016E577F4F8C599F4F0E94131D0E94AE
:100BB000B31C882309F4BACF8091BE03883CB8F7F0
:100BC000B5CF8111B3CF80911603863009F4AECF33
:100BD00022E18202C0011124AC014D585F4FBC01DB
:100BE0006E577F4F20E030E08C599F4F0E94131DBD
:100BF000E0911603EF5FE0931603F2E1EF02C0010C
:100C00001124EE0FFF0BE45FFE4F20813181AC0118
:100C10004D585F4FBC016E577F4F8C599F4F0E94BC
:100C2000131D0E94B31C882309F480CF8091BE035A
:100C30008333B8F37BCF8091BE038F3FA1F5CC23E4
:100C400009F439CE22E3C202C0011124AC014D588F
:100C50005F4FBC016E577F4F20E030E08C599F4FB3
:100C60000E94131DC150E2E3CE02C0011124E091A5
:100C70001603EE0FFF0BE45FFE4F20813181AC01C4
:100C80004D585F4FBC016E577F4F8C599F4F0E944C
:100C9000131D0E94B31C882309F40DCE8091BE035E
:100CA000883CB8F708CE811106CEC23009F403CED5
:100CB000F2E3CF02C0011124AC014D585F4FBC01DB
:100CC0006E577F4F20E030E08C599F4F0E94131DDC
:100CD000CF5F22E3C202C0011124E0911603EE0FA0
:100CE000FF0BE45FFE4F20813181AC014D585F4F17
:100CF000BC016E577F4F8C599F4F0E94131D0E945D
:100D0000B31C882309F4D7CD8091BE038333B8F395
:100D1000D2CDDF91CF911F910F91FF90EF90DF9097
:100D2000CF9008951F920F920FB60F9211242F9318
:100D30003F938F939F93AF93BF93EF93FF934A9B00
:100D40004CC08091840090918500813D974048F08F
:100D500010921103109212031092130310921403B5
:100D600026C08091110390911203A0911303B091BA
:100D700014032091840030918500880F991FFC0195
:100D8000EE58FC4F31832083809111039091120320
:100D9000A0911303B09114030196A11DB11D80937E
:100DA000110390931203A0931303B09314031092B2
:100DB0008500109284008091110390911203A091FC
:100DC0001303B09114034097A105B10521F481E00C
:100DD0008093150302C010921503FF91EF91BF910C
:100DE000AF919F918F913F912F910F900FBE0F90D8
:100DF0001F901895FC01538D448D252F30E0842FD2
:100E000090E0821B930B541710F0CF960895019732
:100E10000895FC01918D828D981761F0828DDF011C
:100E2000A80FB11D5D968C91928D9F5F9F73928FDD
:100E300090E008958FEF9FEF0895FC01918D828DD2
:100E4000981731F0828DE80FF11D858D90E008959F
:100E50008FEF9FEF0895FC01918D228D892F90E0F7
:100E6000805C9F4F821B91098F7399270895FC0125
:100E7000848DDF01A80FB11DA35ABF4F2C91848D23
:100E800090E001968F739927848FA689B7892C9358
:100E9000A089B1898C91837080648C93938D848DAB
:100EA000981306C00288F389E02D80818F7D8083AE
:100EB0000895EF92FF920F931F93CF93DF93EC016E
:100EC00081E0888F9B8D8C8D981305C0E889F98906
:100ED000808185FD26C0F62E0B8D10E00F5F1F4F21
:100EE0000F731127E02E8C8DE8120CC00FB607FC93
:100EF000FACFE889F989808185FFF5CFCE010E947C
:100F00003707F1CF8B8DFE01E80FF11DE35AFF4F3C
:100F1000F0829FB7F8940B8FEA89FB898081806209
:100F20000AC09FB7F894EE89FF896083E889F98940
:100F300080818370806480839FBF81E090E0DF9137
:100F4000CF911F910F91FF90EF900895CF93DF9372
:100F5000EC01888D8823C9F0EA89FB89808185FDB1
:100F600005C0A889B9898C9186FD0FC00FB607FC12
:100F7000F5CF808185FFF2CFA889B9898C9185FF53
:100F8000EDCFCE010E943707E7CFDF91CF910895D3
:100F900040913C03262F30E0240F311D21323105D2
:100FA000DCF420912C042430C9F4FC0180E090E0B2
:100FB000861758F430913C032191DC01A45EBC4FAC
:100FC000A30FB11D2C930196F3CF80913C03680FC2
:100FD00060933C0380E0089581E0089582E00895E5
:100FE000089508950895E0919C0380919B03E8176C
:100FF00030F4F0E0E356FC4F808190E008958FEFED
:101000009FEF089590919C0380919B03981750F453
:10101000E92FF0E0E356FC4F208130E09F5F909392
:101020009C0302C02FEF3FEFC901089580919B03FD
:1010300090E020919C03821B91090895CF92DF924A
:10104000EF92FF920F931F93CF93DF937C01CB011D
:101050008A0120913204222389F0EB016B01C40E36
:10106000D51ECC15DD0569F06991D701ED91FC9194
:101070000190F081E02DC7010995F3CF642F0E9404
:10108000C807C801DF91CF911F910F91FF90EF909A
:10109000DF90CF900895CF93DF931F92CDB7DEB747
:1010A0006983209132042223D1F02091550420320B
:1010B00040F021E030E0FC013383228380E090E0C7
:1010C00015C080913304E82FF0E0EC5CFB4F998170
:1010D00090838F5F809333048093550405C061E053
:1010E000CE0101960E94C80781E090E00F90DF9149
:1010F000CF9108950895FC016370668B848195817A
:1011000026813781613039F0633029F091878087FB
:1011100033872287089531872087938782870895B0
:101120006F927F928F929F92AF92BF92CF92DF92F7
:10113000EF92FF920F931F93CF93DF93EC014B013C
:101140005A0169013801E881F9810284F385E02DB3
:101150000995E881F9810288F389E02D87019601DC
:10116000A501B401CE010995A501460D571D4150B9
:101170005109E881F9810288F389E02D9601B401D3
:10118000CE010995E881F9810088F189E02D93016C
:10119000A501B401CE010995C80CD91CB601615056
:1011A0007109E881F9810088F189E02D9301A50199
:1011B000CE010995E881F9810688F789E02DCE01F5
:1011C000DF91CF911F910F91FF90EF90DF90CF9023
:1011D000BF90AF909F908F907F906F9009948F9267
:1011E0009F92AF92BF92CF92DF92EF92FF920F93B6
:1011F0001F93CF93DF934C016B015A01E901DC018E
:10120000ED91FC916217730781F40417150724F41C
:101210008B2D5801042F182F0A191B0998012F5FD5
:101220003F4F048CF58DE02D12C04017510709F592
:101230002617370724F48D2D6901C62FD82F9E015C
:101240002C193D092F5F3F4F068CF78DE02D87014C
:10125000A501B601C4010995DF91CF911F910F91AE
:10126000FF90EF90DF90CF90BF90AF909F908F90C6
:1012700008950284F385E02D0995D401ED91FC9148
:101280000488F589E02D9E01A501B601C4010995E8
:10129000D401ED91FC910688F789E02DC401DF911E
:1012A000CF911F910F91FF90EF90DF90CF90BF9063
:1012B000AF909F908F900994EF92FF920F931F939E
:1012C000DC011A960D911C911B9718962D913C915B
:1012D0001997ED91FC9100A0F1A1E02D7B0140E078
:1012E00050E060E070E009951F910F91FF90EF9042
:1012F00008954F925F926F927F928F929F92AF92DA
:10130000BF92CF92DF92EF92FF920F931F93CF93F2
:10131000DF936C012B015A0139014801DC01ED9189
:10132000FC910284F385E02D0995E201640C751CA3
:10133000D601ED91FC91C615D7055CF40088F189C2
:10134000E02D87019401A501BE01C60109952196F2
:10135000EFCF0688F789E02DC601DF91CF911F916D
:101360000F91FF90EF90DF90CF90BF90AF909F9044
:101370008F907F906F905F904F9009948F929F9283
:10138000AF92BF92CF92DF92EF92FF920F931F9393
:10139000CF93DF93EC015B014A016901E881F98198
:1013A0000284F385E02D099595012C0D3D1D2150FA
:1013B0003109E881F9810488F589E02D78018401FB
:1013C000A401B501CE010995E881F9810688F78964
:1013D000E02DCE01DF91CF911F910F91FF90EF9003
:1013E000DF90CF90BF90AF909F908F9009948F9295
:1013F0009F92AF92BF92CF92DF92EF92FF920F93A4
:101400001F93CF93DF93EC015B014A0169017801DF
:10141000E881F9810284F385E02D0995C80CD91C77
:10142000860101501109E881F9810488F589E02DD0
:101430009501A401B501CE010995E881F9810688DD
:10144000F789E02DCE01DF91CF911F910F91FF9091
:10145000EF90DF90CF90BF90AF909F908F900994C6
:10146000EF92FF920F931F93DC01ED91FC9100A08E
:10147000F1A1E02D09951F910F91FF90EF90089534
:101480000F931F93DC01ED91FC91068CF78DE02DFD
:1014900009951F910F9108950F931F93DC01ED9112
:1014A000FC91048CF58DE02D09951F910F91089505
:1014B000DC01ED91FC910084F185E02D09942F92DF
:1014C0003F924F925F926F927F928F929F92AF92D4
:1014D000BF92CF92DF92EF92FF920F931F93CF9321
:1014E000DF9300D000D000D0CDB7DEB72C017E83D3
:1014F0006D836A015901C801FC82EB824801841A9C
:10150000950A97FE03C091948194910835012D812D
:101510003E81621A730A77FE03C071946194710868
:10152000681479045CF43A2D2B2D5C01832F922FE3
:101530003D812E81DE82CD82C32ED22EAD81BE8131
:10154000AA16BB065CF43C2D2D2D6C01832F922F27
:101550003D812E81BE82AD82A32EB22E85012D81CA
:101560003E81021B130B1C012C183D0837FE03C0E3
:10157000319421943108780117FF03C03FEFE31A3B
:10158000F30AF594E794C816D9062CF08FEF9FEF75
:101590009A83898304C0A1E0B0E0BA83A9832D8136
:1015A0003E81A216B30624F1D201ED91FC91048490
:1015B000F585E02D2B813C816814790424F44D815C
:1015C0005E81B60103C0A6016D817E81C2010995CD
:1015D000E218F308F7FE06C029813A81C20ED31E35
:1015E000E00EF11E8D819E8101969E838D83D7CF63
:1015F00026960FB6F894DEBF0FBECDBFDF91CF9118
:101600001F910F91FF90EF90DF90CF90BF90AF9020
:101610009F908F907F906F905F904F903F902F9012
:1016200008950E945D258F929F92AF92CF92EF9284
:10163000FF920F931F93CF93DF93EC01262F898D99
:101640009A8D009709F042C06A3059F41D861C86B5
:101650002D898E859F8538E0239F800D911D112453
:1016600043C06D3009F4AAC08F898823C9F03C8932
:101670008C859D8546E0349F800D911D1124488501
:1016800059854817590764F41D861C863D898E8547
:101690009F8548E0349F800D911D11249F878E8780
:1016A000EA88FB88088919894E855F856C857D8568
:1016B000AD88CC88CE010E94AC122C898C859D858A
:1016C00036E0239F800D911D11243EC06A3079F4CD
:1016D0001D861C862D89FC013896E4918E859F8598
:1016E0002E9F800D911D11249F878E8767C06D30BE
:1016F00009F464C0FC0134963491631708F45EC0A9
:101700003296E491E61708F459C0462F431B342F54
:10171000FC0132968590949047E0349F800C911C98
:101720001124F401329634913196E491332311F06F
:10173000E1110DC0F4013496E4912C898C859D85CE
:10174000E29F800D911D11249D878C8737C0F40185
:10175000359644915F89552319F15C89E32FF0E0B8
:10176000E40FF11D47FDFA955E9FB0015F9F700D7C
:1017700011244C855D85460F571F68857985641750
:10178000750774F41D861C863D89FC013896E4912A
:101790008E859F853E9F800D911D11249F878E878A
:1017A000EA88FB88088919894E855F856C857D8567
:1017B000AD88CC88CE010E94AC12BCCF81E090E015
:1017C000DF91CF911F910F91FF90EF90CF90AF904D
:1017D0009F908F9008956115710579F0FB0101903C
:1017E0000020E9F73197AF01461B570BDC01ED9163
:1017F000FC910280F381E02D099480E090E008954F
:101800001F920F920FB60F9211242F933F934F9375
:101810005F936F937F938F939F93AF93BF93EF9358
:10182000FF9386E794E00E943707FF91EF91BF9105
:10183000AF919F918F917F916F915F914F913F9168
:101840002F910F900FBE0F901F9018951F920F921F
:101850000FB60F9211242F938F939F93EF93FF93C3
:10186000E0918604F09187048081E0918C04F091EE
:101870008D0482FD12C0908180918F048F5F8F73E1
:1018800020919004821751F0E0918F04F0E0EA5823
:10189000FB4F958F80938F0401C08081FF91EF9162
:1018A0009F918F912F910F900FBE0F901F901895C1
:1018B00010922C0481E080932B041092060461E0C6
:1018C00082E10E94E01461E083E10E94E014E9EB10
:1018D000F0E080818E7F808380818D7F808388E4AB
:1018E0008093B80085E48093BC000895CF93DF9384
:1018F00091E090931B038823B9F0C091B800D09178
:10190000BA008091BC008A7B8093BC0060E082E1D9
:101910000E94E01460E083E10E94E0140E94580CF1
:10192000D093BA00C093B800DF91CF91089585EDB0
:101930008093BC0080912E0490912F04A0913004DC
:10194000B09131040796A11DB11D23E0B695A7956E
:10195000979587952A95D1F72091BC0024FF1CC04C
:1019600040912E0450912F04609130047091310405
:10197000452B462B472B81F30097A105B10541F07C
:101980002AE22A95F1F700C00197A109B109E4CF35
:1019900080912D040C94760C10922C0408951F92C3
:1019A0000F920FB60F9211242F933F934F935F9393
:1019B0006F937F938F939F93AF93BF93EF93FF9317
:1019C0008091B900887F803609F49CC068F5883220
:1019D00009F45BC090F4803109F454C038F48823D2
:1019E00009F4F6C0883009F44DC0F6C0883109F416
:1019F0004CC0803209F45DC0EFC0803409F468C087
:101A000048F4803309F455C0883309F0E5C0809369
:101A10002A04D8C0803509F44FC0883509F45DC068
:101A2000883409F0D9C0D6C0883909F4C7C0A8F4F1
:101A3000883709F467C038F4883609F463C0803702
:101A400009F460C0C9C0883809F4B8C0803909F405
:101A50005FC0803809F0C0C05BC0803B09F486C01D
:101A600038F4803A09F466C0883A09F47FC0B4C0FB
:101A7000803C09F4A7C0883C09F4A4C0883B09F461
:101A80008AC0AAC08091070410C090912904809157
:101A90002804981770F5E091290481E08E0F809357
:101AA0002904F0E0E85FFB4F80818093BB0085EC68
:101AB00086C080932A048EC0E091290481E08E0FB5
:101AC000809329048091BB00F0E0E85FFB4F8083A6
:101AD00090912904809128046EC0E091290481E04E
:101AE0008E0F809329048091BB00F0E0E85FFB4FEC
:101AF000808380912B0481116DC081E08093060466
:101B000084EA61C083E080932C0410925E03CFCFFF
:101B100080915E03803208F051C0E0915E0381E065
:101B20008E0F80935E038091BB00F0E0E25CFC4F7F
:101B30008083BDCF85EC8093BC0010922C048091F3
:101B40005E03803230F4E0915E03F0E0E25CFC4F33
:101B5000108260915E0370E0E0911903F0911A0326
:101B60008EE393E0099510925E0336C084E0809383
:101B70002C0410923D0310923C03E0911703F09166
:101B80001803099580913C03811105C081E0809381
:101B90003C0310921C03E0913D0381E08E0F809383
:101BA0003D03F0E0E45EFC4F80818093BB009091A8
:101BB0003D0380913C03981708F479CF85E8809322
:101BC000BC000AC085EC8093BC0010922C0404C0B9
:101BD00010922A040E94970CFF91EF91BF91AF9150
:101BE0009F918F917F916F915F914F913F912F9135
:101BF0000F900FBE0F901F901895FC01A5A1B6A1E4
:101C00009C9182A589238C93A5A1B6A19C9181A5C5
:101C1000892B8C9308950F931F93CF93DF93EC013F
:101C20008B018DA9811109C01EBD0DB407FEFDCF2A
:101C30000EBD0DB407FEFDCF2FC08130E9F480E169
:101C4000E9A1FAA1208117FF03C09DA1922B02C038
:101C50009EA192239083EBA1FCA120819FA1922BB6
:101C60009083EBA1FCA1208198A592239083000F83
:101C7000111F815029F710C0EF8DF8A11083CE01FC
:101C80000E94FD0DEF8DF8A10083CE01DF91CF9171
:101C90001F910F910C94FD0DDF91CF911F910F912A
:101CA0000895CF93DF93EC01ED8DFE8D90818CA98B
:101CB00089238083CE010E945322ED8DFE8D908179
:101CC0008BA9892B8083DF91CF910895CF92DF92EA
:101CD000EF92FF920F931F93CF93DF936C017A01E2
:101CE0008B01C0E0D0E0CE15DF0581F0D8016D9109
:101CF0008D01D601ED91FC910190F081E02DC6019E
:101D00000995892B11F02196EECF7E01C701DF9155
:101D1000CF911F910F91FF90EF90DF90CF9008959A
:101D20002F923F924F925F926F927F928F929F92EB
:101D3000AF92BF92CF92DF92EF92FF920F931F93D9
:101D4000CF93DF93CDB7DEB72A970FB6F894DEBFF7
:101D50000FBECDBF5C017E836D835A8749873701F3
:101D600081E090E07C01E41AF50ACA019195819521
:101D70009109AC01440F551F5C834B83C801019648
:101D80009A8389831B012C0189849A84CC24C3946F
:101D9000D12C922F91709F8322702887C6010197C2
:101DA00029853A85821793070CF078C0F7FC0CC0A0
:101DB000215031093A8729874B815C814E5F5F4F03
:101DC0005C834B83E40EF51EC601880F991F0196B4
:101DD000E80EF91E89859A858C159D0594F19F81E1
:101DE0009923B1F029853A85220F331F49815A8101
:101DF000240F351F83014D815E8189859A85481B9B
:101E0000590BB5016C0D7D1D84E295E00E946F2099
:101E100098859923B1F029853A85220F331F49818E
:101E20005A81240F351F83014D815E8189859A85F2
:101E3000481B590BB5016C197D0984E295E00E949D
:101E40006F2029853A852815390551F42FEFC21ADC
:101E5000D20A31E0231A310842E0440E511C9ECFD1
:101E60003F81332351F083019201A101B501680D37
:101E7000791D84E295E00E946F204885411103C0DE
:101E800089849A84E3CFB5016819790983019201A5
:101E9000A10184E295E00E946F20F2CF2A960FB64E
:101EA000F894DEBF0FBECDBFDF91CF911F910F9190
:101EB000FF90EF90DF90CF90BF90AF909F908F906A
:101EC0007F906F905F904F903F902F900895CF93A9
:101ED000DF93D1E0D0933204C2E5C0935404109252
:101EE00033041092550480EF90E00E94DD1E85E5DA
:101EF00090E00E94DD1E81E00E94BF1AD093320460
:101F0000C093540410923304109255048BEF90E068
:101F10000E94DD1E80E090E00E94DD1E81E00E94B4
:101F2000BF1A64E08AEF0E94AB1B843061F580E346
:101F30008093DB0388E78093DC0386EE93E0ADEBD0
:101F4000B3E025EC33E0EC01E991CE01CE2FD0E0F7
:101F500044E0D595C7954A95E1F7CE5DDE4F4881BF
:101F600090964C939097EF70F0E0EE5DFE4F4081BD
:101F700091964C93919712962A173B0721F710924E
:101F8000E50381E001C080E0DF91CF9108958F9259
:101F90009F92AF92BF92CF92DF92EF92FF920F93F8
:101FA0001F93CF93DF93CDB7DEB7A1970FB6F89409
:101FB000DEBF0FBECDBF6C01990FEE08FF08F7FE24
:101FC0002DC06DE284E295E00E94130B8C01222764
:101FD0003327A9012C193D094E095F0919A2CE0129
:101FE00081967C019AE0892E912CA12CB12CCA01FA
:101FF000B901A50194010E941725605DF701629364
:102000007F01211531054105510589F7BF0184E2A2
:1020100095E00E94EB0B800F911F1FC0A701960156
:1020200019A28E010F5D1F4F8AE0C82ED12CE12C22
:10203000F12CCA01B901A70196010E941725605D24
:10204000F80162938F01211531054105510589F78A
:10205000BF0184E295E00E94EB0BA1960FB6F894C5
:10206000DEBF0FBECDBFDF91CF911F910F91FF90CB
:10207000EF90DF90CF90BF90AF909F908F9008959A
:102080002F923F924F925F926F927F928F929F9288
:10209000AF92BF92CF92DF92EF92FF920F931F9376
:1020A000CF93DF9300D000D0CDB7DEB71C012B015A
:1020B0005A01690148014217530734F45A8349838E
:1020C00057FF0AC09A0104C03A83298337FF04C02E
:1020D0002F5F3F4F3A83298389819A819595879510
:1020E0009C838B832B813C812530310524F085E056
:1020F00090E09C838B8384E295E00E9489226B8030
:102100007C80660C771C2B813C81220D331D3A8329
:10211000298395012619370974018601A201698175
:102120007A8184E295E00E94F420C618D70831E055
:10213000C31AD1088B819C81480E591EA20CB31C76
:10214000C5012B813C81821B930B860121E04B81D1
:102150005C81B20101970E94900E22E04B815C816C
:10216000B20189819A810E94900E84E295E00F90DD
:102170000F900F900F90DF91CF911F910F91FF90D3
:10218000EF90DF90CF90BF90AF909F908F907F9017
:102190006F905F904F903F902F900C949B222F92C6
:1021A0003F924F925F926F927F928F929F92AF92E7
:1021B000BF92CF92DF92EF92FF920F931F93CF9334
:1021C000DF937C016B01EA0181E090E05C01A41ADD
:1021D000B50A66247724641A750A660C771C00E039
:1021E00010E088248394912C822F8470582E822FA3
:1021F0008270482E822F8870382E2170222E0C1764
:102200001D070CF079C0B7FC06C0219782E0680E6C
:10221000711CA60CB71C0F5F1F4F82E0880E911C2B
:10222000A80CB91C5520C1F02FEF3FEFAE014C0DAB
:102230005D1DB701600F711F84E295E00E94AF2120
:102240002FEF3FEFA601400F511FBE016E0D7F1D06
:1022500084E295E00E94AF214420C1F02FEF3FEFD0
:10226000A6014C1B5D0BB701600F711F84E295E066
:102270000E94AF212FEF3FEFA601401B510BBE0183
:102280006E0D7F1D84E295E00E94AF213320C1F0E6
:102290002FEF3FEFA601400F511FB7016C1B7D0BC5
:1022A00084E295E00E94AF212FEF3FEFAE014C0D8D
:1022B0005D1DB701601B710B84E295E00E94AF21A8
:1022C000222009F49CCF2FEF3FEFA601401B510BBA
:1022D000B7016C1B7D0B84E295E00E94AF212FEFCC
:1022E0003FEFA6014C1B5D0BB701601B710B84E235
:1022F00095E00E94AF2183CFDF91CF911F910F9185
:10230000FF90EF90DF90CF90BF90AF909F908F9015
:102310007F906F905F904F903F902F900895AF9275
:10232000BF92CF92DF92EF92FF920F931F93CF93C2
:10233000DF93EC01E62E8A01F22E0E9480228FA903
:1023400087FD06C0EB8DFC8D90818AA9892380834F
:10235000ED8DFE8D90818CA9892380836E2DCE0119
:102360000E945322ED8DFE8D90818BA9892B808355
:10237000C12CD12CAF2CB12CCA14DB04E4F48DA9F0
:102380007801823059F488A9882341F0F8016191DD
:1023900071917F01CE010E940B0E08C0FFEFEF1A72
:1023A000FF0AF8016491CE010E945322FFEFCF1A79
:1023B000DF0A8701E1CF8FA987FD06C0EB8DFC8D79
:1023C000908189A9892B80838DA981110CC0DF910F
:1023D000CF911F910F91FF90EF90DF90CF90BF9022
:1023E000AF900C949A22DF91CF911F910F91FF90A3
:1023F000EF90DF90CF90BF90AF9008958F929F9213
:10240000AF92BF92CF92DF92EF92FF920F931F9302
:10241000CF93DF93EC014901BE2CAF2CE881F98109
:1024200002A4F3A5E02D09959401D8010E94482546
:10243000611571058105910509F481C02DA921114E
:102440000FC0615071098109910908F478C0AEBCD0
:102450000DB407FEFDCFBEBC0DB407FEFDCFF1CF1E
:10246000213009F03FC0615071098109910908F4D8
:1024700066C03A2D28E0E9A1FAA1508137FF03C0D8
:102480004DA1452B02C04EA145234083EBA1FCA1E9
:1024900050814FA1452B4083EBA1FCA1508148A561
:1024A00045234083330F215031F73B2D28E0E9A12C
:1024B000FAA1508137FF03C04DA1452B02C04EA1A8
:1024C00045234083EBA1FCA150814FA1452B4083C4
:1024D000EBA1FCA1508148A545234083330F215037
:1024E00031F7C1CFFE1017C0EF8DF8A1F0826B015C
:1024F0007C01CC0CDD1CEE1CFF1CC114D104E104DA
:10250000F104E9F0CE010E94FD0D81E0C81AD10866
:10251000E108F108F2CF6B017C01EF8DF8A1A082F8
:10252000CE010E94FD0DEF8DF8A1B082CE010E9478
:10253000FD0D21E0C21AD108E108F10871F7DF9121
:10254000CF911F910F91FF90EF90DF90CF90BF90B0
:10255000AF909F908F9008952F923F924F925F92ED
:102560006F927F928F929F92AF92BF92CF92DF92A3
:10257000EF92FF920F931F93CF93DF93CDB7DEB708
:102580006B970FB6F894DEBF0FBECDBF9B8F8A8FBF
:102590001B014A01D22E198708873701A982DC0165
:1025A00059962D913C915A972115310509F0FFC09C
:1025B00018968D919C911997681779070CF0E7C1CF
:1025C0001A968D919C911B97481759070CF0DFC103
:1025D000EC2DF0E0FB83EA839B0146E0C49E200DD6
:1025E000311D11243D872C87121613060CF0CFC124
:1025F0006A2D70E07B876A8783E0660F771F8A9574
:10260000E1F77F876E87CB01880D991D1816190693
:102610000CF0BDC158968C91811104C08FEA8D15C4
:1026200008F4D394AA8DBB8DED91FC91119702848F
:10263000F385E02DCD010995B5E0DB9EC0011124A5
:10264000EC2DF0E0F98BE88B91012B5F3F4F3B8B3A
:102650002A8B3D822C822101AC01421953095D8BEA
:102660004C8B7981672F70E07F8B6E8BC40108964D
:10267000998F888FEC89FD89E40DF51DEA57FF4F8E
:10268000D49054019F828E82D0FE16C0AA8DBB8D3D
:10269000ED91FC91B1E0CB1209C02981213031F4D8
:1026A0000484F585E02D2885398519C00684F785D1
:1026B000E02DE884F9841DC04885598546155705E5
:1026C00019F1AA8DBB8DED91FC91B1E0CB120DC03B
:1026D0002981213051F40484F585E02D9301A50171
:1026E000B2018A8D9B8D09950FC00684F785E02D78
:1026F00073010A851B852A813B814E815F816C8134
:102700007D818A8D9B8D0995D6943FEFA31AB30ADC
:102710004E815F816E897F89460F571F5F834E838D
:10272000888D998DA816B90609F0AECF9FEF491A8A
:10273000590AAC81BD81E889F989AE0FBF1FBD83FD
:10274000AC832A893B894216530609F093CF48850A
:1027500059854615570509F4F8C0AA8DBB8DED9132
:10276000FC91B1E0CB1211C02981213071F4B1018B
:102770006B5F7F4F0088F189E02D830128E030E016
:10278000A4018A8D9B8D0995E0C06C857D854A8169
:102790005B81641B750B0684F785E02D73010E8544
:1027A0001F859A01A4018A8D9B8D0995CEC0F901E0
:1027B0003496E491DE1AF901329685919491B7E04E
:1027C000DB9E800D911D1124F901259134913B8BE5
:1027D0002A8BFC01259134915901FC0132965490C9
:1027E000319634913C87329674903196149141E041
:1027F0004C1518F05981523068F0672D072C000CE9
:10280000770B7D836C83812F012E000C990B9B83AA
:102810008A8304C01B821A821D821C82AA8DBB8DF2
:10282000ED91FC9111970284F385E02DCD0109957E
:10283000412CD12C612CF981EF2FF0E0FF83EE8346
:102840002C2D30E03B872A87A401410F511D17FD35
:102850005A955F8B4E8BB101670D711D77FC7A9590
:10286000798F688F7C85671608F06FC0262D30E061
:102870004A815B81420F531FAE81BF81A49FC0017B
:10288000A59F900DB49F900D1124F401E80FF91F3E
:10289000F98BE88B842D712C4E895F89420F531F71
:1028A0005D8B4C8B751408F04DC051E0580F5E875E
:1028B000877041F4C5010196EA89FB89EA0DFB1D89
:1028C000D4905C01D7FE3AC061E0C61216C079818F
:1028D000713099F4AA8DBB8DED91FC911197048410
:1028E000F585E02D288539854C895D89688D798D40
:1028F000670D711DCD01099521C08C819D81870DCA
:10290000911DEA85FB858E9FB0018F9F700D9E9F64
:10291000700D1124620D731DAA8DBB8DED91FC917C
:1029200011970684F785E02DE884F9840E811F81D4
:102930002A853B8548895989CD010995DD0C739419
:102940008E85B0CF450C63948DCFAA8DBB8DED9154
:10295000FC9111970688F789E02DCD016B960FB693
:10296000F894DEBF0FBECDBFDF91CF911F910F91C5
:10297000FF90EF90DF90CF90BF90AF909F908F909F
:102980007F906F905F904F903F902F9009946B963F
:102990000FB6F894DEBF0FBECDBFDF91CF911F9170
:1029A0000F91FF90EF90DF90CF90BF90AF909F90EE
:1029B0008F907F906F905F904F903F902F900895F1
:1029C00090E0FC01EE58FF4F2491FC01EB50FA4FD0
:1029D0003491FC01ED5EF94FE491EE2309F43CC023
:1029E000222339F1233091F038F42130A9F022303C
:1029F00001F584B58F7D12C0273091F02830A1F009
:102A00002430B9F4809180008F7D03C080918000D4
:102A10008F77809380000DC084B58F7784BD09C007
:102A20008091B0008F7703C08091B0008F7D80933C
:102A3000B000F0E0EE0FFF1FE75FF94FA591B491F2
:102A40009FB7F894611104C08C913095382302C06F
:102A5000EC913E2B3C939FBF0895CF93DF9390E082
:102A6000FC01EB50FA4F2491FC01ED5EF94F84918B
:102A7000882361F190E0880F991FFC01E859FF4F0E
:102A8000C591D491FC01E75FF94FA591B491611113
:102A900009C09FB7F8948881209582238883EC91A0
:102AA0002E230BC0623061F49FB7F8948881322FD7
:102AB000309583238883EC912E2B2C939FBF06C0E7
:102AC0008FB7F894E8812E2B28838FBFDF91CF91A9
:102AD00008953FB7F8948091640390916503A091A5
:102AE0006603B091670326B5A89B05C02F3F19F078
:102AF0000196A11DB11D3FBFBA2FA92F982F88277E
:102B0000820F911DA11DB11DBC01CD0142E0660FD8
:102B1000771F881F991F4A95D1F708951F920F922A
:102B20000FB60F9211242F933F938F939F93AF93E0
:102B3000BF938091600390916103A0916203B09173
:102B4000630330915F0323E0230F2D3720F40196B8
:102B5000A11DB11D05C026E8230F0296A11DB11DC0
:102B600020935F038093600390936103A0936203BB
:102B7000B09363038091640390916503A091660311
:102B8000B09167030196A11DB11D809364039093DA
:102B90006503A0936603B0936703BF91AF919F91C4
:102BA0008F913F912F910F900FBE0F901F9018950E
:102BB0000F931F93CF93DF93EC010E94EB0B8C01DB
:102BC00064E073E0CE010E94EB0B800F911FDF9158
:102BD000CF911F910F9108950F931F93CF93DF9380
:102BE0001F92CDB7DEB78C016370DC0156966C93F3
:102BF0005697623059F06330C9F0613029F088E4AB
:102C0000898380EF90E007C088E211C088E889835B
:102C100080EF90E0D80119969C938E93189780E4EA
:102C200091E01B969C938E931A970BC088EE898334
:102C300080E491E0F8019187808780EF90E09387AE
:102C40008287C8010E948022D801D7968C91D7979D
:102C500087FD09C05B96ED91FC915C979081D296BF
:102C60008C9189238083D8015D96ED91FC915E97CC
:102C70009081D4968C918923808366E3C8010E9459
:102C80005322D8015D96ED91FC915E979081D39689
:102C90008C91D397892B8083D5968C91823029F0A3
:102CA0006981C8010E94532209C0F80180A98823C4
:102CB000B9F369817A81C8010E940B0ED801D796B9
:102CC0008C91D79787FD09C05B96ED91FC915C973D
:102CD0009081D1968C91892B8083F80185A98111EF
:102CE00002C00E949A220F90DF91CF911F910F9105
:102CF0000895CF92DF92EF92FF920F931F93CF939D
:102D0000DF93EC016A017B01452B462B472B31F405
:102D1000C12C42E1D42E4AE7E42EF12C8FA987FD85
:102D200007C061E00E942D1561E08FA90E94E014A8
:102D300061E088AD0E942D1561E088AD0E94E0142D
:102D40008DA9811152C040E052E16AE770E090E045
:102D5000C416D506E606F70640F4769567955795AE
:102D600047959F5F9630A1F797E081E08927982FDC
:102D7000906A969599A381708AA31BA21CA21DA29A
:102D80001EA21FB7F89480919A03811127C0EDE12C
:102D9000F6E08491EFEFF5E09491E82FF0E0EE0F8C
:102DA000FF1FE859FF4FA591B491EC91E92321F45D
:102DB00061E08AE00E94E01461E08AE00E942D1543
:102DC0008CB580618CBD8CB580648CBD61E08DE07C
:102DD0000E942D1561E08BE00E942D1580919A03D1
:102DE0008F5F80939A031FBF4BC08130B9F461E0BD
:102DF0008AA50E942D1560E08AA50E94E01461E07A
:102E00008CA50E942D1560E08CA50E94E0148BA576
:102E100087FD36C060E00E942D1532C003E116E048
:102E2000F12CF8018491E82FF0E0EE0FFF1FE75F2F
:102E3000F94F859194912F8D38A12817390741F4C6
:102E400061E08F2D0E942D1560E08F2D0E94E0140F
:102E5000F3940F5F1F4FF4E1FF12E3CF61E08EA503
:102E60000E942D1561E08EA50E94E0148FA587FDBC
:102E700007C061E00E942D1561E08FA50E94E0145B
:102E80008EA987FD2AC061E00E942D1561E08EA900
:102E90000E94E0142FEF81EE94E02150804090409A
:102EA000E1F700C0000060E08EA90E94E014EFEF9F
:102EB000F1EE24E0E150F0402040E1F700C00000D6
:102EC00061E08EA90E94E0148FEF93ECE9E081505D
:102ED0009040E040E1F700C000008EA987FF10C0DD
:102EE00020E040E050E061E0CE010E948F11FFEF52
:102EF00022E587E0F15020408040E1F700C000006B
:102F0000E6E8F5E0CF01019664916623E1F08F01D8
:102F10000E5F1F4FFC01F490FF2DFF77EF2E2F2F38
:102F2000A801CE010E948F11F801EE0DF11DF7FEF0
:102F3000E9CF2FEF82E597E0215080409040E1F704
:102F400000C00000DFCF80EF90E09987888780E4A1
:102F500091E09B878A87DF91CF911F910F91FF901E
:102F6000EF90DF90CF90089582EB91E00E94AA1A33
:102F7000892B31F081E080939903109298030BC064
:102F800082E991E00E94AA1A892B51F010929903CC
:102F900081E080939803109297031092960327C0C4
:102FA00082E791E00E94AA1A892B41F010929903BE
:102FB0001092980381E080939703EFCF82E591E030
:102FC0000E94AA1A892B51F010929903109298032B
:102FD0001092970381E08093960309C082E391E009
:102FE0000E94AA1A892B19F081E080939503109210
:102FF000940308950F931F93CF93DF932091710350
:1030000030E04091700350E060916F0370E0C09138
:103010006E03D0E0E2E7F3E0A6E5B4E001E010E003
:10302000808191818217930738F04817590720F063
:1030300011961C921E9209C08617970730F0C81788
:10304000D90718F011961C930E93119211921296B3
:1030500083E0E439F80721F764E073E086E794E061
:103060000E94EB0B81E080939403DF91CF911F913D
:103070000F910895CF92DF92EF92FF920F931F93DB
:10308000CF93DF9360EF73E280E090E00E947D03D6
:103090008CED95E00E946F03C0906C03D0906D039F
:1030A000E12CF12CC701B6010E947D03C0916A0397
:1030B000D0916B03CE010E946F03C701B6010E943D
:1030C0007D03CE010E946F03C701B6010E947D03FC
:1030D0000091680310916903C8010E946F03C70142
:1030E000B6010E947D03C8010E946F03C701B601AB
:1030F0000E947D03CE010E946F03C701B6010E94AA
:103100007D03CE010E946F03C701B6010E947D03BB
:10311000C8010E946F03C701B6010E947D03C80168
:103120000E946F03C701B6010E947D03C8010E947F
:103130006F03C701B6010E947D03C8010E946F039F
:10314000C701B6010E947D03CE010E946F03C70133
:10315000B6010E947D03CE010E946F03C701B60134
:103160000E947D03C8010E946F03C701B6010E943F
:103170007D03C8010E946F03C701B6010E947D0351
:10318000CE010E946F03C701B6010E947D03CE01EC
:103190000E946F03C701B601DF91CF911F910F917C
:1031A000FF90EF90DF90CF900C947D03CF92DF9251
:1031B000EF92FF920F931F93CF93DF9360EF73E231
:1031C00080E090E00E947D038CED95E00E946F030B
:1031D000C0906C03D0906D03E12CF12CC701B601B7
:1031E0000E947D03C0916803D0916903CE010E94C3
:1031F0006F03C701B6010E947D03CE010E946F03D9
:10320000C701B6010E947D0300916A0310916B0310
:10321000C8010E946F03C701B6010E947D03C80167
:103220000E946F03C701B6010E947D03CE010E9478
:103230006F03C701B6010E947D03CE010E946F0398
:10324000C701B6010E947D03C8010E946F03C70138
:10325000B6010E947D03C8010E946F03C701B60139
:103260000E947D03C8010E946F03C701B6010E943E
:103270007D03C8010E946F03C701B6010E947D0350
:10328000CE010E946F03C701B6010E947D03CE01EB
:103290000E946F03C701B6010E947D03C8010E940E
:1032A0006F03C701B6010E947D03C8010E946F032E
:1032B000C701B6010E947D03CE010E946F03C701C2
:1032C000B6010E947D03CE010E946F03C701B601C3
:1032D000DF91CF911F910F91FF90EF90DF90CF90F2
:1032E0000C947D03CF92DF92EF92FF920F931F9386
:1032F000CF93DF9360EF73E280E090E00E947D0364
:103300008CED95E00E946F03C0906C03D0906D032C
:10331000E12CF12CC701B6010E947D0300916803E6
:1033200010916903C8010E946F03C701B6010E9492
:103330007D03C8010E946F03C701B6010E947D038F
:10334000C0916A03D0916B03CE010E946F03C70145
:10335000B6010E947D03CE010E946F03C701B60132
:103360000E947D03C8010E946F03C701B6010E943D
:103370007D03C8010E946F03C701B6010E947D034F
:10338000CE010E946F03C701B6010E947D03CE01EA
:103390000E946F03C701B6010E947D03C8010E940D
:1033A0006F03C701B6010E947D03C8010E946F032D
:1033B000C701B6010E947D03CE010E946F03C701C1
:1033C000B6010E947D03CE010E946F03C701B601C2
:1033D0000E947D03C8010E946F03C701B6010E94CD
:1033E0007D03C8010E946F03C701B6010E947D03DF
:1033F000CE010E946F03C701B6010E947D03CE017A
:103400000E946F03C701B601DF91CF911F910F9109
:10341000FF90EF90DF90CF900C947D03CF92DF92DE
:10342000EF92FF920F931F93CF93DF9360EF73E2BE
:1034300080E090E00E947D038CED95E00E946F0398
:10344000C0906C03D0906D03E12CF12CC701B60144
:103450000E947D0300916A0310916B03C8010E94D2
:103460006F03C701B6010E947D03C8010E946F036C
:10347000C701B6010E947D03C0916803D091690322
:10348000CE010E946F03C701B6010E947D03CE01E9
:103490000E946F03C701B6010E947D03C8010E940C
:1034A0006F03C701B6010E947D03C8010E946F032C
:1034B000C701B6010E947D03CE010E946F03C701C0
:1034C000B6010E947D03CE010E946F03C701B601C1
:1034D0000E947D03C8010E946F03C701B6010E94CC
:1034E0007D03C8010E946F03C701B6010E947D03DE
:1034F000CE010E946F03C701B6010E947D03CE0179
:103500000E946F03C701B6010E947D03C8010E949B
:103510006F03C701B6010E947D03C8010E946F03BB
:10352000C701B6010E947D03CE010E946F03C7014F
:10353000B6010E947D03CE010E946F03C701B60150
:10354000DF91CF911F910F91FF90EF90DF90CF907F
:103550000C947D03E6E5F4E041915191DC012D915D
:103560003D91CD014217530739F4B4E0E637FB072C
:1035700099F781E090E0089580E090E008958F92BF
:103580009F92AF92BF92CF92DF92EF92FF920F93F2
:103590001F93CF93DF9310915504113208F0C2C0EE
:1035A000082FD09154040E9469156B017C01C091D1
:1035B0002C04CC2311F180912E0490912F04A09122
:1035C0003004B0913104892B8A2B8B2B81F30E941C
:1035D000691580902E0490902F04A0903004B09034
:1035E0003104DC01CB018C199D09AE09BF09881695
:1035F0009906AA06BB06D8F681C082E080932C0407
:1036000000932B048FEF80932A04109229041093C7
:103610002804A4E3B4E0E8E0F4E080E0181721F027
:103620009D9191938F5FFACF1092070490910704B8
:103630008D2F880F892B8093070480910604813099
:1036400089F5109206040E9469156B017C01809136
:1036500007048093BB0080912E0490912F04A091C9
:103660003004B0913104892B8A2B8B2BA9F00E9456
:10367000691500912E0410912F042091300430918F
:103680003104DC01CB018C199D09AE09BF09081773
:1036900019072A073B0790F18091BC0083FDD7CF23
:1036A00085EC01C085EE8093BC000E9469156B011A
:1036B0007C0180912C04823039F580912E04909108
:1036C0002F04A0913004B0913104892B8A2B8B2BCD
:1036D00081F30E94691500912E0410912F0420910E
:1036E000300430913104DC01CB018C199D09AE0905
:1036F000BF09081719072A073B07D8F680912D0440
:103700000E94760CC5E013C080912A048F3F79F0A7
:1037100080912A04803241F080912A04803331F074
:10372000C4E005C0C1E003C0C2E001C0C3E0109224
:10373000330410925504109232048C2FDF91CF91F4
:103740001F910F91FF90EF90DF90CF90BF90AF90BF
:103750009F908F9008958F929F92AF92BF92CF9239
:10376000DF92EF92FF921F93CF93DF93162F91E09A
:103770009093320492E59093540410923304109283
:103780005504682F83E195E00E944B0881E00E9478
:10379000BF1A8FE99FE00197F1F700C000000E9477
:1037A00069156B017C01C0912C04CC2339F1809107
:1037B0002E0490912F04A0913004B0913104892BF4
:1037C0008A2B8B2B81F30E94691580902E04909098
:1037D0002F04A0903004B0903104DC01CB018C198F
:1037E0009D09AE09BF0988169906AA06BB06D8F638
:1037F00080912D040E94760CC0E08FC0D12F113231
:1038000008F0D0E281E080932C0480932B049FEF9A
:1038100090932A04109229049D0F9093280480937A
:10382000070480910704846A80930704809106044A
:10383000813089F5109206040E9469156B017C01A4
:10384000809107048093BB0080912E0490912F04F7
:10385000A0913004B0913104892B8A2B8B2BA9F0D5
:103860000E94691580902E0490902F04A09030043F
:10387000B0903104DC01CB018C199D09AE09BF0960
:1038800088169906AA06BB0690F18091BC0083FDBC
:10389000D7CF85EC01C085EE8093BC000E946915EE
:1038A0006B017C0180912C04813031F580912E04D4
:1038B00090912F04A0913004B0913104892B8A2B70
:1038C0008B2B81F30E94691580902E0490902F0419
:1038D000A0903004B0903104DC01CB018C199D091B
:1038E000AE09BF0988169906AA06BB06D8F68091CC
:1038F0002D040E94760C11C0809129048D1710F4BC
:10390000D0912904E8E0F4E0ADE9B3E0C0E0CD17E0
:1039100021F081918D93CF5FFACF10929C03C093D9
:103920009B03D0E080919C03C81781F01D1770F0B5
:10393000FF24F394FD0E83E195E00E940208ED2F31
:10394000F0E0EA51FC4F8083DF2DECCF8D2FDF912B
:10395000CF911F91FF90EF90DF90CF90BF90AF90ED
:103960009F908F900895CF93DF9366E080E00E9450
:10397000AB1B863009F053C08091E6038093BD03F2
:103980008091E7038093BE032091EB038091E803CD
:1039900034E0839FA0011124922F9C70892F90E026
:1039A0009595879595958795842B952B9093C00336
:1039B0008093BF038091E90394E0899FA0011124C3
:1039C000922F9073892F90E064E0959587956A9582
:1039D000E1F7842B952B9093C2038093C1038091D0
:1039E000EA0334E0839FC0011124322F32953695CB
:1039F00036953370832B9093C4038093C303822F37
:103A0000809581708093C50326952170C22F80E038
:103A1000D82F91E0C927C093C60381E001C080E0A0
:103A2000DF91CF9108952F923F924F925F926F92C4
:103A30007F928F929F92AF92BF92CF92DF92EF923E
:103A4000FF920F931F93CF93DF93CDB7DEB7A89765
:103A50000FB6F894DEBF0FBECDBF7C016B014A01EB
:103A60003C872B87681779073CF448175907B4F44B
:103A7000982F8F2D7B0106C0461757070CF095C174
:103A80009C2D8D2D8E149F049CF06401892E982E00
:103A900024E1222E312CA12CB12C8CC18D2D67015B
:103AA000E62EF82E212C312C94E1A92EB12C82C1C6
:103AB00067017401892E982EA12CB12C212C312C58
:103AC00024E130E038A72FA384E295E00E94892208
:103AD000E814F90451F54FA158A5241635065CF0F9
:103AE0009FA188A54215530514F4922D832D2FA074
:103AF00038A49FA388A7A214B30444F06FA178A5AB
:103B00006A157B0514F4B8A6AFA251012FA138A500
:103B10002A193B092F5F3F4F0B851C85A701B50173
:103B200084E295E00E94B22024C1C101AFA1B8A5F2
:103B30008A1B9B0B96012E193F09A5014A1B5B0BA3
:103B40005A8B498BB4016E197F0978876F83D50131
:103B5000A219B309BC8BAB8BA4014C195D095E871C
:103B60004D87C814D90431F0B601615071097E8BBC
:103B70006D8B02C0DE8ACD8AFA82E982412C512CFB
:103B800032011B821C821D821E8249895A89052EA0
:103B9000000C660B770B4F8B588F698F7A8FA901BA
:103BA000330F660B770B4B8F5C8F6D8F7E8F2F8162
:103BB0003885032E000C440B550B2F8F38A349A3D7
:103BC0005AA3AC01990F660B770B4BA35CA36DA3B3
:103BD0007EA369817A818D899E89861797070CF467
:103BE0004EC06B817C818D819E812B8D3C8D4D8D56
:103BF0005E8D0E94E524AFA0B8A4A20EB31EC3013F
:103C0000B2012F8D38A149A15AA10E94E524AFA18C
:103C1000B8A52A0F3B1F4B815C816D817E818BA1F2
:103C20009CA1ADA1BEA1480F591F6A1F7B1F4B83EA
:103C30005C836D837E834F89588D698D7A8D440EA8
:103C4000551E661E771E2A153B052CF49A2D8B2DCA
:103C50005901292F382F2A193B092F5F3F4F0B8518
:103C60001C8549815A81B50184E295E00E94B22009
:103C700069817A816F5F7F4F7A836983AACF8B894D
:103C80009C89092E000CAA0BBB0B8B839C83AD83F4
:103C9000BE83A981BA81AC19BD092B893C890E94D8
:103CA00048252B013C01A981BA81AE19BF09298998
:103CB0003A890E9448255B016C012D853E85032EC3
:103CC000000C440B550B2D873E874F87588B4F8137
:103CD0005885052E000C660B770B4F835887698734
:103CE0007A8769817A81861697060CF442C0C301EF
:103CF000B2012D853E854F8558890E94E5247101CA
:103D0000E20EF31EC601B5012F81388549855A851B
:103D10000E94E5248FA198A5280F391F4B815C8153
:103D20006D817E81440E551E661E771E6F89788DCB
:103D3000898D9A8DA60EB71EC81ED91E2E153F0559
:103D40002CF49E2D8F2D7901292F382F2E193F0904
:103D50002F5F3F4F0B851C8549815A81B70184E253
:103D600095E00E94B22089819A8101969A83898385
:103D7000B8CF84E295E0A8960FB6F894DEBF0FBEE8
:103D8000CDBFDF91CF911F910F91FF90EF90DF900A
:103D9000CF90BF90AF909F908F907F906F905F90EB
:103DA0004F903F902F900C949B2284E1A82EB12C31
:103DB000212C312C18A61FA287CE682F83E195E015
:103DC0000C944B081F93CF93DF93EC01162FE881DF
:103DD000F9810284F385E02D0995112311F06DAD71
:103DE00001C06EADCE010E94510EE881F9810688B6
:103DF000F789E02DCE01DF91CF911F9109948F9229
:103E00009F92AF92BF92CF92DF92EF92FF920F9369
:103E10001F93CF93DF935C014B016A01E90177FDAA
:103E200053C0DC0118968D919C91199768177907FA
:103E30000CF04AC0209709F447C037FF07C0C901FA
:103E40000196C80ED91ED195C195D109F50182857B
:103E50009385C816D906C4F5A6014C0F5D1F9A01BB
:103E60002150310937FD30C0D7FE03C0EA01C12C13
:103E7000D12C281739071CF0EC01CC19DD09D5012C
:103E8000ED91FC910284F385E02DC501099578013F
:103E90008E0121E030E0A601B401C5010E94FE11AF
:103EA000D501ED91FC910688F789E02DC501DF91E0
:103EB000CF911F910F91FF90EF90DF90CF90BF9027
:103EC000AF909F908F900994DF91CF911F910F91A8
:103ED000FF90EF90DF90CF90BF90AF909F908F902A
:103EE00008958F929F92AF92BF92CF92DF92EF92FE
:103EF000FF920F931F93CF93DF935C016B014A01F5
:103F0000E90157FD53C0DC011A968D919C911B97D6
:103F1000481759070CF04AC0209709F447C037FFEB
:103F200007C0C9010196C80ED91ED195C195D10906
:103F3000F50180859185C816D906C4F5A6014C0FF8
:103F40005D1F9A012150310937FD30C0D7FE03C0F3
:103F5000EA01C12CD12C281739071CF0EC01CC192F
:103F6000DD09D501ED91FC910284F385E02DC501B9
:103F70000995780101E010E09E01A401B601C50198
:103F80000E94FE11D501ED91FC910688F789E02D84
:103F9000C501DF91CF911F910F91FF90EF90DF90BE
:103FA000CF90BF90AF909F908F900994DF91CF9169
:103FB0001F910F91FF90EF90DF90CF90BF90AF9047
:103FC0009F908F9008958F929F92AF92BF92CF92C1
:103FD000DF92EF92FF920F931F93CF93DF934C01E9
:103FE0006B015A01E901209709F46CC00115110514
:103FF00009F468C037FF07C0C9010196C80ED91E71
:10400000D195C195D109F401A085B185CA16DB0609
:104010000CF058C017FF07C0C8010196A80EB91EC2
:10402000119501951109F40182859385A816B906A9
:104030000CF048C0F601EC0FFD1FAF0141505109D3
:1040400057FD40C0B501600F711F9B012150310920
:1040500037FD38C0D7FE03C0EF01C12CD12CB7FE0D
:1040600003C08B01A12CB12C4A175B071CF0ED019A
:10407000CC19DD09281739071CF08C010A191B0916
:10408000D401ED91FC910284F385E02DC4010995E2
:104090009E01A501B601C4010E94FE11D401ED915B
:1040A000FC910688F789E02DC401DF91CF911F9123
:1040B0000F91FF90EF90DF90CF90BF90AF909F90C7
:1040C0008F900994DF91CF911F910F91FF90EF9006
:1040D000DF90CF90BF90AF909F908F900895EF9218
:1040E000FF920F931F93CF93DF9377FD34C0DC01D2
:1040F0001896ED91FC9119976E177F0764F52115BD
:10410000310549F137FF07C0F90131964E0F5F1FA6
:10411000319521953109DC011A96ED91FC911B979F
:104120004E175F07C4F4EA01C20FD31FDE011197D7
:10413000B7FD11C057FF03C09E0140E050E0AE172D
:10414000BF071CF09F01241B350B7801890121E07A
:1041500030E00E94FE11DF91CF911F910F91FF90EF
:10416000EF900895EF92FF920F931F93CF93DF93F9
:1041700057FD33C0DC011A96ED91FC911B974E1749
:104180005F075CF52115310541F137FF07C0F901E3
:1041900031966E0F7F1F319521953109DC011896FC
:1041A000ED91FC9119976E177F07BCF4EB01C20FDC
:1041B000D31FDE011197B7FD10C077FF03C09E012A
:1041C00060E070E0AE17BF071CF09F01261B370BA5
:1041D000780101E010E00E94FE11DF91CF911F9164
:1041E0000F91FF90EF9008958F929F92AF92BF92A0
:1041F000CF92DF92EF92FF920F931F93CF93DF93B3
:1042000047012115310509F44DC00115110509F4C7
:1042100049C037FF07C0F90131966E0F7F1F3195F6
:1042200021953109DC011896AD90BC9019976A155B
:104230007B05C4F517FF07C0F80131964E0F5F1FCD
:10424000119501951109DC011A96ED91FC911B97CE
:104250004E175F073CF56B01C20ED31EE601219796
:10426000D7FD20C07A01E00EF11ED7011197B7FDEE
:1042700019C077FF03C0960160E070E057FF03C0EC
:10428000870140E050E0CA15DB051CF09501261BB4
:10429000370BAE17BF071CF08F01041B150B740101
:1042A0000E94FE11DF91CF911F910F91FF90EF902F
:1042B000DF90CF90BF90AF909F908F900895AF9276
:1042C000BF92CF92DF92EF92FF920F931F93CF9303
:1042D000DF93EC0177FD38C08885998568177907E9
:1042E0009CF557FD31C08A859B854817590764F5B1
:1042F00069017A015B01E881F9810284F385E02D8F
:10430000CE010995E881F98102A4F3A5E02D01E031
:1043100010E021E030E0A701B501CE010995B6011A
:10432000CE010E940B0EE881F9810688F789E02D05
:10433000CE01DF91CF911F910F91FF90EF90DF9011
:10434000CF90BF90AF900994DF91CF911F910F91C3
:10435000FF90EF90DF90CF90BF90AF900895EF92D5
:10436000FF920F931F93CF93DF93EC0177FD22C051
:104370008885998568177907ECF457FD1BC08A85F5
:104380009B8548175907B4F47901E881F98102A4A3
:10439000F3A5E02D01E010E021E030E0CE01099529
:1043A000B701CE01DF91CF911F910F91FF90EF9058
:1043B0000C940B0EDF91CF911F910F91FF90EF9016
:1043C0000895AF92BF92CF92DF92EF92FF920F9338
:1043D0001F93CF93DF93EC015B016A0121503109F8
:1043E0007901E60EF71E01501109040F151F809187
:1043F0000601909107016817790739F4809104014B
:1044000090910501E816F906A1F06AE2CE010E943A
:10441000510EB501CE010E940B0EB701CE010E94D4
:104420000B0EB0920701A0920601F0920501E092F6
:1044300004018091020190910301C816D90639F454
:10444000809100019091010108171907A1F06BE21A
:10445000CE010E94510EB601CE010E940B0EB80192
:10446000CE010E940B0ED0920301C0920201109364
:104470000101009300016CE2CE01DF91CF911F9109
:104480000F91FF90EF90DF90CF90BF90AF900C9482
:10449000510E611102C060E201C061E220E040E023
:1044A00050E00C948F11FC0185A9811105C06EBDEF
:1044B0000DB407FEFDCF08958130E1F488E0A1A19D
:1044C000B2A12C9167FF03C095A1922B02C096A1C7
:1044D00092239C93A3A1B4A12C9197A1922B9C937E
:1044E000660FA3A1B4A12C9190A592239C93815017
:1044F00031F70895A78DB0A16C93CF010C94FD0DF9
:10450000FC0185A9811104C091A182A19CBD8DBD32
:104510000895CF93DF93EC010E9480228FA987FD3D
:1045200006C0EB8DFC8D90818AA989238083DF9161
:10453000CF9108950895FC0187A987FD06C0A38D3A
:10454000B48D9C9181A9892B8C93089540E050E013
:10455000BA0184E295E00E94791610929C031092B1
:104560009B0310923304109255040E94580C80EF64
:1045700097E0909318038093170381EF97E090934F
:104580001A0380931903E0918604F091870482E076
:104590008083E0918204F09183041082E09184048E
:1045A000F09185048FEC808310928E04E0918A0450
:1045B000F0918B0486E08083E0918804F091890477
:1045C000808180618083E0918804F09189048081FA
:1045D00088608083E0918804F091890480818068FC
:1045E0008083E0918804F091890480818F7D8083AD
:1045F000529880916900816080936900E89A16BCA6
:1046000014BC15BC85B5856085BD80916E00816048
:1046100080936E0085E08093810010928500109257
:1046200084008093B1001092B20078940E94670FCA
:1046300081110DC063E972E086E794E00E94D8150D
:1046400086E794E00E94A60781E090E008956EEF6F
:1046500072E086E794E00E94D8158CED95E0909387
:104660006D0380936C0380EA9FE0909369038093CD
:10467000680380E49FE190936B0380936A0387E073
:10468000809371038BE0809370038CE080936F03C1
:1046900081E180936E030E949F0380E090E0089583
:1046A000E6E7F4E01382128288EE93E0A0E0B0E047
:1046B00084839583A683B78326ED31E031832083FD
:1046C00025EC30E03587248724EC30E037872687D7
:1046D00020EC30E0318B208B21EC30E0338B228BCF
:1046E00022EC30E0358B248B26EC30E0378B268BA8
:1046F000118E128E138E148EE3E1F5E01382128276
:1047000084839583A683B78388EE91E09183808329
:10471000A4E2B5E013961C921E92129720EF30E0AF
:1047200015963C932E93149780E491E017969C93F2
:104730008E93169719963C932E9318971B969C93DD
:104740008E931A9756961C9256971D961C921E92FF
:104750001C971F961C921E921E9741E055964C93F3
:10476000559754964C9354976FEF7FEF53967C93E5
:104770006E93529751967C936E93509757964C93A5
:10478000579758961C9258975A961C921E92599772
:10479000D5961C92D5974FEFD6964C93D6974AE074
:1047A000D7964C93D79749E0D8964C93D897DA96FA
:1047B0001C921E92D997DC961C921E92DB97DD9676
:1047C0001C92DD97DE961C92DE9710926305109284
:1047D0006405109265051092660547E655E09096CF
:1047E0005C934E935F97ECE1F6E0E491F0E0EE0F1E
:1047F000FF1FE75FF94F459154915E965C934E938E
:104800005D97EEEFF5E04491D3964C93D397EDE1AD
:10481000F6E0E491F0E0EE0FFF1FE75FF94F6591DE
:1048200074915C967C936E935B97EFEFF5E0E49167
:10483000D196EC93D197E095D296EC93D297E42F52
:10484000E095D496EC93D4974AE252E04D935C9372
:104850003093230520932205909321058093200512
:104860000E94862426E030E040E050E00E94E524EB
:1048700060931F0508958F929F92AF92BF92CF923F
:10488000DF92EF92FF92CF93DF93EC016881798101
:104890008A819B81611571058105910521F464E28E
:1048A00079ED8BE597E02DE133EF41E050E00E9498
:1048B000E52449015A019B01AC01A7EAB1E40E9439
:1048C00004256B017C01ACEEB4EFA50194010E94BC
:1048D0001225DC01CB018C0D9D1DAE1DBF1DB7FF48
:1048E00003C00197A109B04888839983AA83BB8339
:1048F000BC01CD019F77DF91CF91FF90EF90DF90CA
:10490000CF90BF90AF909F908F9008958F929F927D
:10491000AF92BF92CF92DF92EF92FF926091080127
:104920007091090180910A0190910B016115710547
:104930008105910521F464E279ED8BE597E02DE1A5
:1049400033EF41E050E00E94E52449015A019B0108
:10495000AC01A7EAB1E40E9404256B017C01ACEE36
:10496000B4EFA50194010E941225DC01CB018C0D4E
:104970009D1DAE1DBF1DB7FF03C00197A109B04823
:104980008093080190930901A0930A01B0930B0151
:10499000BC01CD019F77FF90EF90DF90CF90BF904B
:1049A000AF909F908F9008956093080170930901D4
:1049B00080930A0190930B010895F999FECF92BD5F
:1049C00081BDF89A992780B50895052E97FB1EF4AE
:1049D00000940E94FC2457FD07D00E94172507FC75
:1049E00003D04EF40C94FC245095409530952195BD
:1049F0003F4F4F4F5F4F089590958095709561950B
:104A00007F4F8F4F9F4F08950E943925A59F900D8E
:104A1000B49F900DA49F800D911D11240895B7FFA0
:104A20000C9404250E940425821B930B0895A1E297
:104A30001A2EAA1BBB1BFD010DC0AA1FBB1FEE1F18
:104A4000FF1FA217B307E407F50720F0A21BB30B63
:104A5000E40BF50B661F771F881F991F1A9469F7DF
:104A600060957095809590959B01AC01BD01CF013B
:104A70000895A29FB001B39FC001A39F700D811D37
:104A80001124911DB29F700D811D1124911D089557
:104A90000E943925332312F48A1B9B0B0C94522558
:104AA0000E943925B7FF0895821B930B0895EE0FDE
:104AB000FF1F0590F491E02D099481E090E0F894B7
:084AC0000C946225F894FFCF6D
:104AC800FFFFFFFFFFFFFFFF0100000000F81F00CE
:104AD800E007E0FFFF071FF8FFFFC0F9A4B09992B5
:104AE8008EFF30313233343536373839414243441A
:104AF800454601000100010001000000000000001F
:104B08000000010001000000000001000100000099
:104B18000100010001000000000001000100000088
:104B28000000010001000000000001000100000079
:104B3800000000000000010001000000000001006A
:104B48000100000000000100010000000000010059
:104B58000100000000000100010000000000010049
:104B68000100010001000000000001000100000038
:104B78000000010001000000000001000100000029
:104B8800000000000000010001000000000001001A
:104B98000100000000005907660EFA06A6072B0759
:104BA80009071D07000000004B081E086C03F207E8
:104BB80016080208F30700000000130B660E6C03CA
:104BC8006B035F218922AF21F4206F20B2205F0A96
:104BD8009B227B08E21EFF1E711FE31F5C09EF0882
:104BE8009008110B110B00000000130B660E6C03EC
:104BF8006B035F218922AF21F4206F20B2205F0A66
:104C08009B22EC154922FF1E711FE31F5C09EF0868
:104C180090087916E12154726F6E005072657373B3
:104C280020432026205A20746F2073746172740008
:104C3800312E20537461727400322E2048696768DF
:104C480073636F72657300332E2053657474696ED5
:104C58006773002A2A2A2A2A2A2A2A204E6F206EB7
:104C6800756E6368756B20666F756E6400506C6155
:104C780079657220313A2000506C61796572203272
:104C88003A2000507265737320432026205A2074FE
:104C98006F20636F6E74696E75650050726573730B
:104CA80020432026205A20746F2073656C65637436
:104CB8000073656C65637420636F6C6F72003536C2
:084CC8006B687A000D0A000080
:00000001FF
