:100000000C9434000C9446000C9446000C9446006A
:100010000C9446000C9446000C9446000C94460048
:100020000C9446000C9446000C9446000C94460038
:100030000C9446000C9446000C9446000C94460028
:100040000C9446000C9446000C9446000C94460018
:100050000C9446000C9446000C9446000C94460008
:100060000C9446000C94460011241FBECFEFD8E03C
:10007000DEBFCDBF21E0A0E0B1E001C01D92A13004
:10008000B207E1F70E9448000C9461000C94000054
:100090008FE08AB93C9A87B187B990E380910001DB
:1000A0008F5F809300018BB92FEF34E38CE02150F8
:1000B00030408040E1F700C0000087B1892787B950
:0600C000EDCFF894FFCF24
:00000001FF
