:100000000C9458000C9480000C9480000C94800098
:100010000C9480000C9480000C9480000C94800060
:100020000C9480000C9480000C9480000C94800050
:100030000C9480000C9480000C9480000C94800040
:100040000C9477050C9480000C94E7050C94C10582
:100050000C9480000C9480000C9480000C94800020
:100060000C9419060C948000000000002500280064
:100070002B00040404040404040402020202020229
:10008000030303030303010204081020408001025C
:1000900004081020010204081020000000080002DB
:1000A00001000003040700000000000000004707F3
:1000B00011241FBECFEFD8E0DEBFCDBF12E0A0E01D
:1000C000B1E0EEE8F2E102C005900D92A431B10773
:1000D000D9F723E0A4E1B2E001C01D92A93CB20728
:1000E000E1F710E0C8E5D0E004C02197FE010E94CE
:1000F0003A09C735D107C9F70E9480070C94450912
:100100000C9400008091650290E020916602821BB1
:100110009109089590E0FC01E656FF4F2491FC01FF
:10012000EA57FF4F3491FC01EE58FF4FE491EE2364
:1001300009F43CC0222339F1233091F038F4213006
:10014000A9F0223001F584B58F7D12C0273091F0DF
:100150002830A1F02430B9F4809180008F7D03C055
:10016000809180008F77809380000DC084B58F7759
:1001700084BD09C08091B0008F7703C08091B0002A
:100180008F7D8093B000F0E0EE0FFF1FE859FF4F26
:10019000A591B4919FB7F894611104C08C913095EA
:1001A000382302C0EC913E2B3C939FBF08953FB78C
:1001B000F8948091610290916202A0916302B091E3
:1001C000640226B5A89B05C02F3F19F00196A11D1A
:1001D000B11D3FBFBA2FA92F982F8827820F911DDD
:1001E000A11DB11DBC01CD0142E0660F771F881F24
:1001F000991F4A95D1F70895CF92DF92EF92FF921F
:100200000F931F93CF93DF936C017A018B01C0E0B2
:10021000D0E0CE15DF0581F0D8016D918D01D601BA
:10022000ED91FC910190F081E02DC6010995892B9B
:1002300011F02196EECF7E01C701DF91CF911F9182
:100240000F91FF90EF90DF90CF900895FC01538DB8
:10025000448D252F30E0842F90E0821B930B5417A0
:1002600010F0CF96089501970895FC01918D828D2D
:10027000981761F0828DDF01A80FB11D5D968C91FA
:10028000928D9F5F9F73928F90E008958FEF9FEF05
:100290000895FC01918D828D981731F0828DE80FC1
:1002A000F11D858D90E008958FEF9FEF0895FC017B
:1002B000918D228D892F90E0805C9F4F821B910948
:1002C0008F7399270895FC01848DDF01A80FB11D5C
:1002D000A35ABF4F2C91848D90E001968F7399277C
:1002E000848FA689B7892C93A089B1898C9183705A
:1002F00080648C93938D848D981306C00288F38953
:10030000E02D80818F7D80830895EF92FF920F937F
:100310001F93CF93DF93EC0181E0888F9B8D8C8DB1
:10032000981305C0E889F989808185FD26C0F62EDD
:100330000B8D10E00F5F1F4F0F731127E02E8C8D78
:10034000E8120CC00FB607FCFACFE889F989808162
:1003500085FFF5CFCE010E946301F1CF8B8DFE01A9
:10036000E80FF11DE35AFF4FF0829FB7F8940B8F0F
:10037000EA89FB89808180620AC09FB7F894EE8980
:10038000FF896083E889F989808183708064808334
:100390009FBF81E090E0DF91CF911F910F91FF907F
:1003A000EF900895CF93DF93EC01888D8823C9F0F7
:1003B000EA89FB89808185FD05C0A889B9898C916E
:1003C00086FD0FC00FB607FCF5CF808185FFF2CF09
:1003D000A889B9898C9185FFEDCFCE010E94630178
:1003E000E7CFDF91CF91089540913702262F30E07B
:1003F000240F311D21323105DCF42091F602243026
:10040000C9F4FC0180E090E0861758F4309137027F
:100410002191DC01AB5EBD4FA30FB11D2C93019662
:10042000F3CF80913702680F6093370280E0089520
:1004300081E0089582E008951092F60281E08093B1
:10044000F5021092D00261E082E10E948A0061E030
:1004500083E10E948A00E9EBF0E080818E7F808357
:1004600080818D7F808388E48093B80085E48093C9
:10047000BC000895CF93DF9391E0909314028823FA
:10048000B9F0C091B800D091BA008091BC008A7BCD
:100490008093BC0060E082E10E948A0060E083E11A
:1004A0000E948A000E941C02D093BA00C093B80038
:1004B000DF91CF9108958F929F92AF92BF92CF928A
:1004C000DF92EF92FF920F931F93CF93DF931091E0
:1004D0001F03113208F0C2C0082FD0911E030E94E2
:1004E000D7006B017C01C091F602CC2311F1809101
:1004F000F8029091F902A091FA02B091FB02892BC7
:100500008A2B8B2B81F30E94D7008090F802909069
:10051000F902A090FA02B090FB02DC01CB018C1929
:100520009D09AE09BF0988169906AA06BB06D8F62A
:1005300081C082E08093F6020093F5028FEF8093F2
:10054000F4021092F3021093F202AEEFB2E0E2ED89
:10055000F2E080E0181721F09D9191938F5FFACF20
:100560001092D1029091D1028D2F880F892B809308
:10057000D1028091D002813089F51092D0020E9480
:10058000D7006B017C018091D1028093BB008091E8
:10059000F8029091F902A091FA02B091FB02892B26
:1005A0008A2B8B2BA9F00E94D7000091F8021091A2
:1005B000F9022091FA023091FB02DC01CB018C1987
:1005C0009D09AE09BF09081719072A073B0790F1D3
:1005D0008091BC0083FDD7CF85EC01C085EE809370
:1005E000BC000E94D7006B017C018091F602823032
:1005F00039F58091F8029091F902A091FA02B09138
:10060000FB02892B8A2B8B2B81F30E94D700009150
:10061000F8021091F9022091FA023091FB02DC01FC
:10062000CB018C199D09AE09BF09081719072A07C4
:100630003B07D8F68091F7020E943A02C5E013C04A
:100640008091F4028F3F79F08091F402803241F082
:100650008091F402803331F0C4E005C0C1E003C0F2
:10066000C2E001C0C3E01092FD0210921F0310927D
:10067000FC028C2FDF91CF911F910F91FF90EF9093
:10068000DF90CF90BF90AF909F908F900895089586
:1006900008950895E091660280916502E81730F4AC
:1006A000F0E0E959FD4F808190E008958FEF9FEFD2
:1006B00008959091660280916502981750F4E92F91
:1006C000F0E0E959FD4F208130E09F5F9093660292
:1006D00002C02FEF3FEFC9010895CF92DF92EF9252
:1006E000FF920F931F93CF93DF937C01CB018A017D
:1006F0002091FC02222389F0EB016B01C40ED51E70
:10070000CC15DD0569F06991D701ED91FC9101905F
:10071000F081E02DC7010995F3CF642F0E94F40109
:10072000C801DF91CF911F910F91FF90EF90DF9063
:10073000CF900895CF93DF931F92CDB7DEB7698333
:100740002091FC022223D1F020911F03203240F09F
:1007500021E030E0FC013383228380E090E015C08B
:100760008091FD02E82FF0E0E250FD4F99819083E7
:100770008F5F8093FD0280931F0305C061E0CE016F
:1007800001960E94F40181E090E00F90DF91CF91FB
:100790000895682F8DEB93E00C949A03089580E000
:1007A00090E00895009769F0FC0101900020E9F7BE
:1007B0003197AF01481B590BBC0180E293E00C94C8
:1007C000FC0080E090E00895CF93DF930E94D20375
:1007D000EC0184E391E00E94D2038C0F9D1FDF9116
:1007E000CF9108950C94D2038F929F92AF92BF92B3
:1007F0000F931F93CF93DF93CDB7DEB7A1970FB6BB
:10080000F894DEBF0FBECDBF19A2423008F44AE013
:100810008E010F5D1F4F842E912CA12CB12CA501B0
:1008200094010E941809E62FB901CA01015011096B
:10083000EA3014F4E05D01C0E95CD801EC93232BAD
:10084000242B252B61F7C8010E94D203A1960FB675
:10085000F894DEBF0FBECDBFDF91CF911F910F91F6
:10086000BF90AF909F908F9008958F929F92AF927C
:10087000BF92CF92DF92EF92FF921F93CF93DF93BD
:10088000162F91E09093FC0292E590931E03109234
:10089000FD0210921F03682F8DEB93E00E949A03D4
:1008A00081E00E945B028FE99FE00197F1F700C0B1
:1008B00000000E94D7006B017C01C091F602CC239E
:1008C00039F18091F8029091F902A091FA02B09169
:1008D000FB02892B8A2B8B2B81F30E94D7008090FF
:1008E000F8029090F902A090FA02B090FB02DC01AD
:1008F000CB018C199D09AE09BF0988169906AA0675
:10090000BB06D8F68091F7020E943A02C0E08FC081
:10091000D12F113208F0D0E281E08093F60280936B
:10092000F5029FEF9093F4021092F3029D0F9093C3
:10093000F2028093D1028091D102846A8093D10225
:100940008091D002813089F51092D0020E94D700A8
:100950006B017C018091D1028093BB008091F802F1
:100960009091F902A091FA02B091FB02892B8A2B97
:100970008B2BA9F00E94D7008090F8029090F9028A
:10098000A090FA02B090FB02DC01CB018C199D090A
:10099000AE09BF0988169906AA06BB0690F1809198
:1009A000BC0083FDD7CF85EC01C085EE8093BC00F1
:1009B0000E94D7006B017C018091F602813031F5F5
:1009C0008091F8029091F902A091FA02B091FB0295
:1009D000892B8A2B8B2B81F30E94D7008090F80201
:1009E0009090F902A090FA02B090FB02DC01CB01DA
:1009F0008C199D09AE09BF0988169906AA06BB067F
:100A0000D8F68091F7020E943A0211C08091F30259
:100A10008D1710F4D091F302E2EDF2E0A7E6B2E018
:100A2000C0E0CD1721F081918D93CF5FFACF109266
:100A30006602C0936502D0E080916602C81781F01B
:100A40001D1770F0FF24F394FD0E8DEB93E00E94D0
:100A50005903ED2FF0E0E055FD4F8083DF2DECCF03
:100A60008D2FDF91CF911F91FF90EF90DF90CF906E
:100A7000BF90AF909F908F9008950E94400985EDA0
:100A80008093BC008091F8029091F902A091FA0243
:100A9000B091FB020796A11DB11D23E0B695A79565
:100AA000979587952A95D1F72091BC0024FF1CC00B
:100AB0004091F8025091F9026091FA027091FB02A4
:100AC000452B462B472B81F30097A105B10541F03B
:100AD0002AE22A95F1F700C00197A109B109E4CFF4
:100AE0008091F7020C943A021092F60208951F9238
:100AF0000F920FB60F9211242F933F938F939F93D2
:100B0000AF93BF9380915D0290915E02A0915F02CE
:100B1000B091600230915C0223E0230F2D3720F466
:100B20000196A11DB11D05C026E8230F0296A11D47
:100B3000B11D20935C0280935D0290935E02A093AE
:100B40005F02B09360028091610290916202A09175
:100B50006302B09164020196A11DB11D80936102F0
:100B600090936202A0936302B0936402BF91AF912D
:100B70009F918F913F912F910F900FBE0F901F90DB
:100B800018951F920F920FB60F9211242F933F9337
:100B90004F935F936F937F938F939F93AF93BF9385
:100BA000EF93FF9380E293E00E946301FF91EF9146
:100BB000BF91AF919F918F917F916F915F914F9175
:100BC0003F912F910F900FBE0F901F9018951F927D
:100BD0000F920FB60F9211242F938F939F93EF9341
:100BE000FF93E0913003F09131038081E09136036F
:100BF000F091370382FD12C09081809139038F5F9D
:100C00008F7320913A03821751F0E0913903F0E09D
:100C1000E05EFC4F958F8093390301C08081FF9186
:100C2000EF919F918F912F910F900FBE0F901F907A
:100C300018951F920F920FB60F9211242F933F9386
:100C40004F935F936F937F938F939F93AF93BF93D4
:100C5000EF93FF938091B900887F803609F49CC0A0
:100C600068F5883209F45BC090F4803109F454C00F
:100C700038F4882309F4F6C0883009F44DC0F6C072
:100C8000883109F44CC0803209F45DC0EFC0803473
:100C900009F468C048F4803309F455C0883309F07A
:100CA000E5C08093F402D8C0803509F44FC0883580
:100CB00009F45DC0883409F0D9C0D6C0883909F478
:100CC000C7C0A8F4883709F467C038F4883609F437
:100CD00063C0803709F460C0C9C0883809F4B8C05F
:100CE000803909F45FC0803809F0C0C05BC0803B28
:100CF00009F486C038F4803A09F466C0883A09F4E9
:100D00007FC0B4C0803C09F4A7C0883C09F4A4C0EB
:100D1000883B09F48AC0AAC08091D10210C090918A
:100D2000F3028091F202981770F5E091F30281E0EE
:100D30008E0F8093F302F0E0EE52FD4F808180939E
:100D4000BB0085EC86C08093F4028EC0E091F30274
:100D500081E08E0F8093F3028091BB00F0E0EE52B1
:100D6000FD4F80839091F3028091F2026EC0E0917A
:100D7000F30281E08E0F8093F3028091BB00F0E0DC
:100D8000EE52FD4F80838091F50281116DC081E0AC
:100D90008093D00284EA61C083E08093F6021092CF
:100DA0005B02CFCF80915B02803208F051C0E091AE
:100DB0005B0281E08E0F80935B028091BB00F0E0CC
:100DC000E55CFD4F8083BDCF85EC8093BC00109225
:100DD000F60280915B02803230F4E0915B02F0E039
:100DE000E55CFD4F108260915B0270E0E09139029A
:100DF000F0913A028BE392E0099510925B0236C0C3
:100E000084E08093F6021092380210923702E0914B
:100E10003502F0913602099580913702811105C0A3
:100E200081E08093370210921502E091380281E050
:100E30008E0F80933802F0E0EB5EFD4F808180934F
:100E4000BB009091380280913702981708F479CF4F
:100E500085E88093BC000AC085EC8093BC001092AA
:100E6000F60204C01092F4020E943F05FF91EF9138
:100E7000BF91AF919F918F917F916F915F914F91B2
:100E80003F912F910F900FBE0F901F901895E0E2A9
:100E9000F3E01382128288EE93E0A0E0B0E0848356
:100EA0009583A683B78324E131E03183208325EC49
:100EB00030E03587248724EC30E03787268720EC24
:100EC00030E0318B208B21EC30E0338B228B22EC15
:100ED00030E0358B248B26EC30E0378B268B118E5F
:100EE000128E138E148EEDEBF3E013821282848344
:100EF0009583A683B78386E291E0918380830895EA
:100F00001F93CF93DF937894E0913003F0913103F6
:100F100082E08083E0912C03F0912D031082E09118
:100F20002E03F0912F038FEC808310923803E09111
:100F30003403F091350386E08083E0913203F09131
:100F40003303808180618083E0913203F091330329
:100F5000808188608083E0913203F0913303808147
:100F600080688083E0913203F091330380818F7D2C
:100F7000808310926602109265021092FD02109218
:100F80001F030E941C0287E493E090933602809333
:100F9000350288E493E090933A028093390287E324
:100FA00091E00E94F20340E162E570E080E090E0B1
:100FB0000E94F40384E391E00E94D20311E01093B5
:100FC000FC0282E580931E031092FD0210921F0323
:100FD00080EF90E00E94C90385E590E00E94C9037C
:100FE00081E00E945B021093FC021092FD021092BD
:100FF0001F038BEF90E00E94C90380E090E00E9405
:10100000C90381E00E945B0264E08AEF0E9435041C
:10101000843009F0FFC080E38093A50288E78093C5
:10102000A60220EB32E0A7E8B2E04FE852E0F90177
:1010300061919F01862F90E074E0959587957A9550
:10104000E1F780509F4FFC01808190968C939097A0
:10105000E62FEF70F0E0E050FF4F808191968C9387
:10106000919712964A175B0711F71092AF0284E628
:1010700091E00E94F20385EA92E00E94E40311E00D
:1010800066E080E00E943504863009F0C3C080919C
:10109000B002809387028091B102809388022091F0
:1010A000B5028091B202F4E08F9FA0011124922F2B
:1010B0009C70892F90E09595879595958795842BC1
:1010C000952B90938A02809389028091B30234E039
:1010D000839FA0011124922F9073892F90E064E0E8
:1010E000959587956A95E1F7842B952B90938C02C3
:1010F00080938B028091B402E4E08E9FC0011124A2
:10110000322F3295369536953370832B90938E021D
:1011100080938D02822F8170812780938F02269584
:101120002170C22FF0E0DF2FCE0121E082278093D3
:1011300090028FE791E00E94E4038AEA91E00E9426
:10114000F2036091870270E080E090E040E10E944D
:10115000F40382EB91E00E94F203609189027091A6
:101160008A0280E090E040E10E94F4038EEB91E07F
:101170000E94F2036091900270E080E090E040E114
:101180000E94F40384E391E00E94D2038BEC91E08F
:101190000E94F2036091880270E080E090E040E1FC
:1011A0000E94F40383ED91E00E94F20360918B02B0
:1011B00070918C0280E090E040E10E94F4038FED9A
:1011C00091E00E94F20360918F0270E080E090E075
:1011D00040E10E94F40384E391E00E94D2038CEE8C
:1011E00091E00E94F20360918D0270918E0280E086
:1011F00090E040E10E94F40384E391E00E94D20376
:101200003FEF83ED90E3315080409040E1F700C024
:10121000000036CF89EF91E00E94E40380E293E082
:101220000E94D20181E090E0DF91CF911F9108955B
:10123000A1E21A2EAA1BBB1BFD010DC0AA1FBB1FDA
:10124000EE1FFF1FA217B307E407F50720F0A21B4C
:10125000B30BE40BF50B661F771F881F991F1A94B9
:1012600069F760957095809590959B01AC01BD01E3
:10127000CF010895EE0FFF1F0590F491E02D099422
:0E12800081E090E0F8940C944509F894FFCFBB
:10128E0030313233343536373839414243444546AE
:10129E00000000008501FC002601D2015701350136
:1012AE004901000000009A036D03CF034903820039
:1012BE0059034A030D0A002D2D2D2D2D2D2D2D20D8
:1012CE00436F6E6E656374696E6720746F206E7502
:1012DE006E6368756B2061742061646472657373EC
:1012EE00203078002D2D2D2D2D2D2D2D204E756E6F
:1012FE006368756B20776974682049643A20002D05
:10130E002D2D2D2D2D537461746520646174612D06
:10131E002D2D2D2D2D2D2D2D2D2D2D2D2D2D2D2DEF
:10132E002D2D2D2D2D2D2D2D2D004A6F7920583A36
:10133E0020000909416363656C20583A20000909B1
:10134E00427574746F6E20433A20004A6F792059AB
:10135E003A20000909416363656C20593A2000095F
:10136E0009427574746F6E205A3A200009090941BA
:10137E006363656C205A3A20002A2A2A2A2A2A2ACE
:10138E002A204E6F206E756E6368756B20666F75C2
:04139E006E64000079
:00000001FF
