:100000000C94B4030C94DC030C94DC030C94DC031C
:100010000C94DC030C94DC030C94DC030C94DC03E4
:100020000C94DC030C94DC030C94DC030C94DC03D4
:100030000C94DC030C94DC030C94DC030C94DC03C4
:100040000C94DC030C94DC030C94000C0C94DA0B81
:100050000C94DC030C94DC030C94DC030C94DC03A4
:100060000C94DC030C94DC03446F6E652100526F2A
:10007000756E646564207265637473202866696CAC
:100080006C65642920202000526F756E64656420C1
:10009000726563747320286F75746C696E652920AE
:1000A0002000547269616E676C6573202866696C04
:1000B0006C65642920202020202020005472696172
:1000C0006E676C657320286F75746C696E65292086
:1000D000202020202000436972636C657320286F04
:1000E00075746C696E652920202020202020200056
:1000F000436972636C6573202866696C6C6564295A
:100100002020202020202020200052656374616E72
:10011000676C6573202866696C6C656429202020F3
:100120002020200052656374616E676C657320281F
:100130006F75746C696E6529202020202000486F3F
:1001400072697A2F56657274204C696E657320202F
:1001500020202020202020004C696E657320202064
:10016000202020202020202020202020202020208F
:10017000200054657874202020202020202020207A
:100180002020202020202020202020005363726582
:10019000656E2066696C6C202020202020202020A5
:1001A00020202020200000000000240027002A003A
:1001B0000000000800020100000304070000000026
:1001C0000000000000000000003E5B4F5B3E3E6B05
:1001D0004F6B3E1C3E7C3E1C183C7E3C181C577DE1
:1001E000571C1C5E7F5E1C00183C1800FFE7C3E72D
:1001F000FF0018241800FFE7DBE7FF30483A060E3F
:100200002629792926407F050507407F05253F5A85
:100210003CE73C5A7F3E1C1C08081C1C3E7F1422F5
:100220007F22145F5F005F5F06097F017F006689A0
:10023000956A606060606094A2FFA29408047E04E6
:100240000810207E201008082A1C08081C2A08080C
:100250001E101010100C1E0C1E0C30383E383006CC
:100260000E3E0E06000000000000005F00000007C8
:10027000000700147F147F14242A7F2A12231308F6
:10028000646236495620500008070300001C2241D2
:10029000000041221C002A1C7F1C2A08083E080876
:1002A0000080703000080808080800006060002026
:1002B000100804023E5149453E00427F4000724909
:1002C0004949462141494D331814127F10274545AD
:1002D00045393C4A494931412111090736494949C3
:1002E00036464949291E0000140000004034000031
:1002F000000814224114141414140041221408029A
:10030000015909063E415D594E7C1211127C7F490C
:100310004949363E414141227F4141413E7F494961
:1003200049417F090909013E414151737F0808088D
:100330007F00417F41002040413F017F081422415E
:100340007F404040407F021C027F7F0408107F3EB8
:100350004141413E7F090909063E4151215E7F0925
:10036000192946264949493203017F01033F40408C
:10037000403F1F2040201F3F4038403F6314081477
:100380006303047804036159494D43007F414141AF
:100390000204081020004141417F04020102044090
:1003A00040404040000307080020545478407F2814
:1003B0004444383844444428384444287F3854540A
:1003C000541800087E090218A4A49C787F0804042D
:1003D0007800447D40002040403D007F10284400CC
:1003E00000417F40007C047804787C08040478385D
:1003F00044444438FC1824241818242418FC7C088D
:10040000040408485454542404043F44243C404009
:10041000207C1C2040201C3C4030403C44281028BC
:10042000444C9090907C4464544C44000836410005
:100430000000770000004136080002010204023C7F
:100440002623263C1EA1A161123A4040207A38544E
:1004500054555921555579412254547842215554C7
:10046000784020545579400C1E527212395555551A
:1004700059395454545939555454580000457C4105
:100480000002457D420001457C407D1211127DF045
:10049000282528F07C545545002054547C547C0A6F
:1004A000097F4932494949323A4444443A324A4838
:1004B00048303A4141217A3A42402078009DA0A03C
:1004C0007D3D4242423D3D4040403D3C24FF24248E
:1004D000487E4943662B2FFC2F2BFF0929F620C0AD
:1004E000887E090320545479410000447D413048FE
:1004F000484A32384040227A007A0A0A727D0D1941
:10050000317D2629292F28262929292630484D40A2
:1005100020380808080808080808382F10C8ACBA9E
:100520002F102834FA00007B000008142A1422221D
:10053000142A14085500550055AA55AA55AAFF5566
:10054000FF55FF000000FF00101010FF00141414EE
:10055000FF001010FF00FF1010F010F0141414FC36
:10056000001414F700FF0000FF00FF1414F404FC53
:10057000141417101F10101F101F1414141F001034
:100580001010F0000000001F101010101F101010AD
:1005900010F010000000FF101010101010101010BC
:1005A000FF10000000FF140000FF00FF00001F10FC
:1005B000170000FC04F414141710171414F404F4B6
:1005C0000000FF00F714141414141414F700F714A7
:1005D0001414171410101F101F141414F4141010F6
:1005E000F010F000001F101F0000001F140000009A
:1005F000FC140000F010F01010FF10FF141414FF92
:10060000141010101F00000000F010FFFFFFFFFF8C
:10061000F0F0F0F0F0FFFFFF0000000000FFFF0F20
:100620000F0F0F0F3844443844FC4A4A4A347E02C4
:10063000020606027E027E02635549416338444445
:100640003C04407E201E2006027E020299A5E7A5FA
:10065000991C2A492A1C4C7201724C304A4D4D306B
:100660003048784830BC625A463D3E494949007E90
:100670000101017E2A2A2A2A2A44445F4444405127
:100680004A444040444A51400000FF0103E080FFDB
:10069000000008086B6B083612362436060F090F67
:1006A00006000018180000001010003040FF010183
:1006B000001F01011E00191D1712003C3C3C3C00AC
:1006C000000000000102040810204080010204081C
:1006D000102001020408102000000000250028005E
:1006E0002B000404040404040404020202020202B3
:1006F000030303030303EF03038002CF0300C130AE
:10070000ED0464031281E803850078CB05392C00E1
:100710003402F70120EA020000C00123C10110C524
:10072000023E28C701863601483701003A0155B11B
:10073000020018B603088227F20100260101E00F2B
:100740000F312B0C0E084EF1370710030E0900E194
:100750000F000E1403110731C148080F0C31360F7A
:10076000118029800000FE1E11241FBECFEFD8E0AB
:10077000DEBFCDBF12E0A0E0B1E0EEE6F0E402C0E3
:1007800005900D92AE3AB107D9F723E0AEEAB2E098
:1007900001C01D92A039B207E1F713E0C4EBD3E02A
:1007A00004C02197FE010E942A20C33BD107C9F74C
:1007B0000E9434160C9435200C940000089580E0BB
:1007C00090E008950F931F93CF93DF9360E070E064
:1007D0008BE493E00E946909CBE4D3E01D861C867C
:1007E0001F861E868FEF9FEF9B8B8A8B998B888B42
:1007F00011E01C8B1D8B6AE771E0CE010E94C60BD5
:1008000080EE9FEF9B8B8A8B998B888B02E00C8B01
:100810000D8B2AE042ED54E060E070E0CE010E94D2
:100820005E0B6EE2CE010E94C5072AE045E050E073
:1008300060E070E0CE010E945E0B2AE046E050E0EE
:1008400060E070E0CE010E945E0B67E871E0CE01CF
:100850000E94490B80E098EF9B8B8A8B998B888B49
:1008600083E08C8B8D8B20E130E04FEE5EEB6DEA08
:100870007EEDCE010E94A70B67E871E0CE010E94D9
:10088000490B80EE97E09B8B8A8B998B888B85E058
:100890008C8B8D8B6AE871E0CE010E94C60B0C8BAD
:1008A0000D8B60E971E0CE010E94C60B1C8B1D8B85
:1008B00060EA71E0CE010E94C60B6BEB71E0CE01E5
:1008C0000E94C60B66ED71E0CE010E94C60B62EF7E
:1008D00071E0CE010E94C60B66E072E0CE010E947C
:1008E000C60B69E172E0CE010E94C60B63E372E0C1
:1008F000CE010E94C60B60E070E0CB01DF91CF918A
:100900001F910F9108952F923F924F925F926F9295
:100910007F928F929F92AF92BF92CF92DF92EF928F
:10092000FF920F931F93CF93DF93CDB7DEB76B97F3
:100930000FB6F894DEBF0FBECDBF9B8F8A8F1B0111
:100940004A01D22E198708873701A982DC015996FE
:100950002D913C915A972115310509F0FFC0189649
:100960008D919C911997681779070CF0E7C11A9639
:100970008D919C911B97481759070CF0DFC1EC2D06
:10098000F0E0FB83EA839B0146E0C49E200D311D0D
:1009900011243D872C87121613060CF0CFC16A2D47
:1009A00070E07B876A8783E0660F771F8A95E1F79F
:1009B0007F876E87CB01880D991D181619060CF0DC
:1009C000BDC158968C91811104C08FEA8D1508F431
:1009D000D394AA8DBB8DED91FC9111970284F38580
:1009E000E02DCD010995B5E0DB9EC0011124EC2D71
:1009F000F0E0F98BE88B91012B5F3F4F3B8B2A8B0B
:100A00003D822C822101AC01421953095D8B4C8B34
:100A10007981672F70E07F8B6E8BC4010896998F68
:100A2000888FEC89FD89E40DF51DEC53FE4FD490C1
:100A300054019F828E82D0FE16C0AA8DBB8DED918F
:100A4000FC91B1E0CB1209C02981213031F404843A
:100A5000F585E02D2885398519C00684F785E02DB8
:100A6000E884F9841DC0488559854615570519F154
:100A7000AA8DBB8DED91FC91B1E0CB120DC0298107
:100A8000213051F40484F585E02D9301A501B201D4
:100A90008A8D9B8D09950FC00684F785E02D730123
:100AA0000A851B852A813B814E815F816C817D8116
:100AB0008A8D9B8D0995D6943FEFA31AB30A4E8178
:100AC0005F816E897F89460F571F5F834E83888DB4
:100AD000998DA816B90609F0AECF9FEF491A590AA9
:100AE000AC81BD81E889F989AE0FBF1FBD83AC839E
:100AF0002A893B894216530609F093CF48855985C8
:100B00004615570509F4F8C0AA8DBB8DED91FC91EF
:100B1000B1E0CB1211C02981213071F4B1016B5FBA
:100B20007F4F0088F189E02D830128E030E0A401A7
:100B30008A8D9B8D0995E0C06C857D854A815B819E
:100B4000641B750B0684F785E02D73010E851F85E8
:100B50009A01A4018A8D9B8D0995CEC0F901349626
:100B6000E491DE1AF901329685919491B7E0DB9E0B
:100B7000800D911D1124F901259134913B8B2A8B15
:100B8000FC01259134915901FC0132965490319623
:100B900034913C87329674903196149141E04C1513
:100BA00018F05981523068F0672D072C000C770B34
:100BB0007D836C83812F012E000C990B9B838A838C
:100BC00004C01B821A821D821C82AA8DBB8DED91EE
:100BD000FC9111970284F385E02DCD010995412CFC
:100BE000D12C612CF981EF2FF0E0FF83EE832C2DC7
:100BF00030E03B872A87A401410F511D17FD5A950C
:100C00005F8B4E8BB101670D711D77FC7A95798FE3
:100C1000688F7C85671608F06FC0262D30E04A810A
:100C20005B81420F531FAE81BF81A49FC001A59F6E
:100C3000900DB49F900D1124F401E80FF91FF98B6A
:100C4000E88B842D712C4E895F89420F531F5D8B79
:100C50004C8B751408F04DC051E0580F5E878770BB
:100C600041F4C5010196EA89FB89EA0DFB1DD49088
:100C70005C01D7FE3AC061E0C61216C079817130BE
:100C800099F4AA8DBB8DED91FC9111970484F585A3
:100C9000E02D288539854C895D89688D798D670DB2
:100CA000711DCD01099521C08C819D81870D911DFC
:100CB000EA85FB858E9FB0018F9F700D9E9F700D02
:100CC0001124620D731DAA8DBB8DED91FC911197BE
:100CD0000684F785E02DE884F9840E811F812A853A
:100CE0003B8548895989CD010995DD0C73948E8522
:100CF000B0CF450C63948DCFAA8DBB8DED91FC9147
:100D000011970688F789E02DCD016B960FB6F89400
:100D1000DEBF0FBECDBFDF91CF911F910F91FF902E
:100D2000EF90DF90CF90BF90AF909F908F907F908B
:100D30006F905F904F903F902F9009946B960FB6F5
:100D4000F894DEBF0FBECDBFDF91CF911F910F9101
:100D5000FF90EF90DF90CF90BF90AF909F908F90DB
:100D60007F906F905F904F903F902F900895CF921B
:100D7000DF92EF92FF920F931F93CF93DF936C015B
:100D80007A018B01C0E0D0E0CE15DF0581F0D801FB
:100D90006D918D01D601ED91FC910190F081E02DD6
:100DA000C6010995892B11F02196EECF7E01C7016E
:100DB000DF91CF911F910F91FF90EF90DF90CF9037
:100DC0000895FC01538D448D252F30E0842F90E051
:100DD000821B930B541710F0CF9608950197089536
:100DE000FC01918D828D981761F0828DDF01A80F33
:100DF000B11D5D968C91928D9F5F9F73928F90E055
:100E000008958FEF9FEF0895FC01918D828D9817C3
:100E100031F0828DE80FF11D858D90E008958FEF00
:100E20009FEF0895FC01918D228D892F90E0805CC9
:100E30009F4F821B91098F7399270895FC01848D20
:100E4000DF01A80FB11DA35ABF4F2C91848D90E0F4
:100E500001968F739927848FA689B7892C93A089CF
:100E6000B1898C91837080648C93938D848D981359
:100E700006C00288F389E02D80818F7D80830895EC
:100E8000EF92FF920F931F93CF93DF93EC0181E0DA
:100E9000888F9B8D8C8D981305C0E889F989808196
:100EA00085FD26C0F62E0B8D10E00F5F1F4F0F73D0
:100EB0001127E02E8C8DE8120CC00FB607FCFACF7C
:100EC000E889F989808185FFF5CFCE010E941E0750
:100ED000F1CF8B8DFE01E80FF11DE35AFF4FF08239
:100EE0009FB7F8940B8FEA89FB89808180620AC0E2
:100EF0009FB7F894EE89FF896083E889F98980813A
:100F00008370806480839FBF81E090E0DF91CF9108
:100F10001F910F91FF90EF900895CF93DF93EC0115
:100F2000888D8823C9F0EA89FB89808185FD05C009
:100F3000A889B9898C9186FD0FC00FB607FCF5CF43
:100F4000808185FFF2CFA889B9898C9185FFEDCF8B
:100F5000CE010E941E07E7CFDF91CF91089508953B
:100F6000FC016370668B84819581268137816130B5
:100F700039F0633029F0918780873387228708957D
:100F8000318720879387828708958F929F92AF92AF
:100F9000CF92EF92FF920F931F93CF93DF93EC01C9
:100FA000262F898D9A8D009709F042C06A3059F436
:100FB0001D861C862D898E859F8538E0239F800D98
:100FC000911D112443C06D3009F4AAC08F89882374
:100FD000C9F03C898C859D8546E0349F800D911D2C
:100FE0001124488559854817590764F41D861C86C5
:100FF0003D898E859F8548E0349F800D911D112489
:101000009F878E87EA88FB88088919894E855F85C6
:101010006C857D85AD88CC88CE010E9483042C89A7
:101020008C859D8536E0239F800D911D11243EC047
:101030006A3079F41D861C862D89FC013896E4916E
:101040008E859F852E9F800D911D11249F878E87F1
:1010500067C06D3009F464C0FC01349634916317A5
:1010600008F45EC03296E491E61708F459C0462FA2
:10107000431B342FFC0132968590949047E0349FB7
:10108000800C911C1124F401329634913196E49134
:10109000332311F0E1110DC0F4013496E4912C8951
:1010A0008C859D85E29F800D911D11249D878C87E5
:1010B00037C0F401359644915F89552319F15C8955
:1010C000E32FF0E0E40FF11D47FDFA955E9FB001BC
:1010D0005F9F700D11244C855D85460F571F6885F5
:1010E00079856417750774F41D861C863D89FC019B
:1010F0003896E4918E859F853E9F800D911D112429
:101100009F878E87EA88FB88088919894E855F85C5
:101110006C857D85AD88CC88CE010E948304BCCFD0
:1011200081E090E0DF91CF911F910F91FF90EF90C0
:10113000CF90AF909F908F9008956F927F928F92F3
:101140009F92AF92BF92CF92DF92EF92FF920F9356
:101150001F93CF93DF93EC014B015A0169013801D2
:10116000E881F9810284F385E02D0995E881F98110
:101170000288F389E02D87019601A501B401CE0113
:101180000995A501460D571D41505109E881F98186
:101190000288F389E02D9601B401CE010995E8811A
:1011A000F9810088F189E02D9301A501B401CE01F8
:1011B0000995C80CD91CB60161507109E881F98103
:1011C0000088F189E02D9301A501CE010995E88100
:1011D000F9810688F789E02DCE01DF91CF911F912B
:1011E0000F91FF90EF90DF90CF90BF90AF909F90C6
:1011F0008F907F906F9009948F929F92AF92BF9241
:10120000CF92DF92EF92FF920F931F93CF93DF93D2
:101210004C016B015A01E901DC01ED91FC9162176F
:10122000730781F40417150724F48B2D5801042F3C
:10123000182F0A191B0998012F5F3F4F048CF58D59
:10124000E02D12C04017510709F52617370724F47F
:101250008D2D6901C62FD82F9E012C193D092F5FB6
:101260003F4F068CF78DE02D8701A501B601C40123
:101270000995DF91CF911F910F91FF90EF90DF9033
:10128000CF90BF90AF909F908F9008950284F38588
:10129000E02D0995D401ED91FC910488F589E02DAC
:1012A0009E01A501B601C4010995D401ED91FC91FF
:1012B0000688F789E02DC401DF91CF911F910F912E
:1012C000FF90EF90DF90CF90BF90AF909F908F9066
:1012D0000994EF92FF920F931F93DC011A960D91E0
:1012E0001C911B9718962D913C911997ED91FC91AB
:1012F00000A0F1A1E02D7B0140E050E060E070E053
:1013000009951F910F91FF90EF9008954F925F9272
:101310006F927F928F929F92AF92BF92CF92DF9205
:10132000EF92FF920F931F93CF93DF936C012B01EA
:101330005A0139014801DC01ED91FC910284F385E9
:10134000E02D0995E201640C751CD601ED91FC912C
:10135000C615D7055CF40088F189E02D870194015A
:10136000A501BE01C60109952196EFCF0688F78930
:10137000E02DC601DF91CF911F910F91FF90EF906B
:10138000DF90CF90BF90AF909F908F907F906F90A5
:101390005F904F9009940E9430200F931F93CF933A
:1013A000DF931F92CDB7DEB7182F80E18983AE019E
:1013B0004F5F5F4F69ED8BE493E00E94D7138BE49E
:1013C00093E00E945111E0916803F09169039081CC
:1013D00080917F0389238083612F8BE493E00E94B7
:1013E000E110E0916803F0916903908180917E03A0
:1013F000892B808380918003811107C01EBC00006F
:101400000DB407FEFDCF1EB541C08130E1F48091DF
:10141000760387FD3AC008E010E08BE493E00E9479
:101420000F10110FE0916A03F0916B03908180918E
:101430007403892309F01F5F8BE493E00E9404107A
:10144000015059F723C080917A0387FD1AC0E091BB
:101450007203F091730390818091770389238083D5
:10146000E0916E03F0916F031082E0916C03F091B4
:101470006D038081E0916E03F0916F032FEF208365
:1014800002C080E090E0182F01C010E08BE493E0F0
:101490000E94E60F812F0F90DF91CF911F910F9146
:1014A0000895AF92BF92CF92DF92EF92FF920F9387
:1014B0001F93CF93DF93EC01E62E8A01F22E0E9458
:1014C00048118FA987FD06C0EB8DFC8D90818AA9FC
:1014D00089238083ED8DFE8D90818CA98923808363
:1014E0006E2DCE010E94E110ED8DFE8D90818BA9B5
:1014F000892B8083C12CD12CAF2CB12CCA14DB04D6
:10150000E4F48DA97801823059F488A9882341F048
:10151000F801619171917F01CE010E941A1008C0FB
:10152000FFEFEF1AFF0AF8016491CE010E94E1106B
:10153000FFEFCF1ADF0A8701E1CF8FA987FD06C031
:10154000EB8DFC8D908189A9892B80838DA98111D8
:101550000CC0DF91CF911F910F91FF90EF90DF9022
:10156000CF90BF90AF900C943316DF91CF911F9125
:101570000F91FF90EF90DF90CF90BF90AF900895C4
:1015800090E0FC01E055FE4F2491FC01EC53F94F33
:101590003491FC01EE51F94FE491EE2309F43CC083
:1015A000222339F1233091F038F42130A9F0223090
:1015B00001F584B58F7D12C0273091F02830A1F05D
:1015C0002430B9F4809180008F7D03C08091800029
:1015D0008F77809380000DC084B58F7784BD09C05C
:1015E0008091B0008F7703C08091B0008F7D809391
:1015F000B000F0E0EE0FFF1FE852F94FA591B49153
:101600009FB7F894611104C08C913095382302C0C3
:10161000EC913E2B3C939FBF0895CF93DF9390E0D6
:10162000FC01EC53F94F2491FC01EE51F94F8491E8
:10163000882361F190E0880F991FFC01EA55FE4F65
:10164000C591D491FC01E852F94FA591B491611173
:1016500009C09FB7F8948881209582238883EC91F4
:101660002E230BC0623061F49FB7F8948881322F2B
:10167000309583238883EC912E2B2C939FBF06C03B
:101680008FB7F894E8812E2B28838FBFDF91CF91FD
:1016900008956115710579F0FB0101900020E9F7CB
:1016A0003197AF01461B570BDC01ED91FC91028095
:1016B000F381E02D099480E090E008958F929F924D
:1016C000AF92BF92EF92FF920F931F93CF93DF934E
:1016D000CDB7DEB7A1970FB6F894DEBF0FBECDBF72
:1016E0007C01FA01CB0119A2223008F42AE08E0114
:1016F0000F5D1F4F822E912CA12CB12CBF01A50193
:1017000094010E94CB1FF901CA01015011096A30EE
:1017100014F4605D01C0695CD8016C93232B242B09
:10172000252B61F7B801C7010E94490BA1960FB69E
:10173000F894DEBF0FBECDBFDF91CF911F910F9107
:10174000FF90EF90BF90AF909F908F9008950F9370
:101750001F93CF93DF93EC012115310541F4E8810C
:10176000F9810190F081E02D642F099502C00E945B
:101770005E0B8C0167E871E0CE010E94490B800F7F
:10178000911FDF91CF911F910F9108950F931F9398
:10179000CF93DF93EC010E94490B8C0167E871E065
:1017A000CE010E94490B800F911FDF91CF911F91B5
:1017B0000F9108951F920F920FB60F9211242F933D
:1017C0003F934F935F936F937F938F939F93AF93C9
:1017D000BF93EF93FF938EEA92E00E941E07FF9162
:1017E000EF91BF91AF919F918F917F916F915F9199
:1017F0004F913F912F910F900FBE0F901F90189512
:101800001F920F920FB60F9211242F938F939F93D5
:10181000EF93FF93E091BE02F091BF028081E091CF
:10182000C402F091C50282FD12C090818091C7026E
:101830008F5F8F732091C802821751F0E091C70229
:10184000F0E0E255FD4F958F8093C70201C0808183
:10185000FF91EF919F918F912F910F900FBE0F905D
:101860001F9018958F929F92AF92BF92CF92DF9266
:10187000EF92FF920F931F93CF93DF93EC015B01E5
:101880004A016901E881F9810284F385E02D099517
:1018900095012C0D3D1D21503109E881F981048805
:1018A000F589E02D78018401A401B501CE010995E7
:1018B000E881F9810688F789E02DCE01DF91CF918B
:1018C0001F910F91FF90EF90DF90CF90BF90AF905E
:1018D0009F908F9009948F929F92AF92BF92CF92D8
:1018E000DF92EF92FF920F931F93CF93DF93EC0160
:1018F0005B014A0169017801E881F9810284F3857D
:10190000E02D0995C80CD91C860101501109E88108
:10191000F9810488F589E02D9501A401B501CE0176
:101920000995E881F9810688F789E02DCE01DF91DC
:10193000CF911F910F91FF90EF90DF90CF90BF90CC
:10194000AF909F908F9009940895EF92FF920F931C
:101950001F93DC01ED91FC9100A0F1A1E02D099510
:101960001F910F91FF90EF9008950F931F93DC014B
:10197000ED91FC91068CF78DE02D09951F910F914B
:1019800008950F931F93DC01ED91FC91048CF58D6C
:10199000E02D09951F910F910895DC01ED91FC91C7
:1019A0000084F185E02D09942F923F924F925F922F
:1019B0006F927F928F929F92AF92BF92CF92DF925F
:1019C000EF92FF920F931F93CF93DF9300D000D03D
:1019D00000D0CDB7DEB72C017E836D836A0159013B
:1019E000C801FC82EB824801841A950A97FE03C065
:1019F00091948194910835012D813E81621A730A78
:101A000077FE03C0719461947108681479045CF4E2
:101A10003A2D2B2D5C01832F922F3D812E81DE826A
:101A2000CD82C32ED22EAD81BE81AA16BB065CF438
:101A30003C2D2D2D6C01832F922F3D812E81BE8256
:101A4000AD82A32EB22E85012D813E81021B130B88
:101A50001C012C183D0837FE03C031942194310835
:101A6000780117FF03C03FEFE31AF30AF594E794F8
:101A7000C816D9062CF08FEF9FEF9A83898304C094
:101A8000A1E0B0E0BA83A9832D813E81A216B306FE
:101A900024F1D201ED91FC910484F585E02D2B8198
:101AA0003C816814790424F44D815E81B60103C041
:101AB000A6016D817E81C2010995E218F308F7FE47
:101AC00006C029813A81C20ED31EE00EF11E8D811F
:101AD0009E8101969E838D83D7CF26960FB6F8946C
:101AE000DEBF0FBECDBFDF91CF911F910F91FF9051
:101AF000EF90DF90CF90BF90AF909F908F907F90AE
:101B00006F905F904F903F902F9008958F929F928B
:101B1000AF92BF92CF92DF92EF92FF920F931F93FB
:101B2000CF93DF935C014B016A01E90177FD53C05C
:101B3000DC0118968D919C911997681779070CF024
:101B40004AC0209709F447C037FF07C0C901019672
:101B5000C80ED91ED195C195D109F501828593850D
:101B6000C816D906C4F5A6014C0F5D1F9A01215075
:101B7000310937FD30C0D7FE03C0EA01C12CD12C9A
:101B8000281739071CF0EC01CC19DD09D501ED91BE
:101B9000FC910284F385E02DC501099578018E0141
:101BA00021E030E0A601B401C5010E946211D50117
:101BB000ED91FC910688F789E02DC501DF91CF9169
:101BC0001F910F91FF90EF90DF90CF90BF90AF905B
:101BD0009F908F900994DF91CF911F910F91FF906B
:101BE000EF90DF90CF90BF90AF909F908F9008952F
:101BF0008F929F92AF92BF92CF92DF92EF92FF921D
:101C00000F931F93CF93DF935C016B014A01E901AE
:101C100057FD53C0DC011A968D919C911B97481774
:101C200059070CF04AC0209709F447C037FF07C096
:101C3000C9010196C80ED91ED195C195D109F501EA
:101C400080859185C816D906C4F5A6014C0F5D1F85
:101C50009A012150310937FD30C0D7FE03C0EA0197
:101C6000C12CD12C281739071CF0EC01CC19DD0947
:101C7000D501ED91FC910284F385E02DC501099514
:101C8000780101E010E09E01A401B601C5010E94A7
:101C90006211D501ED91FC910688F789E02DC5010F
:101CA000DF91CF911F910F91FF90EF90DF90CF9038
:101CB000BF90AF909F908F900994DF91CF911F912B
:101CC0000F91FF90EF90DF90CF90BF90AF909F90DB
:101CD0008F9008958F929F92AF92BF92CF92DF9292
:101CE000EF92FF920F931F93CF93DF934C016B0101
:101CF0005A01E901209709F46CC00115110509F496
:101D000068C037FF07C0C9010196C80ED91ED1951A
:101D1000C195D109F401A085B185CA16DB060CF086
:101D200058C017FF07C0C8010196A80EB91E11952B
:101D300001951109F40182859385A816B9060CF066
:101D400048C0F601EC0FFD1FAF014150510957FD8E
:101D500040C0B501600F711F9B012150310937FD53
:101D600038C0D7FE03C0EF01C12CD12CB7FE03C091
:101D70008B01A12CB12C4A175B071CF0ED01CC198B
:101D8000DD09281739071CF08C010A191B09D40139
:101D9000ED91FC910284F385E02DC40109959E012B
:101DA000A501B601C4010E946211D401ED91FC911C
:101DB0000688F789E02DC401DF91CF911F910F9123
:101DC000FF90EF90DF90CF90BF90AF909F908F905B
:101DD0000994DF91CF911F910F91FF90EF90DF90C9
:101DE000CF90BF90AF909F908F900895EF92FF9209
:101DF0000F931F93CF93DF9377FD34C0DC011896C8
:101E0000ED91FC9119976E177F0764F52115310547
:101E100049F137FF07C0F90131964E0F5F1F319529
:101E200021953109DC011A96ED91FC911B974E1713
:101E30005F07C4F4EA01C20FD31FDE011197B7FD9B
:101E400011C057FF03C09E0140E050E0AE17BF072E
:101E50001CF09F01241B350B7801890121E030E043
:101E60000E946211DF91CF911F910F91FF90EF902F
:101E70000895EF92FF920F931F93CF93DF9357FD37
:101E800033C0DC011A96ED91FC911B974E175F074A
:101E90005CF52115310541F137FF07C0F901319695
:101EA0006E0F7F1F319521953109DC011896ED9158
:101EB000FC9119976E177F07BCF4EB01C20FD31F7B
:101EC000DE011197B7FD10C077FF03C09E0160E0EF
:101ED00070E0AE17BF071CF09F01261B370B78017F
:101EE00001E010E00E946211DF91CF911F910F91EC
:101EF000FF90EF9008958F929F92AF92BF92CF92F2
:101F0000DF92EF92FF920F931F93CF93DF934701DE
:101F10002115310509F44DC00115110509F449C019
:101F200037FF07C0F90131966E0F7F1F319521955C
:101F30003109DC011896AD90BC9019976A157B05A4
:101F4000C4F517FF07C0F80131964E0F5F1F1195BA
:101F500001951109DC011A96ED91FC911B974E1722
:101F60005F073CF56B01C20ED31EE6012197D7FD3A
:101F700020C07A01E00EF11ED7011197B7FD19C0FC
:101F800077FF03C0960160E070E057FF03C0870150
:101F900040E050E0CA15DB051CF09501261B370B0D
:101FA000AE17BF071CF08F01041B150B74010E94B4
:101FB0006211DF91CF911F910F91FF90EF90DF9011
:101FC000CF90BF90AF909F908F900895FC0187A90C
:101FD00087FD06C0A38DB48D9C9181A9892B8C931C
:101FE00085A9811102C00C9433160895FC01A5A1A6
:101FF000B6A19C9182A589238C93A5A1B6A19C91A1
:1020000081A5892B8C930895DC019396ED91FC9129
:102010009497908198968C91892380830895DC0110
:102020009396ED91FC919497908197968C91892B42
:1020300080830895FF920F931F93CF93DF93EC015A
:102040008B018DA9811109C01EBD0DB407FEFDCF06
:102050000EBD0DB407FEFDCF2CC08130C9F490E158
:10206000F92EE9A1FAA1908117FF03C08DA1892B58
:1020700002C08EA189238083CE010E940F10CE0161
:102080000E940410000F111FFA94F110EACF11C042
:10209000EF8DF8A11083CE010E94F60FEF8DF8A10D
:1020A0000083CE01DF91CF911F910F91FF900C948F
:1020B000F60FDF91CF911F910F91FF900895AF928E
:1020C000BF92CF92DF92EF92FF920F931F93CF9325
:1020D000DF93EC0177FD38C088859985681779070B
:1020E0009CF557FD31C08A859B854817590764F5D3
:1020F00069017A015B01E881F9810284F385E02DB1
:10210000CE010995E881F98102A4F3A5E02D01E053
:1021100010E021E030E0A701B501CE010995B6013C
:10212000CE010E941A10E881F9810688F789E02D16
:10213000CE01DF91CF911F910F91FF90EF90DF9033
:10214000CF90BF90AF900994DF91CF911F910F91E5
:10215000FF90EF90DF90CF90BF90AF900895EF92F7
:10216000FF920F931F93CF93DF93EC0177FD22C073
:102170008885998568177907ECF457FD1BC08A8517
:102180009B8548175907B4F47901E881F98102A4C5
:10219000F3A5E02D01E010E021E030E0CE0109954B
:1021A000B701CE01DF91CF911F910F91FF90EF907A
:1021B0000C941A10DF91CF911F910F91FF90EF9027
:1021C00008950F931F93CF93DF93EC01162F8DA9E2
:1021D000811105C06EBD0DB407FEFDCF22C0813058
:1021E000B1F408E0E9A1FAA1908117FF03C08DA125
:1021F000892B02C08EA189238083CE010E940F10FB
:10220000110FCE010E940410015061F70AC0EF8D3A
:10221000F8A16083CE01DF91CF911F910F910C94B3
:10222000F60FDF91CF911F910F910895CF93DF9318
:10223000EC01ED8DFE8D90818CA989238083CE01E8
:102240000E94E110ED8DFE8D90818BA9892B8083FA
:10225000DF91CF9108951F93CF93DF93EC01162F59
:10226000E881F9810284F385E02D0995112311F0AD
:102270006DAD01C06EADCE010E941611E881F981ED
:102280000688F789E02DCE01DF91CF911F91099447
:10229000FC0185A9811104C091A182A19CBD8DBDC5
:1022A0000895CF93DF93EC010E9448118FA987FD19
:1022B00006C0EB8DFC8D90818AA989238083DF91F4
:1022C000CF9108958F929F92AF92BF92CF92DF925B
:1022D000EF92FF920F931F93CF93DF93EC0149018D
:1022E000BE2CAF2CE881F98102A4F3A5E02D09955D
:1022F0009401D8010E940C2061157105810591059A
:1023000009F476C02DA921110FC06150710981090E
:10231000910908F46DC0AEBC0DB407FEFDCFBEBC84
:102320000DB407FEFDCFF1CF2130A9F56B017C0183
:102330000A2D18E0E9A1FAA1908107FF03C08DA141
:10234000892B02C08EA189238083CE010E940F10A9
:10235000CE010E940410000F115061F70B2D18E000
:10236000E9A1FAA1908107FF03C08DA1892B02C0CA
:102370008EA189238083CE010E940F10CE010E947E
:102380000410000F115061F781E0C81AD108E1086C
:10239000F10871F62DC0FE1017C0EF8DF8A1F08284
:1023A0006B017C01CC0CDD1CEE1CFF1CC114D104A4
:1023B000E104F104E9F0CE010E94F60F21E0C21A17
:1023C000D108E108F108F2CF6B017C01EF8DF8A193
:1023D000A082CE010E94F60FEF8DF8A1B082CE014F
:1023E0000E94F60F81E0C81AD108E108F10871F7E0
:1023F000DF91CF911F910F91FF90EF90DF90CF90E1
:10240000BF90AF909F908F9008952F923F924F92E0
:102410005F926F927F928F929F92AF92BF92CF9274
:10242000DF92EF92FF920F931F93CF93DF93CDB77D
:10243000DEB72A970FB6F894DEBF0FBECDBF5C01A2
:102440007E836D835A874987370181E090E07C0164
:10245000E41AF50ACA01919581959109AC01440FDE
:10246000551F5C834B83C80101969A8389831B01A6
:102470002C0189849A84CC24C394D12C922F9170FE
:102480009F8322702887C601019729853A85821784
:1024900093070CF078C0F7FC0CC0215031093A8743
:1024A00029874B815C814E5F5F4F5C834B83E40ED9
:1024B000F51EC601880F991F0196E80EF91E898541
:1024C0009A858C159D0594F19F819923B1F02985FA
:1024D0003A85220F331F49815A81240F351F83010A
:1024E0004D815E8189859A85481B590BB5016C0D1C
:1024F0007D1D8BE493E00E94F60E98859923B1F040
:1025000029853A85220F331F49815A81240F351FAF
:1025100083014D815E8189859A85481B590BB501E0
:102520006C197D098BE493E00E94F60E29853A85AB
:102530002815390551F42FEFC21AD20A31E0231AB7
:10254000310842E0440E511C9ECF3F81332351F0AD
:1025500083019201A101B501680D791D8BE493E01F
:102560000E94F60E4885411103C089849A84E3CF06
:10257000B5016819790983019201A1018BE493E007
:102580000E94F60EF2CF2A960FB6F894DEBF0FBE69
:10259000CDBFDF91CF911F910F91FF90EF90DF9012
:1025A000CF90BF90AF909F908F907F906F905F90F3
:1025B0004F903F902F9008952F923F924F925F92AD
:1025C0006F927F928F929F92AF92BF92CF92DF9243
:1025D000EF92FF920F931F93CF93DF93EC015B0178
:1025E0004A01390118012701760189019A01AB01DD
:1025F000BC018BE493E00E94FC0882019101A301DD
:10260000B4018BE493E00E94FC0885019E01A201C5
:10261000B1018BE493E00E94FC08DF91CF911F9100
:102620000F91FF90EF90DF90CF90BF90AF909F9071
:102630008F907F906F905F904F903F902F90089574
:102640002F923F924F925F926F927F928F929F92C2
:10265000AF92BF92CF92DF92EF92FF920F931F93B0
:10266000CF93DF936C015B01EA0181E090E04C01C4
:10267000841A950A66247724641A750A660C771CF6
:10268000E12CF12C822F8470582E822F8270482EDC
:10269000822F8870382E2170222EEC16FD060CF049
:1026A00073C097FC06C0219782E0680E711C860CEF
:1026B000971C8FEFE81AF80AC701880F991F019637
:1026C000880E991E5520B1F09801AE014A0D5B1D90
:1026D000B6016E0D7F1D8BE493E00E94AF10980150
:1026E000A5014E0D5F1DBE016C0D7D1D8BE493E0B9
:1026F0000E94AF104420B1F09801A5014C1B5D0B66
:10270000B6016E0D7F1D8BE493E00E94AF1098011F
:10271000A5014E195F09BE016C0D7D1D8BE493E090
:102720000E94AF103320B1F09801A5014E0D5F1D3E
:10273000B6016C1B7D0B8BE493E00E94AF109801F7
:10274000AE014A0D5B1DB6016E197F098BE493E063
:102750000E94AF10222009F4A0CF9801A5014E19C4
:102760005F09B6016C1B7D0B8BE493E00E94AF10F8
:102770009801A5014C1B5D0BB6016E197F098BE416
:1027800093E00E94AF1089CFDF91CF911F910F91FD
:10279000FF90EF90DF90CF90BF90AF909F908F9081
:1027A0007F906F905F904F903F902F900895FF9291
:1027B0000F931F93CF93DF93EC01F62E8A010E94B3
:1027C00048118FA987FD06C0EB8DFC8D90818AA9E9
:1027D00089238083ED8DFE8D90818CA98923808350
:1027E0006F2DCE010E94E110ED8DFE8D90818BA9A1
:1027F000892B80838DA9F801823029F06081CE0178
:102800000E94E11008C088A98823C1F3608171810A
:10281000CE010E941A108FA987FD06C0EB8DFC8D9A
:10282000908189A9892B80838DA9811107C0DF91AF
:10283000CF911F910F91FF900C943316DF91CF91A0
:102840001F910F91FF9008950F931F93CF93DF93E4
:102850008C01C0E0D0E0F801EC0FFD1F649166230D
:1028600041F08EEA92E00E944007892B11F02196F8
:10287000F2CFCE01DF91CF911F910F910895CF93A9
:10288000DF93482F50E060E070E020E18EEA92E0B4
:102890000E945E0BEC0167E871E08EEA92E00E9414
:1028A000490B8C0F9D1FDF91CF910895AF92BF927E
:1028B000CF92DF92EF92FF920F931F93CF93DF930C
:1028C000EC015B016A01215031097901E60EF71E26
:1028D00001501109040F151F809106019091070105
:1028E0006817790739F48091040190910501E81681
:1028F000F906A1F06AE2CE010E941611B501CE01DF
:102900000E941A10B701CE010E941A10B09207015E
:10291000A0920601F0920501E0920401809102016B
:1029200090910301C816D90639F480910001909165
:10293000010108171907A1F06BE2CE010E941611E0
:10294000B601CE010E941A10B801CE010E941A10E1
:10295000D0920301C0920201109301010093000183
:102960006CE2CE01DF91CF911F910F91FF90EF901C
:10297000DF90CF90BF90AF900C941611611102C000
:1029800060E201C061E220E040E050E00C94510AB6
:10299000CF93DF931F92CDB7DEB7FC016370668BD8
:1029A000623041F0633079F0613011F088E403C0A7
:1029B00088E20AC088E8898380EF90E09187808769
:1029C00080E491E008C088EE898380E491E09187FB
:1029D000808780EF90E093878287AE014F5F5F4FE3
:1029E00066E3CF010E94D7130F90DF91CF91089536
:1029F000CF92DF92EF92FF920F931F93CF93DF93CB
:102A0000EC016A017B01452B462B472B31F4C12C8D
:102A100042E1D42E4AE7E42EF12C8FA987FD07C0AE
:102A200061E00E940D0B61E08FA90E94C00A61E085
:102A300088AD0E940D0B61E088AD0E94C00A8DA98F
:102A4000811152C040E052E16AE770E090E0C416A4
:102A5000D506E606F70640F47695679557954795AF
:102A60009F5F9630A1F797E081E08927982F906AC1
:102A7000969599A381708AA31BA21CA21DA21EA2D7
:102A80001FB7F89480918F03811127C0ECEEF6E018
:102A90008491EEECF6E09491E82FF0E0EE0FFF1F4A
:102AA000EA55FE4FA591B491EC91E92321F461E040
:102AB0008AE00E94C00A61E08AE00E940D0B8CB59A
:102AC00080618CBD8CB580648CBD61E08DE00E941E
:102AD0000D0B61E08BE00E940D0B80918F038F5FE7
:102AE00080938F031FBF4BC08130B9F461E08AA58A
:102AF0000E940D0B60E08AA50E94C00A61E08CA5CF
:102B00000E940D0B60E08CA50E94C00A8BA587FD7A
:102B100036C060E00E940D0B32C002EE16E0F12CD0
:102B2000F8018491E82FF0E0EE0FFF1FE852F94F13
:102B3000859194912F8D38A12817390741F461E0D0
:102B40008F2D0E940D0B60E08F2D0E94C00AF39420
:102B50000F5F1F4FF4E1FF12E3CF61E08EA50E94EB
:102B60000D0B61E08EA50E94C00A8FA587FD07C0EE
:102B700061E00E940D0B61E08FA50E94C00A8EA942
:102B800087FD2AC061E00E940D0B61E08EA90E94C2
:102B9000C00A2FEF81EE94E0215080409040E1F791
:102BA00000C0000060E08EA90E94C00AEFEFF1EEC5
:102BB00024E0E150F0402040E1F700C0000061E077
:102BC0008EA90E94C00A8FEF93ECE9E081509040FB
:102BD000E040E1F700C000008EA987FF10C020E0B0
:102BE00040E050E061E0CE010E94510AFFEF22E593
:102BF00087E0F15020408040E1F700C00000E6EFA0
:102C0000F6E0CF01019664916623E1F08F010E5F3B
:102C10001F4FFC01F490FF2DFF77EF2E2F2FA801FF
:102C2000CE010E94510AF801EE0DF11DF7FEE9CF29
:102C30002FEF82E597E0215080409040E1F700C0FF
:102C40000000DFCF80EF90E09987888780E491E0F3
:102C50009B878A87DF91CF911F910F91FF90EF9013
:102C6000DF90CF90089508952F923F924F925F92F8
:102C70006F927F928F929F92AF92BF92CF92DF928C
:102C8000EF92FF920F931F93CF93DF93CDB7DEB7F1
:102C9000EB970FB6F894DEBF0FBECDBF7894E091EE
:102CA000BE02F091BF0282E08083E091BA02F0910F
:102CB000BB021082E091BC02F091BD028FEC8083D8
:102CC0001092C602E091C202F091C30286E08083B6
:102CD000E091C002F091C102808180618083E09127
:102CE000C002F091C102808188608083E091C002BF
:102CF000F091C102808180688083E091C002F091F0
:102D0000C10280818F7D808363E472E08EEA92E06D
:102D10000E94C60B40E050E0BA018BE493E00E94B1
:102D2000F8148AE00E94CD09898361E572E08EEA99
:102D300092E00E94490B89810E943F148BE00E941F
:102D4000CD09898368E672E08EEA92E00E94490B21
:102D500089810E943F148CE00E94CD09898368E735
:102D600072E08EEA92E00E94490B89810E943F1432
:102D70008DE00E94CD09898369E872E08EEA92E0D5
:102D80000E94490B89810E943F148FE00E94CD0967
:102D900089836AE972E08EEA92E00E94490B898198
:102DA0000E943F148FE39CE90197F1F700C00000F7
:102DB0008CE891E00E94241460E070E08BE493E0E2
:102DC0000E94690960E078EF8BE493E00E94690952
:102DD00060EE77E08BE493E00E9469096FE170E0B8
:102DE0008BE493E00E94690960E070E08BE493E07B
:102DF0000E9469092AE030E040E050E0BA018EEA22
:102E000092E00E94A70B9FEFA9E6B8E19150A04085
:102E1000B040E1F700C0000082E791E00E94241476
:102E20000E94E203AB01BC012AE030E08EEA92E0AE
:102E30000E94A70B2FEF3BE742E921503040404072
:102E4000E1F700C0000088E591E00E942414809022
:102E5000530390905403A0905503B090560360E044
:102E600070E08BE493E00E946909650151E0C51AA6
:102E7000D1081A82198269817A8168157905A4F4CA
:102E8000EE24EA9407E0F02E86019B0140E050E03A
:102E900060E070E08BE493E00E94FC0889819A81F5
:102EA00006969A838983E7CFD4011197BA83A983C1
:102EB000612C712C6A147B049CF4EE24EA9417E0D4
:102EC000F12E830129813A8140E050E060E070E01A
:102ED0008BE493E00E94FC08B6E06B0E711CEACF15
:102EE00060E070E08BE493E00E946909612C712C32
:102EF000681479041CF0612C712C12C0EE24EA9441
:102F0000B7E0FB2E8601930140E050E069817A81B1
:102F10008BE493E00E94FC0826E0620E711CE8CF6F
:102F20006A147B049CF4EE24EA94A7E0FA2E830151
:102F300020E030E040E050E069817A818BE493E06A
:102F40000E94FC0836E0630E711CEACF60E070E07E
:102F50008BE493E00E946909612C712C6814790458
:102F60001CF0612C712C12C0EE24EA94F7E0FF2EC5
:102F700000E010E09301A60160E070E08BE493E0D4
:102F80000E94FC0846E0640E711CE8CF6A147B04C2
:102F900094F4EE24EA94E7E0FE2E830129813A813D
:102FA000A60160E070E08BE493E00E94FC0856E02C
:102FB000650E711CEBCF60E070E08BE493E00E9443
:102FC0006909612C712C681479041CF0812C912CF6
:102FD00012C0EE24EA9477E0F72E00E010E09301AF
:102FE000A60169817A818BE493E00E94FC0866E087
:102FF000660E711CE8CF8A149B0494F4EE24EA94C4
:1030000067E0F62E840120E030E0A60169817A8134
:103010008BE493E00E94FC0876E0870E911CEBCFD6
:103020002AE030E040E050E0BA018EEA92E00E94EF
:10303000A70B8FEF99E6A8E181509040A040E1F7FF
:1030400000C000008EE391E00E942414C09053035E
:10305000D0905403E0905503F090560360E070E088
:103060008BE493E00E9469091A82198229813A81CE
:103070002E153F051CF01A82198212C000E018EFCD
:10308000960149815A8160E070E08BE493E00E94F0
:10309000F80D49815A814B5F5F4F5A834983E6CFD0
:1030A00069817A816C157D057CF40FE110E0970150
:1030B00040E050E08BE493E00E94860D89819A8184
:1030C00005969A838983ECCF2AE030E040E050E017
:1030D000BA018EEA92E00E94A70B9FEFA9E6B8E141
:1030E0009150A040B040E1F700C0000084E291E0C0
:1030F0000E942414C0905303D0905403D7FE03C001
:103100002FEFC21AD20AD594C794A0905503B0905D
:103110005603B7FE03C03FEFA31AB30AB594A794B2
:1031200060E070E08BE493E00E94690980915503B0
:1031300090915603809053039090540388159905FD
:103140000CF44C0142E050E05A83498369817A8152
:1031500068157905E4F4CB0177FD0196959587957F
:10316000A501481B590BB601681B790B30EEE32E05
:1031700037E0F32E09811A8198018BE493E00E94D5
:103180009D0889819A8106969A838983DFCF2AE0F8
:1031900030E040E050E0BA018EEA92E00E94A70BD6
:1031A0009FEFA9E6B8E19150A040B040E1F700C020
:1031B00000008AE091E00E942414C0905303D09054
:1031C0005403D7FE03C02FEFC21AD20AD594C79476
:1031D00031E0C31AD108809155039091560397FDB1
:1031E0000196959587955C0141E0A41AB10860E0CD
:1031F00070E08BE493E00E946909809155039091FF
:10320000560360915303709154037A836983861740
:10321000970714F49A83898389819A81181619066D
:1032200044F5959587953501681A790A4601881AFB
:10323000990AA0EEEA2EFF24FA9409811A819801D6
:10324000A301B4018BE493E00E946A0EBFE1EB2E70
:10325000B8EFFB2E09811A819801A301B4018BE418
:1032600093E00E949D08A981BA811697BA83A98329
:10327000D3CF2AE030E040E050E0BA018EEA92E09D
:103280000E94A70BBFEF29E638E1B1502040304043
:10329000E1F700C0000080EF90E00E942414A090AD
:1032A0005303B0905403809055039090560360E010
:1032B00070E08BE493E00E9469094AE050E05A8391
:1032C000498369817A816A157B059CF5EAE0CE2EF7
:1032D000D12CC814D9043CF58BE493E00E94511121
:1032E000A6014A5051090FE118EF25E130E069814C
:1032F0007A818BE493E00E94F60E7FE1E72E78EF6F
:10330000F72E00E010E023E04AE050E0B6018981AA
:103310009A810E9405128BE493E00E94E60F74E10B
:10332000C70ED11CD6CF89819A8144969A8389830E
:10333000C8CF2AE030E040E050E0BA018EEA92E0E7
:103340000E94A70B86ED90E00E9424148091530305
:1033500090915403DC011A96B887AF83809155038E
:10336000909156039C01265F3F4F3C832B83198A23
:10337000188A4F81588568897989641775070CF018
:10338000CFC0E12CF12C665F7F4F7B876A878889ED
:1033900099890A979D878C87AB81BC81EA16FB06C9
:1033A0000CF0B8C08BE493E00E9451112FEF3FEF77
:1033B000A701465F5F4F688979898BE493E00E949B
:1033C000AF102FEF3FEFA7014A5051096889798963
:1033D0008BE493E00E94AF102FEF3FEFA7016A85C7
:1033E0007B858BE493E00E94AF102FEF3FEFA701A6
:1033F0006C857D858BE493E00E94AF10C12CD12CAD
:1034000021E030E03A8329830AE010E05CEE252ECB
:1034100033243A9467EF462E55245A944FEFC41A3A
:10342000D40A69817A816E5F7F4F7A836983460E01
:10343000571E688879886C0C7D1C2FEF3FEF570171
:10344000A00EB11EA501B3018BE493E00E94AF1062
:10345000888899888C189D082FEF3FEFA501B4014B
:103460008BE493E00E94AF102FEF3FEF5701A01ABB
:10347000B10AA501B3018BE493E00E94AF102FEFD6
:103480003FEFA501B4018BE493E00E94AF10560119
:10349000AE0CBF1C2FEF3FEFA50188889988800EE6
:1034A000911EB4018BE493E00E94AF102FEF3FEF29
:1034B000A501A888B988A01AB10AB5018BE493E0E8
:1034C0000E94AF1037016C187D082FEF3FEFA3016A
:1034D000B4018BE493E00E94AF102FEF3FEFA30104
:1034E000B5018BE493E00E94AF10C016D10654F4EE
:1034F00057FC94CF0150110932E0230E311C420CCD
:10350000531C8CCF8BE493E00E94E60F74E1E70E2E
:10351000F11C42CF888999894496998B888B29CF51
:103520002AE030E040E050E0BA018EEA92E00E94EA
:10353000A70B9FEFA9E6B8E19150A040B040E1F79A
:1035400000C000008CEB90E00E94241440905303D4
:103550005090540357FE03C02FEF421A520A55945D
:103560004794320131E0631A7108C0905503D0903E
:103570005603D7FE03C04FEFC41AD40AD594C7949C
:10358000B601615071097A83698360E070E08BE471
:1035900093E00E946909130189819A818615970534
:1035A0000CF41C0189809A80A12CB12C4C185D0868
:1035B000A214B3046CF59A2D987F8A2D8C7FA8E015
:1035C0008A9F60011124D92AC501992723E0959586
:1035D00087952A95E1F7C82AD92A8401040D151D7B
:1035E00049815A81440D551D7401940169817A8184
:1035F000C3010E94DC12B5E0AB0EB11C29813A81F7
:10360000255031093A83298335E0830E911CD0CFB0
:103610002AE030E040E050E0BA018EEA92E00E94F9
:10362000A70B4FEF59E668E1415050406040E1F789
:1036300000C0000082EA90E00E942414009153032D
:103640001091540317FF02C00F5F1F4F1595079588
:10365000C80101979B878A87A0915503B0915603B3
:10366000BA83A983B7FF03C01196BA83A9832981BE
:103670003A81359527953C832B83590131E0A31A74
:10368000B10860E070E08BE493E00E9469094A852C
:103690005B855A834983A416B50614F4BA82A982BD
:1036A000B50189819A81681B790B78876F83A80E91
:1036B000B91E8981880F982F990F990F890F8DA7AF
:1036C0001A8ED8012B813C81A21BB30BBCA7ABA7E0
:1036D00049815A814B3051050CF4C3C15DA56A8DF7
:1036E000560F5987852F8C7F28E0829FD0011124A7
:1036F000BEA3ADA3852F90E013E0959587951A950D
:10370000E1F7A82BB92BBC8FAB8F4BA55CA54A0D5D
:103710005B1D5F8B4E8B6F8178858BA59CA5680F99
:10372000791F798F688FAF81B885AA16BB0654F0D0
:103730007A0145011B01BC83AB832A853B853BAFE6
:103740002AAF0CC0EA84FB848F8098842E883F883F
:10375000BC82AB82488D598D5BAF4AAF8BE493E05E
:103760000E9451116B817C818616970661F58AADA6
:103770009BAD281639066CF09AAD8BADAAADBBADEA
:10378000A215B30514F4922D832D2AAC3BAC9AAF4D
:103790008BAFE214F30444F02AAD3BAD2E153F0588
:1037A00014F4FBAEEAAE71012AAD3BAD2E193F0910
:1037B0002F5F3F4F0B8D1C8DA401B7018BE493E06D
:1037C0000E94390F27C1C1014AAD5BAD841B950B27
:1037D00095016B817C81261B370BD701A41BB50B90
:1037E000BAA3A9A3A401461B570B5D874C87B70159
:1037F000621973097CA36BA3D401AA19BB09BE8FFC
:10380000AD8F8A149B0431F0A501415051095D8BA5
:103810004C8B02C09D8A8C8ACB80DC80188A198AE6
:103820001A8A1B8A412C512C320149A15AA1052E1A
:10383000000C660B770B4FA358A769A77AA7A901BD
:10384000330F660B770B4EA75FA768AB79AB2C8560
:103850003D85032E000C440B550B2AAB3BAB4CAB08
:103860005DABAC01990F660B770B4EAB5FAB68AFEE
:1038700079AF6C897D896C157D050CF44AC0C30154
:10388000B2012EA53FA548A959A90E94ED1FEAAC97
:10389000FBACE20EF31E688979898A899B892AA983
:1038A0003BA94CA95DA90E94ED1F8AAD9BAD280FD5
:1038B000391F4EA95FA968AD79AD440E551E661E2D
:1038C000771E88899989AA89BB894FA158A569A5BE
:1038D0007AA5840F951FA61FB71F888B998BAA8B7B
:1038E000BB8B2E153F052CF49E2D8F2D7901292F92
:1038F000382F2E193F092F5F3F4F0B8D1C8DA601CE
:10390000B7018BE493E00E94390F5FEFC51AD50A27
:10391000B0CF6BA17CA1072E000C880B990B688B94
:10392000798B8A8B9B8B2BA13CA1D601AA19BB0951
:103930000E940C202B013C01D6018B819C81A81B8D
:10394000B90B29A13AA10E940C206B837C838D8343
:103950009E832D8D3E8D032E000C440B550B2D8F19
:103960003E8F4F8F58A34C855D85052E000C660B4E
:10397000770B4C875D876E877F878C149D040CF4D2
:1039800049C0C301B2012D8D3E8D4F8D58A10E94BB
:10399000ED1F7101E20EF31E6B817C818D819E8192
:1039A0002C853D854E855F850E94ED1F6AAD7BAD00
:1039B000260F371F88899989AA89BB89480E591E05
:1039C0006A1E7B1E4B815C816D817E818FA198A5D3
:1039D000A9A5BAA5480F591F6A1F7B1F4B835C839B
:1039E0006D837E832E153F052CF49E2D8F2D79013E
:1039F000292F382F2E193F092F5F3F4F0B8D1C8D1C
:103A0000A601B7018BE493E00E94390F9FEFC91A1A
:103A1000D90AB3CF8BE493E00E94E60F8985887FB3
:103A2000CDA0DEA0D82A75010E891F899501488D89
:103A3000598D6F8178858A859B850E94DC12A981CA
:103A4000BA811597BA83A983BA8DB253BA8F2F81E1
:103A500038852B5F3F4F38872F8335E0A31AB10895
:103A600037CE2AE030E040E050E0BA018EEA92E042
:103A70000E94A70B4FEF59E668E14150504060406B
:103A8000E1F700C0000088E890E00E9424148091D3
:103A900053039091540397FD019695958795DC010A
:103AA0001197B887AF83809155039091560397FD86
:103AB0000196959587959C01215031093C832B8374
:103AC00060E070E08BE493E00E9469098091550307
:103AD00090915603E0905303F09054038E159F0588
:103AE0000CF47C01C12CD12CCE14DF040CF09BC053
:103AF000DA82C982D7FE05C0A6014F5F5F4F5A83A5
:103B0000498369817A81759567957A8369837C2D6C
:103B1000787F372EC601D7FC0796E3E09595879509
:103B2000EA95E1F78B809C80A981BA818A1A9B0A69
:103B3000AF80B884AA1ABB0ABB87AA878A179B07DB
:103B400014F49B878A878BE493E00E9451118A8545
:103B50009B85880F991F3601681A790A4A845B840D
:103B60004A0C5B1C00E0132D9301A401B2018BE40D
:103B700093E00E94390F9601280D391D3A8329835D
:103B8000A901415051099301B2018BE493E00E94D5
:103B9000390F4A855B85840E951E9301A401B501FA
:103BA0008BE493E00E94F60EAC0CBD1CB501615095
:103BB00071099301A4018BE493E00E94F60E21E0C9
:103BC0004A855B85B401C2010E9420136A857B850A
:103BD000A61AB70A71E0A71AB10822E04A855B85E8
:103BE000B401C5010E94201389809A808A859B8533
:103BF000881A990A91E0891A910824E04A855B8520
:103C0000B401C5010E94201328E04A855B85B401F8
:103C1000C2010E9420138BE493E00E94E60FA6E00D
:103C2000CA0ED11C61CF2AE030E040E050E0BA017A
:103C30008EEA92E00E94A70BBFEF29E638E1B1506F
:103C400020403040E1F700C000008EE690E00E9486
:103C50002414809153039091540397FD01969595F8
:103C60008795AC01415051095A834983809155038E
:103C70009091560397FD019695958795BC016150EB
:103C8000710978876F8360E070E08BE493E00E94B5
:103C900069098091550390915603C0905303D090C9
:103CA00054038C159D050CF46C0175E1C716D10405
:103CB0000CF457C08C2D8C7F98E0899F4001112413
:103CC000C60133E0959587953A95E1F7D601B5950C
:103CD000A795BC83AB83AF80B884AA1ABB0A29809E
:103CE0003A802A1A3B0A8A179B0714F49C838B8319
:103CF0008BE493E00E9451118B819C81880F991F66
:103D00003601681A790A4B805C80420C531C74019E
:103D100086019301A501B2018BE493E00E947B0F21
:103D200031E0631A71084B815C81A40EB51EC60197
:103D3000820D931D841B950B830121E0B501019732
:103D40000E94051222E04B815C81B501C2010E94F4
:103D500005128BE493E00E94E60F56E0C51AD108E5
:103D6000A4CF2AE030E040E050E0BA018EEA92E0D1
:103D70000E94A70B6FEF79E688E1615070408040A8
:103D8000E1F700C0000088E690E00E94241467E894
:103D900071E08EEA92E00E94490B198269818BE4FE
:103DA00093E00E94C8140E94E2039FEFA3EDB0E3EA
:103DB0009150A040B040E1F700C0000029812F5F82
:103DC0002983243059F780E090E0EB960FB6F89401
:103DD000DEBF0FBECDBFDF91CF911F910F91FF903E
:103DE000EF90DF90CF90BF90AF909F908F907F909B
:103DF0006F905F904F903F902F900895EEEAF2E021
:103E00001382128288EE93E0A0E0B0E08483958371
:103E1000A683B7838CE091E09183808385EC90E06A
:103E20009587848784EC90E09787868780EC90E084
:103E3000918B808B81EC90E0938B828B82EC90E075
:103E4000958B848B86EC90E0978B868B118E128EEF
:103E5000138E148EABE4B3E013961C921E9212974D
:103E600020EF30E015963C932E93149780E491E078
:103E700017969C938E93169719963C932E931897AA
:103E80001B969C938E931A9756961C9256971D9646
:103E90001C921E921C971F961C921E921E9781E0E8
:103EA00055968C93559754968C9354972FEF3FEFDC
:103EB00053963C932E93529751963C932E93509742
:103EC00057968C93579758961C9258975A961C92CF
:103ED0001E925997D5961C92D5978FEFD6968C93B4
:103EE000D6978AE0D7968C93D79789E0D8968C930B
:103EF000D897DA961C921E92D997DC961C921E9245
:103F0000DB97DD961C92DD97DE961C92DE97109271
:103F10008A0310928B0310928C0310928D038EE80B
:103F200093E090969C938E935F97EBEEF6E0E4918E
:103F3000F0E0EE0FFF1FE852F94F859194915E96E5
:103F40009C938E935D97EDECF6E08491D3968C93E1
:103F5000D397ECEEF6E0E491F0E0EE0FFF1FE852AD
:103F6000F94F259134915C963C932E935B97EEEC40
:103F7000F6E0E491D196EC93D197E095D296EC934C
:103F8000D297E82FE095D496EC93D4978EE491E005
:103F90008D939C930895A1E21A2EAA1BBB1BFD01D1
:103FA0000DC0AA1FBB1FEE1FFF1FA217B307E40718
:103FB000F50720F0A21BB30BE40BF50B661F771F70
:103FC000881F991F1A9469F7609570958095909550
:103FD0009B01AC01BD01CF010895052E97FB1EF496
:103FE00000940E94042057FD07D00E94CB1F07FCBD
:103FF00003D04EF40C9404205095409530952195B3
:104000003F4F4F4F5F4F0895909580957095619504
:104010007F4F8F4F9F4F08950E941420332312F437
:104020008A1B9B0B0C942520A29FB001B39FC0015B
:10403000A39F700D811D1124911DB29F700D811DD4
:104040001124911D08950E941420B7FF0895821B2A
:10405000930B0895EE0FFF1F0590F491E02D099446
:0E40600081E090E0F8940C943520F894FFCFA6
:10406E00FFFFFFFFFFFFFFFF000000004007B70646
:10407E00E1068D071207F006040700000000C507D1
:10408E00B706DF03DE035F105111AF107B0FF60E84
:10409E00390FD40CE60FB0072B11860DF80D6A0EF2
:1040AE006909FC089D08CB09CB0900000000C50773
:1040BE00B706DF03DE035F105111AF107B0FF60E54
:1040CE00390FD40CE60FC814BE14860DF80D6A0E07
:1040DE006909FC089D08F814561448656C6C6F202D
:1040EE00576F726C6421000D0A0047726F6F70007B
:1040FE004920696D706C6F726520746865652C005F
:10410E006D7920666F6F6E74696E67207475726C50
:10411E00696E6764726F6D65732E00416E64206800
:10412E006F6F7074696F75736C79206472616E67EE
:10413E006C65206D650077697468206372696E6BBB
:10414E006C792062696E646C65777572646C6573E8
:10415E002C004F7220492077696C6C2072656E645A
:10416E00207468656500696E2074686520676F62EB
:10417E0062657277617274730077697468206D7905
:10418E0020626C7572676C656372756E6368656FBD
:10419E006E2C00736565206966204920646F6E275A
:1041AE00742100494C4939333431205465737421DC
:1041BE0000446973706C617920506F776572204D81
:1041CE006F64653A203078004D414443544C204D85
:1041DE006F64653A20307800506978656C20466FC0
:1041EE00726D61743A20307800496D6167652046C2
:1041FE006F726D61743A2030780053656C6620449E
:0E420E006961676E6F737469633A20307800DF
:00000001FF
