:100000000C9435000C945D000C945D000C945D0024
:100010000C945D000C945D000C945D000C945D00EC
:100020000C945D000C945D000C945D000C945D00DC
:100030000C945D000C945D000C945D000C945D00CC
:100040000C945D000C945D000C9495010C946F0170
:100050000C945D000C945D000C945D000C945D00AC
:100060000C945D000C945D00C70111241FBECFEFFE
:10007000D8E0DEBFCDBF11E0A0E0B1E0E2E5F5E001
:1000800002C005900D92AC31B107D9F721E0ACE187
:10009000B1E001C01D92A93BB207E1F710E0C5E352
:1000A000D0E004C02197FE010E949C02C433D10716
:1000B000C9F70E94F4010C94A7020C940000CF929F
:1000C000DF92EF92FF920F931F93CF93DF936C0118
:1000D0007A018B01C0E0D0E0CE15DF0581F0D801B8
:1000E0006D918D01D601ED91FC910190F081E02D93
:1000F000C6010995892B11F02196EECF7E01C7012B
:10010000DF91CF911F910F91FF90EF90DF90CF90F3
:100110000895FC01538D448D252F30E0842F90E00D
:10012000821B930B541710F0CF96089501970895F2
:10013000FC01918D828D981761F0828DDF01A80FEF
:10014000B11D5D968C91928D9F5F9F73928F90E011
:1001500008958FEF9FEF0895FC01918D828D981780
:1001600031F0828DE80FF11D858D90E008958FEFBD
:100170009FEF0895FC01918D228D892F90E0805C86
:100180009F4F821B91098F7399270895FC01848DDD
:10019000DF01A80FB11DA35ABF4F2C91848D90E0B1
:1001A00001968F739927848FA689B7892C93A0898C
:1001B000B1898C91837080648C93938D848D981316
:1001C00006C00288F389E02D80818F7D80830895A9
:1001D000EF92FF920F931F93CF93DF93EC0181E097
:1001E000888F9B8D8C8D981305C0E889F989808153
:1001F00085FD26C0F62E0B8D10E00F5F1F4F0F738D
:100200001127E02E8C8DE8120CC00FB607FCFACF38
:10021000E889F989808185FFF5CFCE010E94C6006B
:10022000F1CF8B8DFE01E80FF11DE35AFF4FF082F5
:100230009FB7F8940B8FEA89FB89808180620AC09E
:100240009FB7F894EE89FF896083E889F9898081F6
:100250008370806480839FBF81E090E0DF91CF91C5
:100260001F910F91FF90EF900895CF93DF93EC01D2
:10027000888D8823C9F0EA89FB89808185FD05C0C6
:10028000A889B9898C9186FD0FC00FB607FCF5CF00
:10029000808185FFF2CFA889B9898C9185FFEDCF48
:1002A000CE010E94C600E7CFDF91CF910895089557
:1002B00080E090E00895009769F0FC010190002033
:1002C000E9F73197AF01481B590BBC018CE191E074
:1002D0000C945F0080E090E008950E94A2021F92BB
:1002E0000F920FB60F9211242F933F934F935F936A
:1002F0006F937F938F939F93AF93BF93EF93FF93EE
:100300008CE191E00E94C600FF91EF91BF91AF9107
:100310009F918F917F916F915F914F913F912F911D
:100320000F900FBE0F901F9018951F920F920FB64F
:100330000F9211242F938F939F93EF93FF93E0914C
:100340002C01F0912D018081E0913201F091330177
:1003500082FD12C09081809135018F5F8F73209153
:100360003601821751F0E0913501F0E0E45EFE4F76
:10037000958F8093350101C08081FF91EF919F910E
:100380008F912F910F900FBE0F901F901895ECE159
:10039000F1E01382128288EE93E0A0E0B0E0848363
:1003A0009583A683B78384E091E09183808385EC75
:1003B00090E09587848784EC90E09787868780EC2F
:1003C00090E0918B808B81EC90E0938B828B82EC20
:1003D00090E0958B848B86EC90E0978B868B118ECA
:1003E000128E138E148E0895CF93DF93CDB7DEB7A0
:1003F000A1970FB6F894DEBF0FBECDBF259AE0914E
:100400002C01F0912D0182E08083E0912801F09190
:1004100029011082E0912A01F0912B018FEC808359
:1004200010923401E0913001F091310186E0808337
:10043000E0912E01F0912F01808180618083E09115
:100440002E01F0912F01808188608083E0912E0140
:10045000F0912F01808180688083E0912E01F091DE
:100460002F0180818F7D808382E191E00E945B017A
:1004700088E191E00E945B018CE191E00E943501EE
:1004800020E08AE0882E912CA12CB12C90E2E92E5C
:10049000FF24F394F20E30E040E050E019A28E0108
:1004A0000F5D1F4FCA01B901A50194010E947A0294
:1004B000605DF80162938F012115310541055105F9
:1004C00089F7CF010E945B0188E191E00E945B0106
:1004D0008CE191E00E94350185B18E2585B9FFEF51
:1004E00023ED80E3F15020408040E1F700C00000A0
:1004F0002F2DCECFA1E21A2EAA1BBB1BFD010DC0D2
:10050000AA1FBB1FEE1FFF1FA217B307E407F507C3
:1005100020F0A21BB30BE40BF50B661F771F881F9F
:10052000991F1A9469F760957095809590959B0135
:10053000AC01BD01CF010895EE0FFF1F0590F491AE
:10054000E02D099481E090E0F8940C94A702F894CF
:02055000FFCFDB
:1005520000000000E8005F0089003501BA00980041
:0C056200AC0068616C6C6F000D0A0000BA
:00000001FF
